:020000040800F2
:1000000008090020C1010008CB1B00087519000871
:10001000C91B000801040008992000080000000026
:10002000000000000000000000000000AB1D000800
:100030008D04000800000000A91D0008AD1D000887
:10004000DB010008DB010008DB010008DB01000820
:10005000DB010008DB010008DB010008DB01000810
:100060008F040008DB010008DB010008DB01000849
:10007000DB010008DB010008DB010008DB010008F0
:10008000DB010008DB010008CD020008DB010008ED
:10009000DB010008DB010008DB010008DB010008D0
:1000A000DB010008DB010008DB010008DB010008C0
:1000B000DB010008DB010008DB010008DB010008B0
:1000C000DB010008DB010008DB010008DB010008A0
:1000D000DB0100088D200008DB010008DB010008BF
:1000E000DB010008DB010008DB010008DB01000880
:1000F000DB010008DB010008DB010008DB01000870
:10010000DB010008DB010008DB010008DB0100085F
:10011000DB010008DB010008DB010008DB0100084F
:10012000DB010008DB010008DB010008DB0100083F
:10013000DB010008DB010008DB010008DB0100082F
:10014000DB010008DB010008DB010008DB0100081F
:1001500005040008DB010008DB010008DB010008E2
:10016000DB010008DB010008DB010008DB010008FF
:10017000DB010008DB010008DB01000800000000D3
:10018000DB010008DB010008DB010008DB010008DF
:10019000DB010008DB010008DB010008DB010008CF
:1001A0000000000000000000DB010008DFF80CD0B8
:1001B00000F07AF800480047D9200008080900201C
:1001C0000648804706480047FEE7FEE7FEE7FEE7F1
:1001D000FEE7FEE7FEE7FEE7FEE7FEE7511E00084A
:1001E000AD0100082DE9F05F0546002092469B46D0
:1001F00088460646814640241BE02846414647463D
:10020000224600F041F853465A46C01A914110D395
:1002100011461846224600F028F82D1A67EB01080F
:100220004F4622460120002100F01FF817EB00097D
:100230004E41201EA4F10104DFDC484631462A4627
:100240004346BDE8F09FD2B201E000F8012B491E01
:10025000FBD270470022F6E710B513460A46044663
:100260001946FFF7F0FF204610BD202A04DB203A94
:1002700000FA02F1002070479140C2F1200320FAF9
:1002800003F3194390407047202A04DB203A21FAF7
:1002900002F00021704721FA02F3D040C2F120029F
:1002A0009140084319467047064C074D06E0E06848
:1002B00040F0010394E8070098471034AC42F6D3AD
:1002C000FFF778FF2421000844210008014800F0CE
:1002D000B1B9000018000020464910B54A6822F460
:1002E00040324A604A6843681A434A6001684A6873
:1002F00022F480724A6001684A68036942EA032274
:100300004A6001684A6822F040724A6001684A689F
:1003100083681A434A6001688A6822F400628A602E
:1003200001688A68C3681A438A60816A6FF07062E4
:10033000D14201688A6822F070628A6001688A6826
:100340000CD0836A1A438A6001688A6822F040529E
:100350008A6001688A68C36A1A4301E022F0405249
:100360008A6001688A6822F002028A6001688A68ED
:10037000037E42EA43028A6090F820100029016857
:100380004A680FD042F400624A6001684A6822F469
:1003900060424A6001684A68174C436A04EB433381
:1003A0001A4301E022F400624A600168CA6A22F43A
:1003B0007002CA620168CA6A838B104C04EB035353
:1003C0001A43CA6201688A6822F400728A6001686E
:1003D0008A6890F8303042EA43228A6001688A686D
:1003E00022F480628A6001688A68406942EA80205B
:1003F000886010BD0023014000E0FFFF0000F0FF17
:10040000FEE70000014800F0F1BA0000A80000205B
:1004100001681823CAB2103AB2FBF3F2054B6FF32E
:100420000901032A9B5CC36500D9091D8165084643
:10043000704700000221000810B5014600208B69BA
:100440008A6A4FF0C07453B1B3F5005F15D072B132
:10045000012A0CD0022A0AD0032A09D104E01AB1D9
:10046000012A06D0022A03D1C96AC90100D5012098
:1004700010BDC96AA142FAD010BD002AF7D0012AE6
:10048000F2D0022AF3D0032AF3D010BD7047042023
:1004900000F0EEBB72B6FEE77047000078B50024AE
:1004A000009490F83C20012A19D0012280F83C20C9
:1004B0000A6807230568092A13D9EE680A3A02EB8D
:1004C000420293409E43EE600B788A680A3B03EB3E
:1004D00043039A400368DD682A43DA6010E0022093
:1004E00078BD2E6902EB420293409E432E610B7849
:1004F0008A6803EB43039A4003681D692A431A6123
:100500004A681F23072A13D205686E6B521E02EB3E
:10051000820293409E436E630A8893B20A79521E08
:1005200002EB820293400268556B2B43536327E032
:1005300005680D2A12D22E6BD21F02EB8202934065
:100540009E432E630B790A88DB1F92B203EB830371
:100550009A4003681D6B2A431A6311E0EE6A0D3A54
:1005600002EB820293409E43EE620B790A880D3BB8
:1005700092B203EB83039A400368DD6A2A43DA628E
:100580001B4B0568194A9D420AD10D68122D07D1EF
:10059000556825F400055560556845F4800555609B
:1005A00005689D421DD1134D0B68AB4201D0112B44
:1005B00017D1536823F480035360536843F4000356
:1005C00053600968A9420CD10B490C4A0968B1FB78
:1005D000F2F101EB8101490000E0491E0091002980
:1005E000FBD180F83C40002078BD00000023014092
:1005F00000200140120000101400002040420F00B3
:1006000010B500680649884204D1064800F00FF88A
:1006100005490860BDE81040024800F005B9000037
:1006200000200140180000200400002070470068EE
:10063000C06C704770B5044600680668456816F0DF
:10064000020F05F020012AD049B3216CC90603D45A
:10065000216C41F400712164816811F0405F17D171
:10066000217EA9B9C16A11F4700F02D081684905D1
:100670000ED4416821F020014160206C20F480708C
:100680002064206CC00403D4206C40F0010020647E
:100690002046FFF7B5FF21686FF01200086016F0E2
:1006A000040F05F0800132D089B3206CC00603D45A
:1006B000206C40F4005020642068816811F4401FD1
:1006C0001ED1816B11F4401F02D08168490517D4F7
:1006D0004168490514D4816811F0405F10D1217E32
:1006E00071B9416821F080014160206C20F4805094
:1006F0002064206CC00503D4206C40F0010020640D
:100700002046FFF7C9FE21686FF00C00086016F064
:10071000010F05F040010FD071B120680068C007DB
:100720000AD0206C40F480302064204600F043F86A
:1007300021686FF00100086016F0200F05F080615D
:100740000ED000290CD0606C40F00200606420687C
:100750006FF0200505602046FFF768FF2068056000
:1007600070BD70B504004FF0000503D0206C00266A
:1007700010B107E0012070BD204600F01DF866644E
:1007800084F83C60206CC00610D4206C20F48850A3
:1007900040F0020020642046FFF79EFD6664206C56
:1007A00020F0020040F00100206400E0012584F800
:1007B0003C60284670BD704710B586B004461421D1
:1007C0006846FFF747FD15492068884224D1144840
:1007D0000021026842F480720260006800F48070B8
:1007E00005900F481438026842F001020260006868
:1007F00000F001000590402000900320CDE90101A8
:100800006946084800F040FA00221146122000F024
:10081000C9FB122000F0B8FB06B010BD002001405B
:10082000443802400000024018B50021009190F8C1
:100830003C20012A07D0012280F83C2002689368FE
:10084000DB0702D011E0022018BD936843F00103DA
:100850009360314A314B1268B2FBF3F202EB420271
:1008600000E0521E0092002AFBD102689368DB0769
:1008700047D0036C40F20164A34343F480730364E4
:1008800053685B0505D5036C23F4005343F4805390
:100890000364036CDB0404D5436C23F00603436458
:1008A00000E0416480F83C101D4B6FF022011160A4
:1008B00001684A681B4C22434A6059680068CA06AE
:1008C000194906D0884224D1816811F0405F13D0C5
:1008D0001FE08842F8D0154A904203D1D1F8042392
:1008E000D206F1D0124A904213D1D1F8041301F08C
:1008F0001F011029E8D30CE0816841F0804181603C
:1009000007E0016C41F010010164416C41F001010C
:100910004164002018BD00001400002040420F0078
:10092000002301402000000400200140002101407C
:10093000002201402DE9F0410446876D00F0C4FA21
:10094000064694F835000025022806D08020606510
:1009500084F834500120BDE8F0812068016821F05E
:10096000160101602068416921F080014161206C1D
:1009700008B9A06C20B12068016821F0080101606D
:100980002068016821F0010101600CE000F09CFA90
:10099000801B052807D920206065032084F83500D6
:1009A00084F83450D7E720680068C007EED194F887
:1009B0005C103F208840B860012084F8350084F83E
:1009C00034500020C7E790F83510022903D0802169
:1009D000416501207047052180F8351000680168E5
:1009E00021F0010101600020704700002DE9F8436B
:1009F00004464FF00009CDF8009063484FF41651BB
:100A0000A56D0068B0FBF1F72E6894F85C10082023
:100A100000FA01F131420FD021680A6852070BD564
:100A20000A6822F004020A6094F85C108840A8600A
:100A3000606D40F00100606594F85C104FF00108B3
:100A400008FA01F0304208D021684969090604D546
:100A5000A860606D40F00200606594F85C100420AE
:100A60008840304208D021680968890704D5A86009
:100A7000606D40F00400606594F85C1010208840C0
:100A8000304218D021680968090714D5A860206889
:100A90000168490304D50068000308D5A16C07E08C
:100AA0000168C90503D4016821F008010160216CC7
:100AB00009B12046884794F85C10202088403042D5
:100AC00031D021680968C9062DD5A86094F8350091
:100AD00005282068016806D0490347D5006800034F
:100AE0001DD4616C1CE021F0160101602068416991
:100AF00021F080014161206C08B9A06C20B1206810
:100B0000016821F00801016094F85C103F208840E2
:100B1000A86084F8358084F83490216D1FE0E16B83
:100B200009B120468847606D00282BD0606DC00752
:100B300014D0052084F835002068016821F00101F7
:100B400001600098401C0090B84203D820680068FB
:100B5000C007F6D184F8358084F83490E16C002920
:100B600010D001B02046BDE8F04308470168C90530
:100B7000D5D4016821F01001016084F8358084F833
:100B80003490CCE7BDE8F883140000202DE9F04153
:100B9000044600F099F906465CB1022084F835005D
:100BA000002584F834502068016821F001010160BB
:100BB0000DE00120BDE8F08100F086F9801B0528DA
:100BC00005D920206065032084F83500F2E720680D
:100BD0000068C007F0D12268116820480140D4E9BC
:100BE00001031843D4E903363343184363691843B8
:100BF000A3691843E3691843236A18430843616AE9
:100C0000042903D1D4E90B13194308431060206869
:100C10004069666A20F0070130460E430127042828
:100C20000CD1A06A0643E06A40B12046FFF704FCFD
:100C300020B14020606584F83570BAE720684661CD
:100C40002046FFF7E5FB94F85C203F21914081604E
:100C5000656584F835700020ACE700003F8010F037
:100C6000042802D1014901200870704700000020CB
:100C7000044910B50A68024202D00860FFF7F0FF8D
:100C800010BD0000143C01402DE9F84FDFF8F8A139
:100C90000022012403254FF00F090AF1040BAAF1E9
:100CA000040E00BF0B6804FA02F63340B34270D161
:100CB0000F7907F00307012F01D0022F16D18768A3
:100CC0004FEA420805FA08FC27EA0C07D1F80CC0E5
:100CD0000CFA08FC4CEA070CC0F808C04768B74398
:100CE0000E79C6F3001696403E4346600E79F643F1
:100CF000B6070AD0C7684FEA420C05FA0CF6B743AC
:100D00008E6806FA0CF63E43C6600E7906F00306BE
:100D1000022E10D1D60800EB8608D8F820605707BD
:100D20004FEAD76C09FA0CF7BE430F6907FA0CF7C4
:100D30003743C8F8207006684FEA420C05FA0CF7F2
:100D4000BE430F7907F0030707FA0CF73743076034
:100D50004E6816F4403F1CD04C4E376847F480472D
:100D60003760366822F0030706F480460096484E46
:100D700007EB060CDCF8086897073F0F09FA07F83D
:100D800026EA0806DFF80C81404503D14FF0000841
:100D900041E072E0DFF80081404502D14FF00108E8
:100DA00039E0DFF8F880404502D14FF0020832E028
:100DB000DFF8EC80404502D14FF003082BE0DFF86C
:100DC000E480404502D14FF0040824E0DFF8D880E9
:100DD000404502D14FF005081DE0DFF8D0804045C6
:100DE00002D14FF0060816E0DFF8C480404502D17A
:100DF0004FF007080FE0DFF8BC80404502D14FF00C
:100E0000080808E0DFF8B080404502D14FF009083B
:100E100001E04FF00A0808FA07F848EA0608CCF89B
:100E20000888DAF800605746D1F804C09E435FEAAC
:100E3000CC2C00D51E433E60DBF800605F46D1F845
:100E400004C09E435FEA8C2C00D51E433E60DEF852
:100E500000607746D1F804C09E435FEA8C3C00D521
:100E60001E433E60084F083F3E68D1F804C09E43D1
:100E70005FEACC3C00D51E433E60521C102AFFF4B2
:100E800011AFBDE8F88F0000083C01404438024033
:100E9000003001400000024000040240000802400F
:100EA000000C0240001002400014024000180240F2
:100EB000001C024000200240002402400AB181616F
:100EC00070470904FBE70000014880687047000094
:100ED0000800002002488168027811448160704750
:100EE000080000200B4810B5016841F40071016052
:100EF000016841F480610160016841F48071016022
:100F0000032000F06FF8002000F006F800F024F84D
:100F1000002010BD003C024070B50D4D04464FF45A
:100F20007A712878B1FBF0F00A490968B1FBF0F05A
:100F300000F044FB48B9102C07D200222146501E75
:100F400000F030F800206C6070BD012070BD000022
:100F500008000020140000200A4808B5016841F488
:100F600080410160006800F4804000900548001F47
:100F7000016841F080510160006800F080500090ED
:100F800008BD000044380240002809DB00F01F02C1
:100F9000012191404009800000F1E020C0F80011DB
:100FA00070470000F0B40E4B1B680C46C3F30223DD
:100FB000C3F10705042D00D90425191D072901D205
:100FC000002300E0DB1E012606FA05F1491E214040
:100FD00099409E40761E16403143F0BC01F05DB84A
:100FE0000CED00E0064900F0070208684FF6FF0329
:100FF000184040EA0220034A10430860704700008E
:101000000CED00E00000FA052DE9F84317480168EF
:1010100041F0805101600068154F00F080500126BA
:1010200000903E64FFF750FF05464FF47A78114C6C
:1010300005E000BFFFF748FF401B40450DD8606842
:10104000C003F7D57E64FFF73FFF0546464607E03D
:10105000FFF73AFF401BB04202D90320BDE8F883F6
:1010600060688003F4D50020F8E7000040380240B3
:1010700000000E42007000402DE9F0470E460500CA
:1010800065D0DFF81481D8F80000F7B200F00F0047
:10109000B04207D288F80070D8F8000000F00F00C6
:1010A000B04254D128683D4C810712D5400703D582
:1010B000206840F4E05020602878000703D52068BD
:1010C00040F4604020602068A96820F0F0000843E8
:1010D00020602878C0072DD0304968680839012879
:1010E00012D0022813D0032811D0096889070029DB
:1010F0002DDA216821F0030101432160FFF7E4FEAE
:10110000814641F2883A0EE009688903EFE70968F1
:101110008901ECE7FFF7D8FEA0EB0901514502D9A0
:101120000320BDE8F0872068696800F00C00B0EB90
:10113000810FEFD1D8F80010404601F00F01B14205
:1011400007D90770006800F00F00B04201D00120FD
:10115000E7E72878400705D52068E96820F4E050E3
:10116000084320602878000706D52068296920F404
:10117000604040EAC100206000F038F82168084A69
:10118000C1F30311515CC840064908600648006875
:10119000FFF7C2FE0020C4E7003C024008380240CE
:1011A0000A210008140000200C0000200448054912
:1011B00000680968044AC1F38221515CC840704745
:1011C00014000020083802401A210008044805498C
:1011D00000680968044AC1F34231515CC840704755
:1011E00014000020083802401A210008154810B5E4
:1011F000006810F00C02144813D01449042A0FD0D0
:10120000082A0ED10F4C241F2268236802F03F02E7
:101210005B0207D52068C0F38810A0FB010106E03F
:10122000084610BD2168C1F38811A1FB000100230D
:10123000FEF7D8FF2168C1F30141491C4900B0FB0A
:10124000F1F010BD083802400024F400001BB70084
:101250002DE9F84F04006ED02078DFF84C93C007DA
:10126000A9F104054AD009F104000168C1F3810124
:10127000012908D00068C0F3810002280AD1D9F8FA
:101280000000400206D52868800337D56068002832
:10129000E1D033E06068B0F5803F10D0B0F5A02F0A
:1012A000286810D020F480302860286820F480203E
:1012B00028606068A8B1FFF707FE06460DE02868C1
:1012C00040F48030F4E740F480202860F7E700BF66
:1012D000FFF7FAFD801B642873D828688003F7D5D0
:1012E0000CE0FFF7F1FD064605E000BFFFF7ECFD5F
:1012F000801B6428F0D828688003F7D42078DFF8B2
:10130000AC8280074FF0000A3ED5A748001D016857
:1013100011F00C0F08D00068C0F3810002280BD137
:10132000D9F80000400207D42868800716D5E06885
:10133000012800D112E033E1E068B8B10120C8F81B
:101340000000FFF7C1FD064605E000BFFFF7BCFD4A
:10135000801B0228C0D828688007F7D52868216933
:1013600020F0F80040EAC10028600DE0C8F800A0B5
:10137000FFF7AAFD064604E0FFF7A6FD801B022842
:101380001FD828688007F7D42078000722D5864F19
:1013900087486169703771B101210160FFF794FDE1
:1013A000064604E0FFF790FD801B022809D8386844
:1013B0008007F7D50EE0C0F800A0FFF785FD0646D0
:1013C00005E082E0FFF780FD801B02287DD83868A9
:1013D0008007F7D42078400768D5DFF8CCB1002724
:1013E0000BF13C0BDBF80000C0000BD4DBF8001065
:1013F00041F08051CBF80010DBF80000012700F02D
:10140000805000906B4E3068C00510D4306840F4B6
:1014100080703060FFF758FD009005E0FFF754FD45
:101420000099401A022850D83068C005F6D55E4EA3
:10143000A0686C3601280FD00528306810D020F045
:1014400001003060306820F004003060A068B8B15E
:10145000FFF73AFD00900FE0306840F00100F4E73C
:1014600040F004003060F7E7FFF72EFD0099411AC5
:1014700041F28830814266D830688007F4D50EE0AA
:10148000FFF722FD009007E0FFF71EFD0099411ACB
:1014900041F28830814256D830688007F4D42FB1A9
:1014A000DBF8001021F08051CBF80010A069C8B320
:1014B0003D49091D0968C1F3810102294AD002286A
:1014C000504607D0C8F8600000E03CE0FFF7FCFCA5
:1014D00004463BE04746C8F86000FFF7F5FC0646C7
:1014E00005E000BFFFF7F0FC801B02282BD828681E
:1014F0008001F7D4D4E907010843A16A2E4A4908BC
:1015000002EB0141626A41EA8211084394F82C100F
:1015100040EA0161C9F8001001203866FFF7D4FCE9
:10152000044606E03EE000BFFFF7CEFC001B0228A9
:1015300009D828688001F7D534E000BFFFF7C4FC64
:10154000001B022802D90320BDE8F88F286880011B
:10155000F4D427E00128F7D0D9F80000E26900F4BC
:10156000800191421CD1226A00F03F01914217D1C3
:1015700047F6C071626A0140B1EB821F10D1A26AC6
:101580004FF0FF3300F4403103EB5202B1EB024F56
:1015900006D194F82C1000F07060B0EB016F01D010
:1015A0000120D1E70020CFE7043802400000474285
:1015B000800E4742007000400000FFFF10B5401E43
:1015C000B0F1807F01D3012010BD4FF0E0246061B5
:1015D0000F21601700F061FD0020A061072020614D
:1015E000002010BD70477047F8B5016804460868D0
:1015F000CA684B6910F00F0F4FF0000559D003F087
:10160000010602F49077374365D0C10705D0D105B4
:1016100003D5616C41F001016164410705D5D9072B
:1016200003D0616C41F002016164810705D5D907DF
:1016300003D0616C41F004016164010707D502F039
:101640002001314303D0616C41F008016164616C99
:1016500000293AD0800604D5900602D5204600F035
:101660002EFC20684069616CC0F38010090700D42B
:1016700060B3204600F0FCFB20684069400621D59D
:101680002068143050E8001F21F0400140E80012AB
:10169000002AF5D1E06BA8B16E490165E06BFFF758
:1016A00092F9002811D0E06B016D01B0BDE8F04067
:1016B000084783060FD593060DD52046BDE8F840B0
:1016C00000F0FDBB2046FFF78EFFF8BD2046FFF778
:1016D0008AFF6564F8BD266B2023012E7DD1C606E6
:1016E0007BD5D60679D508684868009048694FF0E0
:1016F0000206400641D5E16B086840680004000C12
:10170000E8D0A28D8242E5D9E085C869B0F5807F36
:101710002DD020680C3050E8001F21F4807140E883
:101720000012002AF5D12068143050E8001F21F083
:10173000010140E80012002AF5D12068143050E879
:10174000001F21F0400140E80012002AF5D184F882
:101750004230256320680C3050E8001F21F0100152
:1017600040E80012002AF5D1E06BFFF7E3F866636A
:10177000A08DE18D401A81B22AE0A08DE18D401A42
:1017800081B2E08D0028A5D00029A3D022680C32B8
:1017900052E8000F20F4907042E80007002FF5D1C6
:1017A0002068143050E8002F22F0010240E80027A2
:1017B000002FF5D184F84230256320680C3050E8C2
:1017C000002F22F0100240E80023002BF5D16663C1
:1017D0002046FFF707FFF8BDFFE705062BD51506E6
:1017E00029D594F841002128F5D1A068B0F5805F93
:1017F00001D12069B0B1206A411C216221680078C2
:101800004860E08C401E0004000CE084E3D12068B6
:10181000C16821F08001C1602068C16841F04001C9
:10182000C160D8E7206A0088C0F308004860206AD9
:10183000801C2062E5E74006CDD55006CBD5CA68AE
:10184000204622F04002CA6084F8413000F091F84E
:10185000C1E70000611E000870B5040004D094F8D0
:101860004100002510B106E0012070BD84F8405011
:10187000204600F023F8242084F841002068C16845
:1018800021F40051C160204600F07AFB2068016914
:1018900021F4904101612068416921F02A014161F0
:1018A0002068C16841F40051C1606564202084F85B
:1018B000410084F842006563002070BD70B586B0B9
:1018C000064614216846FEF7C5FC24493068884264
:1018D00042D123480025016841F0100101600068F1
:1018E00000F0100005901E481438016841F0020114
:1018F00001600068694600F002000590C020009079
:101900000220CDE90105032003900720049015482B
:10191000FFF7BAF9154C144820604FF00060C4E995
:1019200001054014C4E9035080106561C4E9065004
:101930004FF44030C4E908052046FFF727F908B105
:10194000FEF7A8FDF463002211462520A663FFF7E9
:1019500029FB2520FFF718FB06B070BD00100140E1
:10196000443802400004024088640240A80000207D
:1019700070477047FEE7000001490020087070477B
:1019800000000020054B4FF48041012803D00122C4
:101990001846FFF793BA0022FAE70000001402404D
:1019A00010B5002000F006F8BDE810400020FFF759
:1019B000E9BF0000054B4FF40061012803D001226C
:1019C0001846FFF77BBA0022FAE700000010024039
:1019D0007FB50024154800940194029412490394A1
:1019E00001604FF48031C0E90114012504610576DE
:1019F00080F820400E49C0E90A14C561C46080F82F
:101A000030404561FEF7ADFE08B1FEF743FD06200C
:101A1000CDE90005694602940448FEF73FFD002821
:101A200001D0FEF737FD7FBD0020014018000020E7
:101A30000100000F094808B5016841F48001016008
:101A40000068002200F48000009011464420FFF757
:101A5000A9FABDE808404420FFF796BA30380240A2
:101A60002DE9F04F87B014216846FEF7F3FB41489B
:101A70000026016841F002010160016801F00201E5
:101A80000591016841F001010160016801F0010167
:101A90000591016841F080010160016801F0800159
:101AA0000591016841F010010160016801F0100129
:101AB0000591016841F0200101600068DFF8B890ED
:101AC00000F020004FF4C1640590002221464846F2
:101AD000FFF7F4F9DFF8A4A04FF4006700223946BD
:101AE0005046FFF7EBF9DFF898B000228021584606
:101AF000FFF7E4F94FF48048002241462148FFF700
:101B0000DDF9009401240225694648460194CDE997
:101B10000245FFF7B9F8042000904FF48810CDE992
:101B2000010569464846FFF7AFF8CDE90074CDE9F5
:101B3000024669465046FFF7A7F88020CDE9000429
:101B400069465846CDE90245FFF79EF8CDE9008485
:101B5000CDE9024669460B48FFF796F80022114688
:101B60000820FFF71FFA0820FFF70EFA07B0BDE8BC
:101B7000F08F0000303802400004024000100240A4
:101B800000000240001402400D4810B50B490160EE
:101B90000C49416000214FF480628160C0E903126A
:101BA0000C22C0E90521C161FFF756FE002803D0D1
:101BB000BDE81040FEF76EBC10BD000000100140F3
:101BC00060000020A0860100FEE7FEE70148FEF766
:101BD0002BBE00001800002010B50021074C0A465B
:101BE000002004EBC1131A54401CC0B28028FAD361
:101BF000491CC9B20829F3D310BD00000801002018
:101C000010B5002000F096F8012000F09BF80120AC
:101C100000F0A8F8012000F09DF8AE2000F0AAF82E
:101C2000002000F0A7F8102000F0A4F8D52000F064
:101C3000A1F8802000F09EF8A82000F09BF83F203B
:101C400000F098F8D32000F095F8002000F092F80A
:101C5000402000F08FF8A12000F08CF8C82000F0A0
:101C600089F8DA2000F086F8122000F083F881204D
:101C700000F080F8CF2000F07DF8D92000F07AF84D
:101C8000F12000F077F8DB2000F074F8402000F03D
:101C900071F8A42000F06EF8A62000F06BF88D20FB
:101CA00000F068F8142000F065F8AF2000F062F84A
:101CB000FFF792FFBDE8104000F028B870B500248F
:101CC0000646802525FA04F0304000D0012000F0BF
:101CD00039F8012000F02EF8002000F02BF8641CE9
:101CE000E4B2082CEED370BD10B5891CCCB240F024
:101CF000B00000F03FF8102040EA141000F03AF86D
:101D000004F00F00BDE8104000F034B870B5084D85
:101D1000002400212046FFF7E7FF05EBC4108021D7
:101D200000F032F8641CE4B2082CF2D370BD00005D
:101D300008010020024608210148FFF7BFB8000053
:101D400000040240024680210148FFF7B7B80000B6
:101D50000000024002464FF400710148FFF7AEB8A0
:101D60000004024002464FF480610148FFF7A6B824
:101D70000004024010B504460020FFF7EBFF2046A8
:101D8000BDE81040FFF79ABF70B506460D4601202A
:101D9000FFF7E0FF002404E0305DFFF78FFF641CD5
:101DA000E4B2AC42F8D370BD70477047FFF792B809
:101DB00030B593B030216846FEF74CFA14210CA8D8
:101DC000FEF748FA20480025016841F08051016083
:101DD000006800F0805011901C48016841F44041B7
:101DE00001600068022400F440401190012000903E
:101DF000000401908001CDE9064006200890B4203F
:101E0000CDE9090404200B906846FFF721FA08B1D8
:101E100072B6FEE7FFF7F8F808B172B6FEE70CA954
:101E20000F2081E831004FF4A0500F904FF4805004
:101E3000109005210CA8FFF71FF9002801D072B6F9
:101E4000FEE713B030BD0000403802400070004093
:101E50000248016841F470010160704788ED00E0BC
:101E600010B5806B0021C185C184FFF7BCFB10BD9C
:101E700001680C3151E8002F22F4907241E80023F0
:101E8000002BF5D10168143151E8002F22F0010236
:101E900041E80023002BF5D1016B012909D101682C
:101EA0000C3151E8002F22F0100241E80023002BF2
:101EB000F5D1202180F8421000210163704708B558
:101EC00090F84210222901D0022008BD82684FF408
:101ED00080539A4201D1016921B1816A9A421BD093
:101EE0004AB10AE00268816A5268C2F308020A80B5
:101EF000816A891C08E0026972B10268526802F0C6
:101F00007F020A70816A491C8162C18D491E0904E1
:101F1000090CC18503D01BE002685268F1E7016833
:101F2000CA6822F02002CA600168CA6822F480727E
:101F3000CA6001684A6922F001024A61202180F8E2
:101F4000421000214163026B012A03D0FFF710FD0C
:101F5000002008BD016301680C3151E8002F22F018
:101F6000100241E80023002BF5D101680A68D2066F
:101F700002D50A6849680091818DFFF733FBE7E7D6
:101F800070B5044600680169E26821F440511143CC
:101F900001612169A068E26908436169114308434E
:101FA0002168CA6849F20C639A430243CA602068F8
:101FB0004169A26921F440711143416131492068AE
:101FC000884202D03049884202D1FFF7FFF801E091
:101FD000FFF7ECF8E2690023192164253226B2F5F7
:101FE000004F626828D0A0FB0101930F9200FEF71A
:101FF000F9F80146B0FBF5F06FF01802504301EB21
:10200000800006EB0010B0FBF5F000F0F002B1FB31
:10201000F5F002EB0012B1FBF5F06FF01803584336
:1020200001EB800006EB0010B0FBF5F000F00F00B4
:1020300021681044886070BDA0FB010192185B41CB
:10204000FEF7D0F80146B0FBF5F00201B1FBF5F068
:102050006FF01803584301EB800006EBC000B0FBA3
:10206000F5F000F0F80002EB4002B1FBF5F0584348
:1020700001EB800006EBC000B0FBF5F000F00700BC
:10208000D6E7000000100140001401400148FFF7AE
:10209000ABBA000060000020FEE70907090E002827
:1020A00004DB00F1E02080F80014704700F00F001E
:1020B00000F1E02080F8141D704702E008C8121FEC
:1020C00008C1002AFAD170477047002001E001C121
:1020D000121F002AFBD17047FEF704FFFFF768FECE
:1020E000FFF7BEFCFFF7A6FCFFF772FCFFF74CFD05
:1020F000FFF756FCFFF740FCFFF782FDFFF766FD98
:10210000FEE7000610160006101600000000000092
:102110000000010203040607080900000000010294
:102120000304000044210008000000201800000003
:10213000BA2000085C21000818000020F008000008
:10214000CA2000080000000000000000010000009C
:0C21500010000000000000000024F4005B
:04000005080001AD41
:00000001FF
