:020000040800F2
:1000000038090020C1010008711D0008A91A000864
:10001000011D000801040008412000080000000044
:10002000000000000000000000000000891F000820
:100030004904000800000000511F00088B1F000841
:10004000DB010008DB010008DB010008DB01000820
:10005000DB010008DB010008DB010008DB01000810
:100060004B040008DB010008DB010008DB0100088D
:10007000DB010008DB010008DB010008DB010008F0
:10008000DB010008DB010008CD020008DB010008ED
:1000900005040008DB010008DB010008DB010008A3
:1000A000DB010008DB010008DB010008DB010008C0
:1000B000DB010008DB010008DB010008DB010008B0
:1000C000DB010008DB010008DB010008DB010008A0
:1000D000DB010008DB010008DB010008DB01000890
:1000E000DB010008DB010008DB010008DB01000880
:1000F000DB010008DB010008DB010008DB01000870
:10010000DB010008DB010008DB010008DB0100085F
:10011000DB010008DB010008DB010008DB0100084F
:10012000DB010008DB010008DB010008DB0100083F
:10013000DB010008DB010008DB010008DB0100082F
:10014000DB010008DB010008DB010008DB0100081F
:10015000DB010008DB010008DB010008DB0100080F
:10016000DB010008DB010008DB010008DB010008FF
:10017000DB010008DB010008DB01000800000000D3
:10018000DB010008DB010008DB010008DB010008DF
:10019000DB010008DB010008DB010008DB010008CF
:1001A0000000000000000000DB010008DFF80CD0B8
:1001B00000F07AF800480047812000083809002044
:1001C0000648804706480047FEE7FEE7FEE7FEE7F1
:1001D000FEE7FEE7FEE7FEE7FEE7FEE73120000868
:1001E000AD0100082DE9F05F0546002092469B46D0
:1001F00088460646814640241BE02846414647463D
:10020000224600F041F853465A46C01A914110D395
:1002100011461846224600F028F82D1A67EB01080F
:100220004F4622460120002100F01FF817EB00097D
:100230004E41201EA4F10104DFDC484631462A4627
:100240004346BDE8F09FD2B201E000F8012B491E01
:10025000FBD270470022F6E710B513460A46044663
:100260001946FFF7F0FF204610BD202A04DB203A94
:1002700000FA02F1002070479140C2F1200320FAF9
:1002800003F3194390407047202A04DB203A21FAF7
:1002900002F00021704721FA02F3D040C2F120029F
:1002A0009140084319467047064C074D06E0E06848
:1002B00040F0010394E8070098471034AC42F6D3AD
:1002C000FFF778FFD4200008F4200008014800F070
:1002D00001BA000028000020464910B54A6822F4FF
:1002E00040324A604A6843681A434A6001684A6873
:1002F00022F480724A6001684A68036942EA032274
:100300004A6001684A6822F040724A6001684A689F
:1003100083681A434A6001688A6822F400628A602E
:1003200001688A68C3681A438A60816A6FF07062E4
:10033000D14201688A6822F070628A6001688A6826
:100340000CD0836A1A438A6001688A6822F040529E
:100350008A6001688A68C36A1A4301E022F0405249
:100360008A6001688A6822F002028A6001688A68ED
:10037000037E42EA43028A6090F820100029016857
:100380004A680FD042F400624A6001684A6822F469
:1003900060424A6001684A68174C436A04EB433381
:1003A0001A4301E022F400624A600168CA6A22F43A
:1003B0007002CA620168CA6A838B104C04EB035353
:1003C0001A43CA6201688A6822F400728A6001686E
:1003D0008A6890F8303042EA43228A6001688A686D
:1003E00022F480628A6001688A68406942EA80205B
:1003F000886010BD0023014000E0FFFF0000F0FF17
:10040000FEE70000014800F056BC0000700000202C
:1004100000B58BB000200121CDE9060108910090C4
:10042000019002900390059004906946054800F001
:1004300041FB044800F050FE0221024800F0CAFAD5
:100440000BB000BD700000207047042000F092BE89
:1004500072B6FEE7D0ED000AB7EE002AC0ED050A3D
:100460000A8852BA00EE102AB8EE400A80ED000A5F
:100470004A8870EE600A52BA12B201EE102AF8EE03
:10048000C11AC0ED011A8A8852BA01EE102AB8EEDC
:10049000411A80ED021A897901EE101A10EE901AB5
:1004A000B8EE411AB1F18B4F80ED031A90ED061AA8
:1004B00002DD71EE420A09E010EE901A11F16A5F56
:1004C00002D8D0ED060A03E071EE020AC0ED060A7A
:1004D0009FED0F1A00EE810AD0ED040A9FED0D1A70
:1004E00030EE600A80ED070AC0EE010A9FED0A0AAD
:1004F00020EE801ADFED090A21EE800A81EE202A23
:1005000080EE201A80ED082A80ED091A704700005D
:1005100000000046610BB64100003B43007060459F
:1005200090ED000A80ED040A9FED020A80ED060AB4
:1005300070470000000000007047000078B50024FC
:10054000009490F83C20012A19D0012280F83C2028
:100550000A6807230568092A13D9EE680A3A02EBEC
:10056000420293409E43EE600B788A680A3B03EB9D
:1005700043039A400368DD682A43DA6010E00220F2
:1005800078BD2E6902EB420293409E432E610B78A8
:100590008A6803EB43039A4003681D692A431A6182
:1005A0004A681F23072A13D205686E6B521E02EB9E
:1005B000820293409E436E630A8893B20A79521E68
:1005C00002EB820293400268556B2B43536327E092
:1005D00005680D2A12D22E6BD21F02EB82029340C5
:1005E0009E432E630B790A88DB1F92B203EB8303D1
:1005F0009A4003681D6B2A431A6311E0EE6A0D3AB4
:1006000002EB820293409E43EE620B790A880D3B17
:1006100092B203EB83039A400368DD6A2A43DA62ED
:100620001B4B0568194A9D420AD10D68122D07D14E
:10063000556825F400055560556845F480055560FA
:1006400005689D421DD1134D0B68AB4201D0112BA3
:1006500017D1536823F480035360536843F40003B5
:1006600053600968A9420CD10B490C4A0968B1FBD7
:10067000F2F101EB8101490000E0491E00910029DF
:10068000FBD180F83C40002078BD000000230140F1
:1006900000200140120000102400002040420F0002
:1006A00010B500680649884204D1064800F00FF8EA
:1006B00005490860BDE81040024800F005B9000097
:1006C000002001402800002008000020704700683A
:1006D000C06C704770B5044600680668456816F03F
:1006E000020F05F020012AD049B3216CC90603D4BA
:1006F000216C41F400712164816811F0405F17D1D1
:10070000217EA9B9C16A11F4700F02D08168490530
:100710000ED4416821F020014160206C20F48070EB
:100720002064206CC00403D4206C40F001002064DD
:100730002046FFF7B5FF21686FF01200086016F041
:10074000040F05F0800132D089B3206CC00603D4B9
:10075000206C40F4005020642068816811F4401F30
:100760001ED1816B11F4401F02D08168490517D456
:100770004168490514D4816811F0405F10D1217E91
:1007800071B9416821F080014160206C20F48050F3
:100790002064206CC00503D4206C40F0010020646C
:1007A0002046FFF7C9FE21686FF00C00086016F0C4
:1007B000010F05F040010FD071B120680068C0073B
:1007C0000AD0206C40F480302064204600F043F8CA
:1007D00021686FF00100086016F0200F05F08061BD
:1007E0000ED000290CD0606C40F0020060642068DC
:1007F0006FF0200505602046FFF768FF2068056060
:1008000070BD70B504004FF0000503D0206C0026C9
:1008100010B107E0012070BD204600F01DF86664AD
:1008200084F83C60206CC00610D4206C20F4885002
:1008300040F0020020642046FFF74EFD6664206C05
:1008400020F0020040F00100206400E0012584F85F
:100850003C60284670BD704710B586B00446142130
:100860006846FFF7F7FC15492068884224D11448F0
:100870000021026842F480720260006800F4807017
:1008800005900F481438026842F0010202600068C7
:1008900000F001000590402000900320CDE9010107
:1008A0006946084800F072FC00221146122000F050
:1008B000FBFD122000F0EAFD06B010BD0020014053
:1008C000443802400000024018B50021009190F821
:1008D0003C20012A07D0012280F83C20026893685E
:1008E000DB0702D011E0022018BD936843F001033A
:1008F0009360314A314B1268B2FBF3F202EB4202D1
:1009000000E0521E0092002AFBD102689368DB07C8
:1009100047D0036C40F20164A34343F48073036443
:1009200053685B0505D5036C23F4005343F48053EF
:100930000364036CDB0404D5436C23F006034364B7
:1009400000E0416480F83C101D4B6FF02201116003
:1009500001684A681B4C22434A6059680068CA060D
:10096000194906D0884224D1816811F0405F13D024
:100970001FE08842F8D0154A904203D1D1F80423F1
:10098000D206F1D0124A904213D1D1F8041301F0EB
:100990001F011029E8D30CE0816841F0804181609B
:1009A00007E0016C41F010010164416C41F001016C
:1009B0004164002018BD00002400002040420F00C8
:1009C00000230140200000040020014000210140DC
:1009D0000022014090F82020012A07D0022A05D0E9
:1009E000416A41F4802141620120704700684269F8
:1009F0000A43426100207047F0B590F82050046827
:100A0000A468012D05D0022D03D0416A41F4802154
:100A10004DE014F0406F01D1E50045D5C4F3016409
:100A20000125A5401D608D684FF4C0739DB1CE684F
:100A300035434E6845EAC605066803EB0417F551D1
:100A40004FF4C275076805EB04150E697E51097DE8
:100A5000012905D009E00E88CD6845EA4655EBE747
:100A600001684E5946F480764E511179D2F80550FE
:100A70004FF4C67641EA0521056806EB0416A95134
:100A80001178D2F801204FF4C47541EA02210268BE
:100A900005EB04155151006803EB0411425842F074
:100AA000010242500020F0BD416A41F40011416250
:100AB0000120F0BD10B590F82020012A07D0022AAD
:100AC00005D0416A41F480214162012010BD3B48BC
:100AD000D0F8002242F00102C0F80022D0F8002233
:100AE00022F47C52C0F80022D0F800224B6A42EA7D
:100AF0000322C0F800220A7D02F01F0301229A405F
:100B0000D0F81C329343C0F81C32CB69B3B9D0F88B
:100B10000C329343C0F80C328C894B6864F31F434A
:100B20004C6900EBC404C4F840320C890B6864F3D0
:100B30001F434C6900EBC404C4F84432CB69012B59
:100B400016D1D0F80C321343C0F80C320C884B6825
:100B500064F31F434C6900EBC404C4F840320C89B1
:100B6000CB6864F31F434C6900EBC404C4F84432FF
:100B70008B69002BD0F804320ED01343C0F8043236
:100B80000B69002BD0F8143208D01343C0F814328C
:100B9000096A012904D008E09343EFE79343F5E79E
:100BA000D0F81C121143C0F81C12D0F8001221F02A
:100BB0000101C0F80012002010BD000000640040D8
:100BC000704770B590F82040012C05D0022C03D05E
:100BD000416A41F4802128E0046809B32469A4072C
:100BE00020D04FF4D874056804EB01142D5915F08A
:100BF0000405956005682D591AD0ED085560056803
:100C00002C5904F00204D4604FF4DA74056804EB44
:100C100001142E5906F00F06082E0CD308250DE0FE
:100C2000E468DCE7416A41F400114162012070BDD3
:100C30006D0D1560E3E72D5905F00F051561056889
:100C40002D59C5F30725956105682C59240C54616D
:100C50004FF4DC72046802EB0112A4581C700468A3
:100C6000A458240A5C700468A458240C9C7004687E
:100C7000A258120EDA704FF4DE72046802EB011211
:100C8000A4581C710468A458240A5C710468A45810
:100C9000240C9C710468A258120EDA71006829B104
:100CA000016941F020010161002070BDC16841F07F
:100CB0002001C160F8E72DE9F05F054600680024D7
:100CC0004669D0F804908768D0F80CB0D0F810A02E
:100CD000D0F81880F10748D0F90714D001218160BD
:100CE000B80703D5284600F024FA0CE0780702D5AF
:100CF0004FF4006407E0380702D54FF4805402E057
:100D0000284600F015FAF80516D529684FF48070CA
:100D10008860B80503D5284600F00DFA0CE0780588
:100D200002D544F4005407E0380502D544F4804469
:100D300002E0284600F0FEF9F80316D529684FF4C2
:100D400080308860B80303D5284600F0F6F90CE03F
:100D5000780302D544F4004407E0380302D544F494
:100D6000803402E0284600F0E7F9300707D55FEA53
:100D7000CB6004D52968102044F40074C860700763
:100D80004FF0080707D55FEA0B7004D52868C760E5
:100D9000284600F057F9B00706D52868C0688007D4
:100DA00002D0284600F050F9700607D55FEACA6005
:100DB00004D52968102044F480640861B00607D582
:100DC0005FEA0A7004D528680761284600F080F9B8
:100DD000F00606D528680069800702D0284600F092
:100DE00078F9B00308D55FEAC96005D529681020F5
:100DF0004860284600F06EF9F00307D55FEA0970F5
:100E000004D528684760284600F098F9300446D594
:100E10005FEA497040D5F00504D55FEAC87001D09B
:100E200044F00104B00504D55FEA887001D544F0B0
:100E30000204700504D55FEA487001D544F004044B
:100E4000300529D518F0700F26D008F07000402822
:100E500015D006DC102809D020280AD0302816D159
:100E60000AE050280ED0602811D10EE044F00804AA
:100E70000DE044F010040AE044F0200407E044F0E0
:100E8000400404E044F0800401E044F480742868E5
:100E9000816921F070018161296804204860002C7B
:100EA00005D0686A204368622846FFF789FEBDE8DE
:100EB000F09F70B5040003D094F8200010B104E056
:100EC000012070BD204600F081F82068016841F0E3
:100ED0000101016000F07AFA0546052604E000F001
:100EE00075FA401B0A2811D820684068C007F6D060
:100EF0002068016821F00201016000F067FA0546F0
:100F00000BE000F063FA401B0A2806D9606A40F43F
:100F10000030606284F82060D2E720684068800773
:100F2000EFD4207E0128206801683DD021F08001A7
:100F30000160607E01282068016838D021F04001FE
:100F40000160A07E01282068016833D021F02001D3
:100F50000160E07E0128206801682ED041F0100178
:100F60000160207F01282068016829D021F0080154
:100F70000160607F01282068016824D021F004010D
:100F80000160D4E902010843D4E904121143084383
:100F90006168491E08432168C86100206062012021
:100FA00084F82000002070BD41F08001C0E741F0CE
:100FB0004001C5E741F02001CAE721F01001CFE769
:100FC00041F00801D4E741F00401D9E710B586B03B
:100FD000044614216846FFF73DF917492068884206
:100FE00027D116480021026842F0007202600068B2
:100FF00000F00070059011481038026842F00802B5
:1010000002600068022200F0080005900320CDE98C
:101010000210CDE90002092004906946084800F05A
:10102000B5F800220521142000F03EFA142000F04B
:101030002DFA06B010BD00000064004040380240A8
:10104000000C02407047000010B592B00FAB08AA28
:1010500000211C48FFF7B5FD0898A0F50070013885
:1010600005D0012803D0022801D0032828D10898F0
:10107000154B401EC0B21870144C00EB800004EBFE
:10108000C0000FA9FFF7E6F91878694601EB800266
:1010900092ED000AB5EEC00AF1EE10FA10D100EBA5
:1010A000800004EBC000FFF73BFA1878F7EE000A67
:1010B00001EB800090ED000A30EE200A80ED000A7E
:1010C00012B010BD700000200C0000209804002019
:1010D000704770477047000070B5044690F82000D4
:1010E000012804D0606A40F40020606218E0022009
:1010F00084F820002068016821F00101016000F0FF
:1011000065F905460EE000BF00F060F9401B0A28B3
:1011100008D9606A40F400306062052084F820003D
:10112000012070BD20684068C007EDD1606270BDCD
:1011300070477047704770477047704770470000AE
:1011400070B5044600F042F90546601C02D0044820
:101150000078044400F03AF9401BA042FAD370BD75
:1011600018000020042802D10149012008707047AE
:1011700000000020044910B50A68024202D008604D
:10118000FFF7F0FF10BD0000143C01402DE9F84FBF
:10119000DFF8F8A10022012403254FF00F090AF11E
:1011A000040BAAF1040E00BF0B6804FA02F63340E8
:1011B000B34270D10F7907F00307012F01D0022F3E
:1011C00016D187684FEA420805FA08FC27EA0C079F
:1011D000D1F80CC00CFA08FC4CEA070CC0F808C0A7
:1011E0004768B7430E79C6F3001696403E43466003
:1011F0000E79F643B6070AD0C7684FEA420C05FAE3
:101200000CF6B7438E6806FA0CF63E43C6600E79BC
:1012100006F00306022E10D1D60800EB8608D8F897
:10122000206057074FEAD76C09FA0CF7BE430F69E5
:1012300007FA0CF73743C8F8207006684FEA420CEB
:1012400005FA0CF7BE430F7907F0030707FA0CF70E
:10125000374307604E6816F4403F1CD04C4E376849
:1012600047F480473760366822F0030706F480466B
:101270000096484E07EB060CDCF8086897073F0F0E
:1012800009FA07F826EA0806DFF80C81404503D181
:101290004FF0000841E072E0DFF80081404502D1E4
:1012A0004FF0010839E0DFF8F880404502D14FF0F7
:1012B000020832E0DFF8EC80404502D14FF003082D
:1012C0002BE0DFF8E480404502D14FF0040824E031
:1012D000DFF8D880404502D14FF005081DE0DFF867
:1012E000D080404502D14FF0060816E0DFF8C480F8
:1012F000404502D14FF007080FE0DFF8BC804045C1
:1013000002D14FF0080808E0DFF8B080404502D174
:101310004FF0090801E04FF00A0808FA07F848EA18
:101320000608CCF80888DAF800605746D1F804C0FF
:101330009E435FEACC2C00D51E433E60DBF8006084
:101340005F46D1F804C09E435FEA8C2C00D51E4353
:101350003E60DEF800607746D1F804C09E435FEA45
:101360008C3C00D51E433E60084F083F3E68D1F8D4
:1013700004C09E435FEACC3C00D51E433E60521C35
:10138000102AFFF411AFBDE8F88F0000083C0140BF
:101390004438024000300140000002400004024096
:1013A00000080240000C02400010024000140240FD
:1013B00000180240001C02400020024000240240AD
:1013C0000AB1816170470904FBE7000001488068A9
:1013D000704700001800002002488168027811441C
:1013E00081607047180000200B4810B5016841F477
:1013F00000710160016841F480610160016841F49D
:1014000080710160032000F06FF8002000F006F802
:1014100000F024F8002010BD003C024070B50D4DD6
:1014200004464FF47A712878B1FBF0F00A49096854
:10143000B1FBF0F000F024FB48B9102C07D20022D9
:101440002146501E00F030F800206C6070BD012075
:1014500070BD000018000020240000200A4808B5D4
:10146000016841F480410160006800F48040009010
:101470000548001F016841F080510160006800F0DC
:101480008050009008BD000044380240002809DB6D
:1014900000F01F02012191404009800000F1E0208E
:1014A000C0F8001170470000F0B40E4B1B680C46EA
:1014B000C3F30223C3F10705042D00D90425191D28
:1014C000072901D2002300E0DB1E012606FA05F100
:1014D000491E214099409E40761E16403143F0BC83
:1014E00000F0AFBD0CED00E0064900F0070208680F
:1014F0004FF6FF03184040EA0220034A10430860F9
:10150000704700000CED00E00000FA052DE9F843FB
:101510001748016841F0805101600068154F00F0E4
:101520008050012600903E64FFF750FF05464FF4BF
:101530007A78114C05E000BFFFF748FF401B40459B
:101540000DD86068C003F7D57E64FFF73FFF0546FE
:10155000464607E0FFF73AFF401BB04202D903209E
:10156000BDE8F88360688003F4D50020F8E7000048
:101570004038024000000E42007000402DE9F04764
:101580000E46050065D0DFF81481D8F80000F7B2E8
:1015900000F00F00B04207D288F80070D8F80000C1
:1015A00000F00F00B04254D128683D4C810712D59D
:1015B000400703D5206840F4E050206028780007F9
:1015C00003D5206840F4604020602068A96820F0BE
:1015D000F000084320602878C0072DD030496868A3
:1015E0000839012812D0022813D0032811D0096825
:1015F000890700292DDA216821F0030101432160C8
:10160000FFF7E4FE814641F2883A0EE0096889035B
:10161000EFE709688901ECE7FFF7D8FEA0EB0901C5
:10162000514502D90320BDE8F0872068696800F0C1
:101630000C00B0EB810FEFD1D8F80010404601F05C
:101640000F01B14207D90770006800F00F00B042E7
:1016500001D00120E7E72878400705D52068E96830
:1016600020F4E050084320602878000706D5206861
:10167000296920F4604040EAC100206000F018F8B9
:101680002168084AC1F30311515CC840064908604B
:1016900006480068FFF7C2FE0020C4E7003C024095
:1016A00008380240C4200008240000201C0000204C
:1016B000154810B5006810F00C02144813D01449F6
:1016C000042A0FD0082A0ED10F4C241F2268236849
:1016D00002F03F025B0207D52068C0F38810A0FB30
:1016E000010106E0084610BD2168C1F38811A1FB85
:1016F00000010023FEF776FD2168C1F30141491C7A
:101700004900B0FBF1F010BD083802400024F4009D
:10171000001BB7002DE9F84F04006ED02078DFF8E9
:101720004C93C007A9F104054AD009F104000168EF
:10173000C1F38101012908D00068C0F381000228AB
:101740000AD1D9F80000400206D52868800337D5B1
:1017500060680028E1D033E06068B0F5803F10D0C9
:10176000B0F5A02F286810D020F4803028602868B9
:1017700020F4802028606068A8B1FFF727FE0646A5
:101780000DE0286840F48030F4E740F480202860C1
:10179000F7E700BFFFF71AFE801B642873D828689C
:1017A0008003F7D50CE0FFF711FE064605E000BF09
:1017B000FFF70CFE801B6428F0D828688003F7D45C
:1017C0002078DFF8AC8280074FF0000A3ED5A748AA
:1017D000001D016811F00C0F08D00068C0F38100F3
:1017E00002280BD1D9F80000400207D428688007EE
:1017F00016D5E068012800D112E033E1E068B8B105
:101800000120C8F80000FFF7E1FD064605E000BF33
:10181000FFF7DCFD801B0228C0D828688007F7D5B9
:101820002868216920F0F80040EAC10028600DE036
:10183000C8F800A0FFF7CAFD064604E0FFF7C6FDA2
:10184000801B02281FD828688007F7D4207800075B
:1018500022D5864F87486169703771B101210160D7
:10186000FFF7B4FD064604E0FFF7B0FD801B022839
:1018700009D838688007F7D50EE0C0F800A0FFF758
:10188000A5FD064605E082E0FFF7A0FD801B0228CB
:101890007DD838688007F7D42078400768D5DFF80E
:1018A000CCB100270BF13C0BDBF80000C0000BD4DF
:1018B000DBF8001041F08051CBF80010DBF800009D
:1018C000012700F0805000906B4E3068C00510D4A6
:1018D000306840F480703060FFF778FD009005E0DC
:1018E000FFF774FD0099401A022850D83068C005EF
:1018F000F6D55E4EA0686C3601280FD005283068FA
:1019000010D020F001003060306820F0040030601A
:10191000A068B8B1FFF75AFD00900FE0306840F0C2
:101920000100F4E740F004003060F7E7FFF74EFDF8
:101930000099411A41F28830814266D830688007A8
:10194000F4D50EE0FFF742FD009007E0FFF73EFD03
:101950000099411A41F28830814256D83068800798
:10196000F4D42FB1DBF8001021F08051CBF8001037
:10197000A069C8B33D49091D0968C1F38101022965
:101980004AD00228504607D0C8F8600000E03CE08A
:10199000FFF71CFD04463BE04746C8F86000FFF730
:1019A00015FD064605E000BFFFF710FD801B02286D
:1019B0002BD828688001F7D4D4E907010843A16A2D
:1019C0002E4A490802EB0141626A41EA821108434A
:1019D00094F82C1040EA0161C9F800100120386623
:1019E000FFF7F4FC044606E03EE000BFFFF7EEFC24
:1019F000001B022809D828688001F7D534E000BF11
:101A0000FFF7E4FC001B022802D90320BDE8F88F91
:101A100028688001F4D427E00128F7D0D9F8000025
:101A2000E26900F4800191421CD1226A00F03F017A
:101A3000914217D147F6C071626A0140B1EB821F33
:101A400010D1A26A4FF0FF3300F4403103EB520291
:101A5000B1EB024F06D194F82C1000F07060B0EB9F
:101A6000016F01D00120D1E70020CFE70438024008
:101A700000004742800E4742007000400000FFFF18
:101A800010B5401EB0F1807F01D3012010BD4FF092
:101A9000E02460610F21601700F0D3FA0020A061FC
:101AA00007202061002010BDFEE700000149002052
:101AB0000870704700000020054B4FF4804101285A
:101AC00003D001221846FFF77BBC0022FAE7000092
:101AD0000014024010B5002000F006F8BDE81040E8
:101AE0000020FFF7E9BF0000054B4FF4006101281B
:101AF00003D001221846FFF763BC0022FAE700007A
:101B0000001002407FB5002415480094019402940F
:101B10001249039401604FF48031C0E9011401259A
:101B20000461057680F820400E49C0E90A14C561B9
:101B3000C46080F830404561FEF763FE08B1FEF7EF
:101B400087FC0620CDE90005694602940448FEF7AB
:101B5000F5FC002801D0FEF77BFC7FBD0020014092
:101B6000280000200100000F0F4810B50D4901604A
:101B70000521416000214FF400328160C0E9031269
:101B800052014261017641768176C17601774177D3
:101B9000FFF78FF9002803D0BDE81040FEF758BCCE
:101BA00010BD000000640040700000202DE9F04FDF
:101BB00087B014216846FEF74DFB4B4800260168AC
:101BC00041F002010160016801F002010591016824
:101BD00041F001010160016801F001010591016816
:101BE00041F008010160016801F0080105910168F8
:101BF00041F080010160016801F0800105910168F8
:101C000041F010010160016801F0100105910168C7
:101C100041F0200101600068DFF8D09000F0200062
:101C20004FF4C1640590002221464846FFF7C8FBE7
:101C3000DFF8BCA000223C215046FFF7C1FBDFF8D3
:101C4000B4B04FF40067002239465846FFF7B8FB9E
:101C5000002280212848FFF7B3FB4FF48048002280
:101C600041462648FFF7ACFB009401240225694653
:101C700048460194CDE90245FFF788FA3C208DE8FB
:101C8000710069465046FFF781FA042000904FF436
:101C90008810CDE9010569464846FFF777FACDE996
:101CA0000074CDE9024669465846FFF76FFA802076
:101CB000CDE9000469461048CDE90245FFF766FA10
:101CC000CDE90084CDE9024669460C48FFF75EFA8B
:101CD000002211460820FFF7E7FB0820FFF7D6FB9C
:101CE00007B0BDE8F08F0000303802400004024029
:101CF000001C02400010024000000240001402409C
:101D0000FEE7000010B5FEF783FB064A002100BF86
:101D100001EB810002EBC000FEF702FC491C042924
:101D2000F6DB10BD9804002030B587B0002406947F
:101D300002940394082404944FF400750A4C00950F
:101D4000050A25706070080AA070E170100A207101
:101D50006271180AA071E37106AB22466946034816
:101D6000FEF74AFE07B030BD0D00002070000020D5
:101D7000FEE700000148FEF7A7BD00002800002094
:101D800010B50021074C0A46002004EBC1131A5479
:101D9000401CC0B28028FAD3491CC9B20829F3D329
:101DA00010BD00009800002010B5002000F096F84B
:101DB000012000F09BF8012000F0A8F8012000F0BD
:101DC0009DF8AE2000F0AAF8002000F0A7F810203F
:101DD00000F0A4F8D52000F0A1F8802000F09EF8D3
:101DE000A82000F09BF83F2000F098F8D32000F0E6
:101DF00095F8002000F092F8402000F08FF8A12024
:101E000000F08CF8C82000F089F8DA2000F086F89D
:101E1000122000F083F8812000F080F8CF2000F03D
:101E20007DF8D92000F07AF8F12000F077F8DB2077
:101E300000F074F8402000F071F8A42000F06EF873
:101E4000A62000F06BF88D2000F068F8142000F058
:101E500065F8AF2000F062F8FFF792FFBDE8104090
:101E600000F028B870B500240646802525FA04F055
:101E7000304000D0012000F039F8012000F02EF8A9
:101E8000002000F02BF8641CE4B2082CEED370BDE7
:101E900010B5891CCCB240F0B00000F03FF8102023
:101EA00040EA141000F03AF804F00F00BDE81040CA
:101EB00000F034B870B5084D002400212046FFF72B
:101EC000E7FF05EBC410802100F032F8641CE4B297
:101ED000082CF2D370BD00009800002002460821B3
:101EE0000148FFF76DBA000000040240024680215D
:101EF0000148FFF765BA00000000024002464FF4B7
:101F000000710148FFF75CBA0004024002464FF43A
:101F100080610148FFF754BA0004024010B504463E
:101F20000020FFF7EBFF2046BDE81040FFF79ABF07
:101F300070B506460D460120FFF7E0FF002404E0DF
:101F4000305DFFF78FFF641CE4B2AC42F8D370BD84
:101F50007047000010B50B4C012204212046FFF70A
:101F60002FFA012208212046FFF72AFA0122102128
:101F70002046FFF725FA20460122BDE81040202127
:101F8000FFF71EBA001C02407047FFF725BA000099
:101F900030B593B030216846FEF75CF914210CA8E7
:101FA000FEF758F920480025016841F08051016092
:101FB000006800F0805011901C48016841F44041D5
:101FC00001600068022400F440401190012000905C
:101FD000000401908001CDE9064006200890B4205D
:101FE000CDE9090404200B906846FFF793FB08B184
:101FF00072B6FEE7FFF78AFA08B172B6FEE70CA9DF
:102000000F2081E831004FF4A0500F904FF4805022
:10201000109005210CA8FFF7B1FA002801D072B684
:10202000FEE713B030BD00004038024000700040B1
:102030000248016841F470010160704788ED00E0DA
:10204000FEE70907090E002804DB00F1E02080F814
:102050000014704700F00F0000F1E02080F8141D1C
:10206000704702E008C8121F08C1002AFAD1704761
:102070007047002001E001C1121F002AFBD1704708
:10208000FFF7B2F9FFF784FFFFF790FDFFF73AFD86
:10209000FFF76AFDFFF71EFDFFF708FDFFF784FE5F
:1020A000FFF768FEFFF756FFFFF72CFE4FF47A7438
:1020B00000231A4619462046FFF736FE0120FFF797
:1020C0003FF8F5E7000000000000000001020304F3
:1020D00006070809F420000800000020280000007E
:1020E000622000081C2100082800002010090000C0
:1020F0007220000800000000000000000000000046
:1021000000000000000000000000000001000000CE
:0C21100010000000000000000024F4009B
:04000005080001AD41
:00000001FF
