:020000040800F2
:10000000680D0020C1010008192B00087F2300089B
:10001000A9280008950600084535000800000000E2
:10002000000000000000000000000000F12E0008A9
:10003000DD06000800000000F92C000875300008FB
:10004000DB010008DB010008DB010008DB01000820
:10005000DB010008DB010008DB010008DB01000810
:10006000ED060008DB010008DB010008DB010008E9
:10007000DB010008DB010008DB010008DB010008F0
:10008000DB010008DB01000861050008DB01000856
:1000900099060008DB010008DB010008DB0100080D
:1000A000DB010008DB010008DB010008DB010008C0
:1000B000DB010008DB010008DB010008DB010008B0
:1000C000DB010008DB010008DB010008DB010008A0
:1000D000DB01000809340008DB010008DB0100082F
:1000E000DB010008DB010008DB010008DB01000880
:1000F000DB010008DB010008DB010008DB01000870
:10010000DB010008DB010008DB010008DB0100085F
:10011000DB010008DB010008DB010008DB0100084F
:10012000DB010008DB010008DB010008DB0100083F
:10013000DB010008DB010008DB010008DB0100082F
:10014000DB010008DB010008DB010008DB0100081F
:10015000DB010008DB010008DB01000815340008A2
:10016000DB010008DB010008DB010008DB010008FF
:10017000DB010008DB010008DB01000800000000D3
:10018000DB010008DB010008DB0100082931000861
:10019000DB010008DB010008DB010008DB010008CF
:1001A0000000000000000000DB010008DFF80CD0B8
:1001B00000F0C0F90048004785350008680D0020B0
:1001C0000648804706480047FEE7FEE7FEE7FEE7F1
:1001D000FEE7FEE7FEE7FEE7FEE7FEE7193100086F
:1001E000AD0100082DE9F05F0546002092469B46D0
:1001F00088460646814640241BE02846414647463D
:10020000224600F0F2F853465A46C01A914110D3E4
:1002100011461846224600F0D9F82D1A67EB01085E
:100220004F4622460120002100F0D0F817EB0009CC
:100230004E41201EA4F10104DFDC484631462A4627
:100240004346BDE8F09F40EA01039B0703D009E065
:1002500008C9121F08C0042AFAD203E011F8013BB2
:1002600000F8013B521EF9D27047D2B201E000F80B
:10027000012B491EFBD270470022F6E710B513464A
:100280000A4604461946FFF7F0FF204610BD2DE947
:10029000FE4F81EA030404F0004421F00041009481
:1002A0004FF0000B23F0004350EA01045ED052EA05
:1002B00003045BD0C3F30A54C1F30A552C44A4F2DF
:1002C000F3340194A0FB0254C1F3130141F48011F3
:1002D000C3F3130343F4801301FB024400FB034EFA
:1002E000840A970A44EA815447EA8357A4FB0768C3
:1002F00002958D0A05FB07854FEA932C04FB0C54ED
:100300002705029D4FEA065847EA1637B5EB080560
:100310006EEB070C870E920E47EA811742EA8312B2
:10032000A7FB0201B6EB0B0164EB00042B0D43EAC3
:100330000C335E1844EB1C50DA465146E7FB0201D1
:10034000C5F313044FEA0B3343EA14534FEA043264
:10035000019C43EA0603A4F10C040294009CCDE93D
:1003600000B400F098F803B0BDE8F08F002001461B
:10037000F9E70EB5C10F80EAE0700844CA07002112
:1003800040F233438DE80E000A460B4600F083F836
:1003900003B000BD01F0004330B421F0004150EA49
:1003A000010206D00A0DA2F56072C1F31301002A02
:1003B00002DC30BC00207047440F44EAC104C10095
:1003C000E01830BC00EBC25000F01FB8202A04DB5C
:1003D000203A00FA02F1002070479140C2F1200358
:1003E00020FA03F3194390407047202A04DB203A97
:1003F00021FA02F00021704721FA02F3D040C2F145
:10040000200291400843194670470029A8BF704751
:10041000401C490008BF20F00100704710B4B0FA3A
:1004200080FC00FA0CF050EA010404BF10BC7047D5
:1004300049B1CCF1200421FA04F411FA0CF118BFEF
:10044000012121430843A3EB0C01CB1D4FEA0061BE
:100450004FEA102042BF002010BC704700EBC35091
:1004600010440029A4BF10BC7047401C490008BFBD
:1004700020F0010010BC704710B5141E73F1000489
:1004800008DA401C41F1000192185B411A4301D186
:1004900020F0010010BD2DE9F04D92469B4611B1B0
:1004A000B1FA81F202E0B0FA80F220329046FFF712
:1004B0008DFF04460F4640EA0A0041EA0B0153460D
:1004C0005A46084313D0114653EA010019D0C8F127
:1004D00040025046FFF789FF05460E4650465946F2
:1004E0004246FFF773FF084305D0012004E0204691
:1004F0003946BDE8F08D0020054346EAE0762C43FE
:1005000037430A986305E40AA0EB08000022FD0ABD
:1005100044EA47540A3002D500200146E9E70105C4
:1005200010196941DDE9084500196941BDE8F04D40
:10053000A2E70000064C074D06E0E06840F001032A
:1005400094E8070098471034AC42F6D3FFF732FE28
:10055000A8360008C8360008002800DA4042704774
:10056000014800F013BA000080000020464910B591
:100570004A6822F440324A604A6843681A434A6033
:1005800001684A6822F480724A6001684A68036917
:1005900042EA03224A6001684A6822F040724A60D7
:1005A00001684A6883681A434A6001688A6822F4CD
:1005B00000628A6001688A68C3681A438A60816A37
:1005C0006FF07062D14201688A6822F070628A60BE
:1005D00001688A680CD0836A1A438A6001688A6855
:1005E00022F040528A6001688A68C36A1A4301E0B7
:1005F00022F040528A6001688A6822F002028A6012
:1006000001688A68037E42EA43028A6090F82010FB
:10061000002901684A680FD042F400624A6001680C
:100620004A6822F460424A6001684A68174C436A8B
:1006300004EB43331A4301E022F400624A6001688C
:10064000CA6A22F47002CA620168CA6A838B104CBB
:1006500004EB03531A43CA6201688A6822F40072E9
:100660008A6001688A6890F8303042EA43228A60E2
:1006700001688A6822F480628A6001688A68406939
:1006800042EA8020886010BD0023014000E0FFFFA7
:100690000000F0FFFEE70000014800F068BC000029
:1006A000C800002000B58BB000200121CDE9060173
:1006B0000891009001900290039005900490694683
:1006C000054800F053FB044800F062FE0221024896
:1006D00000F0DCFA0BB000BDC8000020704700003D
:1006E00001490860704700006C000020042000F001
:1006F000F7BE72B6FEE70000D0ED000AB7EE002AA2
:10070000C0ED050A0A8852BA00EE102AB8EE400A77
:1007100080ED000A4A8870EE600A52BA12B201EE09
:10072000102AF8EEC11AC0ED011A8A8852BA01EEF9
:10073000102AB8EE411A80ED021A897901EE101ADA
:1007400010EE901AB8EE411AB1F18B4F80ED031AFA
:1007500090ED061A02DD71EE420A09E010EE901AE1
:1007600011F16A5F02D8D0ED060A03E071EE020AC9
:10077000C0ED060A9FED0F1A00EE810AD0ED040AC3
:100780009FED0D1A30EE600A80ED070AC0EE010AF7
:100790009FED0A0A20EE801ADFED090A21EE800A99
:1007A00081EE202A80EE201A80ED082A80ED091AB9
:1007B0007047000000000046610BB64100003B435B
:1007C0000070604500F00300024900EB800001EB7F
:1007D000C00070470406002090ED000A80ED040A76
:1007E0009FED020A80ED060A70470000000000003D
:1007F0007047000078B50024009490F83C20012A4E
:1008000019D0012280F83C200A6807230568092ACC
:1008100013D9EE680A3A02EB420293409E43EE601F
:100820000B788A680A3B03EB43039A400368DD6850
:100830002A43DA6010E0022078BD2E6902EB420202
:1008400093409E432E610B788A6803EB43039A40E2
:1008500003681D692A431A614A681F23072A13D2B5
:1008600005686E6B521E02EB820293409E436E63DC
:100870000A8893B20A79521E02EB82029340026800
:10088000556B2B43536327E005680D2A12D22E6B5C
:10089000D21F02EB820293409E432E630B790A889B
:1008A000DB1F92B203EB83039A4003681D6B2A435C
:1008B0001A6311E0EE6A0D3A02EB820293409E4306
:1008C000EE620B790A880D3B92B203EB83039A40E8
:1008D0000368DD6A2A43DA621B4B0568194A9D42A8
:1008E0000AD10D68122D07D1556825F40005556011
:1008F000556845F48005556005689D421DD1134D2E
:100900000B68AB4201D0112B17D1536823F480033D
:100910005360536843F4000353600968A9420CD143
:100920000B490C4A0968B1FBF2F101EB8101490066
:1009300000E0491E00910029FBD180F83C400020D6
:1009400078BD00000023014000200140120000108B
:100950007C00002040420F0010B500680649884224
:1009600004D1064800F00FF805490860BDE81040C2
:10097000024800F005B9000000200140800000207E
:100980000800002070470068C06C704770B50446CE
:1009900000680668456816F0020F05F020012AD0AD
:1009A00049B3216CC90603D4216C41F40071216460
:1009B000816811F0405F17D1217EA9B9C16A11F495
:1009C000700F02D0816849050ED4416821F02001E2
:1009D0004160206C20F480702064206CC00403D43B
:1009E000206C40F0010020642046FFF7B5FF21682D
:1009F0006FF01200086016F0040F05F0800132D08D
:100A000089B3206CC00603D4206C40F400502064ED
:100A10002068816811F4401F1ED1816B11F4401FC2
:100A200002D08168490517D44168490514D481680A
:100A300011F0405F10D1217E71B9416821F0800131
:100A40004160206C20F480502064206CC00503D4E9
:100A5000206C40F0010020642046FFF7C9FE2168A9
:100A60006FF00C00086016F0010F05F040010FD088
:100A700071B120680068C0070AD0206C40F4803053
:100A80002064204600F043F821686FF00100086000
:100A900016F0200F05F080610ED000290CD0606C9C
:100AA00040F00200606420686FF020050560204679
:100AB000FFF768FF2068056070BD70B504004FF057
:100AC000000503D0206C002610B107E0012070BDA6
:100AD000204600F01DF8666484F83C60206CC00677
:100AE00010D4206C20F4885040F00200206420468E
:100AF000FFF73CFD6664206C20F0020040F001002E
:100B0000206400E0012584F83C60284670BD7047F1
:100B100010B586B0044614216846FFF7ADFB1549B1
:100B20002068884224D114480021026842F480726F
:100B30000260006800F4807005900F481438026865
:100B400042F001020260006800F0010005904020C0
:100B500000900320CDE901016946084800F0CCFC73
:100B600000221146122000F055FE122000F044FE33
:100B700006B010BD00200140443802400000024091
:100B800018B50021009190F83C20012A07D00122DD
:100B900080F83C2002689368DB0702D011E0022055
:100BA00018BD936843F001039360314A314B1268DA
:100BB000B2FBF3F202EB420200E0521E0092002A66
:100BC000FBD102689368DB0747D0036C40F20164F5
:100BD000A34343F48073036453685B0505D5036C3A
:100BE00023F4005343F480530364036CDB0404D503
:100BF000436C23F00603436400E0416480F83C103A
:100C00001D4B6FF02201116001684A681B4C2243A2
:100C10004A6059680068CA06194906D0884224D13A
:100C2000816811F0405F13D01FE08842F8D0154A68
:100C3000904203D1D1F80423D206F1D0124A904257
:100C400013D1D1F8041301F01F011029E8D30CE0EF
:100C5000816841F08041816007E0016C41F0100142
:100C60000164416C41F001014164002018BD0000A5
:100C70007C00002040420F000023014020000004BF
:100C800000200140002101400022014090F8202076
:100C9000012A07D0022A05D0416A41F4802141622D
:100CA00001207047006842690A4342610020704792
:100CB000F0B590F820500468A468012D05D0022DED
:100CC00003D0416A41F480214DE014F0406F01D11E
:100CD000E50045D5C4F301640125A5401D608D687C
:100CE0004FF4C0739DB1CE6835434E6845EAC605E2
:100CF000066803EB0417F5514FF4C275076805EB5E
:100D000004150E697E51097D012905D009E00E8880
:100D1000CD6845EA4655EBE701684E5946F48076C2
:100D20004E511179D2F805504FF4C67641EA0521AB
:100D3000056806EB0416A9511178D2F801204FF48A
:100D4000C47541EA0221026805EB0415515100689F
:100D500003EB0411425842F0010242500020F0BD62
:100D6000416A41F4001141620120F0BD10B590F8D4
:100D70002020012A07D0022A05D0416A41F48021AF
:100D80004162012010BD3B48D0F8002242F0010230
:100D9000C0F80022D0F8002222F47C52C0F80022D1
:100DA000D0F800224B6A42EA0322C0F800220A7DF2
:100DB00002F01F0301229A40D0F81C329343C0F87E
:100DC0001C32CB69B3B9D0F80C329343C0F80C3263
:100DD0008C894B6864F31F434C6900EBC404C4F86E
:100DE00040320C890B6864F31F434C6900EBC40468
:100DF000C4F84432CB69012B16D1D0F80C3213431E
:100E0000C0F80C320C884B6864F31F434C6900EB4C
:100E1000C404C4F840320C89CB6864F31F434C69A6
:100E200000EBC404C4F844328B69002BD0F80432C0
:100E30000ED01343C0F804320B69002BD0F81432E3
:100E400008D01343C0F81432096A012904D008E01D
:100E50009343EFE79343F5E7D0F81C121143C0F832
:100E60001C12D0F8001221F00101C0F8001200207D
:100E700010BD000000640040704770B590F820403D
:100E8000012C05D0022C03D0416A41F4802128E0D6
:100E9000046809B32469A40720D04FF4D874056806
:100EA00004EB01142D5915F00405956005682D59C2
:100EB0001AD0ED08556005682C5904F00204D4607E
:100EC0004FF4DA74056804EB01142E5906F00F068E
:100ED000082E0CD308250DE0E468DCE7416A41F4F4
:100EE00000114162012070BD6D0D1560E3E72D59C1
:100EF00005F00F05156105682D59C5F307259561A6
:100F000005682C59240C54614FF4DC72046802EB20
:100F10000112A4581C700468A458240A5C70046868
:100F2000A458240C9C700468A258120EDA704FF476
:100F3000DE72046802EB0112A4581C710468A45804
:100F4000240A5C710468A458240C9C710468A2589B
:100F5000120EDA71006829B1016941F020010161C6
:100F6000002070BDC16841F02001C160F8E72DE9A3
:100F7000F05F0546006800244669D0F80490876851
:100F8000D0F80CB0D0F810A0D0F81880F10748D0F5
:100F9000F90714D001218160B80703D5284600F075
:100FA00024FA0CE0780702D54FF4006407E0380714
:100FB00002D54FF4805402E0284600F015FAF805F7
:100FC00016D529684FF480708860B80503D5284687
:100FD00000F00DFA0CE0780502D544F4005407E067
:100FE000380502D544F4804402E0284600F0FEF9BA
:100FF000F80316D529684FF480308860B80303D50C
:10100000284600F0F6F90CE0780302D544F40044D9
:1010100007E0380302D544F4803402E0284600F0AB
:10102000E7F9300707D55FEACB6004D529681020BF
:1010300044F40074C86070074FF0080707D55FEAF2
:101040000B7004D52868C760284600F057F9B00730
:1010500006D52868C068800702D0284600F050F9FD
:10106000700607D55FEACA6004D52968102044F4E9
:1010700080640861B00607D55FEA0A7004D5286865
:101080000761284600F080F9F00606D52868006957
:10109000800702D0284600F078F9B00308D55FEA4F
:1010A000C96005D5296810204860284600F06EF90F
:1010B000F00307D55FEA097004D528684760284621
:1010C00000F098F9300446D55FEA497040D5F00544
:1010D00004D55FEAC87001D044F00104B00504D51E
:1010E0005FEA887001D544F00204700504D55FEA18
:1010F000487001D544F00404300529D518F0700F6C
:1011000026D008F07000402815D006DC102809D041
:1011100020280AD0302816D10AE050280ED06028A6
:1011200011D10EE044F008040DE044F010040AE090
:1011300044F0200407E044F0400404E044F080045C
:1011400001E044F480742868816921F070018161B4
:10115000296804204860002C05D0686A2043686232
:101160002846FFF789FEBDE8F09F70B5040003D064
:1011700094F8200010B104E0012070BD204600F07A
:1011800081F82068016841F00101016000F0D4FAA3
:101190000546052604E000F0CFFA401B0A2811D8C6
:1011A00020684068C007F6D02068016821F002017D
:1011B000016000F0C1FA05460BE000F0BDFA401BEB
:1011C0000A2806D9606A40F40030606284F8206022
:1011D000D2E7206840688007EFD4207E012820688D
:1011E00001683DD021F080010160607E0128206807
:1011F000016838D021F040010160A07E01282068FC
:10120000016833D021F020010160E07E01282068D0
:1012100001682ED041F010010160207F0128206874
:10122000016829D021F008010160607F0128206851
:10123000016824D021F004010160D4E902010843CF
:10124000D4E90412114308436168491E0843216828
:10125000C86100206062012084F82000002070BD79
:1012600041F08001C0E741F04001C5E741F02001B5
:10127000CAE721F01001CFE741F00801D4E741F0BF
:101280000401D9E710B586B0044614216846FEF77C
:10129000F3FF17492068884227D1164800210268C9
:1012A00042F000720260006800F000700590114882
:1012B0001038026842F0080202600068022200F062
:1012C000080005900320CDE90210CDE900020920B5
:1012D00004906946084800F00FF900220521142007
:1012E00000F098FA142000F087FA06B010BD000054
:1012F0000064004040380240000C0240704700008B
:1013000010B592B00FAB08AA00211C48FFF7B5FD3D
:101310000898A0F50070013805D0012803D00228F4
:1013200001D0032828D10898154B401EC0B2187070
:10133000144C00EB800004EBC0000FA9FFF7DCF9B0
:101340001878694601EB800292ED000AB5EEC00AFA
:10135000F1EE10FA10D100EB800004EBC000FFF7B3
:101360003BFA1878F7EE000A01EB800090ED000AD6
:1013700030EE200A80ED000A12B010BDC800002037
:1013800015000020040600207047704770470000D9
:1013900070B5044690F82000012804D0606A40F43B
:1013A0000020606218E0022084F8200020680168B4
:1013B00021F00101016000F0BFF905460EE000BF19
:1013C00000F0BAF9401B0A2808D9606A40F40030DE
:1013D0006062052084F82000012070BD206840680C
:1013E000C007EDD1606270BD7047704770477047AD
:1013F0007047704770472DE9F0410446876D00F053
:101400009BF9064694F835000025022806D0802076
:10141000606584F834500120BDE8F08120680168DF
:1014200021F0160101602068416921F080014161CD
:10143000206C08B9A06C20B12068016821F0080177
:1014400001602068016821F0010101600CE000F0FA
:1014500073F9801B052807D920206065032084F8D4
:10146000350084F83450D7E720680068C007EED113
:1014700094F85C103F208840B860012084F8350063
:1014800084F834500020C7E790F83510022903D0C3
:101490008021416501207047052180F835100068E2
:1014A000016821F0010101600020704770B5044619
:1014B00000F042F90546601C02D00448007804445C
:1014C00000F03AF9401BA042FAD370BD7000002032
:1014D000042802D101490120087070470000002053
:1014E000044910B50A68024202D00860FFF7F0FF15
:1014F00010BD0000143C01402DE9F84FDFF8F8A1C1
:101500000022012403254FF00F090AF1040BAAF170
:10151000040E00BF0B6804FA02F63340B34270D1E8
:101520000F7907F00307012F01D0022F16D187682A
:101530004FEA420805FA08FC27EA0C07D1F80CC06C
:101540000CFA08FC4CEA070CC0F808C04768B7431F
:101550000E79C6F3001696403E4346600E79F64378
:10156000B6070AD0C7684FEA420C05FA0CF6B74333
:101570008E6806FA0CF63E43C6600E7906F0030646
:10158000022E10D1D60800EB8608D8F82060570745
:101590004FEAD76C09FA0CF7BE430F6907FA0CF74C
:1015A0003743C8F8207006684FEA420C05FA0CF77A
:1015B000BE430F7907F0030707FA0CF737430760BC
:1015C0004E6816F4403F1CD04C4E376847F48047B5
:1015D0003760366822F0030706F480460096484ECE
:1015E00007EB060CDCF8086897073F0F09FA07F8C5
:1015F00026EA0806DFF80C81404503D14FF00008C9
:1016000041E072E0DFF80081404502D14FF001086F
:1016100039E0DFF8F880404502D14FF0020832E0AF
:10162000DFF8EC80404502D14FF003082BE0DFF8F3
:10163000E480404502D14FF0040824E0DFF8D88070
:10164000404502D14FF005081DE0DFF8D08040454D
:1016500002D14FF0060816E0DFF8C480404502D101
:101660004FF007080FE0DFF8BC80404502D14FF093
:10167000080808E0DFF8B080404502D14FF00908C3
:1016800001E04FF00A0808FA07F848EA0608CCF823
:101690000888DAF800605746D1F804C09E435FEA34
:1016A000CC2C00D51E433E60DBF800605F46D1F8CD
:1016B00004C09E435FEA8C2C00D51E433E60DEF8DA
:1016C00000607746D1F804C09E435FEA8C3C00D5A9
:1016D0001E433E60084F083F3E68D1F804C09E4359
:1016E0005FEACC3C00D51E433E60521C102AFFF43A
:1016F00011AFBDE8F88F0000083C014044380240BB
:101700000030014000000240000402400008024096
:10171000000C024000100240001402400018024079
:10172000001C024000200240002402400AB18161F6
:1017300070470904FBE7000001488068704700001B
:10174000700000200248816802781144816070476F
:10175000700000200B4810B5016841F40071016071
:10176000016841F480610160016841F480710160A9
:10177000032000F06FF8002000F006F800F024F8D5
:10178000002010BD003C024070B50D4D04464FF4E2
:101790007A712878B1FBF0F00A490968B1FBF0F0E2
:1017A00000F044FB48B9102C07D200222146501EFD
:1017B00000F030F800206C6070BD012070BD0000AA
:1017C000700000207C0000200A4808B5016841F440
:1017D00080410160006800F4804000900548001FCF
:1017E000016841F080510160006800F08050009075
:1017F00008BD000044380240002809DB00F01F0249
:10180000012191404009800000F1E020C0F8001162
:1018100070470000F0B40E4B1B680C46C3F3022364
:10182000C3F10705042D00D90425191D072901D28C
:10183000002300E0DB1E012606FA05F1491E2140C7
:1018400099409E40761E16403143F0BC01F07BBEAD
:101850000CED00E0064900F0070208684FF6FF03B0
:10186000184040EA0220034A104308607047000015
:101870000CED00E00000FA052DE9F8431748016877
:1018800041F0805101600068154F00F08050012642
:1018900000903E64FFF750FF05464FF47A78114CF4
:1018A00005E000BFFFF748FF401B40450DD86068CA
:1018B000C003F7D57E64FFF73FFF0546464607E0C5
:1018C000FFF73AFF401BB04202D90320BDE8F8837E
:1018D00060688003F4D50020F8E70000403802403B
:1018E00000000E42007000402DE9F0470E46050052
:1018F00065D0DFF81481D8F80000F7B200F00F00CF
:10190000B04207D288F80070D8F8000000F00F004D
:10191000B04254D128683D4C810712D5400703D509
:10192000206840F4E05020602878000703D5206844
:1019300040F4604020602068A96820F0F00008436F
:1019400020602878C0072DD0304968680839012800
:1019500012D0022813D0032811D009688907002962
:101960002DDA216821F0030101432160FFF7E4FE35
:10197000814641F2883A0EE009688903EFE7096879
:101980008901ECE7FFF7D8FEA0EB0901514502D928
:101990000320BDE8F0872068696800F00C00B0EB18
:1019A000810FEFD1D8F80010404601F00F01B1428D
:1019B00007D90770006800F00F00B04201D0012085
:1019C000E7E72878400705D52068E96820F4E0506B
:1019D000084320602878000706D52068296920F48C
:1019E000604040EAC100206000F038F82168084AF1
:1019F000C1F30311515CC8400649086006480068FD
:101A0000FFF7C2FE0020C4E7003C02400838024055
:101A1000903600087C00002074000020044805492E
:101A200000680968044AC1F38221515CC8407047CC
:101A30007C00002008380240A03600080448054910
:101A400000680968044AC1F34231515CC8407047DC
:101A50007C00002008380240A0360008154810B568
:101A6000006810F00C02144813D01449042A0FD057
:101A7000082A0ED10F4C241F2268236802F03F026F
:101A80005B0207D52068C0F38810A0FB010106E0C7
:101A9000084610BD2168C1F38811A1FB0001002395
:101AA000FEF7A0FB2168C1F30141491C4900B0FBCE
:101AB000F1F010BD083802400024F400001BB7000C
:101AC0002DE9F84F04006ED02078DFF84C93C00762
:101AD000A9F104054AD009F104000168C1F38101AC
:101AE000012908D00068C0F3810002280AD1D9F882
:101AF0000000400206D52868800337D560680028BA
:101B0000E1D033E06068B0F5803F10D0B0F5A02F91
:101B1000286810D020F480302860286820F48020C5
:101B200028606068A8B1FFF707FE06460DE0286848
:101B300040F48030F4E740F480202860F7E700BFED
:101B4000FFF7FAFD801B642873D828688003F7D557
:101B50000CE0FFF7F1FD064605E000BFFFF7ECFDE6
:101B6000801B6428F0D828688003F7D42078DFF839
:101B7000AC8280074FF0000A3ED5A748001D0168DF
:101B800011F00C0F08D00068C0F3810002280BD1BF
:101B9000D9F80000400207D42868800716D5E0680D
:101BA000012800D112E033E1E068B8B10120C8F8A3
:101BB0000000FFF7C1FD064605E000BFFFF7BCFDD2
:101BC000801B0228C0D828688007F7D528682169BB
:101BD00020F0F80040EAC10028600DE0C8F800A03D
:101BE000FFF7AAFD064604E0FFF7A6FD801B0228CA
:101BF0001FD828688007F7D42078000722D5864FA1
:101C000087486169703771B101210160FFF794FD68
:101C1000064604E0FFF790FD801B022809D83868CB
:101C20008007F7D50EE0C0F800A0FFF785FD064657
:101C300005E082E0FFF780FD801B02287DD8386830
:101C40008007F7D42078400768D5DFF8CCB10027AB
:101C50000BF13C0BDBF80000C0000BD4DBF80010EC
:101C600041F08051CBF80010DBF80000012700F0B4
:101C7000805000906B4E3068C00510D4306840F43E
:101C800080703060FFF758FD009005E0FFF754FDCD
:101C90000099401A022850D83068C005F6D55E4E2B
:101CA000A0686C3601280FD00528306810D020F0CD
:101CB00001003060306820F004003060A068B8B1E6
:101CC000FFF73AFD00900FE0306840F00100F4E7C4
:101CD00040F004003060F7E7FFF72EFD0099411A4D
:101CE00041F28830814266D830688007F4D50EE032
:101CF000FFF722FD009007E0FFF71EFD0099411A53
:101D000041F28830814256D830688007F4D42FB130
:101D1000DBF8001021F08051CBF80010A069C8B3A7
:101D20003D49091D0968C1F3810102294AD00228F1
:101D3000504607D0C8F8600000E03CE0FFF7FCFC2C
:101D400004463BE04746C8F86000FFF7F5FC06464E
:101D500005E000BFFFF7F0FC801B02282BD82868A5
:101D60008001F7D4D4E907010843A16A2E4A490843
:101D700002EB0141626A41EA8211084394F82C1097
:101D800040EA0161C9F8001001203866FFF7D4FC71
:101D9000044606E03EE000BFFFF7CEFC001B022831
:101DA00009D828688001F7D534E000BFFFF7C4FCEC
:101DB000001B022802D90320BDE8F88F28688001A3
:101DC000F4D427E00128F7D0D9F80000E26900F444
:101DD000800191421CD1226A00F03F01914217D14B
:101DE00047F6C071626A0140B1EB821F10D1A26A4E
:101DF0004FF0FF3300F4403103EB5202B1EB024FDE
:101E000006D194F82C1000F07060B0EB016F01D097
:101E10000120D1E70020CFE704380240000047420C
:101E2000800E4742007000400000FFFF10B5401ECA
:101E3000B0F1807F01D3012010BD4FF0E02460613C
:101E40000F21601701F07FFB0020A06107202061B7
:101E5000002010BD70477047F8B501680446086857
:101E6000CA684B6910F00F0F4FF0000559D003F00E
:101E7000010602F49077374365D0C10705D0D1053C
:101E800003D5616C41F001016164410705D5D907B3
:101E900003D0616C41F002016164810705D5D90767
:101EA00003D0616C41F004016164010707D502F0C1
:101EB0002001314303D0616C41F008016164616C21
:101EC00000293AD0800604D5900602D5204601F0BC
:101ED00060F920684069616CC0F38010090700D484
:101EE00060B3204601F02EF920684069400621D5F4
:101EF0002068143050E8001F21F0400140E8001233
:101F0000002AF5D1E06BA8B16E490165E06BFFF7DF
:101F1000BBFA002811D0E06B016D01B0BDE8F040C4
:101F2000084783060FD593060DD52046BDE8F84037
:101F300001F02FB92046FFF78EFFF8BD2046FFF7CE
:101F40008AFF6564F8BD266B2023012E7DD1C6066D
:101F50007BD5D60679D508684868009048694FF067
:101F60000206400641D5E16B086840680004000C99
:101F7000E8D0A28D8242E5D9E085C869B0F5807FBE
:101F80002DD020680C3050E8001F21F4807140E80B
:101F90000012002AF5D12068143050E8001F21F00B
:101FA000010140E80012002AF5D12068143050E801
:101FB000001F21F0400140E80012002AF5D184F80A
:101FC0004230256320680C3050E8001F21F01001DA
:101FD00040E80012002AF5D1E06BFFF70CFA6663C7
:101FE000A08DE18D401A81B22AE0A08DE18D401ACA
:101FF00081B2E08D0028A5D00029A3D022680C3240
:1020000052E8000F20F4907042E80007002FF5D14D
:102010002068143050E8002F22F0010240E8002729
:10202000002FF5D184F84230256320680C3050E849
:10203000002F22F0100240E80023002BF5D1666348
:102040002046FFF707FFF8BDFFE705062BD515066D
:1020500029D594F841002128F5D1A068B0F5805F1A
:1020600001D12069B0B1206A411C21622168007849
:102070004860E08C401E0004000CE084E3D120683E
:10208000C16821F08001C1602068C16841F0400151
:10209000C160D8E7206A0088C0F308004860206A61
:1020A000801C2062E5E74006CDD55006CBD5CA6836
:1020B000204622F04002CA6084F8413000F05EF908
:1020C000C1E700003531000870B5040004D094F871
:1020D0004100002510B106E0012070BD84F8405099
:1020E000204600F023F8242084F841002068C168CD
:1020F00021F40051C160204601F0ACF8206801696C
:1021000021F4904101612068416921F02A01416177
:102110002068C16841F40051C1606564202084F8E2
:10212000410084F842006563002070BDF0B587B0BF
:10213000044614216846FEF79FF824683C4A0027AD
:102140003C480321022301250826944220D1394A24
:102150001032146844F000441460126802F0004227
:102160000592026842F010020260006800F0100060
:1021700005908DE82A00CDE9031669462E48FFF741
:10218000BBF9002211465320FFF744FB532025E002
:10219000284ADFF8A8C01432644523D1146844F0FB
:1021A00010041460126802F010020592026842F0F6
:1021B00002020260006800F002000590C0208DE875
:1021C00089000720CDE9031069461D48FFF794F9FF
:1021D000002211462520FFF71DFB2520FFF70CFBF1
:1021E00007B0F0BD174FBC42FAD1146844F0200488
:1021F0001460126802F020020592026842F0400268
:1022000002600068CDE9025100F0400005904FF4F3
:102210008440CDE90003049669460B48FFF76CF94A
:10222000002211464720FFF7F5FA4720D6E70000C5
:10223000007C004030380240001002400010014095
:1022400000040240001401400018024090F842309F
:10225000202B01D00220704721B11AB10023036363
:1022600001F07EB80120704710B50446006812499D
:10227000884206D101F0D4F80A2210491048FFF72D
:10228000E5FF10492068884207D10F4800F0B8F8F0
:1022900001220D490D48FFF7D9FF0D4920688842FA
:1022A00009D10C4800F04EFDBDE81040012209495B
:1022B0000948FFF7CBBF10BD0014014030090020D2
:1022C00080010020007C00402D000020F000002054
:1022D000001001400D000020380100202DE9F843D6
:1022E000044690F84100984616460D46202802D034
:1022F0000220BDE8F88385B17EB100206064212012
:1023000084F84100FFF718FAA6848146E684A068A5
:102310002027B0F5805F02D003E00120E9E72069C3
:1023200010B12E4600250EE000260CE0802120464C
:1023300001F031F8A8B9C6B116F8010B2168486060
:10234000E08C401EE084E08C4B464FF00002CDF85C
:1023500000800028EAD14FF04001204601F01BF830
:1023600040B184F841700320C3E735F8020BC0F395
:102370000800E3E784F841700020BAE77047FEE701
:1023800010B5012217491848FFF760FF1420FFF726
:102390008DF84FF6FF742346052214491248FFF7C3
:1023A0009DFF1420FFF782F82346052210490E48AE
:1023B000FFF794FF234605220E490B48FFF78EFFD7
:1023C000234605220C490848FFF788FF23460522CB
:1023D0000A490548FFF782FFBDE810400D20FFF7CE
:1023E00065B800002D000020F0000020350000201E
:1023F000490000203F000020440000203A00002057
:102400002DE9F041594E584C00272DED048B0178F1
:1024100030782154401CC0B23070217855293CD10D
:102420000B287DD360789FED528B04F1FC05512879
:1024300004D0522832D05328F1D15FE0B4F9020021
:10244000FDF797FF53EC182BFDF721FF9FED4A9BFB
:1024500053EC192BFDF71BFFFDF79CFF2860B4F927
:102460000400FDF786FF53EC182BFDF710FF53EC2B
:10247000192BFDF70CFFFDF78DFF6860B4F906001E
:10248000FDF777FF53EC182BFDF701FF53EC192BE9
:10249000FDF7FDFEFDF77EFFA86060E0B4F90200E5
:1024A000FDF767FF53EC182BFDF7F1FE9FED349B12
:1024B00053EC192BFDF7EBFEFDF76CFFE860B4F968
:1024C0000400FDF756FF53EC182BFDF7E0FE53EC2C
:1024D000192BFDF7DCFEFDF75DFF2861B4F906005E
:1024E000FDF747FF53EC182BFDF7D1FE53EC192BEA
:1024F000FDF7CDFEFDF74EFF686130E0B4F9020054
:10250000FDF737FF53EC182BFDF7C1FE9FED1E9B27
:1025100053EC192BFDF7BBFEFDF73CFFA86100E073
:102520001EE0B4F90400FDF724FF53EC182BFDF76F
:10253000AEFE53EC192BFDF7AAFEFDF72BFFE86169
:10254000B4F90600FDF715FF53EC182BFDF79FFEBD
:1025500053EC192BFDF79BFEFDF71CFF286237702B
:10256000BDEC048BBDE8F081F40700202C000020B6
:10257000000000000000003F0000000000003040AC
:102580000000000000409F40000000000080664006
:10259000014900200870704700000020054B4FF4EF
:1025A0008041012803D001221846FFF7BFB800225E
:1025B000FAE700000014024010B5002000F006F811
:1025C000BDE810400020FFF7E9BF0000054B4FF4C5
:1025D0000061012803D001221846FFF7A7B80022A6
:1025E000FAE70000001002407FB50024154800946F
:1025F000019402941249039401604FF48031C0E9C0
:10260000011401250461057680F820400E49C0E9D7
:102610000A14C561C46080F830404561FEF74DFA88
:1026200008B1FEF766F80620CDE900056946029478
:102630000448FEF7DFF8002801D0FEF75AF87FBD06
:1026400000200140800000200100000F0F4810B55D
:102650000D4901600521416000214FF40032816085
:10266000C0E9031252014261017641768176C1765A
:1026700001774177FEF779FD002803D0BDE81040CF
:10268000FEF737B810BD000000640040C80000200D
:102690002DE9F04F87B014216846FDF7EDFD4F4856
:1026A0000026016841F010010160016801F010018D
:1026B0000591016841F040010160016801F04001AD
:1026C0000591016841F002010160016801F0020119
:1026D0000591016841F001010160016801F001010B
:1026E0000591016841F008010160016801F00801ED
:1026F0000591016841F080010160016801F08001ED
:102700000591016841F0200101600068DFF8D09078
:1027100000F020004FF4C164059000222146484695
:10272000FFF704F8DFF8BCA000223C215046FEF77A
:10273000FDFFDFF8B4B04FF4006700223946584679
:10274000FEF7F4FF002280212848FEF7EFFF4FF448
:102750008048002241462648FEF7E8FF0094012405
:102760000225694648460194CDE90245FEF7C4FEBC
:102770003C208DE8710069465046FEF7BDFE0420FE
:1027800000904FF48810CDE9010569464846FEF7F0
:10279000B3FECDE90074CDE9024669465846FEF71E
:1027A000ABFE8020CDE9000469461048CDE9024522
:1027B000FEF7A2FECDE90084CDE9024669460C4849
:1027C000FEF79AFE002211460820FFF723F80820A2
:1027D000FFF712F807B0BDE8F08F00003038024074
:1027E00000040240001C02400010024000000240B1
:1027F000001402400C4810B50A4901604FF416510C
:102800004160002181600C22C160C0E90412816135
:10281000C161FFF759FC002803D0BDE81040FDF767
:1028200068BF10BD007C0040F00000200E4810B5CD
:102830000C4901600D4941604FF4805181604900AD
:10284000C160C91001610C21416100218161C16138
:10285000FFF73AFC002803D0BDE81040FDF749BF60
:1028600010BD00000010014038010020A0860100CA
:102870000C4810B50A4901604FF4E1314160002174
:1028800081600C22C160C0E904128161C161FFF75F
:102890001BFC002803D0BDE81040FDF72ABF10BD87
:1028A0000014014080010020FEE780ED080A90ED51
:1028B000091A80ED0A1AD0ED0B0AC0ED0C0AD0ED12
:1028C000010A30EEC00A80ED090AD0ED0F1AF0EED1
:1028D000C00AF4EEE10AF1EE10FA47DDD0ED020A8B
:1028E00060EE801AC0ED051AD0ED060A90ED032ABD
:1028F00042EE000A30EE410AC0ED060A90ED041ADD
:1029000020EE011A80ED071A90ED0E0AB1EE402A72
:10291000F4EEC20AF1EE10FA01D280ED062AD0EDF3
:10292000060AF4EEC00AF1EE10FA02DCB0EE600A1C
:1029300001E080ED060A31EE800A30EE011A80EDEA
:102940000B1A90ED0D0AF1EE400AB4EEE01AF1EE2A
:1029500010FA02D3F0EE410A01E0C0ED0B0AF4EEEA
:10296000C00AF1EE10FA01DD80ED0B0A90ED0B0AC2
:102970007047000003494164034981640349C1640D
:102980007047000091290008D9290008AB280008E9
:1029900010B5039C0170D4ED000AC0ED020AD4ED1D
:1029A000010AC0ED030AD4ED020AC0ED040A00EEEC
:1029B000902AF8EE600AC0ED0D0A00EE903AF8EEAB
:1029C000600AC0ED0E0A80ED0F0A9FED020A80ED4D
:1029D0000B0A10BD0000000091ED000A80ED020A14
:1029E00091ED010A80ED030A91ED020A80ED040ADF
:1029F0007047000010B5FDF755FE064A002100BFE4
:102A000001EB810002EBC000FDF7E6FE491C042942
:102A1000F6DB10BD0406002030B587B00024069414
:102A200002940394082404944FF400750A4C009512
:102A3000050A25706070080AA070E170100A207104
:102A40006271180AA071E37106AB22466946034819
:102A5000FEF72EF907B030BD16000020C800002098
:102A600070B59FED2A2A2A4C2A4D20EE020A84EDE9
:102A7000010A20EE820A84ED150A21EE020A84ED95
:102A8000290A21EE820A84ED3D0A2868E16C90ED66
:102A9000010A204688476868D4F89C1090ED010A26
:102AA00004F150008847A868D4F8EC1090ED010AB2
:102AB00004F1A0008847E868D4F83C1190ED010AC1
:102AC00004F1F000884794ED470ABDEEC00A10EE0D
:102AD000100A94ED330A03B2BDEEC00A10EE100ADC
:102AE00094ED1F0A02B2BDEEC00A10EE100A94ED7A
:102AF0000B0A01B2BDEEC00A10EE100A00B2FFF7D9
:102B00008BFFBDE870400120FEF7D0BC2CA099419E
:102B1000B4060020A4060020FEE700000148FEF7EE
:102B20002FB800008000002010B50021074C0A4695
:102B3000002004EBC1131A54401CC0B28028FAD301
:102B4000491CC9B20829F3D310BD0000C8010020F8
:102B500010B5002000F096F8012000F09BF801204D
:102B600000F0A8F8012000F09DF8AE2000F0AAF8CF
:102B7000002000F0A7F8102000F0A4F8D52000F005
:102B8000A1F8802000F09EF8A82000F09BF83F20DC
:102B900000F098F8D32000F095F8002000F092F8AB
:102BA000402000F08FF8A12000F08CF8C82000F041
:102BB00089F8DA2000F086F8122000F083F88120EE
:102BC00000F080F8CF2000F07DF8D92000F07AF8EE
:102BD000F12000F077F8DB2000F074F8402000F0DE
:102BE00071F8A42000F06EF8A62000F06BF88D209C
:102BF00000F068F8142000F065F8AF2000F062F8EB
:102C0000FFF792FFBDE8104000F028B870B500242F
:102C10000646802525FA04F0304000D0012000F05F
:102C200039F8012000F02EF8002000F02BF8641C89
:102C3000E4B2082CEED370BD10B5891CCCB240F0C4
:102C4000B00000F03FF8102040EA141000F03AF80D
:102C500004F00F00BDE8104000F034B870B5084D26
:102C6000002400212046FFF7E7FF05EBC410802178
:102C700000F032F8641CE4B2082CF2D370BD0000FE
:102C8000C8010020024608210148FEF74FBD0000A0
:102C900000040240024680210148FEF747BD0000C3
:102CA0000000024002464FF400710148FEF73EBDAD
:102CB0000004024002464FF480610148FEF736BD31
:102CC0000004024010B504460020FFF7EBFF204649
:102CD000BDE81040FFF79ABF70B506460D460120CB
:102CE000FFF7E0FF002404E0305DFFF78FFF641C76
:102CF000E4B2AC42F8D370BD7047000010B50B4C85
:102D0000012204212046FEF711FD01220821204660
:102D1000FEF70CFD012210212046FEF707FD20469C
:102D20000122BDE810402021FEF700BD001C02403A
:102D3000012202490248FFF789BA00000D00002075
:102D40003801002030B5454A037843481178435490
:102D5000491CC9B21170047800230F2C01D01370E4
:102D600030BD1929FCD3B0F80110C1F30A043A4967
:102D70001A310C808478E508C47845EA4415C5F317
:102D80000A054D800579A40944EA8505447945EA98
:102D90008425C5F30A058D806508847945EAC41544
:102DA000C5F30A05CD802509C47945EA0415C5F3A4
:102DB0000A050D81057AE40944EA4505447A45EAA5
:102DC0004425C5F30A054D81A508847A45EA841592
:102DD000C5F30A058D81C57A640944EAC504CC812E
:102DE0008489C4F30A040C82447BE508847B45EAA9
:102DF0004415C5F30A054D82C57BA40944EA85053F
:102E0000047C45EA8425C5F30A058D826508447C67
:102E100045EAC415C5F30A05CD822509847C45EA37
:102E20000415C5F30A050D83C57CE40944EA45058C
:102E3000047D45EA4425C5F30A054D83A508447D74
:102E400045EA8415C5F30A058D83807D640944EA4B
:102E5000C000C88383E70000C80500200C000020E4
:102E600030EE203ADFED1B1A9FED1B2A30EE600A90
:102E7000F0EE432A01EE213A41EE612AF0EE400ADB
:102E800001EE210A41EE610A1548C2EE823ADFEDF9
:102E9000132A80EE824A63EEA23AC0ED003A11484E
:102EA00080EE021A64EE220AC0ED000A0E4883EE9C
:102EB000024A21EE220AF1EE401A24EE223A80ED77
:102EC000003A0A48B1EE431A80ED000AB0EE630AF8
:102ED000FFF7C6BDCDCC8C3EE3A51B3E0000704283
:102EE0005000002054000020580000205C0000200A
:102EF00070470000F0B507462DED028B87B0594EA4
:102F0000A5208DF80A0096ED000ABDEEC00A10EE6D
:102F1000100AFDF721FBADF80C0096ED000AFDEE5E
:102F2000C00AF8EEE00A30EE600A9FED4F8A20EE0C
:102F3000080ABDEEC00A10EE100AFDF70DFB4B4C5F
:102F4000ADF80E0094ED000ABDEEC00A10EE100AB6
:102F5000FDF702FBADF8100094ED000AFDEEC00A8B
:102F6000F8EEE00A30EE600A20EE080ABDEEC00A74
:102F700010EE100AFDF7F0FA3D4DADF8120095ED98
:102F8000000ABDEEC00A10EE100AFDF7E5FAADF832
:102F9000140095ED000AFDEEC00AF8EEE00A30EEEE
:102FA000600A20EE080ABDEEC00A10EE100AFDF716
:102FB000D3FA00B2ADF816009DF80A208DF8002073
:102FC0005A2100228DF818108DF8012096ED000A84
:102FD000BDF80C30BDF80E60B5EEC00A4FEA031321
:102FE000F1EE10FA43EA262301DA43F080038DF86C
:102FF0000230B3B28DF8033094ED000ABDF8103002
:10300000BDF81240B5EEC00A4FEA0313F1EE10FA14
:1030100043EA242301DA43F080038DF80430A3B29D
:103020008DF8053095ED000ABDF81430B5EEC00AF4
:103030004FEA0313F1EE10FA43EA202301DA43F0DA
:1030400080038DF808208DF806308DF807008DF884
:1030500009101A2269463846FDF7F5F807B0BDECAD
:10306000028BF0BD6000002000007A446400002064
:1030700068000020FEF766BB30B593B0302168468B
:10308000FDF7FAF814210CA8FDF7F6F82048002502
:10309000016841F080510160006800F0805011909B
:1030A0001C48016841F4404101600068022400F4BA
:1030B0004040119001200090000401908001CDE972
:1030C000064006200890B420CDE9090404200B90A6
:1030D0006846FEF7F5FC08B172B6FEE7FEF7CCFBDA
:1030E00008B172B6FEE70CA90F2081E831004FF459
:1030F000A0500F904FF48050109005210CA8FEF7BF
:10310000F3FB002801D072B6FEE713B030BD00001B
:1031100040380240007000400248016841F47001EC
:103120000160704788ED00E00148FEF795BE0000A1
:10313000F000002010B5806B0021C185C184FEF72E
:103140008AFE10BD01680C3151E8002F22F4907204
:1031500041E80023002BF5D10168143151E8002F1C
:1031600022F0010241E80023002BF5D1016B012977
:1031700009D101680C3151E8002F22F0100241E81A
:103180000023002BF5D1202180F84210002101639B
:10319000704708B590F84210222901D0022008BDDE
:1031A00082684FF480539A4201D1016921B1816A4A
:1031B0009A421BD04AB10AE00268816A5268C2F39F
:1031C00008020A80816A891C08E0026972B10268FB
:1031D000526802F07F020A70816A491C8162C18DC7
:1031E000491E0904090CC18503D01BE0026852681E
:1031F000F1E70168CA6822F02002CA600168CA6863
:1032000022F48072CA6001684A6922F001024A61B0
:10321000202180F8421000214163026B012A03D073
:10322000FFF722F8002008BD016301680C3151E866
:10323000002F22F0100241E80023002BF5D1016895
:103240000A68D20602D50A6849680091818DFEF7A6
:1032500001FEE7E770B5044600680169E26821F401
:103260004051114301612169A068E2690843616925
:10327000114308432168CA6849F20C639A43024328
:10328000CA6020684169A26921F44071114341611B
:1032900031492068884202D03049884202D1FEF785
:1032A000CDFB01E0FEF7BAFBE2690023192164259A
:1032B0003226B2F5004F626828D0A0FB0101930FBF
:1032C0009200FCF78FFF0146B0FBF5F06FF018029B
:1032D000504301EB800006EB0010B0FBF5F000F06E
:1032E000F002B1FBF5F002EB0012B1FBF5F06FF06C
:1032F0001803584301EB800006EB0010B0FBF5F01B
:1033000000F00F0021681044886070BDA0FB01012F
:1033100092185B41FCF766FF0146B0FBF5F0020135
:10332000B1FBF5F06FF01803584301EB800006EB9A
:10333000C000B0FBF5F000F0F80002EB4002B1FB7A
:10334000F5F0584301EB800006EBC000B0FBF5F050
:1033500000F00700D6E70000001001400014014013
:1033600081628285C28500214164222180F8421059
:10337000016921B10168CA6842F48072CA600168BB
:103380004A6942F001024A610068C16841F02001C7
:10339000C160002070472DE9F843984617460D4656
:1033A0000446089E24E0701C22D0FEF7C5F9A0EB6D
:1033B0000800B0421AD8CEB12068C168490717D5B5
:1033C000802D15D0402D13D00168C94309070FD4B3
:1033D00001680025406800902046FFF7B3FE0820F2
:1033E000606484F840500120BDE8F8830320FBE7C7
:1033F0002068006835EA000004D00020B842D2D02E
:103400000020F1E70120F9E70148FEF725BD0000A3
:10341000380100200148FEF71FBD00008001002098
:103420003A480178A52970D182781306C2F30111B8
:1034300005D5494200EE101AB8EEC00A03E000EECE
:10344000101AB8EE400A02F00F0280ED040AC178AB
:1034500041EA022100EE101A2E49B8EE401A9FED03
:103460002C0AC1EE000AC0ED050A90ED041A71EEB7
:10347000200AC1ED000A02791306C2F3011105D535
:10348000494200EE901AF8EEE00A03E000EE901ACE
:10349000F8EE600A02F00F02C0ED070A417941EA36
:1034A000022100EE901A1C49B8EE601AC1EE000A23
:1034B000C0ED080A90ED071A71EE200AC1ED000A6E
:1034C00082791306C2F3011105D5494200EE901A24
:1034D000F8EEE00A03E000EE901AF8EE600A02F05F
:1034E0000F02C0ED0A0AC17941EA022100EE901AEA
:1034F000B8EE601AC1EE000AC0ED0B0A90ED0A0AA0
:10350000064830EE200A80ED000A7047300900209E
:1035100000007A4460000020640000206800002061
:10352000074A10B50020054B111F1C5C14600C6885
:103530006406FCD5401C0A28F7DB10BD14090020E6
:1035400004140140FEE70907090E002804DB00F11E
:10355000E02080F80014704700F00F0000F1E02038
:1035600080F8141D704702E008C8121F08C1002A25
:10357000FAD170477047002001E001C1121F002AF4
:10358000FBD1704788B0FEF7E5F8FFF775FDFFF750
:103590007FF8FFF729F8FFF759F8FFF769F9FFF708
:1035A00029F9FFF743F9B420FDF79AF8FFF704F87B
:1035B000FEF7EEFFFFF7CCFAFFF7B0FAFFF79EFB3E
:1035C000FFF7B6FBFEF7DCFEFFF714FA0A222749E5
:1035D0002748FEF73BFE0025264EDFF89C802F464D
:1035E00041F288394FF4804A05EB850006EB001460
:1035F0002046FFF7BFF9CDE900782046646CB2EEB3
:10360000040A4B4652460121A0476D1C042DEBDBFA
:103610000020FDF7D7F8194C20600120FDF7D2F803
:1036200060600220FDF7CEF8A0600320FDF7CAF825
:10363000E0606420FDF73AFF114C124D124E00BFBE
:1036400094ED001AD5ED000A96ED000AFFF708FC8C
:103650006846FFF74FFC1A2269460C48FCF7F3FD59
:10366000FFF75EFF0A20FDF721FFE9E730090020A0
:1036700080010020B406002020000020A4060020C5
:103680006800002064000020600000201409002071
:103690000000000000000000010203040607080902
:1036A0000000000001020304C836000800000020EA
:1036B00080000000663500084837000880000020C0
:1036C000E80C000076350008000000000000000053
:1036D00000000000000000000000000000000000EA
:1036E000000000000000000000004040CDCCCC3DB8
:1036F00000000000000000000000000000FFAA69B8
:1037000088B5FFAA000000FFAA240100FFAA020C4E
:1037100000FFAA030B0000000000000000000000F2
:103720000000000000000000000000000000000099
:103730000000000000000000010000001000000078
:08374000000000000024F40069
:04000005080001AD41
:00000001FF
