:020000040800F2
:10000000E80A0020C1010008A1240008912000088E
:10001000312300081D0900087D28000800000000A9
:10002000000000000000000000000000B9260008E9
:10003000650900080000000081260008BB260008B2
:10004000DB010008DB010008DB010008DB01000820
:10005000DB010008DB010008DB010008DB01000810
:10006000B5090008DB010008DB010008DB0100081E
:10007000DB010008DB010008DB010008DB010008F0
:10008000DB010008DB010008E9070008DB010008CC
:1000900021090008DB010008DB010008DB01000882
:1000A000DB010008DB010008DB010008DB010008C0
:1000B000DB010008DB010008DB010008DB010008B0
:1000C000DB010008DB010008DB010008DB010008A0
:1000D000DB010008DB010008DB010008DB01000890
:1000E000DB010008DB010008DB010008DB01000880
:1000F000DB010008DB010008DB010008DB01000870
:10010000DB010008DB010008DB010008DB0100085F
:10011000DB010008DB010008DB010008DB0100084F
:10012000DB010008DB010008DB010008DB0100083F
:10013000DB010008DB010008DB010008DB0100082F
:10014000DB010008DB010008DB010008DB0100081F
:10015000DB010008DB010008DB010008DB0100080F
:10016000DB010008DB010008DB010008DB010008FF
:10017000DB010008DB010008DB01000800000000D3
:10018000DB010008DB010008DB010008DB010008DF
:10019000DB010008DB010008DB010008DB010008CF
:1001A0000000000000000000DB010008DFF80CD0B8
:1001B00000F008FB00480047F13A0008E80A002078
:1001C0000648804706480047FEE7FEE7FEE7FEE7F1
:1001D000FEE7FEE7FEE7FEE7FEE7FEE76127000831
:1001E000AD0100082DE9F05F0546002092469B46D0
:1001F00088460646814640241BE02846414647463D
:10020000224600F048FA53465A46C01A914110D38C
:1002100011461846224600F02FFA2D1A67EB010806
:100220004F4622460120002100F026FA17EB000974
:100230004E41201EA4F10104DFDC484631462A4627
:100240004346BDE8F09FD2B201E000F8012B491E01
:10025000FBD270470022F6E710B513460A46044663
:100260001946FFF7F0FF204610BD2DE9FE4F8046EE
:1002700081EA0300C00F0C46009021F0004123F0FA
:100280000045B8EB0200A94105D240462146904600
:100290001C460B46024623F00040104347D0270D72
:1002A000C7F30A00C3F30A510290401A0190402894
:1002B0006BDAC3F3130040F4801B0098924620B120
:1002C0000023D2EB030A63EB0B0B01985946C0F1F4
:1002D0004002504600F0D0F906460D4650465946B9
:1002E000019A00F0E8F910EB08006141002487EA68
:1002F000115284EAE7731A4340D0009A62B3019A1C
:10030000012A4FEA075215DC001B61EB02014FF096
:10031000004202EA0752CDE90042001C41F580117B
:1003200032462B4600F0E8F903B0BDE8F08F4046B6
:100330002146F9E7001B61EB0201001C41F5801327
:1003400000185B412018A2F5001747EB030140EAB3
:10035000D570B6196D4111E06D084FEA360645EAD1
:10036000C0754FEA0752001B61EB0201001C41F50A
:10037000801149084FEA30000019514132462B469E
:1003800003B0BDE8F04F00F0A8B90098012240008A
:100390000023D0EB020263EBE073009821464FEAA2
:1003A000E074B8EB000061EB0401E9E783F000437F
:1003B0005BE781F0004158E72DE9FE4F81EA030435
:1003C00004F0004421F0004100944FF0000B23F0B2
:1003D000004350EA01045ED052EA03045BD0C3F349
:1003E0000A54C1F30A552C44A4F2F3340194A0FB3F
:1003F0000254C1F3130141F48011C3F3130343F416
:10040000801301FB024400FB034E840A970A44EA6E
:10041000815447EA8357A4FB076802958D0A05FBC0
:1004200007854FEA932C04FB0C542705029D4FEAE5
:10043000065847EA1637B5EB08056EEB070C870E32
:10044000920E47EA811742EA8312A7FB0201B6EB3C
:100450000B0164EB00042B0D43EA0C335E1844EBF4
:100460001C50DA465146E7FB0201C5F313044FEA7C
:100470000B3343EA14534FEA0432019C43EA060368
:10048000A4F10C040294009CCDE900B400F034F90E
:1004900003B0BDE8F08F00200146F9E72DE9F04DEB
:1004A00081EA030404F0004B21F0004514464FF0AC
:1004B000000A23F0004150EA050220D054EA01026C
:1004C0001DD0C5F30A570246C5F31303C1F3130049
:1004D000C1F30A5640F4801543F48013A7EB0608D5
:1004E000101BD64608F2FD3873EB050002D308F165
:1004F000010801E092185B41B8F1000F03DA002017
:100500000146BDE8F08D00204FF480110646844678
:100510000EE0171B73EB050705D3121B63EB0503F6
:1005200006434CEA010C49084FEA300092185B413F
:1005300050EA0107EDD152EA030012D082EA04002A
:1005400083EA0501084305D0101BAB4106D2012206
:10055000002306E000224FF0004302E06FF00102AA
:1005600053101AEB06004CEB085110EB0A0041EB5C
:100570000B01BDE8F04D00F0B0B80EB5C10F80EA38
:10058000E0700844CA07002140F233438DE80E00B2
:100590000A460B4600F0B0F803B000BD0EB540F2BD
:1005A000334102910021CDE900110A460B4600F0CB
:1005B000A3F803B000BD70B5C1F30A5201F00045C5
:1005C0000024C1F3130140F2FF3341F480119A4239
:1005D00001DA002070BD40F233439A42A2F2334266
:1005E00003DC524200F057F800E090402C43F1D079
:1005F000404270BD00F0004230F000400AD0C10D12
:1006000001F56071C0F3160042EA0151C2084007CB
:1006100011437047002001467047000030B5041EAA
:1006200071F1000404DB4FF00044404264EB01012F
:10063000141E73F1000405DB1C464FF000435242C8
:1006400063EB0403994208BF904230BD30B50B46BE
:10065000014600202022012409E021FA02F59D42F2
:1006600005D303FA02F5491B04FA02F52844151EC6
:10067000A2F10102F1DC30BD202A04DB203A00FAAD
:1006800002F1002070479140C2F1200320FA03F3E9
:10069000194390407047202A04DB203A21FA02F0E7
:1006A0000021704721FA02F3D040C2F120029140AC
:1006B000084319467047202A06DBCB17203A41FA37
:1006C00002F043EAE07306E041FA02F3D040C2F1DF
:1006D0002002914008431946704710B5141E73F16B
:1006E000000408DA401C41F1000192185B411A43F2
:1006F00001D120F0010010BD2DE9F04D92469B463E
:1007000011B1B1FA81F202E0B0FA80F220329046E3
:10071000FFF7B2FF04460F4640EA0A0041EA0B0128
:1007200053465A46084313D0114653EA010019D0E4
:10073000C8F140025046FFF7AEFF05460E46504650
:1007400059464246FFF798FF084305D0012004E0D0
:1007500020463946BDE8F08D0020054346EAE076A4
:100760002C4337430A986305E40AA0EB08000022F3
:10077000FD0A44EA47540A3002D500200146E9E761
:10078000010510196941DDE9084500196941BDE815
:10079000F04DA2E7C1F30A52C1F3130140F2FF3357
:1007A00041F480119A4202DA00200146704740F27B
:1007B00033439A42A2F2334202DC5242FFF76BBF4C
:1007C000FFF75ABF064C074D06E0E06840F0010312
:1007D00094E8070098471034AC42F6D3FFF7EAFCE0
:1007E000503D0008703D0008014800F033BA000099
:1007F00040000020464910B54A6822F440324A6061
:100800004A6843681A434A6001684A6822F4807261
:100810004A6001684A68036942EA03224A60016843
:100820004A6822F040724A6001684A6883681A4345
:100830004A6001688A6822F400628A6001688A68F6
:10084000C3681A438A60816A6FF07062D14201689E
:100850008A6822F070628A6001688A680CD0836AB4
:100860001A438A6001688A6822F040528A600168EF
:100870008A68C36A1A4301E022F040528A60016824
:100880008A6822F002028A6001688A68037E42EA6E
:1008900043028A6090F82010002901684A680FD04E
:1008A00042F400624A6001684A6822F460424A6089
:1008B00001684A68174C436A04EB43331A4301E06A
:1008C00022F400624A600168CA6A22F47002CA62B5
:1008D0000168CA6A838B104C04EB03531A43CA6243
:1008E00001688A6822F400728A6001688A6890F858
:1008F000303042EA43228A6001688A6822F48062CA
:100900008A6001688A68406942EA8020886010BD78
:100910000023014000E0FFFF0000F0FFFEE70000C1
:10092000014800F02ABC00008800002000B58BB010
:1009300000200121CDE9060108910090019002906C
:100940000390059004906946054800F015FB0448A3
:1009500000F024FE0221024800F0FCFA0BB000BDBA
:1009600088000020704700000149086070470000BF
:10097000240000204FF47A71484300F001B80000D1
:1009800070B54FF0E024002265690949A369096840
:100990004843A1699942FCD002D2A3EB010302E0D3
:1009A000A5EB010633441A440B468242F1D370BDD5
:1009B00024000020042000F03FBE72B6FEE70000D5
:1009C000D0ED000AB7EE002AC0ED050A0A8852BA37
:1009D00000EE102AB8EE400A80ED000A4A8870EE58
:1009E000600A52BA12B201EE102AF8EEC11AC0ED36
:1009F000011A8A8852BA01EE102AB8EE411A80ED27
:100A0000021A897901EE101A10EE901AB8EE411A06
:100A1000B1F18B4F80ED031A90ED061A02DD71EEF5
:100A2000420A09E010EE901A11F16A5F02D8D0ED87
:100A3000060A03E071EE020AC0ED060A9FED0F1AE6
:100A400000EE810AD0ED040A9FED0D1A30EE600A27
:100A500080ED070AC0EE010A9FED0A0A20EE801A17
:100A6000DFED090A21EE800A81EE202A80EE201AAD
:100A700080ED082A80ED091A70470000000000464A
:100A8000610BB64100003B430070604500F003007D
:100A9000024900EB800001EBC0007047F804002021
:100AA00090ED000A80ED040A9FED020A80ED060A2F
:100AB00070470000000000007047000078B5002477
:100AC000009490F83C20012A19D0012280F83C20A3
:100AD0000A6807230568092A13D9EE680A3A02EB67
:100AE000420293409E43EE600B788A680A3B03EB18
:100AF00043039A400368DD682A43DA6010E002206D
:100B000078BD2E6902EB420293409E432E610B7822
:100B10008A6803EB43039A4003681D692A431A61FC
:100B20004A681F23072A13D205686E6B521E02EB18
:100B3000820293409E436E630A8893B20A79521EE2
:100B400002EB820293400268556B2B43536327E00C
:100B500005680D2A12D22E6BD21F02EB820293403F
:100B60009E432E630B790A88DB1F92B203EB83034B
:100B70009A4003681D6B2A431A6311E0EE6A0D3A2E
:100B800002EB820293409E43EE620B790A880D3B92
:100B900092B203EB83039A400368DD6A2A43DA6268
:100BA0001B4B0568194A9D420AD10D68122D07D1C9
:100BB000556825F400055560556845F48005556075
:100BC00005689D421DD1134D0B68AB4201D0112B1E
:100BD00017D1536823F480035360536843F4000330
:100BE00053600968A9420CD10B490C4A0968B1FB52
:100BF000F2F101EB8101490000E0491E009100295A
:100C0000FBD180F83C40002078BD0000002301406B
:100C100000200140120000103400002040420F006C
:100C200010B500680649884204D1064800F00FF864
:100C300005490860BDE81040024800F005B9000011
:100C4000002001404000002008000020704700689C
:100C5000C06C704770B5044600680668456816F0B9
:100C6000020F05F020012AD049B3216CC90603D434
:100C7000216C41F400712164816811F0405F17D14B
:100C8000217EA9B9C16A11F4700F02D081684905AB
:100C90000ED4416821F020014160206C20F4807066
:100CA0002064206CC00403D4206C40F00100206458
:100CB0002046FFF7B5FF21686FF01200086016F0BC
:100CC000040F05F0800132D089B3206CC00603D434
:100CD000206C40F4005020642068816811F4401FAB
:100CE0001ED1816B11F4401F02D08168490517D4D1
:100CF0004168490514D4816811F0405F10D1217E0C
:100D000071B9416821F080014160206C20F480506D
:100D10002064206CC00503D4206C40F001002064E6
:100D20002046FFF7C9FE21686FF00C00086016F03E
:100D3000010F05F040010FD071B120680068C007B5
:100D40000AD0206C40F480302064204600F043F844
:100D500021686FF00100086016F0200F05F0806137
:100D60000ED000290CD0606C40F002006064206856
:100D70006FF0200505602046FFF768FF20680560DA
:100D800070BD70B504004FF0000503D0206C002644
:100D900010B107E0012070BD204600F01DF8666428
:100DA00084F83C60206CC00610D4206C20F488507D
:100DB00040F0020020642046FFF71CFD6664206CB2
:100DC00020F0020040F00100206400E0012584F8DA
:100DD0003C60284670BD704710B586B004461421AB
:100DE0006846FFF737FA15492068884224D114482D
:100DF0000021026842F480720260006800F4807092
:100E000005900F481438026842F001020260006841
:100E100000F001000590402000900320CDE9010181
:100E20006946084800F014FC00221146122000F028
:100E30009DFD122000F08CFD06B010BD0020014089
:100E4000443802400000024018B50021009190F89B
:100E50003C20012A07D0012280F83C2002689368D8
:100E6000DB0702D011E0022018BD936843F00103B4
:100E70009360314A314B1268B2FBF3F202EB42024B
:100E800000E0521E0092002AFBD102689368DB0743
:100E900047D0036C40F20164A34343F480730364BE
:100EA00053685B0505D5036C23F4005343F480536A
:100EB0000364036CDB0404D5436C23F00603436432
:100EC00000E0416480F83C101D4B6FF0220111607E
:100ED00001684A681B4C22434A6059680068CA0688
:100EE000194906D0884224D1816811F0405F13D09F
:100EF0001FE08842F8D0154A904203D1D1F804236C
:100F0000D206F1D0124A904213D1D1F8041301F065
:100F10001F011029E8D30CE0816841F08041816015
:100F200007E0016C41F010010164416C41F00101E6
:100F30004164002018BD00003400002040420F0032
:100F40000023014020000004002001400021014056
:100F50000022014090F82020012A07D0022A05D063
:100F6000416A41F480214162012070470068426972
:100F70000A4342610020704710B590F82020012AF2
:100F800007D0022A05D0416A41F480214162012044
:100F900010BD3B48D0F8002242F00102C0F8002208
:100FA000D0F8002222F47C52C0F80022D0F80022AF
:100FB0004B6A42EA0322C0F800220A7D02F01F03B6
:100FC00001229A40D0F81C329343C0F81C32CB69FE
:100FD000B3B9D0F80C329343C0F80C328C894B680B
:100FE00064F31F434C6900EBC404C4F840320C891D
:100FF0000B6864F31F434C6900EBC404C4F844322B
:10100000CB69012B16D1D0F80C321343C0F80C3247
:101010000C884B6864F31F434C6900EBC404C4F8AC
:1010200040320C89CB6864F31F434C6900EBC40465
:10103000C4F844328B69002BD0F804320ED013432D
:10104000C0F804320B69002BD0F8143208D01343D7
:10105000C0F81432096A012904D008E09343EFE78D
:101060009343F5E7D0F81C121143C0F81C12D0F8D6
:10107000001221F00101C0F80012002010BD000094
:1010800000640040704770B590F82040012C05D0F6
:10109000022C03D0416A41F4802128E0046809B39E
:1010A0002469A40720D04FF4D874056804EB011418
:1010B0002D5915F00405956005682D591AD0ED08D5
:1010C000556005682C5904F00204D4604FF4DA74BA
:1010D000056804EB01142E5906F00F06082E0CD3F8
:1010E00008250DE0E468DCE7416A41F40011416243
:1010F000012070BD6D0D1560E3E72D5905F00F055A
:10110000156105682D59C5F30725956105682C59AA
:10111000240C54614FF4DC72046802EB0112A458F1
:101120001C700468A458240A5C700468A458240C39
:101130009C700468A258120EDA704FF4DE720468D4
:1011400002EB0112A4581C710468A458240A5C71B3
:101150000468A458240C9C710468A258120EDA7119
:10116000006829B1016941F020010161002070BDD2
:10117000C16841F02001C160F8E72DE9F05F054644
:10118000006800244669D0F804908768D0F80CB055
:10119000D0F810A0D0F81880F10748D0F90714D083
:1011A00001218160B80703D5284600F024FA0CE03D
:1011B000780702D54FF4006407E0380702D54FF4F2
:1011C000805402E0284600F015FAF80516D5296883
:1011D0004FF480708860B80503D5284600F00DFAFA
:1011E0000CE0780502D544F4005407E0380502D538
:1011F00044F4804402E0284600F0FEF9F80316D5D6
:1012000029684FF480308860B80303D5284600F081
:10121000F6F90CE0780302D544F4004407E0380303
:1012200002D544F4803402E0284600F0E7F93007A4
:1012300007D55FEACB6004D52968102044F4007418
:10124000C86070074FF0080707D55FEA0B7004D538
:101250002868C760284600F057F9B00706D5286807
:10126000C068800702D0284600F050F9700607D504
:101270005FEACA6004D52968102044F480640861DC
:10128000B00607D55FEA0A7004D5286807612846CA
:1012900000F080F9F00606D528680069800702D0C2
:1012A000284600F078F9B00308D55FEAC96005D593
:1012B000296810204860284600F06EF9F00307D531
:1012C0005FEA097004D528684760284600F098F95D
:1012D000300446D55FEA497040D5F00504D55FEA91
:1012E000C87001D044F00104B00504D55FEA8870ED
:1012F00001D544F00204700504D55FEA487001D5B9
:1013000044F00404300529D518F0700F26D008F0F9
:101310007000402815D006DC102809D020280AD0FB
:10132000302816D10AE050280ED0602811D10EE0E6
:1013300044F008040DE044F010040AE044F02004F6
:1013400007E044F0400404E044F0800401E044F489
:1013500080742868816921F0700181612968042006
:101360004860002C05D0686A204368622846FFF771
:1013700089FEBDE8F09F70B5040003D094F820000A
:1013800010B104E0012070BD204600F081F8206813
:10139000016841F00101016000F07AFA0546052676
:1013A00004E000F075FA401B0A2811D82068406854
:1013B000C007F6D02068016821F00201016000F04A
:1013C00067FA05460BE000F063FA401B0A2806D9CD
:1013D000606A40F40030606284F82060D2E72068E0
:1013E00040688007EFD4207E0128206801683DD046
:1013F00021F080010160607E01282068016838D0FA
:1014000021F040010160A07E01282068016833D0EE
:1014100021F020010160E07E0128206801682ED0C3
:1014200041F010010160207F01282068016829D067
:1014300021F008010160607F01282068016824D044
:1014400021F004010160D4E902010843D4E9041247
:10145000114308436168491E08432168C8610020A0
:101460006062012084F82000002070BD41F08001FE
:10147000C0E741F04001C5E741F02001CAE721F093
:101480001001CFE741F00801D4E741F00401D9E7AA
:1014900010B586B0044614216846FEF7DBFE1749F6
:1014A0002068884227D116480021026842F0007265
:1014B0000260006800F00070059011481038026862
:1014C00042F0080202600068022200F00800059065
:1014D0000320CDE90210CDE90002092004906946FD
:1014E000084800F0B5F800220521142000F03EFA6B
:1014F000142000F02DFA06B010BD0000006400407A
:1015000040380240000C02407047000010B592B015
:101510000FAB08AA00211C48FFF7B5FD0898A0F5FD
:101520000070013805D0012803D0022801D003281B
:1015300028D10898154B401EC0B21870144C00EB0F
:10154000800004EBC0000FA9FFF73AFA187869464B
:1015500001EB800292ED000AB5EEC00AF1EE10FA3E
:1015600010D100EB800004EBC000FFF799FA187867
:10157000F7EE000A01EB800090ED000A30EE200A41
:1015800080ED000A12B010BD880000200C00002081
:10159000F8040020704770477047000070B504469B
:1015A00090F82000012804D0606A40F400206062B6
:1015B00018E0022084F820002068016821F0010171
:1015C000016000F065F905460EE000BF00F060F92B
:1015D000401B0A2808D9606A40F400306062052088
:1015E00084F82000012070BD20684068C007EDD15C
:1015F000606270BD704770477047704770477047B2
:101600007047000070B5044600F042F90546601CC2
:1016100002D004480078044400F03AF9401BA0428C
:10162000FAD370BD28000020042802D1014901200E
:101630000870704700000020044910B50A68024293
:1016400002D00860FFF7F0FF10BD0000143C01401D
:101650002DE9F84FDFF8F8A10022012403254FF00F
:101660000F090AF1040BAAF1040E00BF0B6804FA7B
:1016700002F63340B34270D10F7907F00307012F10
:1016800001D0022F16D187684FEA420805FA08FCFC
:1016900027EA0C07D1F80CC00CFA08FC4CEA070C3E
:1016A000C0F808C04768B7430E79C6F300169640E5
:1016B0003E4346600E79F643B6070AD0C7684FEA44
:1016C000420C05FA0CF6B7438E6806FA0CF63E4358
:1016D000C6600E7906F00306022E10D1D60800EB84
:1016E0008608D8F8206057074FEAD76C09FA0CF73C
:1016F000BE430F6907FA0CF73743C8F82070066835
:101700004FEA420C05FA0CF7BE430F7907F00307C6
:1017100007FA0CF7374307604E6816F4403F1CD0B9
:101720004C4E376847F480473760366822F003072D
:1017300006F480460096484E07EB060CDCF8086875
:1017400097073F0F09FA07F826EA0806DFF80C8129
:10175000404503D14FF0000841E072E0DFF800811E
:10176000404502D14FF0010839E0DFF8F8804045EC
:1017700002D14FF0020832E0DFF8EC80404502D1A0
:101780004FF003082BE0DFF8E480404502D14FF032
:10179000040824E0DFF8D880404502D14FF0050866
:1017A0001DE0DFF8D080404502D14FF0060816E07A
:1017B000DFF8C480404502D14FF007080FE0DFF8A2
:1017C000BC80404502D14FF0080808E0DFF8B08047
:1017D000404502D14FF0090801E04FF00A0808FA2D
:1017E00007F848EA0608CCF80888DAF80060574697
:1017F000D1F804C09E435FEACC2C00D51E433E6066
:10180000DBF800605F46D1F804C09E435FEA8C2C91
:1018100000D51E433E60DEF800607746D1F804C074
:101820009E435FEA8C3C00D51E433E60084F083F54
:101830003E68D1F804C09E435FEACC3C00D51E430D
:101840003E60521C102AFFF411AFBDE8F88F000073
:10185000083C014044380240003001400000024092
:101860000004024000080240000C02400010024048
:101870000014024000180240001C024000200240F8
:10188000002402400AB1816170470904FBE70000AF
:1018900001488068704700002800002002488168E5
:1018A0000278114481607047280000200B4810B571
:1018B000016841F400710160016841F480610160D8
:1018C000016841F480710160032000F06FF800208E
:1018D00000F006F800F024F8002010BD003C0240A3
:1018E00070B50D4D04464FF47A712878B1FBF0F0D5
:1018F0000A490968B1FBF0F000F044FB48B9102C2C
:1019000007D200222146501E00F030F800206C6003
:1019100070BD012070BD00002800002034000020B0
:101920000A4808B5016841F480410160006800F48C
:10193000804000900548001F016841F0805101601F
:10194000006800F08050009008BD0000443802405C
:10195000002809DB00F01F020121914040098000AE
:1019600000F1E020C0F8001170470000F0B40E4B09
:101970001B680C46C3F30223C3F10705042D00D9ED
:101980000425191D072901D2002300E0DB1E0126D2
:1019900006FA05F1491E214099409E40761E1640E8
:1019A0003143F0BC00F094BF0CED00E0064900F0BC
:1019B000070208684FF6FF03184040EA0220034A76
:1019C00010430860704700000CED00E00000FA05CD
:1019D0002DE9F8431748016841F080510160006823
:1019E000154F00F08050012600903E64FFF750FF35
:1019F00005464FF47A78114C05E000BFFFF748FF29
:101A0000401B40450DD86068C003F7D57E64FFF7E2
:101A10003FFF0546464607E0FFF73AFF401BB0424E
:101A200002D90320BDE8F88360688003F4D5002064
:101A3000F8E700004038024000000E42007000400D
:101A40002DE9F0470E46050065D0DFF81481D8F87F
:101A50000000F7B200F00F00B04207D288F8007023
:101A6000D8F8000000F00F00B04254D128683D4C77
:101A7000810712D5400703D5206840F4E05020606C
:101A80002878000703D5206840F460402060206873
:101A9000A96820F0F000084320602878C0072DD006
:101AA000304968680839012812D0022813D0032869
:101AB00011D00968890700292DDA216821F0030176
:101AC00001432160FFF7E4FE814641F2883A0EE0CF
:101AD00009688903EFE709688901ECE7FFF7D8FE99
:101AE000A0EB0901514502D90320BDE8F087206829
:101AF000696800F00C00B0EB810FEFD1D8F800104E
:101B0000404601F00F01B14207D90770006800F0AC
:101B10000F00B04201D00120E7E72878400705D543
:101B20002068E96820F4E050084320602878000726
:101B300006D52068296920F4604040EAC100206091
:101B400000F038F82168084AC1F30311515CC8401D
:101B50000649086006480068FFF7C2FE0020C4E797
:101B6000003C024008380240143C000834000020C9
:101B70002C0000200448054900680968044AC1F3A4
:101B80008221515CC8407047340000200838024070
:101B9000243C00080448054900680968044AC1F368
:101BA0004231515CC8407047340000200838024080
:101BB000243C0008154810B5006810F00C021448C9
:101BC00013D01449042A0FD0082A0ED10F4C241F19
:101BD0002268236802F03F025B0207D52068C0F349
:101BE0008810A0FB010106E0084610BD2168C1F382
:101BF0008811A1FB00010023FEF7F4FA2168C1F36C
:101C00000141491C4900B0FBF1F010BD0838024009
:101C10000024F400001BB7002DE9F84F04006ED03B
:101C20002078DFF84C93C007A9F104054AD009F1E8
:101C300004000168C1F38101012908D00068C0F3E4
:101C4000810002280AD1D9F80000400206D5286890
:101C5000800337D560680028E1D033E06068B0F5D4
:101C6000803F10D0B0F5A02F286810D020F480302D
:101C70002860286820F4802028606068A8B1FFF7F9
:101C800007FE06460DE0286840F48030F4E740F493
:101C900080202860F7E700BFFFF7FAFD801B64286B
:101CA00073D828688003F7D50CE0FFF7F1FD0646EE
:101CB00005E000BFFFF7ECFD801B6428F0D8286822
:101CC0008003F7D42078DFF8AC8280074FF0000A59
:101CD0003ED5A748001D016811F00C0F08D0006820
:101CE000C0F3810002280BD1D9F80000400207D4CC
:101CF0002868800716D5E068012800D112E033E19A
:101D0000E068B8B10120C8F80000FFF7C1FD064641
:101D100005E000BFFFF7BCFD801B0228C0D8286883
:101D20008007F7D52868216920F0F80040EAC10053
:101D300028600DE0C8F800A0FFF7AAFD064604E001
:101D4000FFF7A6FD801B02281FD828688007F7D45C
:101D50002078000722D5864F87486169703771B1B6
:101D600001210160FFF794FD064604E0FFF790FDB6
:101D7000801B022809D838688007F7D50EE0C0F824
:101D800000A0FFF785FD064605E082E0FFF780FD35
:101D9000801B02287DD838688007F7D42078400758
:101DA00068D5DFF8CCB100270BF13C0BDBF8000065
:101DB000C0000BD4DBF8001041F08051CBF80010CC
:101DC000DBF80000012700F0805000906B4E306877
:101DD000C00510D4306840F480703060FFF758FDC3
:101DE000009005E0FFF754FD0099401A022850D8F2
:101DF0003068C005F6D55E4EA0686C3601280FD05D
:101E00000528306810D020F001003060306820F0E4
:101E100004003060A068B8B1FFF73AFD00900FE011
:101E2000306840F00100F4E740F004003060F7E76C
:101E3000FFF72EFD0099411A41F28830814266D8A1
:101E400030688007F4D50EE0FFF722FD009007E030
:101E5000FFF71EFD0099411A41F28830814256D8A1
:101E600030688007F4D42FB1DBF8001021F08051E6
:101E7000CBF80010A069C8B33D49091D0968C1F33A
:101E8000810102294AD00228504607D0C8F86000D4
:101E900000E03CE0FFF7FCFC04463BE04746C8F8A6
:101EA0006000FFF7F5FC064605E000BFFFF7F0FC19
:101EB000801B02282BD828688001F7D4D4E90701B9
:101EC0000843A16A2E4A490802EB0141626A41EACD
:101ED0008211084394F82C1040EA0161C9F80010FF
:101EE00001203866FFF7D4FC044606E03EE000BF60
:101EF000FFF7CEFC001B022809D828688001F7D51F
:101F000034E000BFFFF7C4FC001B022802D9032005
:101F1000BDE8F88F28688001F4D427E00128F7D0C5
:101F2000D9F80000E26900F4800191421CD1226AD4
:101F300000F03F01914217D147F6C071626A01403B
:101F4000B1EB821F10D1A26A4FF0FF3300F4403191
:101F500003EB5202B1EB024F06D194F82C1000F0C3
:101F60007060B0EB016F01D00120D1E70020CFE716
:101F70000438024000004742800E47420070004093
:101F80000000FFFF10B5401EB0F1807F01D301209B
:101F900010BD4FF0E02460610F21601700F098FC45
:101FA0000020A06107202061002010BD70B5040052
:101FB00004D094F84100002510B106E0012070BD66
:101FC00084F84050204600F023F8242084F8410093
:101FD0002068C16821F40051C160204600F0C8FBB0
:101FE0002068016921F4904101612068416921F074
:101FF0002A0141612068C16841F40051C1606564F3
:10200000202084F8410084F842006563002070BD00
:10201000F0B587B0044614216846FEF71BF919494C
:10202000206888422CD118480021026842F0200222
:102030000260006800F02000059013481438026820
:1020400042F040020260006802AA00F040000590E1
:102050000325082682E862004FF480400224CDE97F
:1020600000040A4F69463846FFF7F2FA2002CDE92C
:10207000000402AA694682E870003846FFF7E8FAD1
:1020800007B0F0BD0014014044380240001802407F
:10209000FEE70000014900200870704700000020A2
:1020A000054B4FF48041012803D001221846FFF769
:1020B000E9BB0022FAE700000014024010B500203E
:1020C00000F006F8BDE810400020FFF7E9BF00006F
:1020D000054B4FF40061012803D001221846FFF799
:1020E000D1BB0022FAE70000001002407FB50024B7
:1020F00015480094019402941249039401604FF42E
:102100008031C0E9011401250461057680F8204082
:102110000E49C0E90A14C561C46080F830404561C9
:10212000FEF72FFE08B1FEF748FC0620CDE90005BA
:10213000694602940448FEF7C1FC002801D0FEF76E
:102140003CFC7FBD00200140400000200100000F4A
:102150000F4810B50D4901600521416000214FF481
:1021600000328160C0E9031252014261017641767A
:102170008176C17601774177FFF7FDF8002803D01B
:10218000BDE81040FEF719BC10BD0000006400401F
:10219000880000202DE9F04F87B014216846FEF733
:1021A00059F84F480026016841F04001016001687C
:1021B00001F040010591016841F0020101600168F0
:1021C00001F002010591016841F00101016001681F
:1021D00001F001010591016841F008010160016809
:1021E00001F008010591016841F08001016001687A
:1021F00001F080010591016841F010010160016862
:1022000001F010010591016841F0200101600068B2
:10221000DFF8D09000F020004FF4C1640590002258
:1022200021464846FFF72EFBDFF8BCA000223C21E8
:102230005046FFF727FBDFF8B4B04FF400670022E9
:1022400039465846FFF71EFB002280212848FFF739
:1022500019FB4FF48048002241462648FFF712FB45
:10226000009401240225694648460194CDE90245BF
:10227000FFF7EEF93C208DE8710069465046FFF704
:10228000E7F9042000904FF48810CDE90105694674
:102290004846FFF7DDF9CDE90074CDE9024669460D
:1022A0005846FFF7D5F98020CDE90004694610486B
:1022B000CDE90245FFF7CCF9CDE90084CDE902462E
:1022C00069460C48FFF7C4F9002211460820FFF7C1
:1022D0004DFB0820FFF73CFB07B0BDE8F08F000086
:1022E0003038024000040240001C0240001002404E
:1022F00000000240001402400C4810B50A49016079
:102300004FF4E1314160002181600C22C160C0E9DD
:1023100004128161C161FFF749FE002803D0BDE8C6
:102320001040FEF74ABB10BD00140140B000002071
:10233000FEE780ED080A90ED091A80ED0A1AD0ED4B
:102340000B0AC0ED0C0AD0ED010A30EEC00A80ED98
:10235000090AD0ED0F1AF0EEC00AF4EEE10AF1EE30
:1023600010FA47DDD0ED020A60EE801AC0ED051AC2
:10237000D0ED060A90ED032A42EE000A30EE410A43
:10238000C0ED060A90ED041A20EE011A80ED071A3E
:1023900090ED0E0AB1EE402AF4EEC20AF1EE10FA08
:1023A00001D280ED062AD0ED060AF4EEC00AF1EE65
:1023B00010FA02DCB0EE600A01E080ED060A31EEB0
:1023C000800A30EE011A80ED0B1A90ED0D0AF1EE45
:1023D000400AB4EEE01AF1EE10FA02D3F0EE410A30
:1023E00001E0C0ED0B0AF4EEC00AF1EE10FA01DDD7
:1023F00080ED0B0A90ED0B0A704700000349416421
:10240000034981640349C16470470000192400082E
:10241000612400083323000810B5039C0170D4ED3B
:10242000000AC0ED020AD4ED010AC0ED030AD4EDA2
:10243000020AC0ED040A00EE902AF8EE600AC0ED30
:102440000D0A00EE903AF8EE600AC0ED0E0A80ED3B
:102450000F0A9FED020A80ED0B0A10BD000000007C
:1024600091ED000A80ED020A91ED010A80ED030A68
:1024700091ED020A80ED040A7047000010B5FEF7E6
:1024800055FA064A002100BF01EB810002EBC000B3
:10249000FEF706FB491C0429F6DB10BDF8040020FA
:1024A000FEE700000148FEF7CFBC0000400000201E
:1024B00010B50021074C0A46002004EBC1131A5442
:1024C000401CC0B28028FAD3491CC9B20829F3D3F2
:1024D00010BD0000F800002010B5002000F096F8B4
:1024E000012000F09BF8012000F0A8F8012000F086
:1024F0009DF8AE2000F0AAF8002000F0A7F8102008
:1025000000F0A4F8D52000F0A1F8802000F09EF89B
:10251000A82000F09BF83F2000F098F8D32000F0AE
:1025200095F8002000F092F8402000F08FF8A120EC
:1025300000F08CF8C82000F089F8DA2000F086F866
:10254000122000F083F8812000F080F8CF2000F006
:102550007DF8D92000F07AF8F12000F077F8DB2040
:1025600000F074F8402000F071F8A42000F06EF83C
:10257000A62000F06BF88D2000F068F8142000F021
:1025800065F8AF2000F062F8FFF792FFBDE8104059
:1025900000F028B870B500240646802525FA04F01E
:1025A000304000D0012000F039F8012000F02EF872
:1025B000002000F02BF8641CE4B2082CEED370BDB0
:1025C00010B5891CCCB240F0B00000F03FF81020EC
:1025D00040EA141000F03AF804F00F00BDE8104093
:1025E00000F034B870B5084D002400212046FFF7F4
:1025F000E7FF05EBC410802100F032F8641CE4B260
:10260000082CF2D370BD0000F8000020024608211B
:102610000148FFF737B9000000040240024680215C
:102620000148FFF72FB900000000024002464FF4B6
:1026300000710148FFF726B90004024002464FF43A
:1026400080610148FFF71EB90004024010B504463E
:102650000020FFF7EBFF2046BDE81040FFF79ABFD0
:1026600070B506460D460120FFF7E0FF002404E0A8
:10267000305DFFF78FFF641CE4B2AC42F8D370BD4D
:102680007047000010B50B4C012204212046FFF7D3
:10269000F9F8012208212046FFF7F4F80122102161
:1026A0002046FFF7EFF820460122BDE81040202128
:1026B000FFF7E8B8001C02407047FFF7EFB80000D2
:1026C00030B593B030216846FDF7C4FD14210CA845
:1026D000FDF7C0FD20480025016841F080510160F0
:1026E000006800F0805011901C48016841F440419E
:1026F00001600068022400F4404011900120009025
:10270000000401908001CDE9064006200890B42025
:10271000CDE9090404200B906846FFF77DFA08B163
:1027200072B6FEE7FFF754F908B172B6FEE70CA9DE
:102730000F2081E831004FF4A0500F904FF48050EB
:10274000109005210CA8FFF77BF9002801D072B684
:10275000FEE713B030BD000040380240007000407A
:102760000248016841F470010160704788ED00E0A3
:1027700070B5044600680169E26821F440511143D4
:1027800001612169A068E269084361691143084356
:102790002168CA6849F20C639A430243CA60206800
:1027A0004169A26921F440711143416131492068B6
:1027B000884202D03049884202D1FFF7EBF901E0AC
:1027C000FFF7D8F9E2690023192164253226B2F512
:1027D000004F626828D0A0FB0101930F9200FDF723
:1027E00001FD0146B0FBF5F06FF01802504301EB1C
:1027F000800006EB0010B0FBF5F000F0F002B1FB3A
:10280000F5F002EB0012B1FBF5F06FF0180358433E
:1028100001EB800006EB0010B0FBF5F000F00F00BC
:1028200021681044886070BDA0FB010192185B41D3
:10283000FDF7D8FC0146B0FBF5F00201B1FBF5F065
:102840006FF01803584301EB800006EBC000B0FBAB
:10285000F5F000F0F80002EB4002B1FBF5F0584350
:1028600001EB800006EBC000B0FBF5F000F00700C4
:10287000D6E700000010014000140140FEE7000010
:102880000FB4054B10B503A9044A029800F080FD6F
:1028900010BC5DF814FB0000D93A00083800002095
:1028A00003B401984100009850EAC12018BF0420E9
:1028B0004A0D18BF40F0010040F2FF72B2EB515FC9
:1028C00008BF40F00200012808BF052002B0704791
:1028D0000907090E002804DB00F1E02080F800144D
:1028E000704700F00F0000F1E02080F8141D7047E1
:1028F00010B52F499FED2C1B2DED020B84B00598D0
:1029000020F000408842DCBF00209DED040B32DD4A
:102910002849884209D1049840B94FF0010000F0DD
:102920006FFC00F03DFC06B010BD05DB9DED040B17
:1029300000F02AFC06B010BD68469DED040B00F0C7
:102940003BF810F0030011D0012818D09DED021BB8
:102950009DED000B02281AD000F04AFA51EC100B42
:1029600081F0004106B041EC100B10BD9DED021B43
:102970009DED000B012000F06FFB06B010BD9DED3A
:10298000021B9DED000B00F033FA06B010BD0120D4
:1029900000F062FB51EC100B81F0004106B041ECFD
:1029A000100B10BD0000000000000000000000003F
:1029B000FB21E93F0000F07F2DE9F14F04462DEDAA
:1029C000020B2DED088B8AB09FEDE70B80ED020B1B
:1029D000139EE74826F0004585420ADC9DED120B68
:1029E000002084ED000B0AB0BDEC088B03B0BDE8FD
:1029F000F08FE0489FEDE0AB9FEDE1BBA84247DDE3
:102A0000E14F9FEDE39B9FEDE48B9DED120B53ECAB
:102A10001A2B51EC100B002E1CDDFDF7C7FC41EC0E
:102A2000100BBD4208D053EC1B2B51EC100BFDF7E3
:102A3000BDFCC4E900010BE053EC192B51EC100B69
:102A4000FDF7B4FC53EC182BFDF7B0FCC4E9000112
:102A50000120C8E7FDF709FC41EC100BBD4208D08E
:102A600053EC1B2B51EC100BFDF7FFFBC4E90001ED
:102A70000BE053EC192B51EC100BFDF7F6FB53EC6C
:102A8000182BFDF7F2FBC4E900014FF0FF30AAE775
:102A9000C348A84279DB9DED120B51EC100B01F0FD
:102AA0000EF841EC180B9FEDC00B53EC102BFDF70B
:102AB00083FC9FEDBF1B53EC112BFDF7D6FBFDF7FD
:102AC0007AFD0746FDF759FD41EC190B53EC1A2B23
:102AD000FDF772FC53EC182BFDF76BFC41EC180B67
:102AE00053EC1B2B51EC190BFDF766FCDFF8C8A269
:102AF00041EC100B4FEA15580125FA4453EC102B0A
:102B000051EC180BFDF752FC032DC4E900013DD038
:102B1000C1F30A5005EB4511A8EB000011398142C1
:102B200034DA0AEB051BB0EE48AA9BED000BF0EE81
:102B300068AA53EC102B51EC190BFDF73DFC41EC4E
:102B40001B0B51EC1A0B53EC1B2BFDF72FFC41EC2C
:102B5000180B51EC1A0B53EC182BFDF727FC53EC18
:102B60001B2BFDF723FC9BED020B41EC1A0B53ECE6
:102B7000102B51EC190BFDF71FFC53EC1A2BFDF732
:102B800015FC41EC100B6D1CB8E70EE0002EA8BF41
:102B90003846BFF628AF94ED000B51EC100B81F0D6
:102BA0000041C4E9000178421DE7C6F3130040F478
:102BB000801EC6F30A50A0F2F530471100F01F0541
:102BC000C5F12000DDF848B008900020069007907D
:102BD0000520EC467949002D07EB0002794408BF37
:102BE00051F8221009D051F8223001EB8201AB409C
:102BF0004A68089922FA01F11943A1FB0E26A1FBAC
:102C00000B131A449A4234BF0123002303EB060836
:102C10000CEB8003D3E901A60E448E4234BF0121A0
:102C2000002192448A4411B1924502D903E09245B1
:102C300001D2012100E00021C3E901A641444CF882
:102C40002010011EA0F10100C4DC029800F1005028
:102C5000850F0298DDE903678000DDF81480FDF739
:102C60008CFC41EC1A0B3046FDF798FC9FED541B91
:102C700053EC112BFDF7A0FB41EC1B0B3846FDF785
:102C80008DFC9FED511B53EC112BFDF795FB41EC97
:102C9000180B4046FDF782FC9FED4D1B53EC112BAA
:102CA000FDF78AFB41EC190B51EC180B53EC192B77
:102CB000FDF7DBFA53EC1B2BFDF7D7FA53EC1A2B7D
:102CC000FDF7D3FACDE90801002008909DED080B2F
:102CD00053EC1A2B51EC100BFDF768FB53EC1B2B3C
:102CE000FDF764FB53EC182BFDF760FB53EC192B3D
:102CF000FDF75FFB9FED381B53EC112BFDF75CFBE1
:102D00009FED370B41EC180B53EC102B9DED080B8E
:102D100051EC100BFDF750FB53EC182BFDF7A5FA07
:102D20009FED310B41EC180B53EC102B9DED080B74
:102D300051EC100BFDF740FB53EC182BFDF795FA07
:102D400041EC100B139810F0004F06D06D4251EC7F
:102D5000100B81F0004141EC100B284684ED000B74
:102D600041E600000000000000000000000000003C
:102D7000FB21E93F7CD9024000004054FB21F93F90
:102D80003163621A61B4D03DFB21F93F00000000BD
:102D90000000601A61B4D03D7370032E8A19A33B02
:102DA000FB2139410000000083C8C96D305FE43F5A
:102DB000000000000000E03F62110000B0100000C1
:102DC000000000000000103E000000000000103C69
:102DD000000000000000103A182D4454FB21F93D7A
:102DE0003326A611460B113C00000054FB21F93D8F
:102DF00010B52DED040B2DED088B82B0B0EE419A8D
:102E0000F0EE619A0B9820F000449FED4BABB4F1CB
:102E1000795F11DA9DED0A0B51EC100BFDF7CBFB3E
:102E2000002801BFB0EE4A0AF0EE6A0A02B0BDEC1B
:102E3000088B04BF04B010BD9DED0A0B53EC102BA2
:102E400051EC100BFDF7B8FA41EC180B3C48062189
:102E5000B0EE480AF0EE680A784400F081F853ECCE
:102E6000182B51EC100BFDF7A7FA9DED0A0B41EC66
:102E70001B0B53EC192B51EC100BFDF79DFA41EC99
:102E8000190B53EC1B2B51EC180BFDF795FA53EC77
:102E9000192BFDF78BFA9FED2C0B41EC190B53EC22
:102EA000102B51EC180BFDF787FA41EC100B28485A
:102EB000844210DA53EC192B51EC100BFDF776FA23
:102EC00053EC1A2BFDF775FA41EC100B02B0BDEC78
:102ED000088B04B010BD1F48A042BCBF9FED1E1B55
:102EE0008DED001B06DBA4F5001001900020009082
:102EF0009DED001B51EC100B53EC112BFDF756FA16
:102F00009DED000B41EC180B53EC102B51EC1A0B00
:102F1000FDF74CFA41EC1A0B53EC192B51EC180B42
:102F2000FDF744FA53EC1A2BFDF743FA41EC100B72
:102F3000CCE7000000000000000000000000F03FAF
:102F4000D40D000000000000000000000000E03F81
:102F50003333D33F0000E93F000000000000D23FC0
:102F600070B504462DED028B4D1E00EBC500B0EE92
:102F7000408AF0EE608A90ED000B35F0060017D025
:102F800053EC182B51EC100BFDF716FA41EC100B1B
:102F90006D1E04EBC50090ED001B51EC100B53ECC3
:102FA000112BFDF762F941EC100B35F00600E7D16B
:102FB000022D36D0042D1CD0062D1CBFBDEC028B7B
:102FC00070BD53EC182B51EC100BFDF7F5F994ED97
:102FD0000A1B53EC112BFDF748F953EC182BFDF7A6
:102FE000EBF994ED081B53EC112BFDF73EF941EC86
:102FF000100B53EC182B51EC100BFDF7DDF994ED91
:10300000061B53EC112BFDF730F953EC182BFDF791
:10301000D3F994ED040B53EC102BFDF726F941EC9A
:10302000100B53EC182B51EC100BFDF7C5F994ED78
:10303000021B53EC112BFDF718F953EC182BFDF77D
:10304000BBF994ED001B53EC112BFDF70EF9BDEC11
:10305000028B41EC100B70BD31B504462DED040B15
:103060002DED0A8BB0EE41BAF0EE61BA0B989DEDF2
:103070000A0B20F00040B0F1795F0DDA51EC100B33
:10308000FFF70EFC042808BF00F09AF89DED0A0B2C
:10309000BDEC0A8B05B030BD53EC102B51EC100B7E
:1030A000FDF78AF941EC180B9DED0A0B53EC182B38
:1030B00051EC100BFDF780F941EC190B2C48B0EEE8
:1030C000480AF0EE680A05217844FFF749FF9FEDB2
:1030D0002ACBB0EE40AAF0EE60AA9CB353EC1C2BB6
:1030E00051EC190BFDF768F941EC1C0B53EC1A2B52
:1030F00051EC190BFDF760F99FED210B41EC190B19
:1031000053EC102B51EC1B0BFDF756F953EC192B1C
:10311000FDF74CF953EC182BFDF74EF953EC1B2B34
:10312000FDF744F953EC1C2BFDF740F99DED0A1B0C
:1031300053EC112BFDF73DF9BDEC0A8B05B041ECCA
:10314000100B30BDFFE753EC1A2B51EC180BFDF7B9
:1031500033F953EC1C2BFDF788F853EC192BFDF7D2
:103160002BF99DED0A1B53EC112BFDF77EF8E3E7DD
:103170005C0C000000000000495555555555C5BF71
:10318000000000000000E03F10B553EC102B51ECA4
:10319000100BFDF76AF841EC100B10BD00000000A9
:1031A0009FED050B10B553EC102B51EC100BFDF7F8
:1031B00075F941EC100B10BD00000000000000008C
:1031C0009FED050B10B553EC102B51EC100BFDF7D8
:1031D000F3F841EC100B10BD0000000000000010DF
:1031E00002E008C8121F08C1002AFAD170477047D0
:1031F000002001E001C1121F002AFBD1704700002E
:1032000001490860704700003C0000202DE9FF5F85
:1032100082B00021DDE90430020DDDF840B0034347
:1032200018D044F61050A2F2FF3242431514119800
:1032300001281FD0A5EB0B00401C5FEA000A4FF0ED
:1032400000064E4FDFF83891B046504615D5CAF10A
:10325000000413E0119801244AA3012801D16FEA68
:103260000B010298119AC0E90031C0E9024206B090
:10327000BDE8F09FCBF10000DFE704460021404AA3
:10328000491842EB0450CDE9001012E0E00707D0E6
:1032900032463B4640464946FDF78EF88046894611
:1032A00032463B4610461946FDF786F806460F465D
:1032B0006410002CEAD1DDE90401DDE90023BAF154
:1032C000000F06DAFDF778F842464B46FDF774F832
:1032D00005E0FDF7E3F842464B46FDF7DFF804460C
:1032E0000E460022284BFDF799F903D84FF0FF3026
:1032F000014607E00022254B20463146FCF7B5FF8A
:10330000FDF748FA102409E0002C0ADB0A2200230A
:10331000FCF768FF039B30321A55641E50EA010225
:10332000F2D1641C039AC4F111031444119A012AC6
:1033300003D0012208430DD10AE0084304D0002045
:103340004FF0110B119072E7A3EB0B056D1E0DE012
:103350005B4504DD4FF0000205F1010504E003DAEE
:103360004FF00002A5F10105002AECD00298119956
:10337000C0E90231C0E9004579E7000000001440CF
:103380000000F03F300000000000F0430000E03F8C
:103390002DE9FF4F95B09B468946064600250FE272
:1033A000252877D100242746F84A0121059400E01A
:1033B000044316F8013F203B01FA03F01042F7D115
:1033C00030782A2811D06FF02F033078A0F1300226
:1033D000092A16D8059A44F0020402EB820203EB94
:1033E00042021044761C0590EFE759F8042B059231
:1033F000002A03DA504244F40054059044F00204D9
:10340000761C30782E2816D116F8010F44F00404EB
:103410002A280DD06FF02F023078A0F13003092B4D
:1034200009D807EB870302EB4303C718761CF3E7C1
:1034300059F8047B761C30786C280FD006DC4C28B9
:1034400017D068280DD06A2814D104E0742810D051
:103450007A280FD10DE044F400140AE044F48014FB
:1034600001E044F440147278824202D104F58014E1
:10347000761C761C307866280BD013DC582877D061
:1034800009DC002875D04528F6D04628F4D0472816
:103490001AD19DE118E0632835D0642879D06528D9
:1034A00012D195E1702873D008DC6728F1D0692823
:1034B0006FD06E280DD06F2806D1B5E073282CD0C0
:1034C000752875D0782874D05A46179990476D1C86
:1034D00075E1C4F30250022809D003280DD0D9F8B1
:1034E000001004280DD00D6009F1040967E1D9F836
:1034F0000010EA17C1E90052F6E7D9F800100D8074
:10350000F2E70D70F0E719F8041B8DF800100020A9
:103510008DF80100EA46012003E059F804AB4FF0B2
:10352000FF3061074FF0000102D40DE008F1010106
:103530008846B9420FDA8045F8DB1AF808100029EE
:10354000F4D108E008F1010188468142FADB1AF85B
:1035500008100029F6D105985B46A0EB0807214624
:103560003846179A00F094FA284400EB080507E063
:103570004DE029E10DE01AF8010B5A4617999047E2
:10358000B8F10108F7D25B4621463846179A13E195
:1035900042E00A220092C4F302524FF0000A022ACB
:1035A00008D059F804CB032A4FEAEC710AD00DE099
:1035B00029E02AE009F1070121F00702F2E802C13F
:1035C000914609E00FFA8CFC4FEAEC71042A03D112
:1035D0004FFA8CFC4FEAEC71002907DA0A46002109
:1035E000DCF1000C61EB02012D2202E0220504D582
:1035F0002B228DF80420012203E0E20701D02022D3
:10360000F7E7904659E00A2102E010220DE0102170
:103610004FF0000A00910BE010224FF0000A44F036
:1036200004040827009203E008224FF0000A0092E9
:10363000C4F30252022A05D059F804CB0021032A10
:1036400008D009E009F1070121F00702F2E802C100
:10365000914605E01FFA8CFC042A01D10CF0FF0C06
:103660004FF00008220728D5702806D0009B83F071
:10367000100353EA0A0305D00EE040228DF804201F
:10368000012208E05CEA010206D030228DF8042015
:103690008DF8050002229046009B83F0080353EA50
:1036A0000A030AD15CEA010201D1620705D5302282
:1036B0008DF804204FF001087F1E582804D034A054
:1036C00003900EA802900DE036A0F9E7534660463D
:1036D000009AFCF787FD84460398825C0298401E9E
:1036E000029002705CEA0100F0D1029806A9081A63
:1036F00000F1200A600702D524F4803400E001279D
:10370000574502DDA7EB0A0000E0002000EB0A01AC
:10371000009005984144401A0590E00306D45B46AA
:103720002146179A059800F0B3F90544002706E0F2
:1037300001A85A46C05D179990476D1C7F1C4745EC
:10374000F6DBE0030CD55B462146179A059800F09E
:103750009FF9054404E030205A46179990476D1CA4
:103760000099481E00900029F5DC08E002980299B3
:103770005A460078491C0291179990476D1CBAF17E
:103780000001AAF1010AF1DC65E10000092801004D
:1037900030313233343536373839616263646566C7
:1037A0000000000030313233343536373839414289
:1037B000434445460000000000F058F90544761CDB
:1037C000307800287FF4ECAD19B02846BDE8F08FC2
:1037D000620700D4062709F1070222F0070CFCE873
:1037E0000223E14603F000485FEA080C02D00FF222
:1037F000702C0DE05FEA045C02D50FF2682C07E044
:103800005FEAC47C02D00FF2602C01E0AFF2700CD2
:103810004FF0FF3823F00043CDF850C065280CD09E
:1038200006DC452809D046281DD047283DD13DE07B
:10383000662818D067287ED138E00021112F01DBDF
:10384000112000E0781CCDE9000106A90EA8FFF7C1
:10385000DDFCDDE90F010E9A03910021009207F1D2
:10386000010A04914DE04FF000400097CDE90110AE
:1038700006A90EA8FFF7CAFCDDE90F0203920E9B12
:1038800011990022DDF80CA00093049211B9791C63
:1038900000EB010AB7EB0A0004D4C0F1FF3007F1D6
:1038A000010A0490AAEB0700019044E0012F00DA1E
:1038B00001270021112F01DD112000E03846CDE95C
:1038C000000106A90EA8FFF7A1FCDDE90F010E9A81
:1038D0000391002104910092BA4621070CD4039968
:1038E000514500DA8A46BAF1010F05DD009AAAF1C6
:1038F0000101515C302908D0B84202DA10F1040FFE
:1039000006DA0121CDE9011015E0AAF10101E9E78C
:10391000002805DC049901440491AAEB000102E0AF
:10392000411C514500DD8A460499401A401C019013
:103930004FF000400290200704D40198504501DB6D
:10394000CDF8048000208DF84F0002980DF14F074C
:10395000B0F1004F25D02B200E9002984FF00208B6
:1039600000280CDA404202902D200E9007E00A2138
:103970000298FCF76BFE3031029007F8011DB8F198
:103980000001A8F10108F2DC02980028EFD1791EAD
:103990000E980870307800F0200040F0450007F8DD
:1039A000020D12A8C01B00F107081498007800B19E
:1039B000012000EB0A01019801EBE07105984144F8
:1039C000401A401E0590E00306D45B462146179A34
:1039D000059800F05DF805441498007818B15A462F
:1039E000179990476D1CE00324D55B462146179A32
:1039F000059800F04DF805441CE00498002807DB0A
:103A0000DDE90301884203DD0098405C179901E07D
:103A1000179930205A469047049805F10105401C3B
:103A200004900198401E019004D12E205A46179907
:103A300090476D1CBAF10001AAF1010ADDDC05E036
:103A400017F8010B5A46179990476D1CB8F1000101
:103A5000A8F10108F4DC5B462146179A0598ABE60D
:103A60002D0000002B000000200000002DE9F04197
:103A7000044600251E461746880404D405E039464E
:103A80002020B0476D1C641EF9D52846BDE8F081A2
:103A90002DE9F041044600251E469046C80301D595
:103AA000302700E02027880404D505E04146384649
:103AB000B0476D1C641EF9D52846BDE8F08182B080
:103AC000CDE9000121F0004001909DED000B02B016
:103AD00051EC100B7047000004490A685206FCD5EF
:103AE000024AC1B2121D116070470000001401406B
:103AF0002DED068B82B0FDF7D9FEFEF7E1FDFEF756
:103B000049FBFEF7F3FAFEF723FBFEF7F5FBB420C3
:103B1000FCF72AFFFEF7D2FAFEF7BCFAFEF7DCFC50
:103B2000FEF7C0FCFEF7AEFDFEF7A8FC0025304E08
:103B3000DFF8C0802F4641F288394FF4804A00BF39
:103B400005EB850006EB00142046FEF757FCCDE997
:103B500000782046646CB2EE040A4B4652460121BE
:103B6000A0476D1C042DEBDB0020FCF78FFF224CDF
:103B700020600120FCF78AFF60600220FCF786FFCE
:103B8000A0600320FCF782FFE0606420FDF73AFDAF
:103B9000DFED1A8A9FED1AAAF6EE00AAB0EE688A47
:103BA00078EE8A8A38EE2A8A18EE100AFCF722FD8F
:103BB00041EC100BFEF79CFEB0EE401AF0EE601ADE
:103BC000B0EE419AF0EE619A18EE900AFCF712FD01
:103BD00041EC100BFEF78CFE8DED009B53EC102B8F
:103BE00008A0FEF74DFE6420FCF7C4FED8E70000F5
:103BF000A805002018000020980500200000000003
:103C0000CDCCCC3D73696D706C65733A25662C2004
:103C100025660A0000000000000000000102030405
:103C2000060708090000000001020304000000006C
:103C30004C5555555555A53F7751C1166CC156BFCA
:103C40009015CB19A001FA3EAD529C804F7E92BEDA
:103C5000C4B1B4BD9EEE213ED43888BEE9FAA8BDF9
:103C600000004054FB21F93F3163621A61B4D03D3A
:103C70000000601A61B4D03D7370032E8A19A33B13
:103C80000000002E8A19A33BC14920259A837B3965
:103C900000000000000000006E83F9A22915444EC8
:103CA000D15727FCC0DD34F5999562DB4190433C48
:103CB000AB6351FE61C5BBDE3A6E24B7E0D24D4224
:103CC000EA2E49061C92D1091CEB1DFE3EA729B124
:103CD000F53582E88444BB2E26709CE9417E5FB4B2
:103CE00039D69139F43953838B5F849C3B28F9BDD5
:103CF000FF97F81F0F9805DE8B112FEF1F6D0A5AE3
:103D0000CF7E366DB709CB27663F464F2DEA5F9EC3
:103D1000C7BA27757BF1E5EBF739073DEA92528A7E
:103D2000B15FFB6B085D8D1FA6F810111111813F6B
:103D3000D561C119A0012ABF7DFEB157E31DC73E61
:103D4000EB9C2B8AE6E55ABE7CD5CF5A3AD9E53DA5
:103D5000703D00080000002040000000E031000835
:103D6000B03D000840000020A80A0000F031000823
:103D70000000000000000000000000000000000043
:103D8000000000000000000000004040CDCCCC3D11
:103D90000000000000000000010000001000000012
:103DA000000000000024F4000000000000000000FB
:04000005080001AD41
:00000001FF
