:020000040800F2
:10000000C056002081020008612E00081728000851
:10001000F12C0008290A0008793A000800000000C5
:10002000000000000000000000000000C101000806
:10003000710A0008000000001D0200087D30000861
:100040009B0200089B0200089B0200089B0200081C
:100050009B0200089B0200089B0200089B0200080C
:100060009D0A00089B0200089B0200089B020008F2
:100070009B0200089B0200089B0200089B020008EC
:100080009B0200089B020008F50800089B0200087C
:100090002D0A00089B0200089B0200089B02000832
:1000A0009B0200089B0200089B0200089B020008BC
:1000B0009B0200089B0200089B0200089B020008AC
:1000C0009B0200089B0200089B0200089B0200089C
:1000D0009B0200089B0200089B0200089B0200088C
:1000E0009B0200089B0200089B0200089B0200087C
:1000F0009B020008493100089B0200089B0200088F
:100100009B0200089B0200089B0200089B0200085B
:100110009B0200089B0200089B0200089B0200084B
:100120009B0200089B0200089B0200089B0200083B
:100130009B0200089B0200089B0200089B0200082B
:100140009B0200089B0200089B0200089B0200081B
:100150009B0200089B0200089B0200086D39000802
:100160009B0200089B0200089B0200089B020008FB
:100170009B0200089B0200089B0200080000000090
:100180009B0200089B0200089B020008FD36000845
:100190009B0200089B0200089B0200089B020008CB
:1001A00000000000000000009B020008DFF80CD0F7
:1001B00000F08EFB00480047A9430008C05600200D
:1001C0002C4B19680868B0E8F04F80F30988BFF33A
:1001D0006F8F4FF0000080F311887047000000001F
:1001E00008480068006880F308884FF0000080F33A
:1001F000148862B661B6BFF34F8FBFF36F8F00DF15
:1002000000BF00BF08ED00E0DFF80C00016841F41A
:1002100070010160704700BF88ED00E0EFF30980D6
:10022000BFF36F8F134B1A681EF0100F08BF20ED3D
:10023000108A20E9F04F106009B44FF0500080F3AD
:100240001188BFF34F8FBFF36F8F04F0D5FF4FF0CE
:10025000000080F3118809BC19680868B0E8F04F05
:100260001EF0100F08BFB0EC108A80F30988BFF3AE
:100270006F8F70475C000020EFF30580704700002F
:100280000648804706480047FEE7FEE7FEE7FEE730
:10029000FEE7FEE7FEE7FEE7FEE7FEE7393100088E
:1002A000AD0100082DE9F05F0546002092469B460F
:1002B00088460646814640241BE02846414647467C
:1002C000224600F036FA53465A46C01A914110D3DE
:1002D00011461846224600F01DFA2D1A67EB010858
:1002E0004F4622460120002100F014FA17EB0009C6
:1002F0004E41201EA4F10104DFDC484631462A4667
:100300004346BDE8F09F40EA01039B0703D009E0A4
:1003100008C9121F08C0042AFAD203E011F8013BF1
:1003200000F8013B521EF9D27047D2B201E000F84A
:10033000012B491EFBD270470022F6E710B5134689
:100340000A4604461946FFF7F0FF204610BD2DE986
:10035000FE4F804681EA0300C00F0C46009021F05A
:10036000004123F00045B8EB0200A94105D2404608
:10037000214690461C460B46024623F0004010439F
:1003800047D0270DC7F30A00C3F30A510290401A61
:10039000019040286BDAC3F3130040F4801B0098EF
:1003A000924620B10023D2EB030A63EB0B0B0198BA
:1003B0005946C0F14002504600F0ACF906460D46E1
:1003C00050465946019A00F0C4F910EB080061410B
:1003D000002487EA115284EAE7731A4340D0009A56
:1003E00062B3019A012A4FEA075215DC001B61EB48
:1003F00002014FF0004202EA0752CDE90042001C20
:1004000041F5801132462B4600F0FBF903B0BDE800
:10041000F08F40462146F9E7001B61EB0201001C0A
:1004200041F5801300185B412018A2F5001747EB37
:10043000030140EAD570B6196D4111E06D084FEA2D
:10044000360645EAC0754FEA0752001B61EB020110
:10045000001C41F5801149084FEA30000019514154
:1004600032462B4603B0BDE8F04F00F0BBB9009810
:10047000012240000023D0EB020263EBE0730098FE
:1004800021464FEAE074B8EB000061EB0401E9E7B4
:1004900083F000435BE781F0004158E72DE9FE4F10
:1004A00081EA030404F0004421F0004100944FF07D
:1004B000000B23F0004350EA01045ED052EA03042B
:1004C0005BD0C3F30A54C1F30A552C44A4F2F334AD
:1004D0000194A0FB0254C1F3130141F48011C3F352
:1004E000130343F4801301FB024400FB034E840A10
:1004F000970A44EA815447EA8357A4FB07680295A8
:100500008D0A05FB07854FEA932C04FB0C54270545
:10051000029D4FEA065847EA1637B5EB08056EEB21
:10052000070C870E920E47EA811742EA8312A7FB57
:100530000201B6EB0B0164EB00042B0D43EA0C3314
:100540005E1844EB1C50DA465146E7FB0201C5F346
:1005500013044FEA0B3343EA14534FEA0432019C6D
:1005600043EA0603A4F10C040294009CCDE900B414
:1005700000F047F903B0BDE8F08F00200146F9E72D
:100580002DE9F04D81EA030404F0004B21F0004511
:1005900014464FF0000A23F0004150EA050220D033
:1005A00054EA01021DD0C5F30A570246C5F31303EE
:1005B000C1F31300C1F30A5640F4801543F48013CD
:1005C000A7EB0608101BD64608F2FD3873EB0500B2
:1005D00002D308F1010801E092185B41B8F1000F65
:1005E00003DA00200146BDE8F08D00204FF48011B1
:1005F000064684460EE0171B73EB050705D3121B56
:1006000063EB050306434CEA010C49084FEA30004E
:1006100092185B4150EA0107EDD152EA030012D073
:1006200082EA040083EA0501084305D0101BAB41B0
:1006300006D20122002306E000224FF0004302E030
:100640006FF0010253101AEB06004CEB085110EB4F
:100650000A0041EB0B01BDE8F04D00F0C3B80EB548
:10066000C10F80EAE0700844CA07002140F233431A
:100670008DE80E000A460B4600F0C3F803B000BD3B
:1006800030B5041E71F1000404DB4FF00044404219
:1006900064EB0101141E73F1000405DB1C464FF0EE
:1006A0000043524263EB0403994208BF904230BDBD
:1006B00001F0004330B421F0004150EA010206D0BD
:1006C0000A0DA2F56072C1F31301002A02DC30BCEE
:1006D00000207047440F44EAC104C100E01830BC58
:1006E00000EBC25000F047B830B50B460146002081
:1006F0002022012409E021FA02F59D4205D303FAE4
:1007000002F5491B04FA02F52844151EA2F1010264
:10071000F1DC30BD202A04DB203A00FA02F100208F
:1007200070479140C2F1200320FA03F3194390402F
:100730007047202A04DB203A21FA02F0002170479A
:1007400021FA02F3D040C2F1200291400843194639
:100750007047202A06DBCB17203A41FA02F043EA21
:10076000E07306E041FA02F3D040C2F1200291406A
:100770000843194670470029A8BF7047401C49002C
:1007800008BF20F00100704710B4B0FA80FC00FAF6
:100790000CF050EA010404BF10BC704749B1CCF121
:1007A000200421FA04F411FA0CF118BF01212143AD
:1007B0000843A3EB0C01CB1D4FEA00614FEA102068
:1007C00042BF002010BC704700EBC350104400290A
:1007D000A4BF10BC7047401C490008BF20F00100B6
:1007E00010BC704710B5141E73F1000408DA401CE9
:1007F00041F1000192185B411A4301D120F0010040
:1008000010BD2DE9F04D92469B4611B1B1FA81F22F
:1008100002E0B0FA80F220329046FFF77BFF0446F8
:100820000F4640EA0A0041EA0B0153465A46084384
:1008300013D0114653EA010019D0C8F140025046C6
:10084000FFF777FF05460E46504659464246FFF7EA
:1008500061FF084305D0012004E020463946BDE889
:10086000F08D0020054346EAE0762C4337430A9892
:100870006305E40AA0EB08000022FD0A44EA47549D
:100880000A3002D500200146E9E701051019694147
:10089000DDE9084500196941BDE8F04DA2E7C1F363
:1008A0000A52C1F3130140F2FF3341F480119A421E
:1008B00002DA00200146704740F233439A42A2F226
:1008C000334202DC5242FFF734BFFFF723BF000080
:1008D000064C074D06E0E06840F0010394E807008D
:1008E00098471034AC42F6D3FFF764FC745E0008FE
:1008F000945E0008014800F021BA00003401002095
:10090000464910B54A6822F440324A604A68436852
:100910001A434A6001684A6822F480724A6001689A
:100920004A68036942EA03224A6001684A6822F081
:1009300040724A6001684A6883681A434A600168E5
:100940008A6822F400628A6001688A68C3681A4370
:100950008A60816A6FF07062D14201688A6822F011
:1009600070628A6001688A680CD0836A1A438A6060
:1009700001688A6822F040528A6001688A68C36A06
:100980001A4301E022F040528A6001688A6822F02E
:1009900002028A6001688A68037E42EA43028A6032
:1009A00090F82010002901684A680FD042F40062D4
:1009B0004A6001684A6822F460424A6001684A68F5
:1009C000174C436A04EB43331A4301E022F40062FC
:1009D0004A600168CA6A22F47002CA620168CA6A7F
:1009E000838B104C04EB03531A43CA6201688A6874
:1009F00022F400728A6001688A6890F8303042EA16
:100A000043228A6001688A6822F480628A600168F1
:100A10008A68406942EA8020886010BD0023014056
:100A200000E0FFFF0000F0FFFEE70000014800F0DB
:100A300018BC00007C01002000B58BB00020012113
:100A4000CDE9060108910090019002900390059075
:100A500004906946054800F003FB044800F012FECC
:100A60000221024800F0EAFA0BB000BD7C01002030
:100A700070470000084908604FF47A7148434FF00E
:100A8000E0210A6942F002020A614861086940F007
:100A900001000861704700004C000020042000F0B5
:100AA00099BE72B6FEE70000D0ED000AB7EE002A4C
:100AB000C0ED050A0A8852BA00EE102AB8EE400AC4
:100AC00080ED000A4A8870EE600A52BA12B201EE56
:100AD000102AF8EEC11AC0ED011A8A8852BA01EE46
:100AE000102AB8EE411A80ED021A897901EE101A27
:100AF00010EE901AB8EE411AB1F18B4F80ED031A47
:100B000090ED061A02DD71EE420A09E010EE901A2D
:100B100011F16A5F02D8D0ED060A03E071EE020A15
:100B2000C0ED060A9FED0F1A00EE810AD0ED040A0F
:100B30009FED0D1A30EE600A80ED070AC0EE010A43
:100B40009FED0A0A20EE801ADFED090A21EE800AE5
:100B500081EE202A80EE201A80ED082A80ED091A05
:100B60007047000000000046610BB64100003B43A7
:100B70000070604500F00300024900EB800001EBCB
:100B8000C00070477C06002090ED000A80ED040A4A
:100B90009FED020A80ED060A704700000000000089
:100BA0007047000078B50024009490F83C20012A9A
:100BB00019D0012280F83C200A6807230568092A19
:100BC00013D9EE680A3A02EB420293409E43EE606C
:100BD0000B788A680A3B03EB43039A400368DD689D
:100BE0002A43DA6010E0022078BD2E6902EB42024F
:100BF00093409E432E610B788A6803EB43039A402F
:100C000003681D692A431A614A681F23072A13D201
:100C100005686E6B521E02EB820293409E436E6328
:100C20000A8893B20A79521E02EB8202934002684C
:100C3000556B2B43536327E005680D2A12D22E6BA8
:100C4000D21F02EB820293409E432E630B790A88E7
:100C5000DB1F92B203EB83039A4003681D6B2A43A8
:100C60001A6311E0EE6A0D3A02EB820293409E4352
:100C7000EE620B790A880D3B92B203EB83039A4034
:100C80000368DD6A2A43DA621B4B0568194A9D42F4
:100C90000AD10D68122D07D1556825F4000555605D
:100CA000556845F48005556005689D421DD1134D7A
:100CB0000B68AB4201D0112B17D1536823F480038A
:100CC0005360536843F4000353600968A9420CD190
:100CD0000B490C4A0968B1FBF2F101EB81014900B3
:100CE00000E0491E00910029FBD180F83C40002023
:100CF00078BD0000002301400020014012000010D8
:100D0000DC00002040420F0010B500680649884210
:100D100004D1064800F00FF805490860BDE810400E
:100D2000024800F005B90000002001403401002015
:100D30001800002070470068C06C704770B504460A
:100D400000680668456816F0020F05F020012AD0F9
:100D500049B3216CC90603D4216C41F400712164AC
:100D6000816811F0405F17D1217EA9B9C16A11F4E1
:100D7000700F02D0816849050ED4416821F020012E
:100D80004160206C20F480702064206CC00403D487
:100D9000206C40F0010020642046FFF7B5FF216879
:100DA0006FF01200086016F0040F05F0800132D0D9
:100DB00089B3206CC00603D4206C40F4005020643A
:100DC0002068816811F4401F1ED1816B11F4401F0F
:100DD00002D08168490517D44168490514D4816857
:100DE00011F0405F10D1217E71B9416821F080017E
:100DF0004160206C20F480502064206CC00503D436
:100E0000206C40F0010020642046FFF7C9FE2168F5
:100E10006FF00C00086016F0010F05F040010FD0D4
:100E200071B120680068C0070AD0206C40F480309F
:100E30002064204600F043F821686FF0010008604C
:100E400016F0200F05F080610ED000290CD0606CE8
:100E500040F00200606420686FF0200505602046C5
:100E6000FFF768FF2068056070BD70B504004FF0A3
:100E7000000503D0206C002610B107E0012070BDF2
:100E8000204600F01DF8666484F83C60206CC006C3
:100E900010D4206C20F4885040F0020020642046DA
:100EA000FFF72EFD6664206C20F0020040F0010088
:100EB000206400E0012584F83C60284670BD70473E
:100EC00010B586B0044614216846FFF735FA154977
:100ED0002068884224D114480021026842F48072BC
:100EE0000260006800F4807005900F4814380268B2
:100EF00042F001020260006800F00100059040200D
:100F000000900320CDE901016946084800F06EFC1D
:100F100000220521122000F02FFE122000F01EFEFC
:100F200006B010BD002001404438024000000240DD
:100F300018B50021009190F83C20012A07D0012229
:100F400080F83C2002689368DB0702D011E00220A1
:100F500018BD936843F001039360314A314B126826
:100F6000B2FBF3F202EB420200E0521E0092002AB2
:100F7000FBD102689368DB0747D0036C40F2016441
:100F8000A34343F48073036453685B0505D5036C86
:100F900023F4005343F480530364036CDB0404D54F
:100FA000436C23F00603436400E0416480F83C1086
:100FB0001D4B6FF02201116001684A681B4C2243EF
:100FC0004A6059680068CA06194906D0884224D187
:100FD000816811F0405F13D01FE08842F8D0154AB5
:100FE000904203D1D1F80423D206F1D0124A9042A4
:100FF00013D1D1F8041301F01F011029E8D30CE03C
:10100000816841F08041816007E0016C41F010018E
:101010000164416C41F001014164002018BD0000F1
:10102000DC00002040420F000023014020000004AB
:1010300000200140002101400022014090F82020C2
:10104000012A07D0022A05D0416A41F48021416279
:1010500001207047006842690A43426100207047DE
:1010600010B590F82020012A07D0022A05D0416A45
:1010700041F480214162012010BD3B48D0F800229C
:1010800042F00102C0F80022D0F8002222F47C5283
:10109000C0F80022D0F800224B6A42EA0322C0F8CE
:1010A00000220A7D02F01F0301229A40D0F81C3270
:1010B0009343C0F81C32CB69B3B9D0F80C329343D8
:1010C000C0F80C328C894B6864F31F434C6900EB09
:1010D000C404C4F840320C890B6864F31F434C69A4
:1010E00000EBC404C4F84432CB69012B16D1D0F80C
:1010F0000C321343C0F80C320C884B6864F31F4366
:101100004C6900EBC404C4F840320C89CB6864F32A
:101110001F434C6900EBC404C4F844328B69002BB4
:10112000D0F804320ED01343C0F804320B69002B00
:10113000D0F8143208D01343C0F81432096A0129D8
:1011400004D008E09343EFE79343F5E7D0F81C128F
:101150001143C0F81C12D0F8001221F00101C0F8B0
:101160000012002010BD000000640040704770B500
:1011700090F82040012C05D0022C03D0416A41F4A4
:10118000802128E0046809B32469A40720D04FF423
:10119000D874056804EB01142D5915F00405956009
:1011A00005682D591AD0ED08556005682C5904F0D2
:1011B0000204D4604FF4DA74056804EB01142E596C
:1011C00006F00F06082E0CD308250DE0E468DCE7D6
:1011D000416A41F400114162012070BD6D0D15603E
:1011E000E3E72D5905F00F05156105682D59C5F385
:1011F0000725956105682C59240C54614FF4DC7265
:10120000046802EB0112A4581C700468A458240A54
:101210005C700468A458240C9C700468A258120ED8
:10122000DA704FF4DE72046802EB0112A4581C71EC
:101230000468A458240A5C710468A458240C9C71A6
:101240000468A258120EDA71006829B1016941F0F0
:1012500020010161002070BDC16841F02001C16022
:10126000F8E72DE9F05F0546006800244669D0F8EC
:1012700004908768D0F80CB0D0F810A0D0F818808F
:10128000F10748D0F90714D001218160B80703D5D0
:10129000284600F024FA0CE0780702D54FF40064E9
:1012A00007E0380702D54FF4805402E0284600F0EA
:1012B00015FAF80516D529684FF480708860B805CE
:1012C00003D5284600F00DFA0CE0780502D544F469
:1012D000005407E0380502D544F4804402E0284673
:1012E00000F0FEF9F80316D529684FF480308860C5
:1012F000B80303D5284600F0F6F90CE0780302D5D0
:1013000044F4004407E0380302D544F4803402E09A
:10131000284600F0E7F9300707D55FEACB6004D52F
:101320002968102044F40074C86070074FF0080763
:1013300007D55FEA0B7004D52868C760284600F01F
:1013400057F9B00706D52868C068800702D028463C
:1013500000F050F9700607D55FEACA6004D5296825
:10136000102044F480640861B00607D55FEA0A7073
:1013700004D528680761284600F080F9F00606D5F4
:1013800028680069800702D0284600F078F9B00389
:1013900008D55FEAC96005D529681020486028464D
:1013A00000F06EF9F00307D55FEA097004D52868EC
:1013B0004760284600F098F9300446D55FEA497046
:1013C00040D5F00504D55FEAC87001D044F00104AF
:1013D000B00504D55FEA887001D544F002047005B9
:1013E00004D55FEA487001D544F00404300529D5DE
:1013F00018F0700F26D008F07000402815D006DCD9
:10140000102809D020280AD0302816D10AE0502808
:101410000ED0602811D10EE044F008040DE044F035
:1014200010040AE044F0200407E044F0400404E023
:1014300044F0800401E044F480742868816921F05C
:1014400070018161296804204860002C05D0686A19
:10145000204368622846FFF789FEBDE8F09F70B51B
:10146000040003D094F8200010B104E0012070BD06
:10147000204600F081F82068016841F00101016018
:1014800000F0DCFA0546052604E000F0D7FA401B20
:101490000A2811D820684068C007F6D02068016883
:1014A00021F00201016000F0C9FA05460BE000F0EE
:1014B000C5FA401B0A2806D9606A40F40030606211
:1014C00084F82060D2E7206840688007EFD4207E4F
:1014D0000128206801683DD021F080010160607E14
:1014E00001282068016838D021F040010160A07E09
:1014F00001282068016833D021F020010160E07EDE
:101500000128206801682ED041F010010160207F81
:1015100001282068016829D021F008010160607F5E
:1015200001282068016824D021F004010160D4E979
:1015300002010843D4E90412114308436168491EBB
:1015400008432168C86100206062012084F82000FF
:10155000002070BD41F08001C0E741F04001C5E7C7
:1015600041F02001CAE721F01001CFE741F0080166
:10157000D4E741F00401D9E710B586B00446142140
:101580006846FEF7D9FE17492068884227D11648D9
:101590000021026842F000720260006800F00070F2
:1015A000059011481038026842F008020260006895
:1015B000022200F0080005900320CDE90210CDE9D9
:1015C0000002092004906946084800F00FF9002243
:1015D0000521142000F0D0FA142000F0BFFA06B064
:1015E00010BD00000064004040380240000C024082
:1015F0007047000010B592B00FAB08AA00211C483C
:10160000FFF7B5FD0898A0F50070013805D0012856
:1016100003D0022801D0032828D10898154B401E7A
:10162000C0B21870144C00EB800004EBC0000FA98E
:10163000FFF73AFA1878694601EB800292ED000A4A
:10164000B5EEC00AF1EE10FA10D100EB800004EB09
:10165000C000FFF799FA1878F7EE000A01EB800056
:1016600090ED000A30EE200A80ED000A12B010BDA5
:101670007C0100201C0000207C0600207047704781
:101680007047000070B5044690F82000012804D08F
:10169000606A40F40020606218E0022084F82000B4
:1016A0002068016821F00101016000F0C7F90546DA
:1016B0000EE000BF00F0C2F9401B0A2808D9606A9A
:1016C00040F400306062052084F82000012070BDE5
:1016D00020684068C007EDD1606270BD70477047F8
:1016E000704770477047704770472DE9F0410446D6
:1016F000876D00F0A3F9064694F83500002502280E
:1017000006D08020606584F834500120BDE8F08167
:101710002068016821F0160101602068416921F00C
:1017200080014161206C08B9A06C20B1206801687B
:1017300021F0080101602068016821F001010160C9
:101740000CE000F07BF9801B052807D9202060659C
:10175000032084F8350084F83450D7E72068006807
:10176000C007EED194F85C103F208840B86001209B
:1017700084F8350084F834500020C7E790F835101D
:10178000022903D08021416501207047052180F89E
:1017900035100068016821F00101016000207047E8
:1017A00070B5044600F04AF90546601C02D00448B2
:1017B0000078044400F042F9401BA042FAD370BD07
:1017C00050000020042802D1014901200870704710
:1017D00010000020044910B50A68024202D00860D7
:1017E000FFF7F0FF10BD0000143C01402DE9F84F59
:1017F000DFF8F8A10022012403254FF00F090AF1B8
:10180000040BAAF1040E00BF0B6804FA02F6334081
:10181000B34270D10F7907F00307012F01D0022FD7
:1018200016D187684FEA420805FA08FC27EA0C0738
:10183000D1F80CC00CFA08FC4CEA070CC0F808C040
:101840004768B7430E79C6F3001696403E4346609C
:101850000E79F643B6070AD0C7684FEA420C05FA7C
:101860000CF6B7438E6806FA0CF63E43C6600E7956
:1018700006F00306022E10D1D60800EB8608D8F831
:10188000206057074FEAD76C09FA0CF7BE430F697F
:1018900007FA0CF73743C8F8207006684FEA420C85
:1018A00005FA0CF7BE430F7907F0030707FA0CF7A8
:1018B000374307604E6816F4403F1CD04C4E3768E3
:1018C00047F480473760366822F0030706F4804605
:1018D0000096484E07EB060CDCF8086897073F0FA8
:1018E00009FA07F826EA0806DFF80C81404503D11B
:1018F0004FF0000841E072E0DFF80081404502D17E
:101900004FF0010839E0DFF8F880404502D14FF090
:10191000020832E0DFF8EC80404502D14FF00308C6
:101920002BE0DFF8E480404502D14FF0040824E0CA
:10193000DFF8D880404502D14FF005081DE0DFF800
:10194000D080404502D14FF0060816E0DFF8C48091
:10195000404502D14FF007080FE0DFF8BC8040455A
:1019600002D14FF0080808E0DFF8B080404502D10E
:101970004FF0090801E04FF00A0808FA07F848EAB2
:101980000608CCF80888DAF800605746D1F804C099
:101990009E435FEACC2C00D51E433E60DBF800601E
:1019A0005F46D1F804C09E435FEA8C2C00D51E43ED
:1019B0003E60DEF800607746D1F804C09E435FEADF
:1019C0008C3C00D51E433E60084F083F3E68D1F86E
:1019D00004C09E435FEACC3C00D51E433E60521CCF
:1019E000102AFFF411AFBDE8F88F0000083C014059
:1019F0004438024000300140000002400004024030
:101A000000080240000C0240001002400014024096
:101A100000180240001C0240002002400024024046
:101A2000426921EA02030A4043EA024181617047A8
:101A30000AB1816170470904FBE700000148806832
:101A4000704700005000002002488168027811446D
:101A500081607047500000200B4810B5016841F4C8
:101A600000710160016841F480610160016841F426
:101A700080710160032000F09FF80F2000F006F84D
:101A800000F050F8002010BD003C024030B5054683
:101A90001F4887B00024016841F48071016000682C
:101AA00006A900F48070009001A800F069F904987C
:101AB000A8B100F085F940001649174AB0FBF1F1D2
:101AC0001648491E026040F2E732C0E90324C0E92B
:101AD0000114846100F07EFB040003D015E000F0E7
:101AE0006FF9E9E70D4800F0A3FB04000DD12D20AC
:101AF00000F034F8102D07D2002229462D2000F0E6
:101B00003BF80748056000E0012407B0204630BDDF
:101B10004038024040420F000020004034020020C4
:101B2000540000200C4882B0016841F480410160FB
:101B3000006800F4804000900748001F016841F0F1
:101B4000805101600068002200F0805000900F2159
:101B5000901E02B000F010B844380240002809DBA3
:101B600000F01F02012191404009800000F1E020B7
:101B7000C0F8001170470000F0B40E4B1B680C4613
:101B8000C3F30223C3F10705042D00D90425191D51
:101B9000072901D2002300E0DB1E012606FA05F129
:101BA000491E214099409E40761E16403143F0BCAC
:101BB00001F074BF0CED00E0064900F00702086870
:101BC0004FF6FF03184040EA0220034A1043086022
:101BD000704700000CED00E00000FA052DE9F84325
:101BE0001748016841F0805101600068154F00F00E
:101BF0008050012600903E64FFF720FF05464FF419
:101C00007A78114C05E000BFFFF718FF401B4045F4
:101C10000DD86068C003F7D57E64FFF70FFF054657
:101C2000464607E0FFF70AFF401BB04202D90320F7
:101C3000BDE8F88360688003F4D50020F8E7000071
:101C40004038024000000E42007000402DE9F0478D
:101C50000E46050065D0DFF81481D8F80000F7B211
:101C600000F00F00B04207D288F80070D8F80000EA
:101C700000F00F00B04254D128683D4C810712D5C6
:101C8000400703D5206840F4E05020602878000722
:101C900003D5206840F4604020602068A96820F0E7
:101CA000F000084320602878C0072DD030496868CC
:101CB0000839012812D0022813D0032811D009684E
:101CC000890700292DDA216821F0030101432160F1
:101CD000FFF7B4FE814641F2883A0EE009688903B5
:101CE000EFE709688901ECE7FFF7A8FEA0EB09011F
:101CF000514502D90320BDE8F0872068696800F0EB
:101D00000C00B0EB810FEFD1D8F80010404601F085
:101D10000F01B14207D90770006800F00F00B04210
:101D200001D00120E7E72878400705D52068E96859
:101D300020F4E050084320602878000706D520688A
:101D4000296920F4604040EAC100206000F058F8A2
:101D50002168084AC1F30311515CC8400649086074
:101D600006480068FFF792FE0020C4E7003C0240EE
:101D700008380240E45C0008DC0000205400002029
:101D80000F2202600C4A136803F0030343601368D8
:101D900003F0F0038360136803F4E053C360126838
:101DA0004FF4E05303EAD20202610448006800F0F5
:101DB0000F0008607047000008380240003C0240F5
:101DC0000448054900680968044AC1F38221515C4E
:101DD000C8407047DC00002008380240F45C00086E
:101DE0000448054900680968044AC1F34231515C5E
:101DF000C8407047DC00002008380240F45C00084E
:101E0000154810B5006810F00C02144813D014499E
:101E1000042A0FD0082A0ED10F4C241F22682368F1
:101E200002F03F025B0207D52068C0F38810A0FBD8
:101E3000010106E0084610BD2168C1F38811A1FB2D
:101E400000010023FEF72EFA2168C1F30141491C6D
:101E50004900B0FBF1F010BD083802400024F40046
:101E6000001BB7002DE9F84F04006ED02078DFF892
:101E70004C93C007A9F104054AD009F10400016898
:101E8000C1F38101012908D00068C0F38100022854
:101E90000AD1D9F80000400206D52868800337D55A
:101EA00060680028E1D033E06068B0F5803F10D072
:101EB000B0F5A02F286810D020F480302860286862
:101EC00020F4802028606068A8B1FFF7B7FD0646BF
:101ED0000DE0286840F48030F4E740F4802028606A
:101EE000F7E700BFFFF7AAFD801B642873D82868B6
:101EF0008003F7D50CE0FFF7A1FD064605E000BF23
:101F0000FFF79CFD801B6428F0D828688003F7D475
:101F10002078DFF8AC8280074FF0000A3ED5A74852
:101F2000001D016811F00C0F08D00068C0F381009B
:101F300002280BD1D9F80000400207D42868800796
:101F400016D5E068012800D112E033E1E068B8B1AD
:101F50000120C8F80000FFF771FD064605E000BF4C
:101F6000FFF76CFD801B0228C0D828688007F7D5D2
:101F70002868216920F0F80040EAC10028600DE0DF
:101F8000C8F800A0FFF75AFD064604E0FFF756FD2B
:101F9000801B02281FD828688007F7D42078000704
:101FA00022D5864F87486169703771B10121016080
:101FB000FFF744FD064604E0FFF740FD801B0228C2
:101FC00009D838688007F7D50EE0C0F800A0FFF701
:101FD00035FD064605E082E0FFF730FD801B022854
:101FE0007DD838688007F7D42078400768D5DFF8B7
:101FF000CCB100270BF13C0BDBF80000C0000BD488
:10200000DBF8001041F08051CBF80010DBF8000045
:10201000012700F0805000906B4E3068C00510D44E
:10202000306840F480703060FFF708FD009005E0F4
:10203000FFF704FD0099401A022850D83068C00507
:10204000F6D55E4EA0686C3601280FD005283068A2
:1020500010D020F001003060306820F004003060C3
:10206000A068B8B1FFF7EAFC00900FE0306840F0DC
:102070000100F4E740F004003060F7E7FFF7DEFC12
:102080000099411A41F28830814266D83068800751
:10209000F4D50EE0FFF7D2FC009007E0FFF7CEFC8E
:1020A0000099411A41F28830814256D83068800741
:1020B000F4D42FB1DBF8001021F08051CBF80010E0
:1020C000A069C8B33D49091D0968C1F3810102290E
:1020D0004AD00228504607D0C8F8600000E03CE033
:1020E000FFF7ACFC04463BE04746C8F86000FFF74A
:1020F000A5FC064605E000BFFFF7A0FC801B0228F8
:102100002BD828688001F7D4D4E907010843A16AD5
:102110002E4A490802EB0141626A41EA82110843F2
:1021200094F82C1040EA0161C9F8001001203866CB
:10213000FFF784FC044606E03EE000BFFFF77EFCAC
:10214000001B022809D828688001F7D534E000BFB9
:10215000FFF774FC001B022802D90320BDE8F88FAA
:1021600028688001F4D427E00128F7D0D9F80000CE
:10217000E26900F4800191421CD1226A00F03F0123
:10218000914217D147F6C071626A0140B1EB821FDC
:1021900010D1A26A4FF0FF3300F4403103EB52023A
:1021A000B1EB024F06D194F82C1000F07060B0EB48
:1021B000016F01D00120D1E70020CFE704380240B1
:1021C00000004742800E4742007000400000FFFFC1
:1021D0007047704710B5040003D094F83D0010B16B
:1021E00007E0012010BD002084F83C00204600F0EC
:1021F0001EF8022084F83D00211D206800F0AAFF8F
:10220000012084F8460084F83E0084F83F0084F8FA
:10221000400084F8410084F8420084F8430084F8C8
:10222000440084F8450084F83D00002010BD70474C
:1022300090F83D10012901D001207047022180F85B
:102240003D100168CA6842F00102CA600068114985
:10225000884214D0B0F1804F11D00F4988420ED07F
:102260000E4988420BD00E49884208D00D49884259
:1022700005D00D49884202D00C49884204D18168BA
:1022800001F00701062903D0016841F00101016056
:10229000002070470000014000040040000800409A
:1022A000000C0040000401400040014000180040C4
:1022B00070472DE9F04104460068C66805694FF093
:1022C0000007A90713D5B10711D5F91E0161012037
:1022D0002077206880698007204602D0FFF7E8FF5A
:1022E00004E000F07EF8204600F07CF827776807CD
:1022F00016D5700714D521686FF00400086102201C
:1023000020772068806910F4407F204602D0FFF7D4
:10231000CFFF04E000F065F8204600F063F827776F
:10232000280715D5300713D521686FF0080008611C
:10233000042020772068C0698007204602D0FFF77C
:10234000B7FF04E000F04DF8204600F04BF8277787
:10235000E80616D5F00614D521686FF01000086164
:10236000082020772068C06910F4407F204602D002
:10237000FFF79EFF04E000F034F8204600F032F84A
:102380002777E80708D0F00706D021686FF0010032
:102390000861204600F028F8280608D5300606D542
:1023A00021686FF0800008612046FFF711FF680682
:1023B00008D5700606D521686FF0400008612046F8
:1023C00000F01CF8A8060AD5B00608D521686FF001
:1023D000200008612046BDE8F041FFF7FABEBDE8E5
:1023E000F08170477047000000680349884201D1BE
:1023F000FFF72ABB7047000000200040704770477D
:1024000070470000F8B5016804460868CA684B695F
:1024100010F00F0F4FF0000559D003F0010602F441
:102420009077374365D0C10705D0D10503D5616CDE
:1024300041F001016164410705D5D90703D0616C02
:1024400041F002016164810705D5D90703D0616CB1
:1024500041F004016164010707D502F02001314316
:1024600003D0616C41F008016164616C00293AD0CD
:10247000800604D5900602D5204601F074F9206844
:102480004069616CC0F38010090700D460B3204636
:1024900001F042F920684069400621D520681430D7
:1024A00050E8001F21F0400140E80012002AF5D159
:1024B000E06BA8B16E490165E06BFFF75FF900289A
:1024C00011D0E06B016D01B0BDE8F0400847830614
:1024D0000FD593060DD52046BDE8F84001F043B96D
:1024E0002046FFF78DFFF8BD2046FFF789FF6564A2
:1024F000F8BD266B2023012E7DD1C6067BD5D606DE
:1025000079D508684868009048694FF0020640068F
:1025100041D5E16B086840680004000CE8D0A28D4A
:102520008242E5D9E085C869B0F5807F2DD020686A
:102530000C3050E8001F21F4807140E80012002A9E
:10254000F5D12068143050E8001F21F0010140E867
:102550000012002AF5D12068143050E8001F21F045
:10256000400140E80012002AF5D184F8423025638A
:1025700020680C3050E8001F21F0100140E80012E4
:10258000002AF5D1E06BFFF7B0F86663A08DE18D0E
:10259000401A81B22AE0A08DE18D401A81B2E08D0F
:1025A0000028A5D00029A3D022680C3252E8000FE1
:1025B00020F4907042E80007002FF5D12068143015
:1025C00050E8002F22F0010240E80027002FF5D14B
:1025D00084F84230256320680C3050E8002F22F048
:1025E000100240E80023002BF5D166632046FFF778
:1025F00006FFF8BDFFE705062BD5150629D594F88B
:1026000041002128F5D1A068B0F5805F01D1206993
:10261000B0B1206A411C2162216800784860E08CDA
:10262000401E0004000CE084E3D12068C16821F062
:102630008001C1602068C16841F04001C160D8E7F5
:10264000206A0088C0F308004860206A801C20626D
:10265000E5E74006CDD55006CBD5CA68204622F026
:102660004002CA6084F8413000F0D4F8C1E70000AD
:102670000937000870B5040004D094F84100002523
:1026800010B106E0012070BD84F84050204600F0F3
:1026900023F8242084F841002068C16821F4005107
:1026A000C160204601F0C0F82068016921F4904122
:1026B00001612068416921F02A0141612068C168F7
:1026C00041F40051C1606564202084F8410084F821
:1026D00042006563002070BD70B586B004461421C9
:1026E0006846FDF729FE2A4E22682A480321022364
:1026F00001240825B24220D1264A1032166846F03D
:1027000000461660126802F000420592026842F02C
:1027100010020260006800F0100005908DE81A00B9
:10272000CDE9031569461C48FFF760F80022052132
:102730005320FFF721FA532025E0184EB24224D14E
:10274000144A1432166846F020061660126802F029
:1027500020020592026842F0400202600068CDE962
:10276000024100F0400005904FF48440CDE90003A1
:10277000049569460A48FFF739F8002205214720E9
:10278000FFF7FAF94720FFF7E9F906B070BD00003E
:10279000007C00403038024000100240001401402C
:1027A0000018024090F84230202B01D002207047E0
:1027B00021B11AB10023036301F0BCB801207047B6
:1027C00010B5044600680D49884206D101F0D4F8DE
:1027D00018220B490B48FFF7E5FF0B492068884298
:1027E0000AD10A48007800F017F8BDE8104001222D
:1027F00006490748FFF7D6BF10BD0000001401408E
:10280000B4090020EC010020007C004035000020CD
:10281000A40100207047FEE72DE9F041594E584CC5
:1028200000272DED048B31786054491CC8B23070FC
:10283000217855293CD10B287DD360789FED528BB0
:1028400004F1FC05512804D0522832D05328F1D18C
:102850005FE0B4F90200FDF702FF53EC182BFDF71F
:102860001DFE9FED4B9B53EC192BFDF717FEFDF75B
:102870001FFF2860B4F90400FDF7F1FE53EC182B9C
:10288000FDF70CFE53EC192BFDF708FEFDF710FFCA
:102890006860B4F90600FDF7E2FE53EC182BFDF773
:1028A000FDFD53EC192BFDF7F9FDFDF701FFA860C5
:1028B00060E0B4F90200FDF7D2FE53EC182BFDF7EF
:1028C000EDFD9FED359B53EC192BFDF7E7FDFDF773
:1028D000EFFEE860B4F90400FDF7C1FE53EC182BDD
:1028E000FDF7DCFD53EC192BFDF7D8FDFDF7E0FEFD
:1028F0002861B4F90600FDF7B2FE53EC182BFDF782
:10290000CDFD53EC192BFDF7C9FDFDF7D1FE686134
:1029100030E0B4F90200FDF7A2FE53EC182BFDF7EE
:10292000BDFD9FED1F9B53EC192BFDF7B7FDFDF788
:10293000BFFEA86100E01EE0B4F90400FDF78FFEC1
:1029400053EC182BFDF7AAFD53EC192BFDF7A6FD50
:10295000FDF7AEFEE861B4F90600FDF780FE53EC2A
:10296000182BFDF79BFD53EC192BFDF797FDFDF799
:102970009FFE28623770BDEC048BBDE8F08100003B
:102980006C08002034000020000000000000003F20
:1029900000000000000030400000000000409F40A8
:1029A0000000000000806640014900200870704768
:1029B00010000020054B4FF48041012803D0012274
:1029C0001846FFF735B80022FAE70000001402406D
:1029D0004FF480410148FFF723B800000014024083
:1029E00010B5002000F006F8BDE810400020FFF709
:1029F000E1BF0000054B4FF40061012803D0012224
:102A00001846FFF715B80022FAE700000010024050
:102A10004FF400610148FFF703B8000000100240C6
:102A20007FB5002415480094019402941249039440
:102A300001604FF48031C0E901140125046105767D
:102A400080F820400E49C0E90A14C561C46080F8CE
:102A500030404561FEF709FA08B1FEF722F806207A
:102A6000CDE90005694602940448FEF79BF800286A
:102A700001D0FEF716F87FBD002001403401002090
:102A80000100000F0F4810B50D490160052141609C
:102A900000214FF400328160C0E90312520142610B
:102AA000017641768176C17601774177FEF7D7FCD2
:102AB000002803D0BDE81040FDF7F3BF10BD0000B3
:102AC000006400407C01002010B50E4A00210E4831
:102AD00001F016FD0D4C0B4A0021206024320C48F9
:102AE00001F00EFD074A606048320021094801F0FC
:102AF00007FD044AA0606C320021074801F000FD88
:102B0000E06010BD545C0008753000080000002033
:102B1000ED360008DD3600082D3200082DE9F04FB3
:102B200087B014216846FDF707FC4F48002601686E
:102B300041F010010160016801F010010591016888
:102B400041F040010160016801F040010591016818
:102B500041F002010160016801F002010591016884
:102B600041F001010160016801F001010591016876
:102B700041F008010160016801F008010591016858
:102B800041F080010160016801F080010591016858
:102B900041F0200101600068DFF8D09000F02000D3
:102BA0004FF4C1640590002221464846FEF740FFDD
:102BB000DFF8BCA000223C215046FEF739FFDFF8C9
:102BC000B4B04FF40067002239465846FEF730FF94
:102BD000002280212848FEF72BFF4FF48048002276
:102BE00041462648FEF724FF009401240225694649
:102BF00048460194CDE90245FEF7F8FD3C208DE8FA
:102C0000710069465046FEF7F1FD042000904FF434
:102C10008810CDE9010569464846FEF7E7FDCDE994
:102C20000074CDE9024669465846FEF7DFFD802074
:102C3000CDE9000469461048CDE90245FEF7D6FD0E
:102C4000CDE90084CDE9024669460C48FEF7CEFD89
:102C5000002205210820FEF78FFF0820FEF77EFFE7
:102C600007B0BDE8F08F0000303802400004024099
:102C7000001C02400010024000000240001402400C
:102C80000C4810B50A4901604FF41651416000210B
:102C900081600C22C160C0E904128161C161FFF74B
:102CA000E9FC002803D0BDE81040FDF7FABE10BDD6
:102CB000007C0040A40100200C4810B50A490160C6
:102CC0004FF4E1314160002181600C22C160C0E914
:102CD00004128161C161FFF7CDFC002803D0BDE87B
:102CE0001040FDF7DEBE10BD00140140EC010020D5
:102CF000FEE780ED080A90ED091A80ED0A1AD0ED82
:102D00000B0AC0ED0C0AD0ED010A30EEC00A80EDCE
:102D1000090AD0ED0F1AF0EEC00AF4EEE10AF1EE66
:102D200010FA47DDD0ED020A60EE801AC0ED051AF8
:102D3000D0ED060A90ED032A42EE000A30EE410A79
:102D4000C0ED060A90ED041A20EE011A80ED071A74
:102D500090ED0E0AB1EE402AF4EEC20AF1EE10FA3E
:102D600001D280ED062AD0ED060AF4EEC00AF1EE9B
:102D700010FA02DCB0EE600A01E080ED060A31EEE6
:102D8000800A30EE011A80ED0B1A90ED0D0AF1EE7B
:102D9000400AB4EEE01AF1EE10FA02D3F0EE410A66
:102DA00001E0C0ED0B0AF4EEC00AF1EE10FA01DD0D
:102DB00080ED0B0A90ED0B0A704700000349416457
:102DC000034981640349C16470470000D92D00089C
:102DD000212E0008F32C000810B5039C0170D4EDDF
:102DE000000AC0ED020AD4ED010AC0ED030AD4EDD9
:102DF000020AC0ED040A00EE902AF8EE600AC0ED67
:102E00000D0A00EE903AF8EE600AC0ED0E0A80ED71
:102E10000F0A9FED020A80ED0B0A10BD00000000B2
:102E200091ED000A80ED020A91ED010A80ED030A9E
:102E300091ED020A80ED040A7047000010B5FDF71D
:102E4000FBFD064A002100BF01EB810002EBC00040
:102E5000FDF79AFE491C0429F6DB10BD7C06002014
:102E6000FEE700000148FEF763B8000034010020CF
:102E700010B50021074C0A46002004EBC1131A5478
:102E8000401CC0B28028FAD3491CC9B20829F3D328
:102E900010BD00007C02002010B5002000F096F864
:102EA000012000F09BF8012000F0A8F8012000F0BC
:102EB0009DF8AE2000F0AAF8002000F0A7F810203E
:102EC00000F0A4F8D52000F0A1F8802000F09EF8D2
:102ED000A82000F09BF83F2000F098F8D32000F0E5
:102EE00095F8002000F092F8402000F08FF8A12023
:102EF00000F08CF8C82000F089F8DA2000F086F89D
:102F0000122000F083F8812000F080F8CF2000F03C
:102F10007DF8D92000F07AF8F12000F077F8DB2076
:102F200000F074F8402000F071F8A42000F06EF872
:102F3000A62000F06BF88D2000F068F8142000F057
:102F400065F8AF2000F062F8FFF792FFBDE810408F
:102F500000F028B870B500240646802525FA04F054
:102F6000304000D0012000F039F8012000F02EF8A8
:102F7000002000F02BF8641CE4B2082CEED370BDE6
:102F800010B5891CCCB240F0B00000F03FF8102022
:102F900040EA141000F03AF804F00F00BDE81040C9
:102FA00000F034B870B5084D002400212046FFF72A
:102FB000E7FF05EBC410802100F032F8641CE4B296
:102FC000082CF2D370BD00007C02002002460821CC
:102FD0000148FEF72DBD000000040240024680219A
:102FE0000148FEF725BD00000000024002464FF4F4
:102FF00000710148FEF71CBD0004024002464FF478
:1030000080610148FEF714BD0004024010B504467B
:103010000020FFF7EBFF2046BDE81040FFF79ABF06
:1030200070B506460D460120FFF7E0FF002404E0DE
:10303000305DFFF78FFF641CE4B2AC42F8D370BD83
:1030400010B50B4C012204212046FEF7F1FC0122B1
:1030500008212046FEF7ECFC012210212046FEF755
:10306000E7FC20460122BDE810402021FEF7E0BC2D
:10307000001C0240012001F007FAFBE710B54FF0F9
:10308000E020006902F030FC012803D0BDE81040C8
:1030900002F05EB910BD000030B593B03021684633
:1030A000FDF74AF914210CA8FDF746F92048002540
:1030B000016841F080510160006800F0805011907B
:1030C0001C48016841F4404101600068022400F49A
:1030D0004040119001200090000401908001CDE952
:1030E000064006200890B420CDE9090404200B9086
:1030F0006846FEF7B7FE08B172B6FEE7FEF76EFD52
:1031000008B172B6FEE70CA90F2081E831004FF438
:10311000A0500F904FF48050109005210CA8FEF79E
:1031200095FD002801D072B6FEE713B030BD000057
:1031300040380240007000400248016841F47001CC
:103140000160704788ED00E00148FFF7B2B8000069
:1031500034020020F0B50268294C2A4D2A4E2B4F2C
:103160002B4B4FF0804CA04209D0604507D0A842BD
:1031700005D0B04203D0B84201D0984204D122F029
:10318000700E4A6842EA0E02A0421BD0604519D078
:10319000A84217D0B04215D0B84213D0984211D0EF
:1031A0001C4DA8420ED01C4DA8420BD01B4DA8426E
:1031B00008D01B4DA84205D01A4DA84202D01A4D86
:1031C000A84203D122F44075CA682A434D6922F00F
:1031D00080022A4302608A68C2620A688262A04250
:1031E00001D0984201D1096901630121416101695E
:1031F000C90703D0016921F001010161F0BD0000A0
:10320000000001400004004000080040000C0040A5
:1032100000040140004001400044014000480140DA
:1032200000180040001C004000200040844801F0CD
:1032300025FE8348143001F02CFE8148283001F02F
:1032400028FE7F483C3001F024FE7D4D28201435B7
:1032500005F1140628603C20306005F12807322073
:10326000386078A000F00AFC86A000F007FC7449E2
:1032700088A000F003FC724C8BA0616800F0FEFB9C
:1032800004F108018FA000F0F9FB294694A000F09A
:10329000F5FB314697A000F0F1FB39469AA000F00B
:1032A000EDFB9EA000F0EAFBAC4800F0E7FB2946EE
:1032B000204601F0F1FDAAA000F0E0FBACA0E1681F
:1032C00000F0DCFBB3A0696800F0D8FBB8A021696E
:1032D00000F0D4FBC0A0A96800F0D0FB8FA000F0E4
:1032E000CDFBC54800F0CAFB3146204601F0D4FDB5
:1032F0009BA000F0C3FB9EA0E16800F0BFFBA5A06F
:10330000696800F0BBFBBDA0716800F0B7FBA8A026
:10331000216900F0B3FBB0A0A96800F0AFFBBEA02C
:10332000B16800F0ABFB7DA000F0A8FBC24800F044
:10333000A5FB3946204601F0AFFD89A000F09EFBB9
:103340008BA0E16800F09AFB92A0696800F096FB00
:10335000AAA0716800F092FBB8A0796800F08EFB1B
:1033600093A0216900F08AFB9BA0A96800F086FB6E
:10337000A9A0B16800F082FBB7A0B96800F07EFB9D
:1033800066A000F07BFBBC4800F078FB304601F003
:103390004BFD73A000F072FB75A0E16800F06EFBBE
:1033A0007CA0696800F06AFBA4A0796800F066FB65
:1033B0007FA0216900F062FB87A0A96800F05EFB96
:1033C000A5A0B96800F05AFB54A000F057FBAB4829
:1033D00000F054FB31462046656001F075FD60A0A9
:1033E00000F04CFBA6A0616800F048FB60A0E1681B
:1033F00000F044FB67A0696800F040FB7FA07168A3
:1034000000F03CFB8DA0796800F038FB68A02169D2
:1034100000F034FB70A0A96800F030FB7EA0B1681A
:1034200000F02CFB8CA0B96800F028FB9BA000F0FA
:1034300025FB4FF47A74204601F026F8FBE70000E4
:10344000E40000202F2A2A2A2A2A2A2A2A2A2A2A7B
:103450002A2A2AB5DAB6FEB2BDA3BAB4F2D3A1C104
:10346000D0B1EDBACDC1D0B1EDCFEEB5C4B5D8D69F
:10347000B72A2A2A2A2A2A2A2A2A2A2A2A2A2A2F1A
:103480000D0A0000CFEEC4BF090909B5D8D6B70DA3
:103490000A000000546573744C697374090930782C
:1034A0002570090D0A000000546573744C6973742B
:1034B0002D3E7078496E6465780930782570090D65
:1034C0000A000000546573744C6973742D3E784C87
:1034D000697374456E640930782570090D0A00001F
:1034E0004C6973744974656D310909307825700928
:1034F0000D0A00004C6973744974656D3209093016
:10350000782570090D0A00004C6973744974656D63
:1035100033090930782570090D0A00002F2A2A2A5C
:103520002A2A2A2A2A2A2A2A2A2A2A2A2A2A2A2AFB
:103530002A2A2A2A2A2A2ABDE1CAF82A2A2A2A2A33
:103540002A2A2A2A2A2A2A2A2A2A2A2A2A2A2A2ADB
:103550002A2A2A2A2A2A2F0D0A000000405D000884
:10356000CFEEC4BF09090909B5D8D6B70D0A0000C6
:10357000546573744C6973742D3E784C697374454B
:103580006E642D3E70784E65787409307825700D24
:103590000A0000004C6973744974656D312D3E70EA
:1035A000784E6578740909307825700D0A0000009E
:1035B000546573744C6973742D3E784C697374450B
:1035C0006E642D3E707850726576696F7573093040
:1035D0007825700D0A0000004C6973744974656D9C
:1035E000312D3E707850726576696F7573090930B8
:1035F0007825700D0A000000845D00084C69737422
:103600004974656D322D3E70784E657874090930C5
:103610007825700D0A0000004C6973744974656D5B
:10362000322D3E707850726576696F757309093076
:103630007825700D0A000000C85D00084C6973749D
:103640004974656D332D3E70784E65787409093084
:103650007825700D0A0000004C6973744974656D1B
:10366000332D3E707850726576696F757309093035
:103670007825700D0A000000FC5C00080C5E000854
:10368000546573744C6973742D3E7078496E64652B
:10369000780909307825700D0A0000002F2A2A2A9F
:1036A0002A2A2A2A2A2A2A2A2A2A2A2A2A2A2A2A7A
:1036B0002A2A2A2A2ACAB5D1E9BDE1CAF82A2A2A21
:1036C0002A2A2A2A2A2A2A2A2A2A2A2A2A2A2A2A5A
:1036D0002A2A2A2A2A2A2A2A2F0D0A004FF47A7423
:1036E000FFF776F9204600F0CFFEF9E74FF47A7441
:1036F000FFF78EF9204600F0C7FEF9E70148FEF714
:1037000081BE0000A401002010B5806B0021C1859E
:10371000C184FEF775FE10BD01680C3151E8002F21
:1037200022F4907241E80023002BF5D10168143196
:1037300051E8002F22F0010241E80023002BF5D1CF
:10374000016B012909D101680C3151E8002F22F0E9
:10375000100241E80023002BF5D1202180F842100F
:1037600000210163704708B590F84210222901D06A
:10377000022008BD82684FF480539A4201D101694A
:1037800021B1816A9A421BD04AB10AE00268816A7B
:103790005268C2F308020A80816A891C08E0026943
:1037A00072B10268526802F07F020A70816A491C95
:1037B0008162C18D491E0904090CC18503D01BE03B
:1037C00002685268F1E70168CA6822F02002CA6004
:1037D0000168CA6822F48072CA6001684A6922F0EE
:1037E00001024A61202180F8421000214163026BEE
:1037F000012A03D0FEF7E4FF002008BD0163016841
:103800000C3151E8002F22F0100241E80023002B78
:10381000F5D101680A68D20602D50A6849680091A4
:10382000818DFEF7ECFDE7E770B50446006801699D
:10383000E26821F44051114301612169A068E26905
:1038400008436169114308432168CA6849F20C635F
:103850009A430243CA6020684169A26921F4407119
:103860001143416131492068884202D03049884281
:1038700002D1FEF7B5FA01E0FEF7A2FAE2690023F1
:10388000192164253226B2F5004F626828D0A0FBCA
:103890000101930F9200FCF705FD0146B0FBF5F026
:1038A0006FF01802504301EB800006EB0010B0FBF4
:1038B000F5F000F0F002B1FBF5F002EB0012B1FB05
:1038C000F5F06FF01803584301EB800006EB001091
:1038D000B0FBF5F000F00F0021681044886070BD67
:1038E000A0FB010192185B41FCF7DCFC0146B0FB38
:1038F000F5F00201B1FBF5F06FF01803584301EB4E
:10390000800006EBC000B0FBF5F000F0F80002EB21
:103910004002B1FBF5F0584301EB800006EBC0001C
:10392000B0FBF5F000F00700D6E700000010014002
:103930000014014081628285C285002141642221F8
:1039400080F84210016921B10168CA6842F48072AE
:10395000CA6001684A6942F001024A610068C168B0
:1039600041F02001C1600020704700000148FEF7CF
:1039700049BD0000EC0100203A4801787B2970D154
:1039800082781306C2F3011105D5494200EE101AE0
:10399000B8EEC00A03E000EE101AB8EE400A02F0DA
:1039A0000F0280ED070AC17841EA022100EE101AE9
:1039B0002E49B8EE401A9FED2C0AC1EE000AC0ED68
:1039C000080A90ED071A71EE200AC1ED000A02798B
:1039D0001306C2F3011105D5494200EE901AF8EE24
:1039E000E00A03E000EE901AF8EE600A02F00F021F
:1039F000C0ED090A417941EA022100EE901A1C4902
:103A0000B8EE601AC1EE000AC0ED0A0A90ED091A7C
:103A100071EE200AC1ED000A82791306C2F301118A
:103A200005D5494200EE901AF8EEE00A03E000EEF8
:103A3000901AF8EE600A02F00F02C0ED0B0AC1798D
:103A400041EA022100EE901AB8EE601AC1EE000AB7
:103A5000C0ED0C0A90ED0B0A064830EE200A80ED0E
:103A6000000A7047B409002000007A44400000209A
:103A70004400002048000020FEE700000FB4054B82
:103A800010B503A9044A029800F0EAF810BC5DF8EA
:103A900014FB000091430008E00000200907090E14
:103AA000002804DB00F1E02080F80014704700F0EB
:103AB0000F0000F1E02080F8141D704702E008C8F4
:103AC000121F08C1002AFAD170477047002001E098
:103AD00001C1121F002AFBD1704700002DE9FF5FD2
:103AE00082B00021DDE90430020DDDF840B003436F
:103AF00018D044F61050A2F2FF3242431514119828
:103B000001281FD0A5EB0B00401C5FEA000A4FF014
:103B100000064E4FDFF83891B046504615D5CAF131
:103B2000000413E0119801244AA3012801D16FEA8F
:103B30000B010298119AC0E90031C0E9024206B0B7
:103B4000BDE8F09FCBF10000DFE704460021404ACA
:103B5000491842EB0450CDE9001012E0E00707D00D
:103B600032463B4640464946FCF798FC804689462B
:103B700032463B4610461946FCF790FC06460F4677
:103B80006410002CEAD1DDE90401DDE90023BAF17B
:103B9000000F06DAFCF782FC42464B46FCF77EFC3F
:103BA00005E0FCF7EDFC42464B46FCF7E9FC044619
:103BB0000E460022284BFCF763FD03D84FF0FF3080
:103BC000014607E00022254B20463146FCF7BFFBAB
:103BD000FCF765FE102409E0002C0ADB0A22002312
:103BE000FCF760FB039B30321A55641E50EA010259
:103BF000F2D1641C039AC4F111031444119A012AEE
:103C000003D0012208430DD10AE0084304D000206C
:103C10004FF0110B119072E7A3EB0B056D1E0DE039
:103C20005B4504DD4FF0000205F1010504E003DA15
:103C30004FF00002A5F10105002AECD0029811997D
:103C4000C0E90231C0E9004579E7000000001440F6
:103C50000000F03F300000000000F0430000E03FB3
:103C60002DE9FF4F95B09B468946064600250FE299
:103C7000252877D100242746F84A0121059400E041
:103C8000044316F8013F203B01FA03F01042F7D13C
:103C900030782A2811D06FF02F033078A0F130024D
:103CA000092A16D8059A44F0020402EB820203EBBB
:103CB00042021044761C0590EFE759F8042B059258
:103CC000002A03DA504244F40054059044F0020400
:103CD000761C30782E2816D116F8010F44F0040413
:103CE0002A280DD06FF02F023078A0F13003092B75
:103CF00009D807EB870302EB4303C718761CF3E7E9
:103D000059F8047B761C30786C280FD006DC4C28E0
:103D100017D068280DD06A2814D104E0742810D078
:103D20007A280FD10DE044F400140AE044F4801422
:103D300001E044F440147278824202D104F5801408
:103D4000761C761C307866280BD013DC582877D088
:103D500009DC002875D04528F6D04628F4D047283D
:103D60001AD19DE118E0632835D0642879D0652800
:103D700012D195E1702873D008DC6728F1D069284A
:103D80006FD06E280DD06F2806D1B5E073282CD0E7
:103D9000752875D0782874D05A46179990476D1CAD
:103DA00075E1C4F30250022809D003280DD0D9F8D8
:103DB000001004280DD00D6009F1040967E1D9F85D
:103DC0000010EA17C1E90052F6E7D9F800100D809B
:103DD000F2E70D70F0E719F8041B8DF800100020D1
:103DE0008DF80100EA46012003E059F804AB4FF0DA
:103DF000FF3061074FF0000102D40DE008F101012E
:103E00008846B9420FDA8045F8DB1AF80810002915
:103E1000F4D108E008F1010188468142FADB1AF882
:103E200008100029F6D105985B46A0EB080721464B
:103E30003846179A00F094FA284400EB080507E08A
:103E40004DE029E10DE01AF8010B5A461799904709
:103E5000B8F10108F7D25B4621463846179A13E1BC
:103E600042E00A220092C4F302524FF0000A022AF2
:103E700008D059F804CB032A4FEAEC710AD00DE0C0
:103E800029E02AE009F1070121F00702F2E802C166
:103E9000914609E00FFA8CFC4FEAEC71042A03D139
:103EA0004FFA8CFC4FEAEC71002907DA0A46002130
:103EB000DCF1000C61EB02012D2202E0220504D5A9
:103EC0002B228DF80420012203E0E20701D02022FA
:103ED000F7E7904659E00A2102E010220DE0102198
:103EE0004FF0000A00910BE010224FF0000A44F05E
:103EF00004040827009203E008224FF0000A009211
:103F0000C4F30252022A05D059F804CB0021032A37
:103F100008D009E009F1070121F00702F2E802C127
:103F2000914605E01FFA8CFC042A01D10CF0FF0C2D
:103F30004FF00008220728D5702806D0009B83F098
:103F4000100353EA0A0305D00EE040228DF8042046
:103F5000012208E05CEA010206D030228DF804203C
:103F60008DF8050002229046009B83F0080353EA77
:103F70000A030AD15CEA010201D1620705D53022A9
:103F80008DF804204FF001087F1E582804D034A07B
:103F900003900EA802900DE036A0F9E75346604664
:103FA000009AFCF77FF984460398825C0298401ED1
:103FB000029002705CEA0100F0D1029806A9081A8A
:103FC00000F1200A600702D524F4803400E00127C4
:103FD000574502DDA7EB0A0000E0002000EB0A01D4
:103FE000009005984144401A0590E00306D45B46D2
:103FF0002146179A059800F0B3F90544002706E01A
:1040000001A85A46C05D179990476D1C7F1C474513
:10401000F6DBE0030CD55B462146179A059800F0C5
:104020009FF9054404E030205A46179990476D1CCB
:104030000099481E00900029F5DC08E002980299DA
:104040005A460078491C0291179990476D1CBAF1A5
:104050000001AAF1010AF1DC65E100000928010074
:1040600030313233343536373839616263646566EE
:1040700000000000303132333435363738394142B0
:10408000434445460000000000F058F90544761C02
:10409000307800287FF4ECAD19B02846BDE8F08FE9
:1040A000620700D4062709F1070222F0070CFCE89A
:1040B0000223E14603F000485FEA080C02D00FF249
:1040C000702C0DE05FEA045C02D50FF2682C07E06B
:1040D0005FEAC47C02D00FF2602C01E0AFF2700CFA
:1040E0004FF0FF3823F00043CDF850C065280CD0C6
:1040F00006DC452809D046281DD047283DD13DE0A3
:10410000662818D067287ED138E00021112F01DB06
:10411000112000E0781CCDE9000106A90EA8FFF7E8
:10412000DDFCDDE90F010E9A03910021009207F1F9
:10413000010A04914DE04FF000400097CDE90110D5
:1041400006A90EA8FFF7CAFCDDE90F0203920E9B39
:1041500011990022DDF80CA00093049211B9791C8A
:1041600000EB010AB7EB0A0004D4C0F1FF3007F1FD
:10417000010A0490AAEB0700019044E0012F00DA45
:1041800001270021112F01DD112000E03846CDE983
:10419000000106A90EA8FFF7A1FCDDE90F010E9AA8
:1041A0000391002104910092BA4621070CD403998F
:1041B000514500DA8A46BAF1010F05DD009AAAF1ED
:1041C0000101515C302908D0B84202DA10F1040F25
:1041D00006DA0121CDE9011015E0AAF10101E9E7B4
:1041E000002805DC049901440491AAEB000102E0D7
:1041F000411C514500DD8A460499401A401C01903B
:104200004FF000400290200704D40198504501DB94
:10421000CDF8048000208DF84F0002980DF14F0773
:10422000B0F1004F25D02B200E9002984FF00208DD
:1042300000280CDA404202902D200E9007E00A215F
:104240000298FCF751FA3031029007F8011DB8F1DD
:104250000001A8F10108F2DC02980028EFD1791ED4
:104260000E980870307800F0200040F0450007F804
:10427000020D12A8C01B00F107081498007800B1C5
:10428000012000EB0A01019801EBE071059841441F
:10429000401A401E0590E00306D45B462146179A5B
:1042A000059800F05DF805441498007818B15A4656
:1042B000179990476D1CE00324D55B462146179A59
:1042C000059800F04DF805441CE00498002807DB31
:1042D000DDE90301884203DD0098405C179901E0A5
:1042E000179930205A469047049805F10105401C63
:1042F00004900198401E019004D12E205A4617992F
:1043000090476D1CBAF10001AAF1010ADDDC05E05D
:1043100017F8010B5A46179990476D1CB8F1000128
:10432000A8F10108F4DC5B462146179A0598ABE634
:104330002D0000002B000000200000002DE9F041BE
:10434000044600251E461746880404D405E0394675
:104350002020B0476D1C641EF9D52846BDE8F081C9
:104360002DE9F041044600251E469046C80301D5BC
:10437000302700E02027880404D505E04146384670
:10438000B0476D1C641EF9D52846BDE8F0810000D9
:1043900004490A685206FCD5024AC1B2121D1160D6
:1043A00070470000001401401CB5FDF755FBFEF7F7
:1043B00073FEFEF7B3FBFEF733FBFEF763FBFEF77E
:1043C0007BFCFEF75DFCB420FCF754FBFEF708FB1A
:1043D000FEF7EAFAFEF760FDFEF744FDFEF730FE59
:1043E000FEF72CFD0025214EDFF884802F4641F298
:1043F00088394FF4804A00BF05EB850006EB0014B6
:104400002046FEF7DBFCCDE900782046646CB2EE76
:10441000040A4B4652460121A0476D1C042DEBDBDC
:104420000020FCF7A7FB134C20600120FCF7A2FB47
:1044300060600220FCF79EFBA0600320FCF79AFB63
:10444000E0606420FDF7ACF918220B490B48FEF739
:10445000A9F901220A490B48FEF7A4F900F022F855
:10446000FEF732FB00F030F8FEE700002C070020DA
:10447000280000201C070020B4090020EC010020C7
:1044800035000020A401002010B5EFF3058111B123
:104490006FF0050403E0002408B100F0F9FD2046A8
:1044A00010BD0000EFF3058010B16FF005007047FC
:1044B0000448016811B14FF0FF30704701210160DD
:1044C00000207047AC00002010B5EFF3058010B15C
:1044D0006FF0050010BD08480168012902D04FF0B7
:1044E000FF3010BD054A002182F8141D0221016031
:1044F00000F036FE002010BDAC0000200BE000E014
:104500002DE9FF414FEA01034FF00005EFF305816C
:10451000039549BB40B38027182100244AB316688D
:1045200006B1344696691EB13146761E382E02D247
:104530001679F60703D0002004B0BDE8F081566973
:1045400006B1B708D2F808C0BCF1000F0DD0D5688D
:104550005C2D18D312693AB136B18DE806103A468F
:10456000214601F096F903900DE0D6685EB9126914
:104570004AB903AACDE90012BAB2214601F05CF9AA
:10458000012800D003950398D6E700002DE9F041FB
:10459000134C0F460546E6682068001D00F044FCF9
:1045A000681C07D137B12168BDE8F0410D48091DED
:1045B00000F08ABC20683544B5424560216805D2C8
:1045C000A06BBDE8F041091D00F066BC606B091DE1
:1045D00000F062FCA06A854200D2A562BDE8F081CD
:1045E0005C000020DC0E00202DE9F041054600F0C3
:1045F00077FC2D4CA068401CA06020682B4F10B1A8
:10460000606930B32BE02560A068012827D100261F
:1046100006EB860007EB800000F030FC761C382E9D
:10462000F6D3234800F02AFC2148143000F026FC81
:104630001F48283000F022FC1D483C3000F01EFCD2
:104640001B48503000F01AFC194860631430A06316
:1046500005E02068E96AC06A884200D82560606A7F
:10466000401C60626864E86A2169884200D9206160
:1046700000EB800007EB8000291D00F025FC00F016
:104680004FFC606900280CD02068E96AC06A884243
:1046900007D208494FF080500860BFF34F8FBFF337
:1046A0006F8FBDE8F08100005C0000202C0A002024
:1046B0008C0E002004ED00E038B500F011FC104C29
:1046C0002068C8B90F4800F0D9FB0E48143000F03C
:1046D000D5FB0C48E060143020610A4B0020F03B11
:1046E000009003F1500210210A2000F047FE2060E4
:1046F00010B105A100F096FCBDE8384000F010BCF8
:1047000098000020E00F0020546D7251000000005E
:1047100030B4026C0B46002A0BD0C1681144C16052
:104720008468A14201D30168C16030BC1846FBF720
:10473000EABD30BC70472DE9F041856B1746044651
:104740000026026C82B1C7B1E068FBF7DCFDE168CE
:10475000206C091AE1602268914202D2A168081A0D
:10476000E060022F16D017E02068A8B9A06801F019
:1047700033F906460020A0600EE06068FBF7C3FD39
:10478000216C606808446060A168884204D3206896
:10479000606001E005B16D1E6D1CA5633046BDE88B
:1047A000F08110B5044690F8590058B101280CD09A
:1047B00002280FD0502080F31188BFF34F8FBFF332
:1047C0006F8FFEE7206B00F0BFFB2046BDE8104076
:1047D00000F0BABB10BD000010484FF47051420702
:1047E00006D0C01D0D4920F00700411AC1F57051D7
:1047F0000B4A00230144C2E900030839183A21F0AA
:10480000070111604B600B600B1AC0E90013936045
:104810004FF000405360506170470000C016002008
:10482000C8000020144E154CA6F29C474FF080584B
:10483000DFF84C9012E000BF00F052FBF068C56852
:10484000281D00F0F1FAA068401EA0606068401EBC
:10485000606000F065FB2846FFF7A3FF6068002852
:10486000EAD138680128F9D9C9F80080BFF34F8F21
:10487000BFF36F8FF2E70000C80E00205C0000203D
:1048800004ED00E070B51D46049C51B1C4F8002051
:10489000C4E90F010121204600F0A4FD84F84C502A
:1048A00070BD2460F4E700002DE9F05F8846DDE983
:1048B0000B941546834691009A460A9EA522206BCA
:1048C000FBF733FD6FF00301206B01EB850108441A
:1048D00020F00707780707D0502080F31188BFF336
:1048E0004F8FBFF36F8FFEE70025B8F1000F0FD099
:1048F0005FF00000221818F8001082F8341018F841
:10490000001011B1401C1028F4D384F8435001E08A
:1049100084F83450382E00D33726E662C4E9136594
:10492000201D00F0B6FA04F1180000F0B2FA24617C
:10493000C6F138006462A061656584F8585052463B
:104940005946384600F05AFA2060B9F1000F01D0FC
:10495000C9F80040BDE8F09F30B5114900E01146AC
:104960000A688242FBD34B685C18844203D14068DA
:1049700018444860084643681C18944209D1084C02
:10498000183C2468A24209D052681A4442600A685E
:1049900012680260814200D0086030BD0460F9E70F
:1049A000C800002070B5002441600B4D00619142A9
:1049B00006D8D11A8269914206D2011D286907E002
:1049C0009A4203D2994201D3012403E0011DE86811
:1049D00000F062FA204670BD9800002010B5044631
:1049E00000F07EFAA06B28B15FF0000400F098FAA6
:1049F000204610BD0124F9E730B589B03C4D6EE08A
:104A00000498002806DADDE90601059A9047049823
:104A1000002864DB069C606910B1201D00F004FAD8
:104A200003A800F0D7F8024604980A2857D2DFE816
:104A300000F00505052D334A05052D3394F82800AF
:104A400040F0010084F828000599A069059B014405
:104A50002046FFF7A7FF68B3216A2046884794F8ED
:104A6000280040073BD5002000900598A16900234D
:104A700042181946204601F0B9F8D8B9502080F301
:104A80001188BFF34F8FBFF36F8FFEE714F8280F25
:104A900020F00100207022E094F8280040F001008E
:104AA00084F828000598A06128B181181346204693
:104AB000FFF778FF13E0502080F31188BFF34F8F8A
:104AC000BFF36F8FFEE794F82800810703D42046D8
:104AD00000F03AFA03E020F0010084F828000022F8
:104AE00004A9286800F0D2FD002889D109B030BDA2
:104AF000980000202DE9FC410F46054600F074FBAC
:104B000001A800F067F80446019818B100F0DCFF36
:104B1000BDE8FC81254EAFB130690068D0B30027F5
:104B2000291B3A46306800F091FA00F0CDFF0028CA
:104B3000EED11F494FF080500860BFF34F8FBFF395
:104B40006F8FE5E7A542EBD800F0BEFFF06827467F
:104B5000C068C468201D00F067F994F82800410778
:104B600019D5A0692B4641193A462046FFF71AFF8E
:104B7000A8B100200346014600902A46204601F0D5
:104B800035F860B9502080F31188BFF34F8FBFF321
:104B90006F8FFEE707E020F0010084F82800216A0B
:104BA00020468847B4E70127BAE7000098000020B4
:104BB00004ED00E00648416B096829B1416BC96802
:104BC000C9684968816270474FF0FF31FAE7000019
:104BD0005C00002070B5054600F094FE064E0446C9
:104BE000B068844203D200F009F8012000E0002000
:104BF00028602046B46070BD98000020F8B5194DBB
:104C000020E0C068C4680668201D00F00DF9216A24
:104C10002046884794F82800400713D5A0693044FF
:104C2000B04206D924616060211DE86800F034F9C3
:104C300008E000200346014600903246204600F07E
:104C4000D5FF38B1E86801680029DAD12969C5E9DA
:104C50000310F8BD502080F31188BFF34F8FBFF3CE
:104C60006F8FFEE79800002008484068401C4FF016
:104C7000500080F3118804D0BFF34F8FBFF36F8FC4
:104C8000FEE7BFF34F8FBFF36F8FFEE7D00000202A
:104C9000074CE068016841B1C0680021D0F800000D
:104CA000FFF728FFFFF7A8FEF3E701210020F7E751
:104CB000980000202DE9F041044600F011F994F924
:104CC000455004F1240609E0606A48B1304600F01E
:104CD000C3FE08B100F00AFA6D1E6DB2002DF3DCC0
:104CE0004FF0FF3684F8456000F01AF900F0F8F84C
:104CF00094F9445004F1100709E0206948B138469E
:104D000000F0AAFE08B100F0F1F96D1E6DB2002DA1
:104D1000F3DC84F84460BDE8F04100F001B9000024
:104D20002DE9F0410546002700F05EFA324E30686A
:104D300008B9FFF751FD706905424ED1C5B308357A
:104D400068070ED005F00700C0F1080005446807A9
:104D500007D0502080F31188BFF34F8FBFF36F8FC0
:104D6000FEE72DB37068854237D8234818300146D6
:104D70000C6801E020460C466168A94202D2216815
:104D80000029F7D131688C4227D00768216801607B
:104D900060680837411B10290FD96019420708D0F5
:104DA000502080F31188BFF34F8FBFF36F8FFEE762
:104DB00013E041606560FFF7CFFD61687068401ADD
:104DC0007060B268904200D2B06070690143002008
:104DD000C4E90001F068401CF06000F075FE78073F
:104DE00007D0502080F31188BFF34F8FBFF36F8F30
:104DF000FEE73846BDE8F081B000002010B5031F83
:104E00004FF080741C601B1F21F001011960191FF5
:104E1000044B0B6014390A60091F6FF0020244381A
:104E20000A6010BD694C0008D0E9013201699A603E
:104E3000D0E901235A604A68824201D182684A60FF
:104E4000002202610868401E086008687047000080
:104E5000034B036003F15C00086080201060704722
:104E600008100020044B036003F15C0008604FF45D
:104E700080701060704700006412002000F108018B
:104E80004FF0FF32C0E90112C160016100210160F1
:104E9000704700210161704730B50B685A1C02D081
:104EA00000F1080202E0026904E022465468256825
:104EB0009D42FAD953684B6099608A6051600861DD
:104EC0000168491C016030BD42684A6093688B608C
:104ED00093685960916008610168491C01607047DE
:104EE000502080F31188BFF34F8FBFF36F8F0A49B3
:104EF0004868401C486001280CD10848006810F040
:104F0000FF0F07D0502080F31188BFF34F8FBFF3FE
:104F10006F8FFEE770470000D000002004ED00E036
:104F20000849486828B1401E486001D180F31188C3
:104F30007047502080F31188BFF34F8FBFF36F8FFE
:104F4000FEE70000D000002070B500282AD0164DE2
:104F5000A0F1080460686969084207D1502080F315
:104F60001188BFF34F8FBFF36F8FFEE722683AB10E
:104F7000502080F31188BFF34F8FBFF36F8FFEE790
:104F80008843606000F030F96068696808446860D0
:104F90002046FFF7E1FC2869401C2861BDE870400D
:104FA00000F092BD70BD0000B00000204FF0E02086
:104FB00000210161816105494FF47A720968B1FBF2
:104FC000F2F1491E4161072101617047DC000020B8
:104FD00010B5FBF751F9114910280ED300F1E0206C
:104FE00090F8F0030A78904207D2502080F311889D
:104FF000BFF34F8FBFF36F8FFEE7094800688968E2
:1050000000F4E060884207D9502080F31188BFF394
:105010004F8FBFF36F8FFEE710BD0000D000002060
:105020000CED00E010B5084B002200BF53F83240F1
:105030001CB1521C082AF9D310BD43F8321003EBFF
:10504000C201486010BD0000EC09002070B5154693
:105050000E460446FFF744FF94F944100020491C13
:1050600001D184F8440094F94510491C01D184F819
:105070004500FFF755FFA06B28B92A46314604F1D9
:10508000240000F051F82046BDE87040FFF712BE42
:1050900010B5020014D00F48006B38B1502080F3D7
:1050A0001188BFF34F8FBFF36F8FFEE700F09CF8BE
:1050B00000211046FFF76AFA00F006FD002807D12C
:1050C00005494FF080500860BFF34F8FBFF36F8FDB
:1050D00010BD00005C00002004ED00E002490A6AF7
:1050E0000260C968416070475C00002001490120EE
:1050F000C86170475C00002010B50C4650B10949EA
:1051000009681831FFF7C8FE2046BDE810400121AC
:10511000FFF73CBA502080F31188BFF34F8FBFF3E5
:105120006F8FFEE75C00002070B514460D4668B135
:105130000A4909681831FFF7C7FE0CB14FF0FF3577
:1051400021462846BDE87040FFF720BA502080F382
:105150001188BFF34F8FBFF36F8FFEE75C00002015
:1051600030B587B00024039405AA04A903A80494C9
:10517000FFF76EFEDDE903010094CDE90110002385
:1051800015A11748059A00F084FB164D0028E86227
:105190001FD000F0FBFC012809D0401C19D1502081
:1051A00080F31188BFF34F8FBFF36F8FFEE750205E
:1051B00080F31188BFF34F8FBFF36F8F4FF0FF3035
:1051C000A86201206861EC6007B0BDE8304000F0E3
:1051D00045B807B030BD000049444C450000000010
:1051E000254800085C0000200248016B491C01634F
:1051F000704700005C000020164810B5016B11B12B
:105200000121C16110BD0021C1610169124A01E0A3
:10521000B9B1491E01EB810352F82330002BF7D0BE
:1052200001EB810302EB830202F1080453685B681F
:105230005360A34201D15B685360DA680260016188
:1052400010BD502080F31188BFF34F8FBFF36F8FD5
:10525000FEE700005C0000202C0A00201CB5374847
:105260000168374A914207D1502080F31188BFF37B
:105270004F8FBFF36F8FFEE700683149491E8842A8
:1052800007D1502080F31188BFF34F8FBFF36F8F8A
:10529000FEE72C4908780190FF20087008788DF807
:1052A00000009DF800009DF8002000F0F000904202
:1052B00007D0502080F31188BFF34F8FBFF36F8F5B
:1052C000FEE79DF80000204C00F050002070072001
:1052D000A06005E09DF8002052008DF80020401EDF
:1052E0009DF800201206F5D4A060032807D05020B6
:1052F00080F31188BFF34F8FBFF36F8FFEE74FF43A
:105300004070A060019808700C482030016841F49A
:1053100070010160016841F070410160FFF746FED5
:1053200000206060FAF770FF0848016841F04041D2
:105330000160FAF755FF00201CBD000000ED00E001
:1053400071C20F4100E400E0D000002034EF00E023
:1053500010B5502080F31188BFF34F8FBFF36F8FCC
:1053600000F0D6FA18B104494FF0805008600020D0
:1053700080F3118810BD000004ED00E038B5049DF5
:1053800018B153B1CAB181B120E0502080F3118827
:10539000BFF34F8FBFF36F8FFEE7502080F311886C
:1053A000BFF34F8FBFF36F8FFEE7502080F311885C
:1053B000BFF34F8FBFF36F8FFEE739B1502080F3FB
:1053C0001188BFF34F8FBFF36F8FFEE750241C4649
:1053D000012384F846302B460094FFF753FA204609
:1053E00038BD000070B50D46040025D0FFF778FDEC
:1053F000D4E90F20216802FB0011A1600021A16304
:10540000216861600A46D4E90F01401E00FB0121BA
:10541000E16021464FF0FF3001F8440F487004F17D
:1054200010008DB1FFF72AFD04F12400FFF726FDDF
:10543000FFF776FD012070BD502080F31188BFF387
:105440004F8FBFF36F8FFEE721690029F0D000F086
:1054500003FB0028ECD004494FF080500860BFF3F4
:105460004F8FBFF36F8FE3E704ED00E02DE9FF47B7
:1054700082B01D468A464FF00008040003D0BAF1FE
:10548000000F08D011E0502080F31188BFF34F8F38
:10549000BFF36F8FFEE7206C38B1502080F3118886
:1054A000BFF34F8FBFF36F8FFEE7022D0AD1E06B82
:1054B000012807D0502080F31188BFF34F8FBFF32E
:1054C0006F8FFEE700F010FA3F4F4FF000094FF0EA
:1054D000805648B9049838B1502080F31188BFF342
:1054E0004F8FBFF36F8FFEE7FFF7FAFCA06BE16B06
:1054F000884207D3022D05D00498D0B1B8F1000F2F
:105500001AD01EE02A4651462046FFF714F9616A78
:1055100019B104F1240000F09FFA20B13E60BFF3FE
:105520004F8FBFF36F8FFFF7FBFC012006B0BDE884
:10553000F087FFF7F5FC22E06846FFF7CFFD4FF05C
:105540000108FFF7EDFCFFF74FFEFFF7C9FC94F9E8
:105550004400401C01D184F8449094F94500401C5B
:1055600001D184F84590FFF7DBFC04A9684600F000
:1055700029F930B12046FFF79DFB00F0A5FA002085
:10558000D4E7FFF7ADFCA06BE16B884213D1FFF7C6
:10559000C7FC04F110000499FFF7AEFD2046FFF7A9
:1055A00089FB00F091FA00289ED13E60BFF34F8F37
:1055B000BFF36F8F98E7FFF7B3FC2046FFF77AFB46
:1055C00000F082FA90E7000004ED00E02DE9F047DA
:1055D0001F4690468946040003D0B9F1000F08D059
:1055E00011E0502080F31188BFF34F8FBFF36F8F0E
:1055F000FEE7206C38B1502080F31188BFF34F8F45
:10560000BFF36F8FFEE7022F0AD1E06B012807D0AE
:10561000502080F31188BFF34F8FBFF36F8FFEE7E9
:10562000FFF7D6FC5020EFF3118680F31188BFF30B
:105630004F8FBFF36F8FA06BE16B884206D3022FB1
:1056400004D0002086F31188BDE8F08794F9455016
:10565000A06B3A4649462046FFF76DF8681C04D017
:105660006D1C84F845500120ECE7606A0028FAD0F0
:1056700004F1240000F0F0F90028F4D0B8F1000F94
:10568000F1D00121C8F80010EDE700002DE9F7473F
:10569000002683B08A46040003D0BAF1000F08D078
:1056A00011E0502080F31188BFF34F8FBFF36F8F4D
:1056B000FEE7206C38B1502080F31188BFF34F8F84
:1056C000BFF36F8FFEE700F00FF9DFF8F4804FF0C3
:1056D00000094FF0805748B9059838B1502080F341
:1056E0001188BFF34F8FBFF36F8FFEE7FFF7F8FB13
:1056F000A56BC5B151462046FFF70AF86D1EA5639C
:10570000206950B104F1100000F0A6F928B1C8F8E2
:105710000070BFF34F8FBFF36F8FFFF701FC0120C5
:1057200006B0BDE8F087059808B11EB106E0FFF7A6
:10573000F7FB27E06846FFF7D1FC0126FFF7F0FBF7
:10574000FFF752FDFFF7CCFB94F94400401C01D158
:1057500084F8449094F94500401C01D184F84590A8
:10576000FFF7DEFB05A9684600F02CF8002820466C
:105770000AD0FFF79FFA00F0A7F92046FFF72EF9AD
:105780000028B3D00020CBE7FFF728F990B104F14F
:1057900024000599FFF7B0FC2046FFF78BFA00F0D4
:1057A00093F90028A2D1C8F80070BFF34F8FBFF360
:1057B0006F8F9BE72046FFF77DFA00F085F995E7AC
:1057C00004ED00E02DE9F0410C46050011D0C4B114
:1057D000FFF786FB174BDA686E682068911B471C41
:1057E00017D02F681B6A9F4219D0964217D8012400
:1057F00010E0502080F31188BFF34F8FBFF36F8FFD
:10580000FEE7502080F31188BFF34F8FBFF36F8FF7
:10581000FEE70024FFF784FB2046BDE8F0818842C4
:1058200005D9401A20602846FFF758FCF1E7002010
:105830002060DCE75C0000202DE9FF5F8346DDE9A6
:105840000E87994616468A469000FFF769FA0500CA
:105850001CD05C20FFF764FA040014D000202563FC
:1058600084F85900CDE90240CDE900874B46324625
:1058700051465846FFF718F82046FEF7B5FE0120BE
:1058800004B0BDE8F09F2846FFF75EFB4FF0FF3005
:10589000F6E7F0B585B0DDE90B640A9DA6B1DCB191
:1058A0005C2700972663022684F85960002604AF1F
:1058B000CDE90246CDE90057FEF7F6FF2046FEF798
:1058C00093FE049805B0F0BD502080F31188BFF31B
:1058D0004F8FBFF36F8FFEE7502080F31188BFF327
:1058E0004F8FBFF36F8FFEE70548416919B1006B19
:1058F00018B1002070470120704702207047000057
:105900005C0000200148C068704700005C00002077
:105910002DE9F0412E4C0027206B28B1A069401CD6
:10592000A0613846BDE8F081E668761CE66013D1D8
:10593000606B006838B1502080F31188BFF34F8F3F
:10594000BFF36F8FFEE7606BA16B6163A063206A9A
:10595000401C2062FFF72EF9A06ADFF878808642AB
:1059600009D3606B0068A0B1606BC068C5686868E7
:10597000864211D2A0622068C06A00EB800158F80C
:105980002100012800D90127E0690028C9D001279A
:10599000C7E74FF0FF30EDE7281DFFF745FAA86A8B
:1059A00018B105F11800FFF73FFAE86A216988424B
:1059B00000D9206100EB800108EB8100291DFFF771
:1059C00083FAE86A2168C96A8842CAD30127C8E70E
:1059D0005C0000202C0A002070B504004FF000018C
:1059E00033D01B4D2868844207D0502080F31188A3
:1059F000BFF34F8FBFF36F8FFEE7206D38B1401EAE
:105A00002065E36CE26A9A421FD040B11DE050204D
:105A100080F31188BFF34F8FBFF36F8FFEE7201D18
:105A2000FFF702FAE06CE062C0F13800A061E06AC2
:105A30002969884200D92861064900EB800001EB02
:105A40008000211DFFF740FA0121084670BD0000CB
:105A50005C0000202C0A002070B5C068C46854B1F6
:105A600004F118000646FFF7DFF9144D286B50B11A
:105A70003146134815E0502080F31188BFF34F8F53
:105A8000BFF36F8FFEE7201DFFF7CEF9E06A2969AB
:105A9000884200D928610B4900EB800001EB8000AF
:105AA000211DFFF711FAE06A2968C96A884202D904
:105AB0000120E86170BD002070BD00005C00002086
:105AC000B40E00202C0A00202DE9F0472C4D0024B4
:105AD0002746286B38B1FFF703FA286B401E28636E
