:020000040800F2
:10000000600E0020C10100081D3700085F2E0008A7
:10001000313400086D100008FD4E0008000000009B
:10002000000000000000000000000000F93A000895
:100030001D11000800000000FD380008293D0008DF
:10004000DB010008DB010008DB010008DB01000820
:10005000DB010008DB010008DB010008DB01000810
:100060002D110008DB010008DB010008DB0100089E
:10007000DB010008DB010008DB010008DB010008F0
:10008000DB010008DB010008390F0008DB01000874
:1000900071100008DB010008DB010008DB0100082B
:1000A000DB010008DB010008DB010008DB010008C0
:1000B000DB010008DB010008DB010008DB010008B0
:1000C000DB010008DB010008DB010008DB010008A0
:1000D000DB010008C9400008DB010008DB01000863
:1000E000DB010008DB010008DB010008DB01000880
:1000F000DB010008DB010008DB010008DB01000870
:10010000DB010008DB010008DB010008DB0100085F
:10011000DB010008DB010008DB010008DB0100084F
:10012000DB010008DB010008DB010008DB0100083F
:10013000DB010008DB010008DB010008DB0100082F
:10014000DB010008DB010008DB010008DB0100081F
:10015000DB010008DB010008DB010008D5400008D6
:10016000DB010008DB010008DB010008DB010008FF
:10017000DB010008DB010008DB01000800000000D3
:10018000DB010008DB010008DD3D0008E93D000857
:10019000DB010008DB010008DB010008DB010008CF
:1001A0000000000000000000DB010008DFF80CD0B8
:1001B00000F0E0FC004800470D5E0008600E0020E3
:1001C0000648804706480047FEE7FEE7FEE7FEE7F1
:1001D000FEE7FEE7FEE7FEE7FEE7FEE7CD3D0008AF
:1001E000AD0100082DE9F05F0546002092469B46D0
:1001F00088460646814640241BE02846414647463D
:10020000224600F006FB53465A46C01A914110D3CD
:1002100011461846224600F0EDFA2D1A67EB010848
:100220004F4622460120002100F0E4FA17EB0009B6
:100230004E41201EA4F10104DFDC484631462A4627
:100240004346BDE8F09F40EA01039B0703D009E065
:1002500008C9121F08C0042AFAD203E011F8013BB2
:1002600000F8013B521EF9D27047D2B201E000F80B
:10027000012B491EFBD270470022F6E710B513464A
:100280000A4604461946FFF7F0FF204610BD00005D
:100290000FB400B58DB010A909900B9000914FF0EC
:1002A000FF300A9000200C90054806900548079002
:1002B0006A4609A80F9900F0E3FA0DB05DF814FB47
:1002C0009D080008BB0800082DE9FF5FD2E901A7DF
:1002D0004FF00008916999461446DDF838B046465B
:1002E00001988847054659EA0B0005D009E0A16945
:1002F000761C019888470546216A284688470028C9
:10030000F5D1681C03D05FEACA7005D015E04FF044
:10031000FF3004B0BDE8F09F2068011D2160D0F8D7
:1003200000800AE05FEACA7001D108F8015BA169A8
:10033000761C7F1E019888470546002F1ADD681C31
:1003400018D0B9F1000F0DD0E81705EBD0604211BD
:1003500020F01F0059F822102A1A01209040014273
:10036000E0D107E0BBF1000FDCD1216A28468847C5
:100370000028D7D0E16901988847BBF1000F07D169
:10038000002E05DD5FEACA7002D1002188F8001056
:10039000A068B84203DDBBF1000F03D017B16FF0C6
:1003A0000100B6E73046B4E72DE9F05F93460F460B
:1003B00080460446002604F0CBFDD0F8009082462B
:1003C00014F8015B2DB100F047FA0068405DC007EA
:1003D000F6D12B2D02D02D2D1AD0641E0021CAF883
:1003E00000105A463946204600F078FA014627B1F7
:1003F0003868A04201D1C7F80080DAF8000002286E
:1004000009D0CAF80090700505D54842BDE8F09FB4
:1004100046F48066E2E70846F8E72DE9FE4F80469D
:1004200081EA0300C00F0C46009021F0004123F048
:100430000045B8EB0200A94105D24046214690464E
:100440001C460B46024623F00040104347D0270DC0
:10045000C7F30A00C3F30A510290401A01904028E2
:100460006BDAC3F3130040F4801B0098924620B16E
:100470000023D2EB030A63EB0B0B01985946C0F142
:100480004002504600F0B6F906460D465046594621
:10049000019A00F0CEF910EB08006141002487EAD0
:1004A000115284EAE7731A4340D0009A62B3019A6A
:1004B000012A4FEA075215DC001B61EB02014FF0E5
:1004C000004202EA0752CDE90042001C41F58011CA
:1004D00032462B4600F097FA03B0BDE8F08F404655
:1004E0002146F9E7001B61EB0201001C41F5801376
:1004F00000185B412018A2F5001747EB030140EA02
:10050000D570B6196D4111E06D084FEA360645EA1F
:10051000C0754FEA0752001B61EB0201001C41F558
:10052000801149084FEA30000019514132462B46EC
:1005300003B0BDE8F04F00F057BA00980122400028
:100540000023D0EB020263EBE073009821464FEAF0
:10055000E074B8EB000061EB0401E9E783F00043CD
:100560005BE781F0004158E72DE9FE4F81EA030483
:1005700004F0004421F0004100944FF0000B23F000
:10058000004350EA01045ED052EA03045BD0C3F397
:100590000A54C1F30A552C44A4F2F3340194A0FB8D
:1005A0000254C1F3130141F48011C3F3130343F464
:1005B000801301FB024400FB034E840A970A44EABD
:1005C000815447EA8357A4FB076802958D0A05FB0F
:1005D00007854FEA932C04FB0C542705029D4FEA34
:1005E000065847EA1637B5EB08056EEB070C870E81
:1005F000920E47EA811742EA8312A7FB0201B6EB8B
:100600000B0164EB00042B0D43EA0C335E1844EB42
:100610001C50DA465146E7FB0201C5F313044FEACA
:100620000B3343EA14534FEA0432019C43EA0603B6
:10063000A4F10C040294009CCDE900B400F0E3F9AD
:1006400003B0BDE8F08F00200146F9E72DE9F04D39
:1006500081EA030404F0004B21F0004514464FF0FA
:10066000000A23F0004150EA050220D054EA0102BA
:100670001DD0C5F30A570246C5F31303C1F3130097
:10068000C1F30A5640F4801543F48013A7EB060823
:10069000101BD64608F2FD3873EB050002D308F1B3
:1006A000010801E092185B41B8F1000F03DA002065
:1006B0000146BDE8F08D00204FF4801106468446C7
:1006C0000EE0171B73EB050705D3121B63EB050345
:1006D00006434CEA010C49084FEA300092185B418E
:1006E00050EA0107EDD152EA030012D082EA040079
:1006F00083EA0501084305D0101BAB4106D2012255
:10070000002306E000224FF0004302E06FF00102F8
:1007100053101AEB06004CEB085110EB0A0041EBAA
:100720000B01BDE8F04D00F05FB90EB5C10F80EAD6
:10073000E0700844CA07002140F233438DE80E0000
:100740000A460B4600F05FF903B000BD0EB540F25B
:10075000334102910021CDE900110A460B4600F019
:1007600052F903B000BD00F0004230F000400AD062
:10077000C10D01F56071C0F3160042EA0151C208D3
:1007800040071143704700200146704730B5041EF2
:1007900071F1000404DB4FF00044404264EB0101BE
:1007A000141E73F1000405DB1C464FF00043524257
:1007B00063EB0403994208BF904230BD01F000434F
:1007C00030B421F0004150EA010206D00A0DA2F532
:1007D0006072C1F31301002A02DC30BC00207047B4
:1007E000440F44EAC104C100E01830BC00EBC25021
:1007F00000F0C3B8202A04DB203A00FA02F10020FE
:1008000070479140C2F1200320FA03F3194390404E
:100810007047202A04DB203A21FA02F000217047B9
:1008200021FA02F3D040C2F1200291400843194658
:100830007047202A06DBCB17203A41FA02F043EA40
:10084000E07306E041FA02F3D040C2F12002914089
:10085000084319467047000000487047846100084B
:1008600010B50446FFF7F8FF0068005D00F00100D6
:1008700010BD0000026811441378016018467047EB
:10088000D16004495161044911620021116111468E
:1008900000F090B97508000861080008426842B18C
:1008A000016811F8013B23B1521EC0E9001218463D
:1008B00070470121C160881E704742685AB1C36801
:1008C000016843B983688B4205D0491E521CC0E9B8
:1008D0000012002070474FF0FF3070472DE9F05FA5
:1008E00082460078002715468B460AF10104B94676
:1008F000302801D09DB113E014F8010B01277828AE
:1009000003D0582801D045B10AE00DB1102D07D110
:100910000027102514F8010B02E0082500E00A2545
:100920000026B0460EE005FB080005FB06F1012796
:1009300001EB10461FFA80F8B6F5803F00D3B946A8
:1009400014F8010B294600F027F90028EBDABBF177
:10095000000F05D00FB1641E00E05446CBF80040F4
:10096000B9F1000F06D004F0F3FA02210160C81EAD
:10097000BDE8F09F48EA0640FAE70029A8BF7047A3
:10098000401C490008BF20F00100704710B4B0FAC5
:1009900080FC00FA0CF050EA010404BF10BC704760
:1009A00049B1CCF1200421FA04F411FA0CF118BF7A
:1009B000012121430843A3EB0C01CB1D4FEA006149
:1009C0004FEA102042BF002010BC704700EBC3501C
:1009D00010440029A4BF10BC7047401C490008BF48
:1009E00020F0010010BC704710B5141E73F1000414
:1009F00008DA401C41F1000192185B411A4301D111
:100A000020F0010010BD2DE9F04D92469B4611B13A
:100A1000B1FA81F202E0B0FA80F220329046FFF79C
:100A2000E9FE04460F4640EA0A0041EA0B0153463C
:100A30005A46084313D0114653EA010019D0C8F1B1
:100A400040025046FFF7E5FE05460E465046594621
:100A50004246FFF7CFFE084305D0012004E02046C0
:100A60003946BDE8F08D0020054346EAE0762C4388
:100A700037430A986305E40AA0EB08000022FD0A48
:100A800044EA47540A3002D500200146E9E701054F
:100A900010196941DDE9084500196941BDE8F04DCB
:100AA000A2E770B521F0004303430CD0C1F30A550F
:100AB0000024D5EB040564EB0403D617AD1AB3414B
:100AC00002DB0020014670BD201841EB025170BDD1
:100AD0002DE9F04D00231A461B1A8A4103DB002042
:100AE0000146BDE8F08DC1F30A52C1F3130141F490
:100AF00080154FF0000BD10702D100186D41521E36
:100B00000027044640F2FF11384601EB620A3E46D8
:100B10008046024600204FF48011FFF77AFEC2198A
:100B20007141BB1846EB0100B4EB030C75EB000CF4
:100B300004D3E41A65EB000517460E46241908F1A4
:100B400001006D4180463428E3DDF91946EB0600CB
:100B5000091BA84103D24FF0FF32134601E00022E7
:100B600013461BEB070046EB0A51BDE8F04DFFF7BB
:100B70003BBF0000064C074D06E0E06840F0010373
:100B800094E8070098471034AC42F6D3FFF712FB05
:100B900088610008A86100083A2800D2303820F0A7
:100BA0002002412A01D3A2F13700884201D34FF03D
:100BB000FF3070472DE9F34F8BB04FF0000801F183
:100BC0000C000C464FF0010B46460DF1080A01904F
:100BD0006269012101989047051E2DD0252D2CD04A
:100BE000216A8847C0B16269012101989047216A52
:100BF00088470028F7D1411E62690198904700E0BC
:100C0000761CA1690B988847216A88470028F7D18C
:100C1000E1690B988847DBE7A1690B98884707468D
:100C2000A84201D1761CD3E7E1690B9888477F1C65
:100C300002D1B8F1000F6FD046E1002762693D464E
:100C40003946019890472A2804D162690121019808
:100C500090470125DFF8849262690121019890474D
:100C6000A0F130010A290AD24F45E5DC07EB8701E4
:100C700000EB4107303FDFD445F01005ECE7E90613
:100C800001D46FF000476C280AD04C2814D0682893
:100C900015D06A280DD074281CD07A281AD01DE0EF
:100CA00062690121019890476C2802D045F0040543
:100CB00014E045F002050DE045F020050AE0626908
:100CC000012101989047682802D045F0080505E009
:100CD00045F400656269012101989047C4E9015714
:100CE00065283DD019DC58287AD00CDC452837D04F
:100CF00004DC252826D0412831D131E046282FD0E8
:100D000047282CD12CE05B2877D0612828D0632895
:100D10007CD0642823D15AE0D0E06F2848D008DC8A
:100D200066281DD067281BD0692821D06E2816D1CF
:100D300027E0702845D0732868D0752847D07828D8
:100D40000DD14DE0A1690B988847054625283FF451
:100D500069AFE1690B9888476D1C3FF46AAFB3E057
:100D600023466A466FF001000B99AFF300809EE0C6
:100D700045F040006060A80723464FF0000236D4DB
:100D80003EE0E8077FF447AF2068011D216000685E
:100D9000290501D506701BE7290701D5068017E74D
:100DA000A90703D5F117C0E9006111E706600FE755
:100DB00045F040006060A80723464FF0080216D4B3
:100DC0001EE040F60E0125EA0100606016E045F0E5
:100DD00040006060A80723464FF00A0207D40FE0E6
:100DE00045F040006060A80708D5234610226FF048
:100DF00001000B99AFF3008059E007E02346102271
:100E00006FF001000B99AFF3008050E04FF0000944
:100E10004F464B46632802D05B2806D040E0E806E8
:100E200001D40120A06001273AE062690121019804
:100E300090475E2805D14FF0010962694946019843
:100E40009047216939B900210A46534643F82120C9
:100E5000491C0829FADBB0B3216969B9C11700EB55
:100E6000D16253110AEB830122F01F02821A012082
:100E70000B68904003430B60626901210198904721
:100E80005D28E8D1B9F1000F09D00020514651F892
:100E90002020D24341F82020401C0828F7DB02AB79
:100EA000224600976FF001000B99FFF70DFA00281A
:100EB0000CDA401C08D1BBF1000F05D04FF0FF3019
:100EC0000DB0BDE8F08FFFE74046F9E7E90701D133
:100ED00008F1010806444FF0000B79E6CCCCCC0CAD
:100EE00070B58C1810F8015B15F0070301D110F8EC
:100EF000013B2A1106D110F8012B03E010F8016B19
:100F000001F8016B5B1EF9D12B0705D40023521E9B
:100F10000DD401F8013BFAE710F8013BCB1A921C03
:100F200003E013F8015B01F8015B521EF9D5A14201
:100F3000D8D3002070BD0000014800F05FBA000067
:100F400048010020464910B54A6822F440324A6000
:100F50004A6843681A434A6001684A6822F480720A
:100F60004A6001684A68036942EA03224A600168EC
:100F70004A6822F040724A6001684A6883681A43EE
:100F80004A6001688A6822F400628A6001688A689F
:100F9000C3681A438A60816A6FF07062D142016847
:100FA0008A6822F070628A6001688A680CD0836A5D
:100FB0001A438A6001688A6822F040528A60016898
:100FC0008A68C36A1A4301E022F040528A600168CD
:100FD0008A6822F002028A6001688A68037E42EA17
:100FE00043028A6090F82010002901684A680FD0F7
:100FF00042F400624A6001684A6822F460424A6032
:1010000001684A68174C436A04EB43331A4301E012
:1010100022F400624A600168CA6A22F47002CA625D
:101020000168CA6A838B104C04EB03531A43CA62EB
:1010300001688A6822F400728A6001688A6890F800
:10104000303042EA43228A6001688A6822F4806272
:101050008A6001688A68406942EA8020886010BD21
:101060000023014000E0FFFF0000F0FFFEE700006A
:10107000014800F0B4BC00009001002000B58BB026
:1010800000200121CDE90601089100900190029015
:101090000390059004906946054800F09FFB0448C2
:1010A00000F0AEFE0221024800F028FB0BB000BDAC
:1010B000900100200C220249024801F023BE0000EA
:1010C000460A002090020020134890ED090AD0ED56
:1010D0000B0A30EE200AD0ED0D0A30EE200AD0EDDA
:1010E0000F0A70EE200AB5EE000A60EE800AC0ED2D
:1010F000110AD0ED0A0A90ED0C1A70EE810A90EDFB
:101100000E1A70EE810A90ED101A70EE810A20EE30
:10111000800A80ED120A70475800002070470000D6
:10112000014908607047000030010020042000F0F1
:101130000FBF72B6FEE70000FCEEC00A10EE902A68
:1011400092B200EE902A0280F8EE600A30EE600A59
:10115000DFED040A20EE200ABCEEC00A10EE100AF1
:10116000087070470000C842D0ED000AB7EE002AB0
:10117000C0ED050A0A8852BA00EE102AB8EE400AFD
:1011800080ED000A4A8870EE600A52BA12B201EE8F
:10119000102AF8EEC11AC0ED011A8A8852BA01EE7F
:1011A000102AB8EE411A80ED021A897901EE101A60
:1011B00010EE901AB8EE411AB1F18B4F80ED031A80
:1011C00090ED061A02DD71EE420A09E010EE901A67
:1011D00011F16A5F02D8D0ED060A03E071EE020A4F
:1011E000C0ED060A9FED0F1A00EE810AD0ED040A49
:1011F0009FED0D1A30EE600A80ED070AC0EE010A7D
:101200009FED0A0A20EE801ADFED090A21EE800A1E
:1012100081EE202A80EE201A80ED082A80ED091A3E
:101220007047000000000046610BB64100003B43E0
:101230000070604500F00300024900EB800001EB04
:10124000C00070471407002090ED000A80ED040AEA
:101250009FED020A80ED060A7047000000000000C2
:101260007047000078B50024009490F83C20012AD3
:1012700019D0012280F83C200A6807230568092A52
:1012800013D9EE680A3A02EB420293409E43EE60A5
:101290000B788A680A3B03EB43039A400368DD68D6
:1012A0002A43DA6010E0022078BD2E6902EB420288
:1012B00093409E432E610B788A6803EB43039A4068
:1012C00003681D692A431A614A681F23072A13D23B
:1012D00005686E6B521E02EB820293409E436E6362
:1012E0000A8893B20A79521E02EB82029340026886
:1012F000556B2B43536327E005680D2A12D22E6BE2
:10130000D21F02EB820293409E432E630B790A8820
:10131000DB1F92B203EB83039A4003681D6B2A43E1
:101320001A6311E0EE6A0D3A02EB820293409E438B
:10133000EE620B790A880D3B92B203EB83039A406D
:101340000368DD6A2A43DA621B4B0568194A9D422D
:101350000AD10D68122D07D1556825F40005556096
:10136000556845F48005556005689D421DD1134DB3
:101370000B68AB4201D0112B17D1536823F48003C3
:101380005360536843F4000353600968A9420CD1C9
:101390000B490C4A0968B1FBF2F101EB81014900EC
:1013A00000E0491E00910029FBD180F83C4000205C
:1013B00078BD000000230140002001401200001011
:1013C0004001002040420F0010B5006806498842E5
:1013D00004D1064800F00FF805490860BDE8104048
:1013E000024800F005B9000000200140480100203B
:1013F0000800002070470068C06C704770B5044654
:1014000000680668456816F0020F05F020012AD032
:1014100049B3216CC90603D4216C41F400712164E5
:10142000816811F0405F17D1217EA9B9C16A11F41A
:10143000700F02D0816849050ED4416821F0200167
:101440004160206C20F480702064206CC00403D4C0
:10145000206C40F0010020642046FFF7B5FF2168B2
:101460006FF01200086016F0040F05F0800132D012
:1014700089B3206CC00603D4206C40F40050206473
:101480002068816811F4401F1ED1816B11F4401F48
:1014900002D08168490517D44168490514D4816890
:1014A00011F0405F10D1217E71B9416821F08001B7
:1014B0004160206C20F480502064206CC00503D46F
:1014C000206C40F0010020642046FFF7C9FE21682F
:1014D0006FF00C00086016F0010F05F040010FD00E
:1014E00071B120680068C0070AD0206C40F48030D9
:1014F0002064204600F043F821686FF00100086086
:1015000016F0200F05F080610ED000290CD0606C21
:1015100040F00200606420686FF0200505602046FE
:10152000FFF768FF2068056070BD70B504004FF0DC
:10153000000503D0206C002610B107E0012070BD2B
:10154000204600F01DF8666484F83C60206CC006FC
:1015500010D4206C20F4885040F002002064204613
:10156000FFF7F0FC6664206C20F0020040F0010000
:10157000206400E0012584F83C60284670BD704777
:1015800010B586B0044614216846FEF775FE15496D
:101590002068884224D114480021026842F48072F5
:1015A0000260006800F4807005900F4814380268EB
:1015B00042F001020260006800F001000590402046
:1015C00000900320CDE901016946084800F0CCFCF9
:1015D00000221146122000F055FE122000F044FEB9
:1015E00006B010BD00200140443802400000024017
:1015F00018B50021009190F83C20012A07D0012263
:1016000080F83C2002689368DB0702D011E00220DA
:1016100018BD936843F001039360314A314B12685F
:10162000B2FBF3F202EB420200E0521E0092002AEB
:10163000FBD102689368DB0747D0036C40F201647A
:10164000A34343F48073036453685B0505D5036CBF
:1016500023F4005343F480530364036CDB0404D588
:10166000436C23F00603436400E0416480F83C10BF
:101670001D4B6FF02201116001684A681B4C224328
:101680004A6059680068CA06194906D0884224D1C0
:10169000816811F0405F13D01FE08842F8D0154AEE
:1016A000904203D1D1F80423D206F1D0124A9042DD
:1016B00013D1D1F8041301F01F011029E8D30CE075
:1016C000816841F08041816007E0016C41F01001C8
:1016D0000164416C41F001014164002018BD00002B
:1016E0004001002040420F00002301402000000480
:1016F00000200140002101400022014090F82020FC
:10170000012A07D0022A05D0416A41F480214162B2
:1017100001207047006842690A4342610020704717
:10172000F0B590F820500468A468012D05D0022D72
:1017300003D0416A41F480214DE014F0406F01D1A3
:10174000E50045D5C4F301640125A5401D608D6801
:101750004FF4C0739DB1CE6835434E6845EAC60567
:10176000066803EB0417F5514FF4C275076805EBE3
:1017700004150E697E51097D012905D009E00E8806
:10178000CD6845EA4655EBE701684E5946F4807648
:101790004E511179D2F805504FF4C67641EA052131
:1017A000056806EB0416A9511178D2F801204FF410
:1017B000C47541EA0221026805EB04155151006825
:1017C00003EB0411425842F0010242500020F0BDE8
:1017D000416A41F4001141620120F0BD10B590F85A
:1017E0002020012A07D0022A05D0416A41F4802135
:1017F0004162012010BD3B48D0F8002242F00102B6
:10180000C0F80022D0F8002222F47C52C0F8002256
:10181000D0F800224B6A42EA0322C0F800220A7D77
:1018200002F01F0301229A40D0F81C329343C0F803
:101830001C32CB69B3B9D0F80C329343C0F80C32E8
:101840008C894B6864F31F434C6900EBC404C4F8F3
:1018500040320C890B6864F31F434C6900EBC404ED
:10186000C4F84432CB69012B16D1D0F80C321343A3
:10187000C0F80C320C884B6864F31F434C6900EBD2
:10188000C404C4F840320C89CB6864F31F434C692C
:1018900000EBC404C4F844328B69002BD0F8043246
:1018A0000ED01343C0F804320B69002BD0F8143269
:1018B00008D01343C0F81432096A012904D008E0A3
:1018C0009343EFE79343F5E7D0F81C121143C0F8B8
:1018D0001C12D0F8001221F00101C0F80012002003
:1018E00010BD000000640040704770B590F82040C3
:1018F000012C05D0022C03D0416A41F4802128E05C
:10190000046809B32469A40720D04FF4D87405688B
:1019100004EB01142D5915F00405956005682D5947
:101920001AD0ED08556005682C5904F00204D46003
:101930004FF4DA74056804EB01142E5906F00F0613
:10194000082E0CD308250DE0E468DCE7416A41F479
:1019500000114162012070BD6D0D1560E3E72D5946
:1019600005F00F05156105682D59C5F3072595612B
:1019700005682C59240C54614FF4DC72046802EBA6
:101980000112A4581C700468A458240A5C700468EE
:10199000A458240C9C700468A258120EDA704FF4FC
:1019A000DE72046802EB0112A4581C710468A4588A
:1019B000240A5C710468A458240C9C710468A25821
:1019C000120EDA71006829B1016941F0200101614C
:1019D000002070BDC16841F02001C160F8E72DE929
:1019E000F05F0546006800244669D0F804908768D7
:1019F000D0F80CB0D0F810A0D0F81880F10748D07B
:101A0000F90714D001218160B80703D5284600F0FA
:101A100024FA0CE0780702D54FF4006407E0380799
:101A200002D54FF4805402E0284600F015FAF8057C
:101A300016D529684FF480708860B80503D528460C
:101A400000F00DFA0CE0780502D544F4005407E0EC
:101A5000380502D544F4804402E0284600F0FEF93F
:101A6000F80316D529684FF480308860B80303D591
:101A7000284600F0F6F90CE0780302D544F400445F
:101A800007E0380302D544F4803402E0284600F031
:101A9000E7F9300707D55FEACB6004D52968102045
:101AA00044F40074C86070074FF0080707D55FEA78
:101AB0000B7004D52868C760284600F057F9B007B6
:101AC00006D52868C068800702D0284600F050F983
:101AD000700607D55FEACA6004D52968102044F46F
:101AE00080640861B00607D55FEA0A7004D52868EB
:101AF0000761284600F080F9F00606D528680069DD
:101B0000800702D0284600F078F9B00308D55FEAD4
:101B1000C96005D5296810204860284600F06EF994
:101B2000F00307D55FEA097004D5286847602846A6
:101B300000F098F9300446D55FEA497040D5F005C9
:101B400004D55FEAC87001D044F00104B00504D5A3
:101B50005FEA887001D544F00204700504D55FEA9D
:101B6000487001D544F00404300529D518F0700FF1
:101B700026D008F07000402815D006DC102809D0C7
:101B800020280AD0302816D10AE050280ED060282C
:101B900011D10EE044F008040DE044F010040AE016
:101BA00044F0200407E044F0400404E044F08004E2
:101BB00001E044F480742868816921F0700181613A
:101BC000296804204860002C05D0686A20436862B8
:101BD0002846FFF789FEBDE8F09F70B5040003D0EA
:101BE00094F8200010B104E0012070BD204600F000
:101BF00081F82068016841F00101016000F0D4FA29
:101C00000546052604E000F0CFFA401B0A2811D84B
:101C100020684068C007F6D02068016821F0020102
:101C2000016000F0C1FA05460BE000F0BDFA401B70
:101C30000A2806D9606A40F40030606284F82060A7
:101C4000D2E7206840688007EFD4207E0128206812
:101C500001683DD021F080010160607E012820688C
:101C6000016838D021F040010160A07E0128206881
:101C7000016833D021F020010160E07E0128206856
:101C800001682ED041F010010160207F01282068FA
:101C9000016829D021F008010160607F01282068D7
:101CA000016824D021F004010160D4E90201084355
:101CB000D4E90412114308436168491E08432168AE
:101CC000C86100206062012084F82000002070BDFF
:101CD00041F08001C0E741F04001C5E741F020013B
:101CE000CAE721F01001CFE741F00801D4E741F045
:101CF0000401D9E710B586B0044614216846FEF702
:101D0000BBFA17492068884227D11648002102688B
:101D100042F000720260006800F000700590114807
:101D20001038026842F0080202600068022200F0E7
:101D3000080005900320CDE90210CDE9000209203A
:101D400004906946084800F00FF90022052114208C
:101D500000F098FA142000F087FA06B010BD0000D9
:101D60000064004040380240000C02407047000010
:101D700010B592B00FAB08AA00211C48FFF7B5FDC3
:101D80000898A0F50070013805D0012803D002287A
:101D900001D0032828D10898154B401EC0B21870F6
:101DA000144C00EB800004EBC0000FA9FFF7DCF936
:101DB0001878694601EB800292ED000AB5EEC00A80
:101DC000F1EE10FA10D100EB800004EBC000FFF739
:101DD0003BFA1878F7EE000A01EB800090ED000A5C
:101DE00030EE200A80ED000A12B010BD90010020F4
:101DF000150000201407002070477047704700004E
:101E000070B5044690F82000012804D0606A40F4C0
:101E10000020606218E0022084F820002068016839
:101E200021F00101016000F0BFF905460EE000BF9E
:101E300000F0BAF9401B0A2808D9606A40F4003063
:101E40006062052084F82000012070BD2068406891
:101E5000C007EDD1606270BD704770477047704732
:101E60007047704770472DE9F0410446876D00F0D8
:101E70009BF9064694F835000025022806D08020FC
:101E8000606584F834500120BDE8F0812068016865
:101E900021F0160101602068416921F08001416153
:101EA000206C08B9A06C20B12068016821F00801FD
:101EB00001602068016821F0010101600CE000F080
:101EC00073F9801B052807D920206065032084F85A
:101ED000350084F83450D7E720680068C007EED199
:101EE00094F85C103F208840B860012084F83500E9
:101EF00084F834500020C7E790F83510022903D049
:101F00008021416501207047052180F83510006867
:101F1000016821F0010101600020704770B504469E
:101F200000F042F90546601C02D0044800780444E1
:101F300000F03AF9401BA042FAD370BD34010020F2
:101F4000042802D1014901200870704700000020D8
:101F5000044910B50A68024202D00860FFF7F0FF9A
:101F600010BD0000143C01402DE9F84FDFF8F8A146
:101F70000022012403254FF00F090AF1040BAAF1F6
:101F8000040E00BF0B6804FA02F63340B34270D16E
:101F90000F7907F00307012F01D0022F16D18768B0
:101FA0004FEA420805FA08FC27EA0C07D1F80CC0F2
:101FB0000CFA08FC4CEA070CC0F808C04768B743A5
:101FC0000E79C6F3001696403E4346600E79F643FE
:101FD000B6070AD0C7684FEA420C05FA0CF6B743B9
:101FE0008E6806FA0CF63E43C6600E7906F00306CC
:101FF000022E10D1D60800EB8608D8F820605707CB
:102000004FEAD76C09FA0CF7BE430F6907FA0CF7D1
:102010003743C8F8207006684FEA420C05FA0CF7FF
:10202000BE430F7907F0030707FA0CF73743076041
:102030004E6816F4403F1CD04C4E376847F480473A
:102040003760366822F0030706F480460096484E53
:1020500007EB060CDCF8086897073F0F09FA07F84A
:1020600026EA0806DFF80C81404503D14FF000084E
:1020700041E072E0DFF80081404502D14FF00108F5
:1020800039E0DFF8F880404502D14FF0020832E035
:10209000DFF8EC80404502D14FF003082BE0DFF879
:1020A000E480404502D14FF0040824E0DFF8D880F6
:1020B000404502D14FF005081DE0DFF8D0804045D3
:1020C00002D14FF0060816E0DFF8C480404502D187
:1020D0004FF007080FE0DFF8BC80404502D14FF019
:1020E000080808E0DFF8B080404502D14FF0090849
:1020F00001E04FF00A0808FA07F848EA0608CCF8A9
:102100000888DAF800605746D1F804C09E435FEAB9
:10211000CC2C00D51E433E60DBF800605F46D1F852
:1021200004C09E435FEA8C2C00D51E433E60DEF85F
:1021300000607746D1F804C09E435FEA8C3C00D52E
:102140001E433E60084F083F3E68D1F804C09E43DE
:102150005FEACC3C00D51E433E60521C102AFFF4BF
:1021600011AFBDE8F88F0000083C01404438024040
:10217000003001400000024000040240000802401C
:10218000000C0240001002400014024000180240FF
:10219000001C024000200240002402400AB181617C
:1021A00070470904FBE700000148806870470000A1
:1021B0003401002002488168027811448160704730
:1021C000340100200B4810B5016841F40071016032
:1021D000016841F480610160016841F4807101602F
:1021E000032000F06FF8002000F006F800F024F85B
:1021F000002010BD003C024070B50D4D04464FF468
:102200007A712878B1FBF0F00A490968B1FBF0F067
:1022100000F044FB48B9102C07D200222146501E82
:1022200000F030F800206C6070BD012070BD00002F
:1022300034010020400100200A4808B5016841F43B
:1022400080410160006800F4804000900548001F54
:10225000016841F080510160006800F080500090FA
:1022600008BD000044380240002809DB00F01F02CE
:10227000012191404009800000F1E020C0F80011E8
:1022800070470000F0B40E4B1B680C46C3F30223EA
:10229000C3F10705042D00D90425191D072901D212
:1022A000002300E0DB1E012606FA05F1491E21404D
:1022B00099409E40761E16403143F0BC02F037BE76
:1022C0000CED00E0064900F0070208684FF6FF0336
:1022D000184040EA0220034A10430860704700009B
:1022E0000CED00E00000FA052DE9F84317480168FD
:1022F00041F0805101600068154F00F080500126C8
:1023000000903E64FFF750FF05464FF47A78114C79
:1023100005E000BFFFF748FF401B40450DD860684F
:10232000C003F7D57E64FFF73FFF0546464607E04A
:10233000FFF73AFF401BB04202D90320BDE8F88303
:1023400060688003F4D50020F8E7000040380240C0
:1023500000000E42007000402DE9F0470E460500D7
:1023600065D0DFF81481D8F80000F7B200F00F0054
:10237000B04207D288F80070D8F8000000F00F00D3
:10238000B04254D128683D4C810712D5400703D58F
:10239000206840F4E05020602878000703D52068CA
:1023A00040F4604020602068A96820F0F0000843F5
:1023B00020602878C0072DD0304968680839012886
:1023C00012D0022813D0032811D0096889070029E8
:1023D0002DDA216821F0030101432160FFF7E4FEBB
:1023E000814641F2883A0EE009688903EFE70968FF
:1023F0008901ECE7FFF7D8FEA0EB0901514502D9AE
:102400000320BDE8F0872068696800F00C00B0EB9D
:10241000810FEFD1D8F80010404601F00F01B14212
:1024200007D90770006800F00F00B04201D001200A
:10243000E7E72878400705D52068E96820F4E050F0
:10244000084320602878000706D52068296920F411
:10245000604040EAC100206000F038F82168084A76
:10246000C1F30311515CC840064908600648006882
:10247000FFF7C2FE0020C4E7003C024008380240DB
:10248000526000084001002038010020044805493E
:1024900000680968044AC1F38221515CC840704752
:1024A00040010020083802406260000804480549E5
:1024B00000680968044AC1F34231515CC840704762
:1024C000400100200838024062600008154810B53D
:1024D000006810F00C02144813D01449042A0FD0DD
:1024E000082A0ED10F4C241F2268236802F03F02F5
:1024F0005B0207D52068C0F38810A0FB010106E04D
:10250000084610BD2168C1F38811A1FB000100231A
:10251000FDF768FE2168C1F30141491C4900B0FB89
:10252000F1F010BD083802400024F400001BB70091
:102530002DE9F84F04006ED02078DFF84C93C007E7
:10254000A9F104054AD009F104000168C1F3810131
:10255000012908D00068C0F3810002280AD1D9F807
:102560000000400206D52868800337D5606800283F
:10257000E1D033E06068B0F5803F10D0B0F5A02F17
:10258000286810D020F480302860286820F480204B
:1025900028606068A8B1FFF707FE06460DE02868CE
:1025A00040F48030F4E740F480202860F7E700BF73
:1025B000FFF7FAFD801B642873D828688003F7D5DD
:1025C0000CE0FFF7F1FD064605E000BFFFF7ECFD6C
:1025D000801B6428F0D828688003F7D42078DFF8BF
:1025E000AC8280074FF0000A3ED5A748001D016865
:1025F00011F00C0F08D00068C0F3810002280BD145
:10260000D9F80000400207D42868800716D5E06892
:10261000012800D112E033E1E068B8B10120C8F828
:102620000000FFF7C1FD064605E000BFFFF7BCFD57
:10263000801B0228C0D828688007F7D52868216940
:1026400020F0F80040EAC10028600DE0C8F800A0C2
:10265000FFF7AAFD064604E0FFF7A6FD801B02284F
:102660001FD828688007F7D42078000722D5864F26
:1026700087486169703771B101210160FFF794FDEE
:10268000064604E0FFF790FD801B022809D8386851
:102690008007F7D50EE0C0F800A0FFF785FD0646DD
:1026A00005E082E0FFF780FD801B02287DD83868B6
:1026B0008007F7D42078400768D5DFF8CCB1002731
:1026C0000BF13C0BDBF80000C0000BD4DBF8001072
:1026D00041F08051CBF80010DBF80000012700F03A
:1026E000805000906B4E3068C00510D4306840F4C4
:1026F00080703060FFF758FD009005E0FFF754FD53
:102700000099401A022850D83068C005F6D55E4EB0
:10271000A0686C3601280FD00528306810D020F052
:1027200001003060306820F004003060A068B8B16B
:10273000FFF73AFD00900FE0306840F00100F4E749
:1027400040F004003060F7E7FFF72EFD0099411AD2
:1027500041F28830814266D830688007F4D50EE0B7
:10276000FFF722FD009007E0FFF71EFD0099411AD8
:1027700041F28830814256D830688007F4D42FB1B6
:10278000DBF8001021F08051CBF80010A069C8B32D
:102790003D49091D0968C1F3810102294AD0022877
:1027A000504607D0C8F8600000E03CE0FFF7FCFCB2
:1027B00004463BE04746C8F86000FFF7F5FC0646D4
:1027C00005E000BFFFF7F0FC801B02282BD828682B
:1027D0008001F7D4D4E907010843A16A2E4A4908C9
:1027E00002EB0141626A41EA8211084394F82C101D
:1027F00040EA0161C9F8001001203866FFF7D4FCF7
:10280000044606E03EE000BFFFF7CEFC001B0228B6
:1028100009D828688001F7D534E000BFFFF7C4FC71
:10282000001B022802D90320BDE8F88F2868800128
:10283000F4D427E00128F7D0D9F80000E26900F4C9
:10284000800191421CD1226A00F03F01914217D1D0
:1028500047F6C071626A0140B1EB821F10D1A26AD3
:102860004FF0FF3300F4403103EB5202B1EB024F63
:1028700006D194F82C1000F07060B0EB016F01D01D
:102880000120D1E70020CFE7043802400000474292
:10289000800E4742007000400000FFFF10B5401E50
:1028A000B0F1807F01D3012010BD4FF0E0246061C2
:1028B0000F21601702F03BFB0020A0610720206180
:1028C000002010BD70477047F8B5016804460868DD
:1028D000CA684B6910F00F0F4FF0000559D003F094
:1028E000010602F49077374365D0C10705D0D105C2
:1028F00003D5616C41F001016164410705D5D90739
:1029000003D0616C41F002016164810705D5D907EC
:1029100003D0616C41F004016164010707D502F046
:102920002001314303D0616C41F008016164616CA6
:1029300000293AD0800604D5900602D5204601F041
:1029400088FA20684069616CC0F38010090700D4E0
:1029500060B3204601F056FA20684069400621D550
:102960002068143050E8001F21F0400140E80012B8
:10297000002AF5D1E06BA8B16E490165E06BFFF765
:10298000BBFA002811D0E06B016D01B0BDE8F0404A
:10299000084783060FD593060DD52046BDE8F840BD
:1029A00001F057BA2046FFF78EFFF8BD2046FFF72B
:1029B0008AFF6564F8BD266B2023012E7DD1C606F3
:1029C0007BD5D60679D508684868009048694FF0ED
:1029D0000206400641D5E16B086840680004000C1F
:1029E000E8D0A28D8242E5D9E085C869B0F5807F44
:1029F0002DD020680C3050E8001F21F4807140E891
:102A00000012002AF5D12068143050E8001F21F090
:102A1000010140E80012002AF5D12068143050E886
:102A2000001F21F0400140E80012002AF5D184F88F
:102A30004230256320680C3050E8001F21F010015F
:102A400040E80012002AF5D1E06BFFF70CFA66634C
:102A5000A08DE18D401A81B22AE0A08DE18D401A4F
:102A600081B2E08D0028A5D00029A3D022680C32C5
:102A700052E8000F20F4907042E80007002FF5D1D3
:102A80002068143050E8002F22F0010240E80027AF
:102A9000002FF5D184F84230256320680C3050E8CF
:102AA000002F22F0100240E80023002BF5D16663CE
:102AB0002046FFF707FFF8BDFFE705062BD51506F3
:102AC00029D594F841002128F5D1A068B0F5805FA0
:102AD00001D12069B0B1206A411C216221680078CF
:102AE0004860E08C401E0004000CE084E3D12068C4
:102AF000C16821F08001C1602068C16841F04001D7
:102B0000C160D8E7206A0088C0F308004860206AE6
:102B1000801C2062E5E74006CDD55006CBD5CA68BB
:102B2000204622F04002CA6084F8413000F096F955
:102B3000C1E70000F53D000870B5040004D094F82A
:102B40004100002510B106E0012070BD84F840501E
:102B5000204600F023F8242084F841002068C16852
:102B600021F40051C160204601F0D4F920680169C8
:102B700021F4904101612068416921F02A014161FD
:102B80002068C16841F40051C1606564202084F868
:102B9000410084F842006563002070BDF0B587B045
:102BA000044614216846FDF767FB4F49DFF834E11E
:102BB00025684D4B103902240126032208274B4873
:102BC0004FF0000C75451ED11D6845F080451D6015
:102BD0001B6803F0804305930B6843F010030B6000
:102BE000096801F010010591D1018DE85200CDE98D
:102BF00003276946FFF7B8F9002211465220FFF774
:102C000041FB522020E0DFF8E8E0754520D11D6847
:102C100045F000451D601B6803F0004305930B68F9
:102C200043F010030B6009688DE8540001F01001B7
:102C3000CDE9047103926946FFF796F90022114627
:102C40005320FFF71FFB5320FFF70EFB07B0F0BD2B
:102C50002548284B001D9D4220D1036843F01003F6
:102C60000360006800F010000590086840F0020062
:102C700008600868694600F002000590C0208DE8F1
:102C800011100720CDE903201B48FFF76DF9002242
:102C900011462520FFF7F6FA2520D5E7174B9D4270
:102CA000D4D1036843F020030360006800F02000E3
:102CB0000590086840F0400008600868694600F028
:102CC000400005904FF484408DE85100CDE9032782
:102CD0000B48FFF749F9002211464720FFF7D2FAC7
:102CE0004720B1E700780040403802400010024021
:102CF000007C00400010014000040240001401402C
:102D00000018024090F84230202B01D0022070477A
:102D100021B11AB10023036301F082B90120704789
:102D200010B5044600681949884207D1184801F0D7
:102D3000D7F90C2216491748FFF7E4FF1649206817
:102D4000884207D1154800F0FFFD012213491448BD
:102D5000FFF7D8FF13492068884207D1124800F0D6
:102D6000C7F8012210491148FFF7CCFF104920682D
:102D700088420AD10F48007801F0C8FEBDE8104033
:102D800001220C490C48FFF7BDBF10BD00140140E3
:102D9000460A002090020020001001400D00002093
:102DA00048020020007C00402D000020000200208E
:102DB000007800405B000020B80100202DE9F843B6
:102DC000044690F84100984616460D46202802D049
:102DD0000220BDE8F88385B17EB100206064212027
:102DE00084F84100FFF7E0F9A6848146E684A068F4
:102DF0002027B0F5805F02D003E00120E9E72069D9
:102E000010B12E4600250EE000260CE08021204661
:102E100001F021F9A8B9C6B116F8010B2168486084
:102E2000E08C401EE084E08C4B464FF00002CDF871
:102E300000800028EAD14FF04001204601F00BF954
:102E400040B184F841700320C3E735F8020BC0F3AA
:102E50000800E3E784F841700020BAE77047FEE716
:102E600010B501221A491B48FFF74CFF1420FFF749
:102E700055F84FF6FF742346052217491548FFF70A
:102E80009DFF1420FFF74AF82346052213491148F5
:102E9000FFF794FF2346052211490E48FFF78EFFE6
:102EA000234605220F490B48FFF788FF23460522DA
:102EB0000D490848FFF782FF234605220B490548C4
:102EC000FFF77CFFBDE810400D20FFF727B800009A
:102ED0002D000020000200203500002049000020C5
:102EE0004E0000203F000020440000203A00002057
:102EF0002DE9F041704C00272DED048B02786F48CE
:102F000001786254491CCAB202702178552904D054
:102F10000770BDEC048BBDE8F08180460B2AF8D326
:102F2000654D4035297060789FED658BA5F12406CD
:102F3000512804D0522840D053283DD17BE0B4F929
:102F40000200FDF7F2FB53EC182BFDF70DFB9FED94
:102F50005E9B53EC192BFDF707FBFDF72FFC306050
:102F6000B4F90400FDF7E1FB53EC182BFDF7FCFA74
:102F700053EC192BFDF7F8FAFDF720FC7060B4F95B
:102F80000600FDF7D2FB53EC182BFDF7EDFA53ECDE
:102F9000192BFDF7E9FAFDF711FCB06051206870BC
:102FA000A078A870E078E87020792871607968715D
:102FB000A079A871E079E8717AE0B4F90200FDF730
:102FC000B4FB53EC182BFDF7CFFA9FED419B53EC6C
:102FD000192BFDF7C9FAFDF7F1FBF060B4F9040015
:102FE000FDF7A3FB53EC182BFDF7BEFA53EC192B9E
:102FF000FDF7BAFAFDF7E2FB3061B4F90600FDF720
:1030000094FB53EC182BFDF7AFFA53EC192BFDF79B
:10301000ABFAFDF7D3FB706152202872A07868727A
:10302000E078A8722079E87260792873A0796873D3
:10303000E079A8733CE0B4F90200FDF776FB53ECAD
:10304000182BFDF791FA9FED249B53EC192BFDF7FC
:103050008BFAFDF7B3FBB061B4F90400FDF765FB33
:1030600053EC182BFDF780FA53EC192BFDF77CFA83
:10307000FDF7A4FBF061B4F90600FDF756FB53EC35
:10308000182BFDF771FA53EC192BFDF76DFAFDF7CC
:1030900095FB30625320E873A0782874E078687458
:1030A0002079A8746079E874A0792875E07968754A
:1030B00088F800702DE70000040900202C00002093
:1030C000000000000000003F000000000000304051
:1030D0000000000000409F400000000000806640AB
:1030E000014900200870704700000020054B4FF494
:1030F0008041012803D001221846FFF74FB8002273
:10310000FAE700000014024010B5002000F006F8B5
:10311000BDE810400020FFF7E9BF0000054B4FF469
:103120000061012803D001221846FFF737B80022BA
:10313000FAE70000001002407FB500241548009413
:10314000019402941249039401604FF48031C0E964
:10315000011401250461057680F820400E49C0E97C
:103160000A14C561C46080F830404561FEF7DDF99E
:1031700008B1FDF7DEFF0620CDE90005694602949F
:103180000448FEF76FF8002801D0FDF7D2FF7FBD9D
:1031900000200140480100200100000F0F4810B539
:1031A0000D4901600521416000214FF4003281602A
:1031B000C0E9031252014261017641768176C176FF
:1031C00001774177FEF709FD002803D0BDE81040E4
:1031D000FDF7AFBF10BD000000640040900100206B
:1031E0002DE9F04F87B014216846FDF745F84F48A8
:1031F0000026016841F010010160016801F0100132
:103200000591016841F040010160016801F0400151
:103210000591016841F002010160016801F00201BD
:103220000591016841F001010160016801F00101AF
:103230000591016841F008010160016801F0080191
:103240000591016841F080010160016801F0800191
:103250000591016841F0200101600068DFF8D0901D
:1032600000F020004FF4C16405900022214648463A
:10327000FEF794FFDFF8BCA000223C215046FEF789
:103280008DFFDFF8B4B04FF400670022394658468E
:10329000FEF784FF002280212848FEF77FFF4FF4CD
:1032A0008048002241462648FEF778FF009401241A
:1032B0000225694648460194CDE90245FEF754FED1
:1032C0003C208DE8710069465046FEF74DFE042013
:1032D00000904FF48810CDE9010569464846FEF795
:1032E00043FECDE90074CDE9024669465846FEF733
:1032F0003BFE8020CDE9000469461048CDE9024537
:10330000FEF732FECDE90084CDE9024669460C485D
:10331000FEF72AFE002211460820FEF7B3FF082020
:10332000FEF7A2FF07B0BDE8F08F00003038024082
:1033300000040240001C0240001002400000024055
:10334000001402400C4810B50A4901604FF4E13105
:103350004160002181600C22C160C0E904128161DA
:10336000C161FFF7E9FB002803D0BDE81040FDF77D
:10337000E0BE10BD00780040B80100200C4810B538
:103380000A4901604FF4E1314160002181600C2263
:10339000C160C0E904128161C161FFF7CDFB002863
:1033A00003D0BDE81040FDF7C4BE10BD007C004056
:1033B000000200200E4810B50C4901600D49416023
:1033C0004FF4805181604900C160C91001610C2136
:1033D000416100218161C161FFF7AEFB002803D08C
:1033E000BDE81040FDF7A5BE10BD00000010014073
:1033F00048020020A08601000C4810B50A4901606F
:103400004FF4E1314160002181600C22C160C0E9CC
:1034100004128161C161FFF78FFB002803D0BDE872
:103420001040FDF786BE10BD001401409002002040
:10343000FEE700002DE9FC4700F0DEF80024194DFE
:10344000194F264641F288394FF4804A04EB840034
:1034500005EB0018404600F08FF8CDE90067D8F87A
:1034600044C04046B2EE040A4B4652460121E047B2
:10347000641C042CEADB0020FDF7DCFE0B4C206012
:103480000120FDF7D7FE60600220FDF7D3FEA060AB
:103490000320FDF7CFFEE060BDE8FC476420FEF7A7
:1034A0003DBD0000C407002020000020B40700201C
:1034B00080ED080A90ED091A80ED0A1AD0ED0B0A8A
:1034C000C0ED0C0AD0ED010A30EEC00A80ED090A09
:1034D000D0ED0F1AF0EEC00AF4EEE10AF1EE10FAA8
:1034E00047DDD0ED020A60EE801AC0ED051AD0ED7E
:1034F000060A90ED032A42EE000A30EE410AC0EDC2
:10350000060A90ED041A20EE011A80ED071A90EDDC
:103510000E0AB1EE402AF4EEC20AF1EE10FA01D220
:1035200080ED062AD0ED060AF4EEC00AF1EE10FA9C
:1035300002DCB0EE600A01E080ED060A31EE800A9E
:1035400030EE011A80ED0B1A90ED0D0AF1EE400AF3
:10355000B4EEE01AF1EE10FA02D3F0EE410A01E007
:10356000C0ED0B0AF4EEC00AF1EE10FA01DD80EDB9
:103570000B0A90ED0B0A70470349416403498164CB
:103580000349C1647047000095350008DD35000827
:10359000B134000810B5039C0170D4ED000AC0EDF1
:1035A000020AD4ED010AC0ED030AD4ED020AC0ED0F
:1035B000040A00EE902AF8EE600AC0ED0D0A00EE53
:1035C000903AF8EE600AC0ED0E0A80ED0F0A9FED0A
:1035D000020A80ED0B0A10BD0000000091ED000A08
:1035E00080ED020A91ED010A80ED030A91ED020AD5
:1035F00080ED040A7047000010B5FDF73FFD064A54
:10360000002100BF01EB810002EBC000FDF71CFEB2
:10361000491C0429F6DB10BD1407002030B587B023
:103620000024069402940394082404944FF4007533
:103630000A4C0095050A25706070080AA070E170B8
:10364000100A20716271180AA071E37106AB22465C
:1036500069460348FEF764F807B030BD1600002045
:103660009001002070B59FED2A2A2A4C2A4D20EEA9
:10367000020A84ED010A20EE820A84ED150A21EE89
:10368000020A84ED290A21EE820A84ED3D0A2868A7
:10369000E16C90ED010A204688476868D4F89C10D8
:1036A00090ED010A04F150008847A868D4F8EC10A6
:1036B00090ED010A04F1A0008847E868D4F83C11B5
:1036C00090ED010A04F1F000884794ED470ABDEE41
:1036D000C00A10EE100A94ED330A03B2BDEEC00A20
:1036E00010EE100A94ED1F0A02B2BDEEC00A10EEF1
:1036F000100A94ED0B0A01B2BDEEC00A10EE100ADA
:1037000000B2FFF78BFFBDE870400120FEF706BC5A
:103710002CA09941C4070020B4070020FEE7000058
:103720000148FDF765BF00004801002010B50021E9
:10373000074C0A46002004EBC1131A54401CC0B2C7
:103740008028FAD3491CC9B20829F3D310BD000060
:10375000D802002010B5002000F096F8012000F0FB
:103760009BF8012000F0A8F8012000F09DF8AE20A1
:1037700000F0AAF8002000F0A7F8102000F0A4F84C
:10378000D52000F0A1F8802000F09EF8A82000F0DD
:103790009BF83F2000F098F8D32000F095F8002027
:1037A00000F092F8402000F08FF8A12000F08CF893
:1037B000C82000F089F8DA2000F086F8122000F026
:1037C00083F8812000F080F8CF2000F07DF8D92028
:1037D00000F07AF8F12000F077F8DB2000F074F8C0
:1037E000402000F071F8A42000F06EF8A62000F050
:1037F0006BF88D2000F068F8142000F065F8AF2019
:1038000000F062F8FFF792FFBDE8104000F028B822
:1038100070B500240646802525FA04F0304000D01B
:10382000012000F039F8012000F02EF8002000F00F
:103830002BF8641CE4B2082CEED370BD10B5891CC3
:10384000CCB240F0B00000F03FF8102040EA141075
:1038500000F03AF804F00F00BDE8104000F034B872
:1038600070B5084D002400212046FFF7E7FF05EB67
:10387000C410802100F032F8641CE4B2082CF2D3AA
:1038800070BD0000D8020020024608210148FEF762
:1038900085BC000000040240024680210148FEF77A
:1038A0007DBC00000000024002464FF40071014858
:1038B000FEF774BC0004024002464FF480610148E8
:1038C000FEF76CBC0004024010B504460020FFF770
:1038D000EBFF2046BDE81040FFF79ABF70B50646E3
:1038E0000D460120FFF7E0FF002404E0305DFFF704
:1038F0008FFF641CE4B2AC42F8D370BD7047000087
:1039000010B50B4C012204212046FEF747FC012292
:1039100008212046FEF742FC012210212046FEF736
:103920003DFC20460122BDE810402021FEF736BCB8
:10393000001C0240012202490248FFF7E3B90000DF
:103940000D0000204802002030B5454A0378434866
:1039500011784354491CC9B21170047800230F2C0C
:1039600001D0137030BD1929FCD3B0F80110C1F398
:103970000A043A491A310C808478E508C47845EA8B
:103980004415C5F30A054D800579A40944EA850567
:10399000447945EA8425C5F30A058D806508847954
:1039A00045EAC415C5F30A05CD802509C47945EA61
:1039B0000415C5F30A050D81057AE40944EA4505B5
:1039C000447A45EA4425C5F30A054D81A508847A61
:1039D00045EA8415C5F30A058D81C57A640944EA70
:1039E000C504CC818489C4F30A040C82447BE508B5
:1039F000847B45EA4415C5F30A054D82C57BA409BD
:103A000044EA8505047C45EA8425C5F30A058D82D0
:103A10006508447C45EAC415C5F30A05CD8225092D
:103A2000847C45EA0415C5F30A050D83C57CE409C9
:103A300044EA4505047D45EA4425C5F30A054D835E
:103A4000A508447D45EA8415C5F30A058D83807D6C
:103A5000640944EAC000C88383E70000D806002058
:103A60000C00002000B50A7885B0A52A02D1CA7AD8
:103A70005A2A29D01C4991ED000ABDEEC00A10EE69
:103A8000101AADF80C10194991ED000ABDEEC00AEC
:103A900010EE101AADF80E10154991ED000ABDEEAA
:103AA000C00A10EE101AADF81010124991ED000A7C
:103AB000BDEEC00A10EE101A1422ADF812106946BD
:103AC000FCF7C1FB05B000BD4A8852BAADF80C2026
:103AD0008A8852BAADF80E20CA8852BAADF81020C2
:103AE000098949BAE8E700002001002024010020EC
:103AF000280100202C0100207047000000B585B08F
:103B0000A5218DF8001051218DF8011010498A78F7
:103B10008DF80220CA788DF803200A798DF80420E8
:103B20004A798DF805208A798DF80620C9798DF8B3
:103B3000071000218DF808108DF809105A218DF812
:103B40000B1014226946FCF77EFB05B000BD000097
:103B50004409002000B585B0A5218DF8001053213F
:103B60008DF8011010490A7C8DF802204A7C8DF8EE
:103B700003208A7C8DF80420CA7C8DF805200A7DFC
:103B80008DF80620497D8DF8071000218DF808106A
:103B90008DF809105A218DF80B1014226946FCF794
:103BA00052FB05B000BD00004409002000B585B0FF
:103BB000A5218DF8001052218DF8011010494A7A84
:103BC0008DF802208A7A8DF80320CA7A8DF80420B5
:103BD0000A7B8DF805204A7B8DF80620897B8DF8BD
:103BE000071000218DF808108DF809105A218DF862
:103BF0000B1014226946FCF726FB05B000BD00003F
:103C00004409002030B5244985B0264C91ED000AC6
:103C10002249A525BDEEC00A10EE103AADF80C30D1
:103C200091ED000A1E49BDEEC00A10EE102AADF853
:103C30000E2091ED000ABDEEC00A10EE101AADF88C
:103C4000101094ED000A8DF8005050258DF80150A9
:103C50001D0A8DF802508DF80330130ABDEEC00A1C
:103C60008DF804308DF805200A0A10EE104A8DF800
:103C700006208DF80710210A8DF808108DF80940EC
:103C80005A218DF80B10ADF8124014226946FCF74A
:103C9000DAFA05B030BD0000200100202401002028
:103CA000280100202C01002010B51D4A1B490446A4
:103CB00086B0881C92ED000AFDF73EFA1749194AB2
:103CC000491CC81C92ED000AFDF736FAA5208DF8B4
:103CD0000000124954208DF801004A88100A8DF81E
:103CE00002008DF8032008788DF804008A88100AF5
:103CF0008DF805008DF8062048788DF80700002023
:103D00008DF808008DF809005A208DF80B00142258
:103D100069462046FCF797FA06B010BD180100204E
:103D20009C000020A0000020FEF744BA30B593B0FC
:103D300030216846FCF7A0FA14210CA8FCF79CFA85
:103D400020480025016841F080510160006800F0C2
:103D5000805011901C48016841F4404101600068A6
:103D6000022400F4404011900120009000040190D2
:103D70008001CDE9064006200890B420CDE9090471
:103D800004200B906846FEF7D3FB08B172B6FEE73D
:103D9000FEF7AAFA08B172B6FEE70CA90F2081E877
:103DA00031004FF4A0500F904FF480501090052137
:103DB0000CA8FEF7D1FA002801D072B6FEE713B0C6
:103DC00030BD0000403802400070004002480168E9
:103DD00041F470010160704788ED00E00148FEF792
:103DE00073BD0000B80100200148FEF76DBD000062
:103DF0000002002010B5806B0021C185C184FEF750
:103E000062FD10BD01680C3151E8002F22F4907260
:103E100041E80023002BF5D10168143151E8002F4F
:103E200022F0010241E80023002BF5D1016B0129AA
:103E300009D101680C3151E8002F22F0100241E84D
:103E40000023002BF5D1202180F8421000210163CE
:103E5000704708B590F84210222901D0022008BD11
:103E600082684FF480539A4201D1016921B1816A7D
:103E70009A421BD04AB10AE00268816A5268C2F3D2
:103E800008020A80816A891C08E0026972B102682E
:103E9000526802F07F020A70816A491C8162C18DFA
:103EA000491E0904090CC18503D01BE00268526851
:103EB000F1E70168CA6822F02002CA600168CA6896
:103EC00022F48072CA6001684A6922F001024A61E4
:103ED000202180F8421000214163026B012A03D0A7
:103EE000FEF71EFF002008BD016301680C3151E898
:103EF000002F22F0100241E80023002BF5D10168C9
:103F00000A68D20602D50A6849680091818DFEF7D9
:103F1000D9FCE7E770B5044600680169E26821F45E
:103F20004051114301612169A068E2690843616958
:103F3000114308432168CA6849F20C639A4302435B
:103F4000CA6020684169A26921F44071114341614E
:103F500031492068884202D03049884202D1FEF7B8
:103F6000A5FA01E0FEF792FAE2690023192164251F
:103F70003226B2F5004F626828D0A0FB0101930FF2
:103F80009200FCF72FF90146B0FBF5F06FF0180234
:103F9000504301EB800006EB0010B0FBF5F000F0A1
:103FA000F002B1FBF5F002EB0012B1FBF5F06FF09F
:103FB0001803584301EB800006EB0010B0FBF5F04E
:103FC00000F00F0021681044886070BDA0FB010163
:103FD00092185B41FCF706F90146B0FBF5F00201CF
:103FE000B1FBF5F06FF01803584301EB800006EBCE
:103FF000C000B0FBF5F000F0F80002EB4002B1FBAE
:10400000F5F0584301EB800006EBC000B0FBF5F083
:1040100000F00700D6E70000001001400014014046
:1040200081628285C28500214164222180F842108C
:10403000016921B10168CA6842F48072CA600168EE
:104040004A6942F001024A610068C16841F02001FA
:10405000C160002070472DE9F843984617460D4689
:104060000446089E24E0701C22D0FEF79DF8A0EBC9
:104070000800B0421AD8CEB12068C168490717D5E8
:10408000802D15D0402D13D00168C94309070FD4E6
:1040900001680025406800902046FFF7B3FE082025
:1040A000606484F840500120BDE8F8830320FBE7FA
:1040B0002068006835EA000004D00020B842D2D061
:1040C0000020F1E70120F9E70148FEF7FDBB000001
:1040D000480200200148FEF7F7BB000090020020D4
:1040E00000B585B001466846FFF7BCFC142269465E
:1040F0001448FCF7A8F81348B0F90C1000EE101A99
:104100001149B8EEC00A81ED000AB0F90E1000EEB8
:10411000101A0E49B8EEC00A81ED000AB0F910106D
:1041200000EE101A0A49B8EEC00A81ED000AB0F993
:10413000120000EE100A0748B8EEC00A80ED000A2F
:1041400005B000BD460A0020200100202401002007
:10415000280100202C01002010B58F4C2DED0A8B7A
:10416000B0EE609AF0EE408A94ED040AD4ED020AB3
:1041700030EE600A10EE100AFCF7F5FA41EC100B75
:104180009FED86BBB0EE4B1AF0EE6B1A00F0E4FE2A
:10419000B0EE40AAF0EE60AA94ED030AD4ED010A55
:1041A00030EE600A10EE100AFCF7DDFA41EC100B5D
:1041B000B0EE4B1AF0EE6B1A00F0CEFE53EC1A2B59
:1041C00051EC100BFCF729F941EC100B01F0ECFC61
:1041D00051EC100BFCF7F2FA78EE890A08EE100A9F
:1041E000F4EEC80AF1EE10FA7ED338EEC90AB0EE4A
:1041F000C00AB4EEC80AF1EE10FA75DCF4EE480A13
:10420000F1EE10FA04D0B4EE480AF1EE10FA1AD129
:10421000D4ED030A94ED010A70EEC00A20EEA81A4C
:10422000C1EE080A30EE800A84ED090AD4ED040AD2
:1042300094ED020A70EEC00A60EEA80A80EE881AB9
:1042400031EE000AA3E0B0EE000A28EE000A10EEFC
:10425000100AFCF788FA41EC1A0B18EE100AFCF76A
:1042600082FA41EC100BB0EE4B1AF0EE6B1A00F034
:1042700073FEB0EE40CAF0EE60CA19EE100AFCF709
:1042800072FA41EC100BB0EE4B1AF0EE6B1A00F024
:1042900063FEB0EE409AF0EE609A18EE900AFCF7DA
:1042A00062FA41EC100BB0EE4B1AF0EE6B1A00F014
:1042B00053FEB0EE401AF0EE601A53EC192B51EC9D
:1042C000110BFCF74BF953EC1C2BFCF7A6F853EC45
:1042D0001A2BFCF7BBF9FCF771FA09EE100A19EE7C
:1042E000100AFCF740FA00E053E041EC100BB0EE8E
:1042F0004B1AF0EE6B1A00F02FFEB0EE40AAF0EE73
:1043000060AA18EE900AFCF72EFA41EC100BB0EE02
:104310004B1AF0EE6B1A00F01FFE53EC1A2B51EC07
:10432000100BFCF71BF941EC100B01F03DFC51ECBC
:10433000100BFCF743FA94ED031AD4ED010A00EEDA
:10434000100A31EE601A21EE092AC2EE081A94ED25
:10435000042A71EEA00AD4ED021A32EE612A22EE8E
:10436000093AC3EE082A72EEA11A62EE002A21EE83
:10437000000A82EE882A80EE081A72EE200AF0EE19
:10438000E00AC4ED090A31EEC10AB0EEC00A84EDBC
:104390000A0ABDEC0A8B10BD580000200000000086
:1043A0000000004010B58F4C2DED0A8BB0EE609AE6
:1043B000F0EE408A94ED060AD4ED020A30EE600A6F
:1043C00010EE100AFCF7CFF941EC100B9FED86BB05
:1043D000B0EE4B1AF0EE6B1A00F0BEFDB0EE40AA44
:1043E000F0EE60AA94ED050AD4ED010A30EE600A01
:1043F00010EE100AFCF7B7F941EC100BB0EE4B1AB7
:10440000F0EE6B1A00F0A8FD53EC1A2B51EC100BD8
:10441000FCF703F841EC100B01F0C6FB51EC100B5C
:10442000FCF7CCF978EE890A08EE100AF4EEC80A17
:10443000F1EE10FA7ED338EEC90AB0EEC00AB4EE3F
:10444000C80AF1EE10FA75DCF4EE480AF1EE10FA43
:1044500004D0B4EE480AF1EE10FA1AD1D4ED050AF0
:1044600094ED010A70EEC00A20EEA81AC1EE080A07
:1044700030EE800A84ED0B0AD4ED060A94ED020AB0
:1044800070EEC00A60EEA80A80EE881A31EE000ACB
:10449000A3E0B0EE000A28EE000A10EE100AFCF7C6
:1044A00062F941EC1A0B18EE100AFCF75CF941ECCA
:1044B000100BB0EE4B1AF0EE6B1A00F04DFDB0EEA3
:1044C00040CAF0EE60CA19EE100AFCF74CF941EC54
:1044D000100BB0EE4B1AF0EE6B1A00F03DFDB0EE93
:1044E000409AF0EE609A18EE900AFCF73CF941EC25
:1044F000100BB0EE4B1AF0EE6B1A00F02DFDB0EE83
:10450000401AF0EE601A53EC192B51EC110BFCF72A
:1045100025F853EC1C2BFBF780FF53EC1A2BFCF710
:1045200095F8FCF74BF909EE100A19EE100AFCF7A2
:104530001AF900E053E041EC100BB0EE4B1AF0EE2C
:104540006B1A00F009FDB0EE40AAF0EE60AA18EE7A
:10455000900AFCF708F941EC100BB0EE4B1AF0EEA4
:104560006B1A00F0F9FC53EC1A2B51EC100BFBF713
:10457000F5FF41EC100B01F017FB51EC100BFCF7B1
:104580001DF994ED051AD4ED010A00EE100A31EE82
:10459000601A21EE092AC2EE081A94ED062A71EE7D
:1045A000A00AD4ED021A32EE612A22EE093AC3EED5
:1045B000082A72EEA11A62EE002A21EE000A82EEAB
:1045C000882A80EE081A72EE200AF0EEE00AC4EDA6
:1045D0000B0A31EEC10AB0EEC00A84ED0C0ABDEC44
:1045E0000A8B10BD580000200000000000000040B1
:1045F00010B59A4C2DED0A8BB0EE609AF0EE408A21
:1046000094ED080AD4ED040A30EE600A10EE100AA8
:10461000FCF7A9F841EC100B9FED91BBB0EE4B1AE3
:10462000F0EE6B1A00F098FCB0EE40AAF0EE60AA33
:1046300094ED070AD4ED030A30EE600A10EE100A7A
:10464000FCF791F841EC100BB0EE4B1AF0EE6B1A40
:1046500000F082FCB0EE401AF0EE601A53EC1A2B18
:1046600051EC110BFBF7D9FE41EC100B01F09CFA59
:1046700051EC100BFCF7A2F838EE890A08EE100A8C
:10468000B4EEC80AF1EE10FA7ED378EEC90AF0EE65
:10469000E00AF4EEC80AF1EE10FA75DCB4EE480A4E
:1046A000F1EE10FA04D0F4EE480AF1EE10FA1AD145
:1046B000D4ED070A94ED030A70EEC00A20EEA81AA2
:1046C000C1EE080A30EE800A84ED0D0AD4ED080A26
:1046D00094ED040A70EEC00A60EEA80A80EE881A13
:1046E00031EE000AB0E0B0EE000A28EE000A10EE4B
:1046F000100AFCF738F841EC1A0B18EE100AFCF718
:1047000032F8B0EE4BCAF0EE6BCA41EC100BB0EED3
:104710004C1AF0EE6C1A00F01FFCB0EE40BAF0EE4E
:1047200060BA19EE100AFCF71EF841EC100BB0EE5F
:104730004C1AF0EE6C1A00F00FFCB0EE401AF0EEDE
:10474000601AB0EE419AF0EE619A18EE900AFCF70A
:104750000AF841EC100BB0EE4C1AF0EE6C1A00F0B7
:10476000FBFB53EC192B51EC100BFBF7F7FE53EC52
:104770001B2BFBF752FE53EC1A2BFBF767FFFCF7E2
:104780001DF809EE100A00E060E019EE100AFBF7D0
:10479000EAFF41EC100BB0EE4C1AF0EE6C1A00F090
:1047A000DBFBB0EE401AF0EE601AB0EE41AAF0EE7C
:1047B00061AA18EE900AFBF7D6FF41EC100BB0EEA1
:1047C0004C1AF0EE6C1A00F0C7FB53EC1A2B51ECAC
:1047D000100BFBF7C3FE41EC100B01F0E5F951ECB7
:1047E000100BFBF7EBFF94ED071AD4ED030A00EE74
:1047F000100A1D4971EE601A21EE892A82EE081A0C
:1048000094ED082A71EE200A94ED041A32EE412A42
:1048100022EE093AC3EE082A32EE811A62EE002A2D
:1048200021EE800A82EE882AC0EE081A72EE202A53
:1048300070EEC20A31EE610A31EE811A10EE100AF2
:10484000884206DAC4ED0D2A84ED0E0ABDEC0A8B0F
:1048500010BDC4ED0D0A84ED0E1AF7E758000020D4
:1048600000000000000000400000164510B5984C04
:104870002DED0A8BB0EE609AF0EE408A94ED080AB6
:10488000D4ED060A30EE600A10EE100AFBF76BFF5B
:1048900041EC100B9FED8FBBB0EE4B1AF0EE6B1A94
:1048A00000F05AFBB0EE40AAF0EE60AA94ED070AC1
:1048B000D4ED050A30EE600A10EE100AFBF753FF44
:1048C00041EC100BB0EE4B1AF0EE6B1A00F044FB0B
:1048D000B0EE401AF0EE601A53EC1A2B51EC110BAB
:1048E000FBF79BFD41EC100B01F05EF951EC100B56
:1048F000FBF764FF38EE890A08EE100AB4EEC80A26
:10490000F1EE10FA7ED378EEC90AF0EEE00AF4EE8A
:10491000C80AF1EE10FA75DCB4EE480AF1EE10FAAE
:1049200004D0F4EE480AF1EE10FA1AD1D4ED070AD9
:1049300094ED050A70EEC00A20EEA81AC1EE080A2E
:1049400030EE800A84ED0F0AD4ED080A94ED060AD1
:1049500070EEC00A60EEA80A80EE881A31EE000AF6
:10496000ACE0B0EE000A28EE000A10EE100AFBF7E9
:10497000FAFE41EC1A0B18EE100AFBF7F4FE41ECBC
:10498000100BB0EE4B1AF0EE6B1A00F0E5FAB0EE39
:1049900040CAF0EE60CA19EE100AFBF7E4FE41ECE3
:1049A000100BB0EE4B1AF0EE6B1A00F0D5FAB0EE29
:1049B000409AF0EE609A18EE900AFBF7D4FE41ECB4
:1049C000100BB0EE4B1AF0EE6B1A00F0C5FAB0EE19
:1049D000401AF0EE601A53EC192B51EC110BFBF757
:1049E000BDFD53EC1C2BFBF718FD53EC1A2BFBF70A
:1049F0002DFEFBF7E3FE09EE100A19EE100AFBF795
:104A0000B2FE00E05CE041EC100BB0EE4B1AF0EEB1
:104A10006B1A00F0A1FAB0EE40AAF0EE60AA18EE10
:104A2000900AFBF7A0FE41EC100BB0EE4B1AF0EE33
:104A30006B1A00F091FAB0EE401AF0EE601A53ECE7
:104A40001A2B51EC110BFBF789FD41EC100B01F017
:104A5000ABF851EC100BFBF7B1FE94ED071AD4ED57
:104A6000050A00EE100A1D4931EE602A62EE091AAD
:104A700081EE881AD4ED081A31EE201AD4ED060A18
:104A800071EEE02A22EE893AC3EE081A71EEA01AFE
:104A900062EE800A22EE000AC0EE882A80EE082A22
:104AA00072EE810A31EE621A10EE900A884231EEFF
:104AB000C20A72EE211A06DAC4ED0F0A84ED100A5A
:104AC000BDEC0A8B10BD84ED0F1AC4ED101AF7E788
:104AD0005800002000000000000000400000E144F9
:104AE00010B5012206490748FEF70CF904489FED6E
:104AF000060AC01E80ED110A80ED120A10BD0000EA
:104B00005B000020B80100200000000070B51149D2
:104B1000002401260D7865B10A460F4B5278012D0D
:104B20000CD0022D04D10A2802D10C709C548E7036
:104B300070BD6D28FCD10E704C7070BD6D241C7062
:104B40000D2804D01344521C58704A7070BD0220C6
:104B5000087070BD580000205A0900200E4800F16E
:104B60004C01D1EC030A31EE211AD0ED161A31EEC8
:104B7000212AC1EE021A30EE602AB0EE600AF7EE8A
:104B8000000A70EEE10A01EE820A60EE810A80ED11
:104B9000130AC0ED140A7047580000200E4800F1B7
:104BA0006001D1EC030A31EE211AD0ED1B1A31EE6F
:104BB000212AC1EE021A30EE602AB0EE600AF7EE4A
:104BC000000A70EEE10A01EE820A60EE810A80EDD1
:104BD000180AC0ED190A7047580000200D4800F16E
:104BE0000C01D0EC030A71EE211A91ED001A31EE9E
:104BF000812A81EE821A30EE602AB0EE600AF7EE6A
:104C0000000A70EEC10A01EE020A60EEA10A80EC11
:104C1000020A7047CC0000200E4800F10801D1ECD8
:104C2000030A31EE211AD0ED051A31EE212AC1EE28
:104C3000021A30EE602AB0EE600AF7EE000A70EE5B
:104C4000E10A01EE820A60EE810A80ED020AC0EDFF
:104C5000030A7047D800002010B58A4A8AA12DEDBA
:104C6000088BA2F16400FBF713FB864A8CA1093282
:104C7000A2F16D00FBF70CFB824A8FA11232A2F168
:104C80007600FBF705FB7F4A91A11B32A2F17F0062
:104C9000FBF7FEFA102200217A48FBF785FBFBF7B1
:104CA00055FD914C1022C4E90801764800210930D5
:104CB000FBF77AFBFBF74AFDC4E90A0171481022B1
:104CC00000211230FBF770FBFBF740FDC4E90C013B
:104CD0006C48102200211B30FBF766FBFBF736FD0A
:104CE00041EC1A0B9FED818B94ED080B53EC182BC4
:104CF00051EC100BFBF738FC9FED7E9B53EC192B0E
:104D0000FBF78BFB41EC1B0B53EC182B84ED08BB22
:104D100094ED0A0B51EC100BFBF726FC53EC192B0E
:104D2000FBF77BFBC4E90A0194ED0C0B53EC182B49
:104D300051EC100BFBF718FC53EC192BFBF76DFB38
:104D4000C4E90C0153EC182B51EC1A0BFBF70CFCCB
:104D500053EC192BFBF761FBC4E90E0151EC1B0B63
:104D6000FBF72CFD00EE100AFFF7F8FE10EE100A1C
:104D7000FBF7F9FCC4E9080194ED0A0B51EC100BA8
:104D8000FBF71CFD00EE100AFFF708FF10EE100AFB
:104D9000FBF7E9FCC4E90A0194ED0C0B51EC100B94
:104DA000FBF70CFD00EE100AFFF718FF10EE100ADB
:104DB000FBF7D9FCC4E90C0194ED0E0B51EC100B80
:104DC000FBF7FCFC00EE100AFFF726FF10EE100ABE
:104DD000FBF7C9FCC4E90E0194ED0A0B51EC100B72
:104DE000FBF7ECFC94ED080B08EE100A51EC100BED
:104DF000FBF7E4FC00EE100AF0EE480AFFF7ACF90E
:104E000094ED0C0B51EC100BFBF7D8FC94ED080B58
:104E100008EE100A51EC100BFBF7D0FC00EE100A64
:104E2000F0EE480AFFF7BEFA94ED0E0B51EC100BB2
:104E3000FBF7C4FC94ED0A0B08EE100A51EC100BC2
:104E4000FBF7BCFC00EE100AF0EE480AFFF7D0FBBF
:104E500094ED0E0B51EC100BFBF7B0FC94ED0C0B2A
:104E600008EE100A51EC100BFBF7A8FC00EE100A3C
:104E7000F0EE480AFFF7FAFCBDEC088BBDE81040E5
:104E8000FCF722B9BE09002020202020202020206D
:104E900020202020252A7320252A73202573000036
:104EA0002020202020202020252A7320252A73203E
:104EB000252A73202573000020202020252A732016
:104EC000252A7320252A7320252A732025730000A4
:104ED000252A7320252A7320252A7320252A73204A
:104EE000252A732025730000D8000020DE6C4FD8DF
:104EF000AD92ED3F405D5A18022F4840FEE703B4E3
:104F000001984100009850EAC12018BF04204A0DC2
:104F100018BF40F0010040F2FF72B2EB515F08BFD2
:104F200040F00200012808BF052002B070470907C1
:104F3000090E002804DB00F1E02080F8001470471F
:104F400000F00F0000F1E02080F8141D7047000011
:104F500000487047440100202DE9F04D2DED040B71
:104F60002DED0E8B96B0DDE92550279CDDF890A045
:104F700025F0004624F00048BAF1000F14BF0121CB
:104F8000002101EB4502FC4953184A1093422AD3F1
:104F9000002814BF0123002303EB44030B44F7490B
:104FA0008B4220D358EA00019FEDF59B76D0DFF8C5
:104FB000D8B35D4503D1BAF1000F05D188E0BAF14D
:104FC000000F08BF002100D0012101EB450111F5C0
:104FD000001F08D8002814BF0121002101EB440163
:104FE00011F5001F0BD99DED261B9DED240B16B06E
:104FF000BDEC0E8B04B0BDE8F04D00F0A9BE00275B
:10500000002DBCBFE149884521DAE1498845A8BFA8
:1050100002271CDAC3451ADCDE4901EB28511429AA
:1050200008DDC1F1340220FA02F101FA02F28242F3
:105030000DD108E058B9C1F1140228FA02F101FAC1
:1050400002F2424503D101F00101C1F1020756EA23
:105050000A0124D1002C22DA002D18BF022F01D022
:10506000012F0AD0022000F0BFFE16B0BDEC0E8B5F
:1050700004B0BDE8F04D00F053BE022000F0B4FED5
:1050800000F04EFE51EC100B81F0004141EC100B92
:1050900016B0BDEC0E8B04B0BDE8F08D18E09FEDAE
:1050A000BEAB9FEDBF8B002871D1B848804522D19F
:1050B00005F1804010F5801008BFBAF1000F07D04D
:1050C000B3450ADC002CA8BF9DED260BE0DA0DE00D
:1050D000B0EE490AF0EE690ADAE7002C06DA9DED37
:1050E000260B51EC100B81F000416FE0AE48784484
:1050F00090ED000BCCE7D8454DD1002C48DA2EB10D
:1051000086423AD1BAF1000F42D126E0BAF1000F3F
:1051100013D0022000F068FE00F036FE8DED020B89
:105120009DED240B8DED000B10EE900A039961F3B9
:105130001E0003909DED020BAAE78DED02AB9DEDE5
:10514000240B1AEE901A10EE900A8DED000B61F30D
:105150001E0003909DED020B9AE78DED028B9DEDF5
:10516000240B18EE901A10EE900A8DED000B61F3EF
:105170001E0003909DED020B8AE709DA9DED240BDA
:1051800051EC190B53EC102BFBF760FA1EE020E0FA
:105190009DED240B7CE786421BDAB4F1804F0DD0E5
:1051A000A4F10050B0F1FF5013D1002D11DB9DEDA3
:1051B000240B51EC100B00F015FF07E09DED240BC4
:1051C00053EC102B51EC100B00F0C2BC41EC100B57
:1051D0005EE79DED240B51EC100B00F00BFEBAF1D5
:1051E000000FCDE90E0142D19FED710B46B3A6F140
:1051F000E040B0F17F600CD05E4538D1002D00DA80
:10520000A7B3022F0CBF01204FF0FF30FBF78DFA40
:10521000DCE7002D01DD002C0DDA002D01DD002C76
:105220001FDB002D16DA002C14DB012F08BF9FEDC9
:10523000620B3FF42DAFB0EE4A0AF0EE6A0A27E7A0
:10524000022F18BF002D0CD0012F0AD1002DFFF620
:105250001FAF06E0002DB8BF002C08DA012F3FF485
:1052600017AFB0EE480AF0EE680A11E71BE0012024
:1052700000EBE57050EA070115D0791EB0EE498ABF
:10528000F0EE698A084308BF9FED4D8B4E4800251C
:10529000804570DD4D494E48884514DDB0420DDB38
:1052A000002C19DB2FE0012000F09EFD16B0BDECB4
:1052B0000E8B04B0BDE8F04D00F056BDB34502DCE6
:1052C000002C09DC1FE0864202DA002C1BDA03E026
:1052D0005E452BDD002C16DD022000F085FD00F080
:1052E00053FD8DED020B53EC1A2B51EC180BFBF711
:1052F0003BF9CDE900010399019861F31E00039089
:105300009DED020BC4E6022000F06EFD00F04CFDA6
:1053100010EE901A18EE900A8DED020B8DED008BB9
:1053200061F31E0003909DED020BB1E69DED0E0BA7
:1053300053EC192B51EC100BFBF710F99FED260BDA
:10534000CDE9080153EC102B9DED080B51EC100B2F
:10535000FBF70AF99FED221B53EC112BFBF701F928
:105360009DED081B53EC112BFBF7FEF89FED1E1B68
:1053700053EC112B3CE08CE0FFFF1F00FFFF0F0000
:10538000000000000000F03F0000F03F0000F07F50
:105390000000404301FCFFFF000000000000F07F20
:1053A00000000000000000000610000000000000E7
:1053B0000000000000000080000000000000F0FF7E
:1053C000000000000000F0BF0000E0410000F043DA
:1053D000FFFFEF3F00000000000000000000D03F92
:1053E000555555555555D53F000000000000E03F8C
:1053F000FBF7B7F89DED080B41EC1A0B53EC102BA3
:1054000051EC100BFBF7B0F853EC1A2BFBF7ACF890
:1054100041EC1A0B9FEDFE0B53EC102B9DED080B8E
:1054200051EC100BFBF7A0F841EC1B0B9FEDFA0BB6
:1054300051EC1A0B53EC102BFBF796F841EC1A0BBE
:105440009FEDF70B53EC102B9DED080B51EC100B5F
:10545000FBF78AF853EC1A2BFBF780F841EC1A0B98
:1054600051EC1B0B53EC1A2BFAF7D7FF0690CDE942
:1054700006519DED060B53EC1B2B51EC100BFBF76B
:105480006DF853EC1A2BFBF76CF841EC100B00F0A5
:10549000A1B90020B6F5801F0EDA9FEDE30B53ECA7
:1054A000102B9DED0E0B51EC100BFBF75DF8CDE9C9
:1054B0000E016FF034000E4600EB2650A0F2FF37CD
:1054C000C6F31300DA4940F07F6646F04056884242
:1054D000D8BF002408DDD7498142C8BF012403DCBE
:1054E0000024A6F580167F1CD348784400EBC40046
:1054F0000F9690ED00CB9DED0E0B53EC1C2B51EC59
:10550000100BFBF72BF89DED0E0B41EC1B0B53EC36
:105510001C2B51EC100BFAF780FF41EC100B51ECF7
:10552000190B53EC102BFBF791F841EC1D0B51ECD0
:105530001B0B53EC1D2BFBF717F841EC1A0BBF4864
:105540008DED10AB7844109590ED000B4FF00050AE
:1055500040EA660000EB84408DED080B00F500206A
:1055600009909DED080B53EC1C2B51EC100BFAF736
:10557000F5FF9DED0E1B53EC112BFAF7F2FF41ECFA
:10558000100B53EC102B9DED100B51EC100BFAF798
:10559000EBFF9DED080B41EC1C0B53EC102B9DED2C
:1055A000100B51EC100BFAF7DFFF53EC1B2BFAF743
:1055B000D8FF53EC1C2BFAF7D1FF53EC1D2BFAF755
:1055C000D3FF41EC1C0B53EC1A2B51EC1A0BFAF7DE
:1055D000CBFF41EC1B0B9A480621B0EE4B0AF0EED4
:1055E0006B0A784400F01DFBB0EE401AF0EE601A32
:1055F000B0EE41DAF0EE61DA53EC1B2B51EC1B0BF1
:10560000FAF7B2FF53EC1D2BFAF7AEFF9DED100B2E
:1056100041EC1B0B53EC1A2B51EC100BFAF7FDFE6F
:1056200053EC1C2BFAF7A0FF53EC1B2BFAF7F5FEFB
:105630009DED100B41EC1B0B53EC102B51EC100BA0
:10564000FAF792FF41EC1D0B9FED7FEB53EC1E2B05
:10565000FAF7E3FE53EC1B2BFAF7DFFE0890CDE9D7
:1056600008519DED080B53EC1E2B51EC100BFAF773
:1056700075FF53EC1D2BFAF771FF53EC1B2BFAF758
:1056800070FF9DED080B41EC1D0B53EC102B9DEDB5
:10569000100B51EC100BFAF767FF41EC1B0B53ECAE
:1056A0001A2B51EC1D0BFAF75FFF9DED080B41EC37
:1056B0001A0B53EC102B51EC1C0BFAF755FF53EC63
:1056C0001A2BFAF7AAFE41EC1A0B51EC1B0B53EC08
:1056D0001A2BFAF7A2FE0C90CDE90C519DED0C0BA4
:1056E00053EC1B2B51EC100BFAF738FF53EC1A2B31
:1056F000FAF737FF41EC1B0B9FED550B53EC102BCA
:105700009DED0C0B51EC100BFAF72EFF41EC1A0B30
:105710009FED510B51EC1B0B53EC102BFAF724FFB0
:1057200041EC1B0B9FED4E0B53EC102B9DED0C0B26
:1057300051EC100BFAF718FF53EC1B2BFAF76DFE28
:1057400041EC100B4848784400EBC40090ED001B7E
:1057500051EC100B53EC112BFAF75FFE41EC1B0BD5
:105760003846FAF7E2FFCDE9080153EC1B2B51EC68
:105770001A0BFAF752FE41EC100B3C48784400EB50
:10578000C40090ED00CB51EC100B53EC1C2BFAF73E
:1057900044FE9DED081B53EC112BFAF73EFE0690DC
:1057A000CDE906519DED080B53EC102B9DED060B3A
:1057B00051EC100BFAF7D2FE53EC1C2BFAF7CEFE8D
:1057C00053EC1A2BFAF7CAFE53EC1B2BFAF7C9FE5F
:1057D00041EC100B9DED261B53EC102B8DED001BA7
:1057E00000959DED260B51EC100BFAF7BDFE9DEDDB
:1057F000000B41EC1A0B53EC102B9DED260B51ECDA
:10580000100BFAF7ABFE9DED061B53EC112B2FE0AE
:10581000000000604715F73FFE822B654715F73FF4
:1058200044DF5DF80BAE543E000000000000404332
:105830008E9803007AB60B00820B0000B00B0000BC
:10584000BA0A00000000000000000000000008404C
:10585000000000E009C7EE3FFD033ADC09C7EE3F58
:10586000F5015B14E02F3EBE460900000009000070
:10587000FAF77AFE53EC1A2BFAF7CFFD9DED060BE3
:1058800041EC1A0B53EC102B9DED000B51EC100B5F
:10589000FAF76AFECDE90C019DED0C0B51EC1A0BE9
:1058A00053EC102BFAF7B9FDCDE902010C46AA49D9
:1058B0008C422FDB611A084318D19DED0C0B53EC81
:1058C000102B9DED020B51EC100BFAF747FE41EC4B
:1058D0001B0B9FEDA30B51EC1A0B53EC102BFAF79B
:1058E0009CFD53EC1B2BFAF751FF2DD2022000F048
:1058F0007BFA00F049FA10EE901A18EE900A8DED3E
:10590000020B8DED008B61F31E0003909DED020BE9
:10591000FFF7BEBB944A24F00041914214D393494F
:10592000214408437FF4EFAC9DED0C0B53EC102B9E
:105930009DED020B51EC100BFAF710FE53EC1A2BF5
:10594000FAF724FF7FF6DFAC24F000408849894A4B
:10595000002601EB205182422BDA481C4FF48011C3
:1059600021FA00F02044844AC0F30A517A44A1F29B
:10597000FF3192ED000B814A8DED080BCA4020EA01
:105980000202C0F3130040F48010C1F1140120FAA8
:1059900001F60992002CB8BF76429DED080B53EC3E
:1059A000102B9DED0C0B51EC100BFAF7D7FDCDE948
:1059B0000C019DED0C0B51EC1A0B53EC102BFAF76C
:1059C0002CFD9FED6F0B0890CDE9085153EC102B87
:1059D0009DED080B51EC100BFAF7C6FD41EC1B0BCB
:1059E0009FED690B53EC102B9DED080B51EC100B48
:1059F000FAF7BAFD9DED0C0B41EC1C0B53EC102B90
:105A00009DED080B51EC100BFAF7A8FD53EC1A2B87
:105A1000FAF7A7FD9FED5E1B53EC112BFAF7A4FDDF
:105A200053EC1C2BFAF7F9FC41EC1A0B51EC1B0B55
:105A300053EC1A2BFAF7F1FCCDE902019DED020BB4
:105A400053EC1B2B51EC100BFAF788FD53EC1A2B7F
:105A5000FAF787FD9DED020B41EC1A0B53EC102B6E
:105A600051EC100BFAF780FDCDE908014A489DED95
:105A7000080B0521784400F0D4F89DED081B51EC8B
:105A8000100B53EC112BFAF76FFD9DED021B53EC3D
:105A9000112BFAF766FDCDE906019DED020B53ECE3
:105AA0001A2B51EC100BFAF75FFD53EC1A2BFAF797
:105AB000B4FC9FED3B0B41EC1A0B53EC102B9DED0E
:105AC000060B51EC100BFAF749FD9DED060B41EC6E
:105AD0001B0B53EC102B9DED020B51EC100BFAF746
