:020000040800F2
:10000000D00C0020C1010008892A0008B323000891
:1000100019280008710600080D33000800000000D0
:10002000000000000000000000000000AD2E0008ED
:100030002508000800000000E52D0008AF2E00088C
:10004000DB010008DB010008DB010008DB01000820
:10005000DB010008DB010008DB010008DB01000810
:1000600035080008DB010008DB010008DB0100089F
:10007000DB010008DB010008DB010008DB010008F0
:10008000DB010008DB0100083D050008DB0100087A
:1000900075060008DB010008DB010008DB01000831
:1000A000DB010008DB010008DB010008DB010008C0
:1000B000DB010008DB010008DB010008DB010008B0
:1000C000DB010008DB010008DB010008DB010008A0
:1000D000DB010008DB010008DB010008DB01000890
:1000E000DB010008DB010008DB010008DB01000880
:1000F000DB010008DB010008DB010008DB01000870
:10010000DB010008DB010008DB010008DB0100085F
:10011000DB010008DB010008DB010008DB0100084F
:10012000DB010008DB010008DB010008DB0100083F
:10013000DB010008DB010008DB010008DB0100082F
:10014000DB010008DB010008DB010008DB0100081F
:10015000DB010008DB010008DB010008D5310008E5
:10016000DB010008DB010008DB010008DB010008FF
:10017000DB010008DB010008DB01000800000000D3
:10018000DB010008DB010008DB010008652F000827
:10019000DB010008DB010008DB010008DB010008CF
:1001A0000000000000000000DB010008DFF80CD0B8
:1001B00000F0AEF9004800474D330008D00C002095
:1001C0000648804706480047FEE7FEE7FEE7FEE7F1
:1001D000FEE7FEE7FEE7FEE7FEE7FEE7552F000835
:1001E000AD0100082DE9F05F0546002092469B46D0
:1001F00088460646814640241BE02846414647463D
:10020000224600F0E0F853465A46C01A914110D3F6
:1002100011461846224600F0C7F82D1A67EB010870
:100220004F4622460120002100F0BEF817EB0009DE
:100230004E41201EA4F10104DFDC484631462A4627
:100240004346BDE8F09FD2B201E000F8012B491E01
:10025000FBD270470022F6E710B513460A46044663
:100260001946FFF7F0FF204610BD2DE9FE4F81EA49
:10027000030404F0004421F0004100944FF0000B0F
:1002800023F0004350EA01045ED052EA03045BD03D
:10029000C3F30A54C1F30A552C44A4F2F334019475
:1002A000A0FB0254C1F3130141F48011C3F3130303
:1002B00043F4801301FB024400FB034E840A970AB7
:1002C00044EA815447EA8357A4FB076802958D0AE4
:1002D00005FB07854FEA932C04FB0C542705029D70
:1002E0004FEA065847EA1637B5EB08056EEB070CE0
:1002F000870E920E47EA811742EA8312A7FB02019A
:10030000B6EB0B0164EB00042B0D43EA0C335E18D3
:1003100044EB1C50DA465146E7FB0201C5F31304D7
:100320004FEA0B3343EA14534FEA0432019C43EA89
:100330000603A4F10C040294009CCDE900B400F083
:1003400098F803B0BDE8F08F00200146F9E70EB53C
:10035000C10F80EAE0700844CA07002140F233432D
:100360008DE80E000A460B4600F083F803B000BD8E
:1003700001F0004330B421F0004150EA010206D000
:100380000A0DA2F56072C1F31301002A02DC30BC31
:1003900000207047440F44EAC104C100E01830BC9B
:1003A00000EBC25000F01FB8202A04DB203A00FA0C
:1003B00002F1002070479140C2F1200320FA03F3BC
:1003C000194390407047202A04DB203A21FA02F0BA
:1003D0000021704721FA02F3D040C2F1200291407F
:1003E0000843194670470029A8BF7047401C4900C0
:1003F00008BF20F00100704710B4B0FA80FC00FA8A
:100400000CF050EA010404BF10BC704749B1CCF1B4
:10041000200421FA04F411FA0CF118BF0121214340
:100420000843A3EB0C01CB1D4FEA00614FEA1020FB
:1004300042BF002010BC704700EBC350104400299D
:10044000A4BF10BC7047401C490008BF20F0010049
:1004500010BC704710B5141E73F1000408DA401C7C
:1004600041F1000192185B411A4301D120F00100D3
:1004700010BD2DE9F04D92469B4611B1B1FA81F2C3
:1004800002E0B0FA80F220329046FFF78DFF04467A
:100490000F4640EA0A0041EA0B0153465A46084318
:1004A00013D0114653EA010019D0C8F1400250465A
:1004B000FFF789FF05460E46504659464246FFF76C
:1004C00073FF084305D0012004E020463946BDE80B
:1004D000F08D0020054346EAE0762C4337430A9826
:1004E0006305E40AA0EB08000022FD0A44EA475431
:1004F0000A3002D500200146E9E7010510196941DB
:10050000DDE9084500196941BDE8F04DA2E70000AA
:10051000064C074D06E0E06840F0010394E8070050
:1005200098471034AC42F6D3FFF744FED43C0008A1
:10053000F43C0008002800DA40427047014800F00F
:10054000C9BA000060000020464910B54A6822F48C
:1005500040324A604A6843681A434A6001684A6800
:1005600022F480724A6001684A68036942EA032201
:100570004A6001684A6822F040724A6001684A682D
:1005800083681A434A6001688A6822F400628A60BC
:1005900001688A68C3681A438A60816A6FF0706272
:1005A000D14201688A6822F070628A6001688A68B4
:1005B0000CD0836A1A438A6001688A6822F040522C
:1005C0008A6001688A68C36A1A4301E022F04052D7
:1005D0008A6001688A6822F002028A6001688A687B
:1005E000037E42EA43028A6090F8201000290168E5
:1005F0004A680FD042F400624A6001684A6822F4F7
:1006000060424A6001684A68174C436A04EB43330E
:100610001A4301E022F400624A600168CA6A22F4C7
:100620007002CA620168CA6A838B104C04EB0353E0
:100630001A43CA6201688A6822F400728A600168FB
:100640008A6890F8303042EA43228A6001688A68FA
:1006500022F480628A6001688A68406942EA8020E8
:10066000886010BD0023014000E0FFFF0000F0FFA4
:10067000FEE70000014800F01EBD0000A8000020B9
:1006800000B58BB000200121CDE906010891009052
:10069000019002900390059004906946054800F08F
:1006A00009FC044800F018FF0221024800F092FB08
:1006B0000BB000BDA80000202DE9F041544C554F6F
:1006C0007B202DED028B207697ED000ABDEEC00A4F
:1006D00010EE100AFFF72EFF608397ED000AFDEE83
:1006E000C00AF8EEE00A30EE600A9FED4B8A20EE79
:1006F000080ABDEEC00A10EE100AFFF71BFF474DB7
:10070000A08395ED000ABDEEC00A10EE100AFFF7B7
:1007100011FFE08395ED000AFDEEC00AF8EEE00A55
:1007200030EE600A20EE080ABDEEC00A10EE100A94
:10073000FFF700FF3A4E208496ED000ABDEEC00A96
:1007400010EE100AFFF7F6FE608496ED000AFDEE4B
:10075000C00AF8EEE00A30EE600A20EE080ABDEEAC
:10076000C00A10EE100AFFF7E5FE01B2A1847D2257
:1007700084F82620207E20700020607097ED000A0B
:10078000A37EA78BB5EEC00A4FEA0313F1EE10FA71
:1007900043EA272301DA43F08003A370237FE37049
:1007A00095ED000AA37F258CB5EEC00A4FEA03132E
:1007B000F1EE10FA43EA252301DA43F080032371B6
:1007C00094F82030637196ED000A94F82230B5EE6B
:1007D000C00A4FEA0313F1EE10FA43EA212301DACB
:1007E00043F08003A371E17120726072A072E07225
:1007F00020736073A073E07320746074A074E0745D
:1008000020756075A075E275BDEC028BBDE8F081C6
:10081000700800204000002000007A4444000020BE
:100820004800002070470000014908607047000040
:100830004C000020042000F0F7BE72B6FEE7000076
:10084000D0ED000AB7EE002AC0ED050A0A8852BAB8
:1008500000EE102AB8EE400A80ED000A4A8870EED9
:10086000600A52BA12B201EE102AF8EEC11AC0EDB7
:10087000011A8A8852BA01EE102AB8EE411A80EDA8
:10088000021A897901EE101A10EE901AB8EE411A88
:10089000B1F18B4F80ED031A90ED061A02DD71EE77
:1008A000420A09E010EE901A11F16A5F02D8D0ED09
:1008B000060A03E071EE020AC0ED060A9FED0F1A68
:1008C00000EE810AD0ED040A9FED0D1A30EE600AA9
:1008D00080ED070AC0EE010A9FED0A0A20EE801A99
:1008E000DFED090A21EE800A81EE202A80EE201A2F
:1008F00080ED082A80ED091A7047000000000046CC
:10090000610BB64100003B430070604500F00300FE
:10091000024900EB800001EBC00070476005002039
:1009200090ED000A80ED040A9FED020A80ED060AB0
:1009300070470000000000007047000078B50024F8
:10094000009490F83C20012A19D0012280F83C2024
:100950000A6807230568092A13D9EE680A3A02EBE8
:10096000420293409E43EE600B788A680A3B03EB99
:1009700043039A400368DD682A43DA6010E00220EE
:1009800078BD2E6902EB420293409E432E610B78A4
:100990008A6803EB43039A4003681D692A431A617E
:1009A0004A681F23072A13D205686E6B521E02EB9A
:1009B000820293409E436E630A8893B20A79521E64
:1009C00002EB820293400268556B2B43536327E08E
:1009D00005680D2A12D22E6BD21F02EB82029340C1
:1009E0009E432E630B790A88DB1F92B203EB8303CD
:1009F0009A4003681D6B2A431A6311E0EE6A0D3AB0
:100A000002EB820293409E43EE620B790A880D3B13
:100A100092B203EB83039A400368DD6A2A43DA62E9
:100A20001B4B0568194A9D420AD10D68122D07D14A
:100A3000556825F400055560556845F480055560F6
:100A400005689D421DD1134D0B68AB4201D0112B9F
:100A500017D1536823F480035360536843F40003B1
:100A600053600968A9420CD10B490C4A0968B1FBD3
:100A7000F2F101EB8101490000E0491E00910029DB
:100A8000FBD180F83C40002078BD000000230140ED
:100A900000200140120000105C00002040420F00C6
:100AA00010B500680649884204D1064800F00FF8E6
:100AB00005490860BDE81040024800F005B9000093
:100AC00000200140600000200800002070470068FE
:100AD000C06C704770B5044600680668456816F03B
:100AE000020F05F020012AD049B3216CC90603D4B6
:100AF000216C41F400712164816811F0405F17D1CD
:100B0000217EA9B9C16A11F4700F02D0816849052C
:100B10000ED4416821F020014160206C20F48070E7
:100B20002064206CC00403D4206C40F001002064D9
:100B30002046FFF7B5FF21686FF01200086016F03D
:100B4000040F05F0800132D089B3206CC00603D4B5
:100B5000206C40F4005020642068816811F4401F2C
:100B60001ED1816B11F4401F02D08168490517D452
:100B70004168490514D4816811F0405F10D1217E8D
:100B800071B9416821F080014160206C20F48050EF
:100B90002064206CC00503D4206C40F00100206468
:100BA0002046FFF7C9FE21686FF00C00086016F0C0
:100BB000010F05F040010FD071B120680068C00737
:100BC0000AD0206C40F480302064204600F043F8C6
:100BD00021686FF00100086016F0200F05F08061B9
:100BE0000ED000290CD0606C40F0020060642068D8
:100BF0006FF0200505602046FFF768FF206805605C
:100C000070BD70B504004FF0000503D0206C0026C5
:100C100010B107E0012070BD204600F01DF86664A9
:100C200084F83C60206CC00610D4206C20F48850FE
:100C300040F0020020642046FFF786FC6664206CCA
:100C400020F0020040F00100206400E0012584F85B
:100C50003C60284670BD704710B586B0044614212C
:100C60006846FFF7F7FA15492068884224D11448EE
:100C70000021026842F480720260006800F4807013
:100C800005900F481438026842F0010202600068C3
:100C900000F001000590402000900320CDE9010103
:100CA0006946084800F0CCFC00221146122000F0F2
:100CB00055FE122000F044FE06B010BD0020014099
:100CC000443802400000024018B50021009190F81D
:100CD0003C20012A07D0012280F83C20026893685A
:100CE000DB0702D011E0022018BD936843F0010336
:100CF0009360314A314B1268B2FBF3F202EB4202CD
:100D000000E0521E0092002AFBD102689368DB07C4
:100D100047D0036C40F20164A34343F4807303643F
:100D200053685B0505D5036C23F4005343F48053EB
:100D30000364036CDB0404D5436C23F006034364B3
:100D400000E0416480F83C101D4B6FF022011160FF
:100D500001684A681B4C22434A6059680068CA0609
:100D6000194906D0884224D1816811F0405F13D020
:100D70001FE08842F8D0154A904203D1D1F80423ED
:100D8000D206F1D0124A904213D1D1F8041301F0E7
:100D90001F011029E8D30CE0816841F08041816097
:100DA00007E0016C41F010010164416C41F0010168
:100DB0004164002018BD00005C00002040420F008C
:100DC00000230140200000040020014000210140D8
:100DD0000022014090F82020012A07D0022A05D0E5
:100DE000416A41F4802141620120704700684269F4
:100DF0000A43426100207047F0B590F82050046823
:100E0000A468012D05D0022D03D0416A41F4802150
:100E10004DE014F0406F01D1E50045D5C4F3016405
:100E20000125A5401D608D684FF4C0739DB1CE684B
:100E300035434E6845EAC605066803EB0417F551CD
:100E40004FF4C275076805EB04150E697E51097DE4
:100E5000012905D009E00E88CD6845EA4655EBE743
:100E600001684E5946F480764E511179D2F80550FA
:100E70004FF4C67641EA0521056806EB0416A95130
:100E80001178D2F801204FF4C47541EA02210268BA
:100E900005EB04155151006803EB0411425842F070
:100EA000010242500020F0BD416A41F4001141624C
:100EB0000120F0BD10B590F82020012A07D0022AA9
:100EC00005D0416A41F480214162012010BD3B48B8
:100ED000D0F8002242F00102C0F80022D0F800222F
:100EE00022F47C52C0F80022D0F800224B6A42EA79
:100EF0000322C0F800220A7D02F01F0301229A405B
:100F0000D0F81C329343C0F81C32CB69B3B9D0F887
:100F10000C329343C0F80C328C894B6864F31F4346
:100F20004C6900EBC404C4F840320C890B6864F3CC
:100F30001F434C6900EBC404C4F84432CB69012B55
:100F400016D1D0F80C321343C0F80C320C884B6821
:100F500064F31F434C6900EBC404C4F840320C89AD
:100F6000CB6864F31F434C6900EBC404C4F84432FB
:100F70008B69002BD0F804320ED01343C0F8043232
:100F80000B69002BD0F8143208D01343C0F8143288
:100F9000096A012904D008E09343EFE79343F5E79A
:100FA000D0F81C121143C0F81C12D0F8001221F026
:100FB0000101C0F80012002010BD000000640040D4
:100FC000704770B590F82040012C05D0022C03D05A
:100FD000416A41F4802128E0046809B32469A40728
:100FE00020D04FF4D874056804EB01142D5915F086
:100FF0000405956005682D591AD0ED0855600568FF
:101000002C5904F00204D4604FF4DA74056804EB40
:1010100001142E5906F00F06082E0CD308250DE0FA
:10102000E468DCE7416A41F400114162012070BDCF
:101030006D0D1560E3E72D5905F00F051561056885
:101040002D59C5F30725956105682C59240C546169
:101050004FF4DC72046802EB0112A4581C7004689F
:10106000A458240A5C700468A458240C9C7004687A
:10107000A258120EDA704FF4DE72046802EB01120D
:10108000A4581C710468A458240A5C710468A4580C
:10109000240C9C710468A258120EDA71006829B100
:1010A000016941F020010161002070BDC16841F07B
:1010B0002001C160F8E72DE9F05F054600680024D3
:1010C0004669D0F804908768D0F80CB0D0F810A02A
:1010D000D0F81880F10748D0F90714D001218160B9
:1010E000B80703D5284600F024FA0CE0780702D5AB
:1010F0004FF4006407E0380702D54FF4805402E053
:10110000284600F015FAF80516D529684FF48070C6
:101110008860B80503D5284600F00DFA0CE0780584
:1011200002D544F4005407E0380502D544F4804465
:1011300002E0284600F0FEF9F80316D529684FF4BE
:1011400080308860B80303D5284600F0F6F90CE03B
:10115000780302D544F4004407E0380302D544F490
:10116000803402E0284600F0E7F9300707D55FEA4F
:10117000CB6004D52968102044F40074C86070075F
:101180004FF0080707D55FEA0B7004D52868C760E1
:10119000284600F057F9B00706D52868C0688007D0
:1011A00002D0284600F050F9700607D55FEACA6001
:1011B00004D52968102044F480640861B00607D57E
:1011C0005FEA0A7004D528680761284600F080F9B4
:1011D000F00606D528680069800702D0284600F08E
:1011E00078F9B00308D55FEAC96005D529681020F1
:1011F0004860284600F06EF9F00307D55FEA0970F1
:1012000004D528684760284600F098F9300446D590
:101210005FEA497040D5F00504D55FEAC87001D097
:1012200044F00104B00504D55FEA887001D544F0AC
:101230000204700504D55FEA487001D544F0040447
:10124000300529D518F0700F26D008F0700040281E
:1012500015D006DC102809D020280AD0302816D155
:101260000AE050280ED0602811D10EE044F00804A6
:101270000DE044F010040AE044F0200407E044F0DC
:10128000400404E044F0800401E044F480742868E1
:10129000816921F070018161296804204860002C77
:1012A00005D0686A204368622846FFF789FEBDE8DA
:1012B000F09F70B5040003D094F8200010B104E052
:1012C000012070BD204600F081F82068016841F0DF
:1012D0000101016000F0D4FA0546052604E000F0A3
:1012E000CFFA401B0A2811D820684068C007F6D002
:1012F0002068016821F00201016000F0C1FA054692
:101300000BE000F0BDFA401B0A2806D9606A40F4E1
:101310000030606284F82060D2E72068406880076F
:10132000EFD4207E0128206801683DD021F08001A3
:101330000160607E01282068016838D021F04001FA
:101340000160A07E01282068016833D021F02001CF
:101350000160E07E0128206801682ED041F0100174
:101360000160207F01282068016829D021F0080150
:101370000160607F01282068016824D021F0040109
:101380000160D4E902010843D4E90412114308437F
:101390006168491E08432168C8610020606201201D
:1013A00084F82000002070BD41F08001C0E741F0CA
:1013B0004001C5E741F02001CAE721F01001CFE765
:1013C00041F00801D4E741F00401D9E710B586B037
:1013D000044614216846FEF73DFF174920688842FD
:1013E00027D116480021026842F0007202600068AE
:1013F00000F00070059011481038026842F00802B1
:1014000002600068022200F0080005900320CDE988
:101410000210CDE90002092004906946084800F056
:101420000FF900220521142000F098FA142000F092
:1014300087FA06B010BD000000640040403802404A
:10144000000C02407047000010B592B00FAB08AA24
:1014500000211C48FFF7B5FD0898A0F50070013881
:1014600005D0012803D0022801D0032828D10898EC
:10147000154B401EC0B21870144C00EB800004EBFA
:10148000C0000FA9FFF7DCF91878694601EB80026C
:1014900092ED000AB5EEC00AF1EE10FA10D100EBA1
:1014A000800004EBC000FFF73BFA1878F7EE000A63
:1014B00001EB800090ED000A30EE200A80ED000A7A
:1014C00012B010BDA80000200C0000206005002014
:1014D000704770477047000070B5044690F82000D0
:1014E000012804D0606A40F40020606218E0022005
:1014F00084F820002068016821F00101016000F0FB
:10150000BFF905460EE000BF00F0BAF9401B0A28FB
:1015100008D9606A40F400306062052084F8200039
:10152000012070BD20684068C007EDD1606270BDC9
:1015300070477047704770477047704770472DE994
:10154000F0410446876D00F09BF9064694F835009B
:101550000025022806D08020606584F834500120E0
:10156000BDE8F0812068016821F016010160206863
:10157000416921F080014161206C08B9A06C20B163
:101580002068016821F0080101602068016821F0ED
:10159000010101600CE000F073F9801B052807D9F8
:1015A00020206065032084F8350084F83450D7E7A4
:1015B00020680068C007EED194F85C103F20884096
:1015C000B860012084F8350084F834500020C7E763
:1015D00090F83510022903D0802141650120704721
:1015E000052180F835100068016821F001010160D3
:1015F0000020704770B5044600F042F90546601CB3
:1016000002D004480078044400F03AF9401BA0429C
:10161000FAD370BD50000020042802D101490120F6
:101620000870704700000020044910B50A680242A3
:1016300002D00860FFF7F0FF10BD0000143C01402D
:101640002DE9F84FDFF8F8A10022012403254FF01F
:101650000F090AF1040BAAF1040E00BF0B6804FA8B
:1016600002F63340B34270D10F7907F00307012F20
:1016700001D0022F16D187684FEA420805FA08FC0C
:1016800027EA0C07D1F80CC00CFA08FC4CEA070C4E
:10169000C0F808C04768B7430E79C6F300169640F5
:1016A0003E4346600E79F643B6070AD0C7684FEA54
:1016B000420C05FA0CF6B7438E6806FA0CF63E4368
:1016C000C6600E7906F00306022E10D1D60800EB94
:1016D0008608D8F8206057074FEAD76C09FA0CF74C
:1016E000BE430F6907FA0CF73743C8F82070066845
:1016F0004FEA420C05FA0CF7BE430F7907F00307D7
:1017000007FA0CF7374307604E6816F4403F1CD0C9
:101710004C4E376847F480473760366822F003073D
:1017200006F480460096484E07EB060CDCF8086885
:1017300097073F0F09FA07F826EA0806DFF80C8139
:10174000404503D14FF0000841E072E0DFF800812E
:10175000404502D14FF0010839E0DFF8F8804045FC
:1017600002D14FF0020832E0DFF8EC80404502D1B0
:101770004FF003082BE0DFF8E480404502D14FF042
:10178000040824E0DFF8D880404502D14FF0050876
:101790001DE0DFF8D080404502D14FF0060816E08A
:1017A000DFF8C480404502D14FF007080FE0DFF8B2
:1017B000BC80404502D14FF0080808E0DFF8B08057
:1017C000404502D14FF0090801E04FF00A0808FA3D
:1017D00007F848EA0608CCF80888DAF800605746A7
:1017E000D1F804C09E435FEACC2C00D51E433E6076
:1017F000DBF800605F46D1F804C09E435FEA8C2CA2
:1018000000D51E433E60DEF800607746D1F804C084
:101810009E435FEA8C3C00D51E433E60084F083F64
:101820003E68D1F804C09E435FEACC3C00D51E431D
:101830003E60521C102AFFF411AFBDE8F88F000083
:10184000083C0140443802400030014000000240A2
:101850000004024000080240000C02400010024058
:101860000014024000180240001C02400020024008
:10187000002402400AB1816170470904FBE70000BF
:1018800001488068704700005000002002488168CD
:101890000278114481607047500000200B4810B559
:1018A000016841F400710160016841F480610160E8
:1018B000016841F480710160032000F06FF800209E
:1018C00000F006F800F024F8002010BD003C0240B3
:1018D00070B50D4D04464FF47A712878B1FBF0F0E5
:1018E0000A490968B1FBF0F000F044FB48B9102C3C
:1018F00007D200222146501E00F030F800206C6014
:1019000070BD012070BD0000500000205C00002070
:101910000A4808B5016841F480410160006800F49C
:10192000804000900548001F016841F0805101602F
:10193000006800F08050009008BD0000443802406C
:10194000002809DB00F01F020121914040098000BE
:1019500000F1E020C0F8001170470000F0B40E4B19
:101960001B680C46C3F30223C3F10705042D00D9FD
:101970000425191D072901D2002300E0DB1E0126E2
:1019800006FA05F1491E214099409E40761E1640F8
:101990003143F0BC01F0BBBC0CED00E0064900F0A7
:1019A000070208684FF6FF03184040EA0220034A86
:1019B00010430860704700000CED00E00000FA05DD
:1019C0002DE9F8431748016841F080510160006833
:1019D000154F00F08050012600903E64FFF750FF45
:1019E00005464FF47A78114C05E000BFFFF748FF39
:1019F000401B40450DD86068C003F7D57E64FFF7F3
:101A00003FFF0546464607E0FFF73AFF401BB0425E
:101A100002D90320BDE8F88360688003F4D5002074
:101A2000F8E700004038024000000E42007000401D
:101A30002DE9F0470E46050065D0DFF81481D8F88F
:101A40000000F7B200F00F00B04207D288F8007033
:101A5000D8F8000000F00F00B04254D128683D4C87
:101A6000810712D5400703D5206840F4E05020607C
:101A70002878000703D5206840F460402060206883
:101A8000A96820F0F000084320602878C0072DD016
:101A9000304968680839012812D0022813D0032879
:101AA00011D00968890700292DDA216821F0030186
:101AB00001432160FFF7E4FE814641F2883A0EE0DF
:101AC00009688903EFE709688901ECE7FFF7D8FEA9
:101AD000A0EB0901514502D90320BDE8F087206839
:101AE000696800F00C00B0EB810FEFD1D8F800105E
:101AF000404601F00F01B14207D90770006800F0BD
:101B00000F00B04201D00120E7E72878400705D553
:101B10002068E96820F4E050084320602878000736
:101B200006D52068296920F4604040EAC1002060A1
:101B300000F038F82168084AC1F30311515CC8402D
:101B40000649086006480068FFF7C2FE0020C4E7A7
:101B5000003C024008380240BA3C00085C0000200B
:101B6000540000200448054900680968044AC1F38C
:101B70008221515CC84070475C0000200838024058
:101B8000CA3C00080448054900680968044AC1F3D2
:101B90004231515CC84070475C0000200838024068
:101BA000CA3C0008154810B5006810F00C02144833
:101BB00013D01449042A0FD0082A0ED10F4C241F29
:101BC0002268236802F03F025B0207D52068C0F359
:101BD0008810A0FB010106E0084610BD2168C1F392
:101BE0008811A1FB00010023FEF7FCFA2168C1F374
:101BF0000141491C4900B0FBF1F010BD083802401A
:101C00000024F400001BB7002DE9F84F04006ED04B
:101C10002078DFF84C93C007A9F104054AD009F1F8
:101C200004000168C1F38101012908D00068C0F3F4
:101C3000810002280AD1D9F80000400206D52868A0
:101C4000800337D560680028E1D033E06068B0F5E4
:101C5000803F10D0B0F5A02F286810D020F480303D
:101C60002860286820F4802028606068A8B1FFF709
:101C700007FE06460DE0286840F48030F4E740F4A3
:101C800080202860F7E700BFFFF7FAFD801B64287B
:101C900073D828688003F7D50CE0FFF7F1FD0646FE
:101CA00005E000BFFFF7ECFD801B6428F0D8286832
:101CB0008003F7D42078DFF8AC8280074FF0000A69
:101CC0003ED5A748001D016811F00C0F08D0006830
:101CD000C0F3810002280BD1D9F80000400207D4DC
:101CE0002868800716D5E068012800D112E033E1AA
:101CF000E068B8B10120C8F80000FFF7C1FD064652
:101D000005E000BFFFF7BCFD801B0228C0D8286893
:101D10008007F7D52868216920F0F80040EAC10063
:101D200028600DE0C8F800A0FFF7AAFD064604E011
:101D3000FFF7A6FD801B02281FD828688007F7D46C
:101D40002078000722D5864F87486169703771B1C6
:101D500001210160FFF794FD064604E0FFF790FDC6
:101D6000801B022809D838688007F7D50EE0C0F834
:101D700000A0FFF785FD064605E082E0FFF780FD45
:101D8000801B02287DD838688007F7D42078400768
:101D900068D5DFF8CCB100270BF13C0BDBF8000075
:101DA000C0000BD4DBF8001041F08051CBF80010DC
:101DB000DBF80000012700F0805000906B4E306887
:101DC000C00510D4306840F480703060FFF758FDD3
:101DD000009005E0FFF754FD0099401A022850D802
:101DE0003068C005F6D55E4EA0686C3601280FD06D
:101DF0000528306810D020F001003060306820F0F5
:101E000004003060A068B8B1FFF73AFD00900FE021
:101E1000306840F00100F4E740F004003060F7E77C
:101E2000FFF72EFD0099411A41F28830814266D8B1
:101E300030688007F4D50EE0FFF722FD009007E040
:101E4000FFF71EFD0099411A41F28830814256D8B1
:101E500030688007F4D42FB1DBF8001021F08051F6
:101E6000CBF80010A069C8B33D49091D0968C1F34A
:101E7000810102294AD00228504607D0C8F86000E4
:101E800000E03CE0FFF7FCFC04463BE04746C8F8B6
:101E90006000FFF7F5FC064605E000BFFFF7F0FC29
:101EA000801B02282BD828688001F7D4D4E90701C9
:101EB0000843A16A2E4A490802EB0141626A41EADD
:101EC0008211084394F82C1040EA0161C9F800100F
:101ED00001203866FFF7D4FC044606E03EE000BF70
:101EE000FFF7CEFC001B022809D828688001F7D52F
:101EF00034E000BFFFF7C4FC001B022802D9032016
:101F0000BDE8F88F28688001F4D427E00128F7D0D5
:101F1000D9F80000E26900F4800191421CD1226AE4
:101F200000F03F01914217D147F6C071626A01404B
:101F3000B1EB821F10D1A26A4FF0FF3300F44031A1
:101F400003EB5202B1EB024F06D194F82C1000F0D3
:101F50007060B0EB016F01D00120D1E70020CFE726
:101F60000438024000004742800E474200700040A3
:101F70000000FFFF10B5401EB0F1807F01D30120AB
:101F800010BD4FF0E02460610F21601701F0BFF930
:101F90000020A06107202061002010BD704770471D
:101FA000F8B5016804460868CA684B6910F00F0F5D
:101FB0004FF0000559D003F0010602F49077374343
:101FC00065D0C10705D0D10503D5616C41F0010191
:101FD0006164410705D5D90703D0616C41F0020166
:101FE0006164810705D5D90703D0616C41F0040114
:101FF0006164010707D502F02001314303D0616C11
:1020000041F008016164616C00293AD0800604D572
:10201000900602D5204600F0DAFF20684069616C26
:10202000C0F38010090700D460B3204600F0A8FF79
:1020300020684069400621D52068143050E8001F10
:1020400021F0400140E80012002AF5D1E06BA8B170
:102050006E490165E06BFFF7BBFA002811D0E06B19
:10206000016D01B0BDE8F040084783060FD5930627
:102070000DD52046BDE8F84000F0A9BF2046FFF787
:102080008EFFF8BD2046FFF78AFF6564F8BD266B1A
:102090002023012E7DD1C6067BD5D60679D50868CA
:1020A0004868009048694FF00206400641D5E16B50
:1020B000086840680004000CE8D0A28D8242E5D98F
:1020C000E085C869B0F5807F2DD020680C3050E8DD
:1020D000001F21F4807140E80012002AF5D1206829
:1020E000143050E8001F21F0010140E80012002ADE
:1020F000F5D12068143050E8001F21F0400140E87D
:102100000012002AF5D184F84230256320680C3093
:1021100050E8001F21F0100140E80012002AF5D11C
:10212000E06BFFF70CFA6663A08DE18D401A81B277
:102130002AE0A08DE18D401A81B2E08D0028A5D063
:102140000029A3D022680C3252E8000F20F49070CE
:1021500042E80007002FF5D12068143050E8002F26
:1021600022F0010240E80027002FF5D184F8423028
:10217000256320680C3050E8002F22F0100240E860
:102180000023002BF5D166632046FFF707FFF8BD5B
:10219000FFE705062BD5150629D594F8410021281F
:1021A000F5D1A068B0F5805F01D12069B0B1206A97
:1021B000411C2162216800784860E08C401E0004C8
:1021C000000CE084E3D12068C16821F08001C16087
:1021D0002068C16841F04001C160D8E7206A0088EA
:1021E000C0F308004860206A801C2062E5E74006D2
:1021F000CDD55006CBD5CA68204622F04002CA6031
:1022000084F8413000F0D4F8C1E70000712F0008D5
:1022100070B5040004D094F84100002510B106E028
:10222000012070BD84F84050204600F023F824209F
:1022300084F841002068C16821F40051C160204643
:1022400000F026FF2068016921F4904101612068B7
:10225000416921F02A0141612068C16841F40051BF
:10226000C1606564202084F8410084F84200656301
:10227000002070BD70B586B0044614216846FDF795
:10228000E9FF2A4E22682A48032102230124082557
:10229000B24220D1264A1032166846F00046166037
:1022A000126802F000420592026842F010020260D9
:1022B000006800F0100005908DE81A00CDE90315C4
:1022C00069461C48FFF7BCF9002211465320FFF76E
:1022D00045FB532025E0184EB24224D1144A143253
:1022E000166846F020061660126802F02002059279
:1022F000026842F0400202600068CDE9024100F04D
:10230000400005904FF48440CDE9000304956946F0
:102310000A48FFF795F9002211464720FFF71EFBF8
:102320004720FFF70DFB06B070BD0000007C0040A9
:1023300030380240001002400014014000180240F2
:1023400090F84230202B01D00220704721B11AB101
:102350000023036300F022BF0120704710B504463C
:1023600000680D49884206D100F03AFF18220B4957
:102370000B48FFF7E5FF0B49206888420AD10A485D
:10238000007800F017F8BDE8104001220649074820
:10239000FFF7D6BF10BD00000014014098080020D0
:1023A00018010020007C004025000020D000002003
:1023B0007047FEE72DE9F041594E584C00272DEDAE
:1023C000048B31786054491CC8B23070217855298B
:1023D0003CD10B287DD360789FED528B04F1FC0536
:1023E000512804D0522832D05328F1D15FE0B4F9FB
:1023F0000200FDF7ACFF53EC182BFDF736FF9FED05
:102400004B9B53EC192BFDF730FFFDF7B1FF286014
:10241000B4F90400FDF79BFF53EC182BFDF725FFE3
:1024200053EC192BFDF721FFFDF7A2FF6860B4F90B
:102430000600FDF78CFF53EC182BFDF716FF53EC4D
:10244000192BFDF712FFFDF793FFA86060E0B4F9C8
:102450000200FDF77CFF53EC182BFDF706FF9FED04
:10246000359B53EC192BFDF700FFFDF781FFE8606A
:10247000B4F90400FDF76BFF53EC182BFDF7F5FEE4
:1024800053EC192BFDF7F1FEFDF772FF2861B4F94B
:102490000600FDF75CFF53EC182BFDF7E6FE53EC4E
:1024A000192BFDF7E2FEFDF763FF686130E0B4F938
:1024B0000200FDF74CFF53EC182BFDF7D6FE9FED05
:1024C0001F9B53EC192BFDF7D0FEFDF751FFA861C0
:1024D00000E01EE0B4F90400FDF739FF53EC182BBF
:1024E000FDF7C3FE53EC192BFDF7BFFEFDF740FFD0
:1024F000E861B4F90600FDF72AFF53EC182BFDF74D
:10250000B4FE53EC192BFDF7B0FEFDF731FF286246
:102510003770BDEC048BBDE8F0810000500700204F
:1025200024000020000000000000003F0000000028
:10253000000030400000000000409F40000000000C
:1025400000806640014900200870704700000020AC
:10255000054B4FF48041012803D001221846FFF7B4
:1025600089B90022FAE700000014024010B50020EB
:1025700000F006F8BDE810400020FFF7E9BF0000BA
:10258000054B4FF40061012803D001221846FFF7E4
:1025900071B90022FAE70000001002407FB5002464
:1025A00015480094019402941249039401604FF479
:1025B0008031C0E9011401250461057680F82040CE
:1025C0000E49C0E90A14C561C46080F83040456115
:1025D000FEF717FB08B1FEF730F90620CDE900053C
:1025E000694602940448FEF7A9F9002801D0FEF7D5
:1025F00024F97FBD00200140600000200100000F91
:102600000F4810B50D4901600521416000214FF4CC
:1026100000328160C0E903125201426101764176C5
:102620008176C17601774177FEF743FE002803D01B
:10263000BDE81040FEF701B910BD00000064004085
:10264000A80000202DE9F04F87B014216846FDF75F
:1026500001FE4F480026016841F010010160016849
:1026600001F010010591016841F04001016001682D
:1026700001F040010591016841F00201016001682B
:1026800001F002010591016841F00101016001685A
:1026900001F001010591016841F008010160016844
:1026A00001F008010591016841F0800101600168B5
:1026B00001F080010591016841F02001016000688E
:1026C000DFF8D09000F020004FF4C16405900022A4
:1026D00021464846FFF7CEF8DFF8BCA000223C2197
:1026E0005046FFF7C7F8DFF8B4B04FF40067002298
:1026F00039465846FFF7BEF8002280212848FFF7E8
:10270000B9F84FF48048002241462648FFF7B2F856
:10271000009401240225694648460194CDE902450A
:10272000FEF78EFF3C208DE8710069465046FEF7AB
:1027300087FF042000904FF48810CDE90105694619
:102740004846FEF77DFFCDE90074CDE902466946B3
:102750005846FEF775FF8020CDE900046946104811
:10276000CDE90245FEF76CFFCDE90084CDE90246D4
:1027700069460C48FEF764FF002211460820FFF767
:10278000EDF80820FFF7DCF807B0BDE8F08F000097
:102790003038024000040240001C02400010024099
:1027A00000000240001402400C4810B50A490160C4
:1027B0004FF416514160002181600C22C160C0E9D4
:1027C00004128161C161FFF723FD002803D0BDE839
:1027D0001040FEF732B810BD007C0040D000002051
:1027E0000C4810B50A4901604FF4E1314160002105
:1027F00081600C22C160C0E904128161C161FFF7F0
:1028000007FD002803D0BDE81040FEF716B810BD44
:102810000014014018010020FEE780ED080A90ED49
:10282000091A80ED0A1AD0ED0B0AC0ED0C0AD0EDA2
:10283000010A30EEC00A80ED090AD0ED0F1AF0EE61
:10284000C00AF4EEE10AF1EE10FA47DDD0ED020A1B
:1028500060EE801AC0ED051AD0ED060A90ED032A4D
:1028600042EE000A30EE410AC0ED060A90ED041A6D
:1028700020EE011A80ED071A90ED0E0AB1EE402A03
:10288000F4EEC20AF1EE10FA01D280ED062AD0ED84
:10289000060AF4EEC00AF1EE10FA02DCB0EE600AAD
:1028A00001E080ED060A31EE800A30EE011A80ED7B
:1028B0000B1A90ED0D0AF1EE400AB4EEE01AF1EEBB
:1028C00010FA02D3F0EE410A01E0C0ED0B0AF4EE7B
:1028D000C00AF1EE10FA01DD80ED0B0A90ED0B0A53
:1028E0007047000003494164034981640349C1649E
:1028F0007047000001290008492900081B2800082A
:1029000010B5039C0170D4ED000AC0ED020AD4EDAD
:10291000010AC0ED030AD4ED020AC0ED040A00EE7C
:10292000902AF8EE600AC0ED0D0A00EE903AF8EE3B
:10293000600AC0ED0E0A80ED0F0A9FED020A80EDDD
:102940000B0A10BD0000000091ED000A80ED020AA4
:1029500091ED010A80ED030A91ED020A80ED040A6F
:102960007047000010B5FDF78BFE064A002100BF3E
:1029700001EB810002EBC000FDF7D2FF491C0429E6
:10298000F6DB10BD6005002030B587B0002406944A
:1029900002940394082404944FF400750A4C0095A3
:1029A000050A25706070080AA070E170100A207195
:1029B0006271180AA071E37106AB224669460348AA
:1029C000FEF71AFA07B030BD0D000020A800002065
:1029D00070B59FED2A2A2A4C2A4D20EE020A84ED7A
:1029E000010A20EE820A84ED150A21EE020A84ED26
:1029F000290A21EE820A84ED3D0A2868E16C90EDF7
:102A0000010A204688476868D4F89C1090ED010AB6
:102A100004F150008847A868D4F8EC1090ED010A42
:102A200004F1A0008847E868D4F83C1190ED010A51
:102A300004F1F000884794ED470ABDEEC00A10EE9D
:102A4000100A94ED330A03B2BDEEC00A10EE100A6C
:102A500094ED1F0A02B2BDEEC00A10EE100A94ED0A
:102A60000B0A01B2BDEEC00A10EE100A00B2FFF769
:102A70008BFFBDE870400120FEF7BCBD2CA0994142
:102A80001006002000060020FEE700000148FEF7C7
:102A90001BB900006000002010B50021074C0A4659
:102AA000002004EBC1131A54401CC0B28028FAD392
:102AB000491CC9B20829F3D310BD000060010020F1
:102AC000F0B57F282AD83F2928D88418802C02D92D
:102AD000C0F18002D2B2CC18402C02D9C1F140031F
:102AE000DBB20126DFF838E087180B4414E001F070
:102AF000070206FA02F5CA0804460EEBC21207E006
:102B000012F804C02CEA050C02F804C0641CE4B2FC
:102B1000A742F5D8491CC9B28B42E8D8F0BD0000E5
:102B20006001002010B5002000F022F9012000F023
:102B300027F9012000F034F9012000F029F9AE2036
:102B400000F036F9002000F033F9102000F030F9E1
:102B5000D52000F02DF9802000F02AF9A82000F0FF
:102B600027F93F2000F024F9D32000F021F90020BC
:102B700000F01EF9402000F01BF9A12000F018F928
:102B8000C82000F015F9DA2000F012F9122000F048
:102B90000FF9812000F00CF9CF2000F009F9D920BD
:102BA00000F006F9F12000F003F9DB2000F000F955
:102BB000402000F0FDF8A42000F0FAF8A62000F074
:102BC000F7F88D2000F0F4F8142000F0F1F8AF20B1
:102BD00000F0EEF8FFF760FFBDE8104000F0B4B879
:102BE00070B500240646802525FA04F0304000D058
:102BF000012000F0C5F8012000F0BAF8002000F034
:102C0000B7F8641CE4B2082CEED370BD10B5891C73
:102C1000CCB240F0B00000F0CBF8102040EA141025
:102C200000F0C6F804F00F00BDE8104000F0C0B896
:102C300008B5082B0DD0062B0AD10A4B02EB420235
:102C400003EB4202C03A00920823062200F00EF87D
:102C500008BD054B03EB0212A2F50072102300928F
:102C60000822F3E790340008CA3600082DE9FC4F2B
:102C70001F4615460C4606467F284BD83F2C49D8A0
:102C8000FFF71EFF791ECA17002001EB52710122C7
:102C9000DFF884B004F0070902EBE10238E000231A
:102CA00032E0F1187F2931D800EBD40ABAF1070FCE
:102CB00030D80BEBCA1E1EF8017010FB05FCCDF8D6
:102CC00004C0DDF82C809844CDF800801CF808C0C2
:102CD0000CFA09FC47EA0C070EF801700AF101072B
:102CE000072F0FD80EEB0108DDE900C198F88070BE
:102CF00011F80CC0C9F108012CFA01FC47EA0C07D5
:102D000088F880705B1CDBB2AB42CAD3401CC0B2F7
:102D10008242C4DCBDE8FC8F600100202DE9F04157
:102D20001E46154688460746002408E014FB067038
:102D3000C0B233464146FFF77BFF641CE4B22A5D14
:102D4000002AF3D1BDE8F08170B5084D00240021C0
:102D50002046FFF75BFF05EBC410802100F032F83E
:102D6000641CE4B2082CF2D370BD000060010020A6
:102D7000024608210148FEF77DBD00000004024024
:102D8000024680210148FEF775BD000000000240A8
:102D900002464FF400710148FEF76CBD000402408A
:102DA00002464FF480610148FEF764BD0004024012
:102DB00010B504460020FFF7EBFF2046BDE81040A9
:102DC000FFF70EBF70B506460D460120FFF7E0FF86
:102DD000002404E0305DFFF703FF641CE4B2AC4262
:102DE000F8D370BD7047000010B50B4C01220421D0
:102DF0002046FEF73FFD012208212046FEF73AFD5E
:102E0000012210212046FEF735FD20460122BDE8B3
:102E100010402021FEF72EBD001C024030EE203A6B
:102E2000DFED1B1A9FED1B2A30EE600AF0EE432AFD
:102E300001EE213A41EE612AF0EE400A01EE210A4C
:102E400041EE610A1548C2EE823ADFED132A80EEA8
:102E5000824A63EEA23AC0ED003A114880EE021AAF
:102E600064EE220AC0ED000A0E4883EE024A21EE0B
:102E7000220AF1EE401A24EE223A80ED003A0A4886
:102E8000B1EE431A80ED000AB0EE630AFFF7A0BD71
:102E9000CDCC8C3EE3A51B3E0000704230000020EC
:102EA00034000020380000203C0000207047FEF76E
:102EB000EDBC000030B593B030216846FDF7CAF98B
:102EC00014210CA8FDF7C6F920480025016841F03F
:102ED00080510160006800F0805011901C4801682A
:102EE00041F4404101600068022400F44040119028
:102EF00001200090000401908001CDE906400620E9
:102F00000890B420CDE9090404200B906846FEF730
:102F10007BFE08B172B6FEE7FEF752FD08B172B64D
:102F2000FEE70CA90F2081E831004FF4A0500F906C
:102F30004FF48050109005210CA8FEF779FD002871
:102F400001D072B6FEE713B030BD00004038024039
:102F5000007000400248016841F470010160704750
:102F600088ED00E00148FFF71BB80000D00000200A
:102F700010B5806B0021C185C184FFF710F810BD2A
:102F800001680C3151E8002F22F4907241E80023CF
:102F9000002BF5D10168143151E8002F22F0010215
:102FA00041E80023002BF5D1016B012909D101680B
:102FB0000C3151E8002F22F0100241E80023002BD1
:102FC000F5D1202180F8421000210163704708B537
:102FD00090F84210222901D0022008BD82684FF4E7
:102FE00080539A4201D1016921B1816A9A421BD072
:102FF0004AB10AE00268816A5268C2F308020A8094
:10300000816A891C08E0026972B10268526802F0A4
:103010007F020A70816A491C8162C18D491E0904C0
:10302000090CC18503D01BE002685268F1E7016812
:10303000CA6822F02002CA600168CA6822F480725D
:10304000CA6001684A6922F001024A61202180F8C1
:10305000421000214163026B012A03D0FFF77EF981
:10306000002008BD016301680C3151E8002F22F0F7
:10307000100241E80023002BF5D101680A68D2064E
:1030800002D50A6849680091818DFEF787FFE7E75E
:1030900070B5044600680169E26821F440511143AB
:1030A00001612169A068E26908436169114308432D
:1030B0002168CA6849F20C639A430243CA602068D7
:1030C0004169A26921F4407111434161314920688D
:1030D000884202D03049884202D1FEF753FD01E018
:1030E000FEF740FDE2690023192164253226B2F57E
:1030F000004F626828D0A0FB0101930F9200FDF7FA
:1031000071F80146B0FBF5F06FF01802504301EB87
:10311000800006EB0010B0FBF5F000F0F002B1FB10
:10312000F5F002EB0012B1FBF5F06FF01803584315
:1031300001EB800006EB0010B0FBF5F000F00F0093
:1031400021681044886070BDA0FB010192185B41AA
:10315000FDF748F80146B0FBF5F00201B1FBF5F0D0
:103160006FF01803584301EB800006EBC000B0FB82
:10317000F5F000F0F80002EB4002B1FBF5F0584327
:1031800001EB800006EBC000B0FBF5F000F007009B
:10319000D6E70000001001400014014081628285E2
:1031A000C28500214164222180F84210016921B1C9
:1031B0000168CA6842F48072CA6001684A6942F0D4
:1031C00001024A610068C16841F02001C16000202D
:1031D000704700000148FEF7E3BE00001801002020
:1031E0003A4801787B2970D182781306C2F3011125
:1031F00005D5494200EE101AB8EEC00A03E000EE11
:10320000101AB8EE400A02F00F0280ED070AC178EA
:1032100041EA022100EE101A2E49B8EE401A9FED45
:103220002C0AC1EE000AC0ED080A90ED071A71EEF3
:10323000200AC1ED000A02791306C2F3011105D577
:10324000494200EE901AF8EEE00A03E000EE901A10
:10325000F8EE600A02F00F02C0ED090A417941EA76
:10326000022100EE901A1C49B8EE601AC1EE000A65
:10327000C0ED0A0A90ED091A71EE200AC1ED000AAC
:1032800082791306C2F3011105D5494200EE901A66
:10329000F8EEE00A03E000EE901AF8EE600A02F0A1
:1032A0000F02C0ED0B0AC17941EA022100EE901A2B
:1032B000B8EE601AC1EE000AC0ED0C0A90ED0B0AE0
:1032C000064830EE200A80ED000A7047980800207A
:1032D00000007A4440000020440000204800002004
:1032E00003490860081F01684906FCD570470000C3
:1032F0000414014000B5044B0022985CFFF7F0FF76
:10330000521C182AF9DB00BD70080020FEE70907EF
:10331000090E002804DB00F1E02080F8001470475B
:1033200000F00F0000F1E02080F8141D704702E06B
:1033300008C8121F08C1002AFAD170477047002040
:1033400001E001C1121F002AFBD170471CB5FEF736
:10335000A5FAFFF7AFFDFFF775F9FFF71FF9FFF7C4
:103360004FF9FFF73DFAFFF71FFAB420FDF75CFABB
:10337000FFF7FCF8FFF7E6F8FFF7D4FBFFF786FB53
:10338000FFF732FDFFF7EEFA0025314EDFF8C4807B
:103390002F4641F288394FF4804A00BF05EB850083
:1033A00006EB00142046FFF79DFACDE90078204691
:1033B000646CB2EE040A4B4652460121A0476D1CD4
:1033C000042DEBDB0020FDF7A1FA234C2060012047
:1033D000FDF79CFA60600220FDF798FAA0600320D8
:1033E000FDF794FAE0606420FEF704F918221B4907
:1033F0001B48FEF7A5FF01221A491B48FEF7A0FF54
:103400000021082319A20846FFF788FC082319A207
:1034100010210020FFF782FC082318A220210020A1
:10342000FFF77CFCFFF790FC164C174D174E00BFC2
:1034300094ED001AD5ED000A96ED000AFFF7EEFCB8
:10344000FDF73AF9FFF756FF0A20FEF7D3F8EFE74A
:103450001006002018000020000600209808002018
:103460001801002025000020D0000020416E675F79
:10347000583A0000416E675F593A0000416E675F3D
:103480005A3A00004800002044000020400000207C
:103490000000000000000000002F000000000700F6
:1034A000070000147F147F1400242A7F2A120023AF
:1034B00013086462003649552250000000070000DE
:1034C00000001C224100000041221C000014083EA4
:1034D00008140008083E0808000000A0600000086A
:1034E00008080808000060600000002010080402BE
:1034F000003E5149453E0000427F4000004261517C
:103500004946002141454B31001814127F10002715
:1035100045454539003C4A494930000171090503D8
:1035200000364949493600064949291E0000363609
:10353000000000005636000000081422410000146C
:103540001414141400004122140800020151090649
:10355000003E4955592E007C1211127C007F4949CA
:103560004936003E41414122007F4141221C007FFB
:1035700049494941007F09090901003E4149497A09
:10358000007F0808087F0000417F41000020404183
:103590003F01007F08142241007F40404040007FEF
:1035A000020C027F007F0408107F003E4141413E33
:1035B000007F09090906003E4151215E007F09197B
:1035C00029460046494949310001017F0101003F78
:1035D0004040403F001F2040201F003F4038403FF8
:1035E000006314081463000708700807006151495C
:1035F000454300007F414100000204081020000004
:1036000041417F000004020102040040404040406C
:10361000000001020400002054545478007F484404
:10362000443800384444442000384444487F00383B
:103630005454541800087E0901020018A4A4A47C64
:10364000007F080404780000447D4000004080842E
:103650007D00007F102844000000417F4000007C76
:1036600004180478007C0804047800384444443882
:1036700000FC242424180018242418FC007C0804CE
:10368000040800485454542000043F444020003CA7
:103690004040207C001C2040201C003C4030403C2E
:1036A000004428102844001CA0A0A07C00446454BE
:1036B0004C440000087F41000000007F0000000033
:1036C000417F080000080408100800000000000006
:1036D00000000000000000000000000000F80000F2
:1036E0000000000000333000000000160E00160E2F
:1036F0000000000000000000000040C07840C078DA
:103700004000043F04043F040400007088FC0830BB
:103710000000001820FF211E0000F008F000E01853
:10372000000000211C031E211E0000F0088870000C
:1037300000001E21232419272110000000160E006E
:1037400000000000000000000000000000E018047D
:103750000200000000071820400000020418E000EA
:1037600000000040201807000000404080F080402A
:1037700040000202010F01020200000000F0000000
:1037800000000101011F0101010000000000000014
:10379000000000B070000000000000000000000009
:1037A0000000000101010101010100000000000012
:1037B00000000030300000000000000000008060C9
:1037C0001804006018060100000000E0100808104E
:1037D000E000000F102020100F00001010F8000073
:1037E00000000020203F202000000070080808880A
:1037F00070000030282422213000003008888848DA
:1038000030000018202020110E000000C02010F809
:10381000000000070424243F240000F808888808DA
:1038200008000019212020110E0000E010888818DF
:103830000000000F112020110E0000380808C838C1
:1038400008000000003F00000000007088080888A1
:103850007000001C222121221C0000E0100808102A
:10386000E0000000312222110F00000000C0C00063
:1038700000000000003030000000000000C0C00068
:103880000000000080B070000000000080402010A8
:103890000800000102040810200040404040404061
:1038A00040000404040404040400000810204080C4
:1038B00000000020100804020100007048080808F9
:1038C000F0000000003036010000C030C828E810C9
:1038D000E0000718272423140B000000C038E00084
:1038E0000000203C23020227382008F888888870CE
:1038F0000000203F202020110E00C03008080808DA
:103900003800071820202010080008F808080810C0
:10391000E000203F202020100F0008F88888E808E9
:103920001000203F20202320180008F88888E8088D
:103930001000203F200003000000C03008080838B5
:10394000000007182020221E020008F808000008C6
:10395000F808203F210101213F20000808F808084D
:1039600000000020203F2020000000000808F80888
:103970000800C08080807F00000008F888C02818F8
:103980000800203F20012638200008F80800000029
:103990000000203F20202020300008F8F800F8F830
:1039A0000800203F003F003F200008F830C000081A
:1039B000F808203F200007183F00E0100808081012
:1039C000E0000F10202020100F0008F80808080859
:1039D000F000203F210101010000E010080808105C
:1039E000E0000F18242438504F0008F88888888891
:1039F0007000203F2000030C302000708808080869
:103A000038000038202121221C00180808F8080876
:103A100018000000203F2000000008F808000008FF
:103A2000F808001F202020201F000878880000C808
:103A30003808000007380E010000F80800F80008F8
:103A4000F800033C0700073C030008186880806802
:103A5000180820302C03032C30200838C800C83840
:103A600008000000203F2000000010080808C838A7
:103A700008002038262120201800000000FE020245
:103A800002000000007F40404000000C30C00000F9
:103A90000000000000010638C00000020202FE0023
:103AA0000000004040407F00000000201008040893
:103AB00010200000000000000000000000000000D6
:103AC00000008080808080808080000204080000E8
:103AD00000000000000000000000000080808080E6
:103AE00000000019242222223F2008F800808000D4
:103AF0000000003F112020110E0000000080808097
:103B00000000000E1120202011000000008080889D
:103B1000F800000E112020103F20000080808080DF
:103B20000000001F222222221300008080F08888DB
:103B300088180020203F2020000000008080808026
:103B40008000006B94949493600008F8008080805B
:103B50000000203F210000203F20008098980000B6
:103B600000000020203F20200000000000809898E6
:103B7000000000C08080807F000008F80000808086
:103B80008000203F24022D302000000808F80000AB
:103B900000000020203F2020000080808080808066
:103BA0008000203F20003F20003F00808000808078
:103BB000000000203F2100203F2000008080808006
:103BC0000000001F202020201F0080800080800037
:103BD000000080FFA12020110E00000000808080E6
:103BE0008000000E112020A0FF8080808000808057
:103BF000800020203F212000010000008080808084
:103C000080000033242424241900008080E0808078
:103C100000000000001F20200000808000000080C5
:103C20008000001F202020103F2080808000008026
:103C3000808000010E300806010080800080008036
:103C400080800F300C030C300F00008080008080DB
:103C500080000020312E0E31200080808000008006
:103C6000808080818E7018060100008080808080B6
:103C700080000021302C2221300000000000807CD8
:103C8000020200000000003F404000000000FF0072
:103C9000000000000000FF0000000002027C800025
:103CA00000000040403F00000000008040408000D5
:103CB0000080000000000001010000000000000082
:103CC00000000102030406070809000000000102C9
:103CD00003040000F43C0008000000206000000025
:103CE0002E330008543D000860000020700C0000D6
:103CF0003E3300080000000000000000000000004B
:103D00000000000000000000000000000000404033
:103D1000CDCCCC3D00000000000000000000000001
:103D20000000000000000000000000000000000093
:103D30000000000000000000000000000000000083
:103D40000000000001000000100000000000000062
:043D50000024F40057
:04000005080001AD41
:00000001FF
